S00D00004E6F6465322E737265635F
S1130000C2C00000E0C00000DEC00000DCC0000090
S1130010DAC00000D8C0000009C10000D4C000004C
S1130020D2C00000D0C00000CEC00000CCC0000090
S1130030CAC00000C8C00000C6C00000C4C00000A0
S1130040C2C00000C0C00000BEC00000BCC00000B0
S1130050BAC00000CBC10000B6C00000B4C00000AC
S1130060B2C00000B0C00000AEC00000ACC00000D0
S1130070AAC00000A8C00000A6C00000A4C00000E0
S1130080A2C00000A0C000009EC000009CC00000F0
S11300909AC0000098C0000096C000004CC7000041
S11300A092C0000090C000008EC000008CC0000010
S11300B08AC0000088C0000086C0000084C0000020
S11300C082C0000080C000007EC000007CC0000030
S11300D07AC0000078C0000076C0000074C0000040
S11300E072C00000B60708080808080808080808CD
S11300F008080808B60708080808080808080808CF
S113010008080808B80708080808080808080808BC
S1130110080808080808080808080808080808085B
S113012008080808B807080808080808080808089C
S1130130080808080808080808080808080808083B
S1130140080808080408080808080808080808082F
S113015008080808E1070808080808080808080843
S1130160080808080808080808080808080808080B
S113017008080808D507080808080808080808082F
S113018008080808F30711241FBECFEFD1E2DEBF31
S1130190CDBF00E00CBF13E0A0E0B2E0E4E5FEE177
S11301A000E00BBF02C007900D92AA37B107D9F740
S11301B023E0AAE7B3E001C01D92AC3AB207E1F72D
S11301C06BD70C94280F1CCFEAE7F0E0808180689D
S11301D08083808184608083808182608083808149
S11301E081608083ECE7F0E08081806480830895FF
S11301F0CF938CE2E9D1C82F80FF0AC040E061E0D0
S11302008CE2EFD121E030E030937D0320937C0336
S1130210C1FF0AC040E062E08CE2E3D181E090E0FB
S113022090937B0380937A03CF9108951F920F924A
S11302300FB60F9211240BB60F922F933F934F9347
S11302405F936F937F938F939F93AF93BF93EF933A
S1130250FF93F894CDDF7894FF91EF91BF91AF9124
S11302609F918F917F916F915F914F913F912F91CA
S11302700F900BBE0F900FBE0F901F901895ED9826
S1130280EAE6F0E08081877F808380818B7F8083B2
S1130290ED9AC0D14FEF64E680E6A3D14FEF60E65C
S11302A080E79FD143E063E08BE29BD140E060EEC6
S11302B08FE097C10895DF92EF92FF920F931F93FF
S11302C0CF93DF938C01F89480917C0390917D030C
S11302D0892B39F010927D0310927C03C0E0D0E0AA
S11302E011C080917A0390917B03892B39F010928D
S11302F07B0310927A03C1E0D0E004C0F8011282BB
S1130300789444C08FE39CE90197F1F700C00000A2
S1130310FC2EFF0CFF0CFF0CFF0C81E68F0D54D15B
S1130320E82E82E68F0D50D12E2D30E0220F331FA0
S1130330220F331F220F331F829586958770280F53
S1130340311DF8013183208385E68F0D3DD18770FF
S1130350F80182838823C9F07E01EE0CFF1CEE0CA9
S1130360FF1CEE0CFF1CEE0CFF1CD12CCD2DD0E09D
S1130370CE018A599F4F8E0D27D1C00FD11F8B8379
S1130380D394F8018281D81688F37894DF91CF91C1
S11303901F910F91FF90EF90DF9008950F931F939B
S11303A0CF93DF93CDB7DEB72B970FB6F894DEBFAC
S11303B00FBECDBF8C011B82CE0101967CDF8B81E9
S11303C08823D1F38BE0FE013196D80101900D9280
S11303D08A95E1F7C8012B960FB6F894DEBF0FBEDD
S11303E0CDBFDF91CF911F910F9108951F920F926E
S11303F00FB60F9211248F939F9380918E03909147
S11304008F0301960E9734F480918E0390918F039D
S1130410019602C08DE090E090938F0380938E0349
S113042080918A0390918B030196079734F480910D
S11304308A0390918B03019602C086E090E090932A
S11304408B0380938A0381E090E0909391038093DF
S113045090039F918F910F900FBE0F901F9018954E
S113046084B5826084BD85B5816085BD85B58460B1
S113047085BD8AEE87BDEEE6F0E0808182608083F0
S11304800895CF93DF93CDB7DEB72B970FB6F894CB
S1130490DEBF0FBECDBF182F10928D0310928C03B8
S11304A010928B0310928A030F2EFAE0EF2EF12C98
S11304B0F02D0F2EFBE18F2EF2E09F2EF02DCE01BA
S11304C001966CDFCC80BF80888520918E033091AB
S11304D08F032D30310539F482FF05C085D4109285
S11304E08F0310928E038B2D2FD420918A03309189
S11304F08B032630310541F580918C0390918D0357
S1130500019690938D0380938C0310928B03109229
S11305108A0380918C0390918D0320918C033091F8
S11305208D03B701DDD79F938F93C901B701D8D746
S11305307F936F939F928F920E940E0B0F900F9058
S11305400F900F900F900F90209190033091910392
S1130550232B09F4B4CF109291031092900311232A
S113056019F0113039F0ABCF8C2D992787FD909578
S113057088D0A5CF6C2D772767FD7095872F972F8F
S113058098D60ED39CCF20CE0895CF93C82FA7D44E
S11305907894CC0FC05BC0937E03CF910895CF9322
S11305A0DF9300D0CDB7DEB790917E039983880F97
S11305B08A836B8363E0CE0101969BD40F900F90E6
S11305C00F90DF91CF910895CF93C82F33D483E058
S11305D025D48C2F23D427D4C82F2ED48C2FCF915D
S11305E008951F93CF93DF93182FD62FC42F22D4AF
S11305F085E014D4812F12D48D2F10D48C2F0ED4D7
S11306001BD4DF91CF911F91089514D480EC06D4AC
S113061013C40895F5D3F9DF8FE891E00197F1F75A
S113062000C000008EE0D0DF807E803831F08CE2A4
S113063092E00E941F0B81E0089580E00895E2E0BB
S1130640F1E08081806180830895811106C0E2E039
S1130650F1E080818D7F80830895E2E0F1E0808184
S1130660826080830895682F70E080E090E021D656
S113067021EE3AE744EE5FE3D0D6EDD580E08FCFAC
S11306800895CF93DF93C82FD92FCC398FEFD80794
S113069014F4CCE9DFEF892F8095881F8827881F01
S11306A0D4DFC536D10514F0C4E6D0E0CE01DD2395
S11306B024F4882799278C1B9D0BD5DFDF91CF91DC
S11306C00895E2E0F1E080818F7D80838081877FDF
S11306D080832AE62A95F1F700C08091060190E014
S11306E0982F88272081286020833AE63A95F1F7ED
S11306F000C02091060130813F7B308335E83A9574
S1130700F1F700003081306430833081306230830F
S1130710820F911D08958F929F92AF92BF92CF92B4
S1130720DF92EF92FF921F93CF93DF93CDB7DEB7A3
S11307302B970FB6F894DEBF0FBECDBF8EE592E0C7
S11307407ED788E992E07BD780ED92E078D78EE57A
S113075092E075D70F2EFDEEAF2EF2E0BF2EF02DF6
S1130760CE0101961BDE8885182F13708C81992782
S113077087FD909586DFA5DF7C01A6D34C01B701E8
S1130780FF2024F4662777276E197F09882777FDD1
S11307908095982F8ED56B017C01B40180E090E0A8
S11307A086D59B01AC01C701B601E8D46B017C017D
S11307B020917F0330918003409181035091820303
S11307C028D61816CCF4C0927F03D0928003E0920E
S11307D08103F092820320E030E04AE754E4C70149
S11307E0B6011BD633D57F936F93BF92AF9216D7C2
S11307F00F900F900F900F908FE39CE90197F1F702
S113080000C00000112309F4ABCF8EE592E017D7A6
S11308108CE093E014D78EE592E011D780E090E06D
S113082030DF2B960FB6F894DEBF0FBECDBFDF913D
S1130830CF911F91FF90EF90DF90CF90BF90AF903A
S11308409F908F9008952F923F924F925F926F9254
S11308507F928F929F92AF92BF92CF92DF92EF924C
S1130860FF920F931F93CF93DF93CDB7DEB7A89773
S11308700FB6F894DEBF0FBECDBFF89484E1E7E075
S1130880F2E0DE01119601900D928A95E1F79E0146
S11308902F5F3F4F38A72FA3AE014B5E5F4F5E8B98
S11308A04D8B312C0FA118A5D80111968C9111975D
S11308B08F938C918F93A1E2B3E0BF93AF93AED6A5
S11308C07894F801808191812FA138A52E5F3F4F44
S11308D038A72FA3D6DEF8940F900F900F900F90A7
S11308E03F8E38A239A23AA23BA23CA23DA23EA22C
S11308F0EBD24C01AC0160E070E080E090E0DC0100
S11309008F8A588F698F7A8F8B8F9C8FAD8FBE8F14
S11309102F8D38A149A15AA16BA17CA18DA19EA1C3
S1130920AF88B88CC32CD32CE32CF32C032D132DBC
S11309300ED6222E532E642E752EA62EB72E082FD9
S1130940192F2F8F38A349A35AA36BA37CA38DA37C
S11309509EA3B7DE99231CF4919581959109BC015E
S1130960882777FD8095982FA4D46B017C01B4016E
S113097080E090E09CD49B01AC01C701B601FED39A
S1130980C62ED72EE82EF92E90907F0380908003F8
S1130990509181035F8B40908203292D382D452F80
S11309A0542DE8D3882324F4C92CD82CEF88F42CB4
S11309B08C2D9D2DAE2DBF2D80937F0390938003AE
S11309C0A0938103B09382036FEF70E782E06150DC
S11309D070408040E1F700C00000222D352D462DE7
S11309E0572D6A2D7B2D802F912F08E094D5253526
S11309F008F47ECFAFA1B8A5ED89FE89AE17BF0775
S1130A0009F050CF20E030E04AE754E460917F03DE
S1130A10709180038091810390918203FED416D457
S1130A207F936F9386E393E09F938F93F7D57894A6
S1130A3080E090E026DEF8940F900F900F900F90D6
S1130A40A8960FB6F894DEBF0FBECDBFDF91CF914D
S1130A501F910F91FF90EF90DF90CF90BF90AF90D8
S1130A609F908F907F906F905F904F903F902F90CA
S1130A700895CF93C82F80E088DDE1DDE2E0F1E066
S1130A8080818F7D808380818064808380E090E09A
S1130A90F8DD8FEF8093010110D213DEC13089F0AD
S1130AA018F0C23081F010C089ED9EECA7EFBEE3D0
S1130AB080937F0390938003A0938103B093820378
S1130AC003C029DE01C0BFDECF910895CF92DF922B
S1130AD0EF92FF92CF93DF93F4DD7C01F5D1EC012B
S1130AE0B701882777FD8095982FE3D36B017C01AC
S1130AF0BE0180E090E0DBD39B01AC01C701B601ED
S1130B003DD320E030E048EC52E487D420917F03C9
S1130B103091800340918103509182032FD396D367
S1130B206536710544F46C398FEF780714F46CE979
S1130B307FEF862F01C084E6DF91CF91FF90EF9085
S1130B40DF90CF90089580E090E0A0EAB1E4809334
S1130B509E0390939F03A093A003B093A1031092CC
S1130B609A0310929B0310929C0310929D0380E0C1
S1130B7090E0A0E0BFE38093920390939303A0934B
S1130B809403B09395038DEC9CECACE4BEE38093AA
S1130B90960390939703A0939803B09399030895B1
S1130BA04F925F926F927F928F929F92AF92BF9279
S1130BB0CF92DF92EF92FF920F931F93CF93DF9325
S1130BC06B017C0183DF682F772767FD7095872F82
S1130BD0972F6FD39B01AC01C701B60166D26B019D
S1130BE07C01CAE9D3E0688179818A819B81A7016C
S1130BF096015CD2688379838A839B836881798137
S1130C008A819B8100919E0310919F032091A003F0
S1130C103091A103A90198015058ACD2882364F4FF
S1130C2080919E0390919F03A091A003B091A10392
S1130C30BC01CD01905808C060919A0370919B0348
S1130C4080919C0390919D0320919E0330919F037A
S1130C504091A0035091A103DCD318164CF4809169
S1130C609E0390919F03A091A003B091A10328C07B
S1130C7060919A0370919B0380919C0390919D03D2
S1130C8000919E0310919F032091A0033091A10332
S1130C90A901980150586ED2882354F480919E0380
S1130CA090919F03A091A003B091A103B05808C0F4
S1130CB080919A0390919B03A0919C03B0919D0312
S1130CC0EAE9F3E080839183A283B3836091920382
S1130CD0709193038091940390919503809096036F
S1130CE090909703A0909803B0909903408051800E
S1130CF062807380A701960190D36B017C01A301EC
S1130D009201C501B40189D39B01AC01C701B601AD
S1130D10CDD19CD2CB01B5DCDF91CF911F910F9146
S1130D20FF90EF90DF90CF90BF90AF909F908F9007
S1130D307F906F905F904F90089580D060E070E056
S1130D4080EC9FE39FC00895CF92DF92EF92FF92D1
S1130D50682F70E080E090E0AAD220E030E04FE716
S1130D6053E40CD220E030E040E85FE39FD16B0114
S1130D707C0120E030E040E85FE3FCD18823DCF034
S1130D8020E030E040E050E4C701B60142D3181639
S1130D90DCF020E030E040E85FE3C701B601EAD1CF
S1130DA08823BCF40F2EC12CD12CF0E8EF2EFFE3E6
S1130DB0FF2EF02D0EC00F2EC12CD12CF0E8EF2EFB
S1130DC0FFE3FF2EF02D05C0C12CD12C76016894D1
S1130DD0F6F8C701B60156D0FF90EF90DF90CF90A0
S1130DE00895249A2C9A08952C982FEF86E791E081
S1130DF0215080409040E1F700C000002C9A0895F3
S1130E00229A219A279A209A8CB580618CBD8CB540
S1130E1081608CBD8CB580648CBD08958EBD0DB48D
S1130E2007FEFDCF089580E0F9DF0DB407FEFDCF86
S1130E308EB508952F9808952F9A0895E1E8F0E06B
S1130E4080818B7F808380818260808380818E7F9C
S1130E508083808180618083808188608083E0E8F2
S1130E60F0E080818260808380818E7F80838FE345
S1130E709CE99093870080938600808180688083BA
S1130E80259A089520E034E244EF59E4C6D220E0E4
S1130E9030E04AE754E472D120E030E040E85FE318
S1130EA004D1D9D170938900609388000895109279
S1130EB0950010929400C09A0895E1E9F0E08081D1
S1130EC084608083F4CF0895CF93DF93C09194001E
S1130ED0D0919500ECDFCE01DF91CF9108958CE0A5
S1130EE08093B8008FEF8093BB0084E08093BC00B4
S1130EF00895ECEBF0E0208120FDFDCF60938503A5
S1130F00FC0120812093860320FD0CC0623050F048
S1130F10DC011196E7E8F3E081E09D9191938F5F06
S1130F208613FBCF1092840388EF8093060285EA30
S1130F308093BC0008951F920F920FB60F92112454
S1130F400BB60F922F933F938F939F93AF93BF93BF
S1130F50EF93FF938091B90090E0FC013897E1355D
S1130F60F10508F055C0EE58FF4FCDC2109283032F
S1130F70E091830380918503E81770F481E08E0F7C
S1130F8080938303F0E0EA57FC4F80818093BB0099
S1130F9085E88093BC0043C0809184038160809382
S1130FA0840384E98093BC003AC0E091830381E028
S1130FB08E0F809383038091BB00F0E0EA57FC4FCF
S1130FC080832091830330E08091850390E0019732
S1130FD02817390724F485EC8093BC0020C085E8E9
S1130FE08093BC001CC08091BB00E0918303F0E0BF
S1130FF0EA57FC4F8083809184038160809384034B
S113100084E98093BC000BC085EA8093BC0007C0D0
S11310108091B9008093060284E08093BC00FF9124
S1131020EF91BF91AF919F918F913F912F910F902D
S11310300BBE0F900FBE0F901F901895E0ECF0E0E0
S1131040908195FFFDCF8093C6000895E0ECF0E019
S113105080818823ECF78091C60008959093C500A1
S11310608093C40088E18093C1008EE08093C20025
S113107066E278E08EE198E087C20895F89487E606
S113108090E0ECDFFCD859DE7EDA80E0F2DC5BDD58
S1131090E7D9A7DE78940895F1DF88E593E0CFD20D
S11310A081E0EFD980E090E008955058BB27AA274B
S11310B00ED075C166D130F06BD120F031F49F3F72
S11310C011F41EF45BC10EF4E095E7FB51C1E92F66
S11310D077D180F3BA17620773078407950718F06E
S11310E071F49EF58FC10EF4E0950B2EBA2FA02D4E
S11310F00B01B90190010C01CA01A0011124FF27C1
S1131100591B99F0593F50F4503E68F11A16F040BB
S1131110A22F232F342F4427585FF3CF46953795BA
S11311202795A795F0405395C9F77EF41F16BA0B7F
S1131130620B730B840BBAF09150A1F0FF0FBB1F2D
S1131140661F771F881FC2F70EC0BA0F621F731F76
S1131150841F48F4879577956795B795F7959E3FD3
S113116008F0B3CF9395880F08F09927EE0F979561
S113117087950895D9D008F481E008950CD00FC163
S113118007D140F0FED030F021F45F3F19F0F0C0F9
S1131190511139C1F3C014D198F39923C9F35523DC
S11311A0B1F3951B550BBB27AA2762177307840756
S11311B038F09F5F5F4F220F331F441FAA1FA9F30C
S11311C033D00E2E3AF0E0E830D091505040E695FE
S11311D0001CCAF729D0FE2F27D0660F771F881F5F
S11311E0BB1F261737074807AB07B0E809F0BB0B4E
S11311F0802DBF01FF2793585F4F2AF09E3F510572
S113120068F0B6C000C15F3FECF3983EDCF386950E
S113121077956795B795F7959F5FC9F7880F911DE7
S11312209695879597F90895E1E0660F771F881FD3
S1131230BB1F621773078407BA0720F0621B730B86
S1131240840BBA0BEE1F88F7E095089504D06894D8
S1131250B111D9C00895BCD088F09F5790F0B92F30
S11312609927B751A0F0D1F0660F771F881F991FF7
S11312701AF0BA95C9F712C0B13081F0C3D0B1E009
S11312800895C0C0672F782F8827B85F39F0B93F19
S1131290CCF3869577956795B395D9F73EF49095F9
S11312A08095709561957F4F8F4F9F4F0895E89477
S11312B009C097FB3EF490958095709561957F4F9A
S11312C08F4F9F4F9923A9F0F92F96E9BB27939548
S11312D0F695879577956795B795F111F8CFFAF458
S11312E0BB0F11F460FF1BC06F5F7F4F8F4F9F4F89
S11312F016C0882311F096E911C0772321F09EE8E7
S1131300872F762F05C0662371F096E8862F70E04C
S113131060E02AF09A95660F771F881FDAF7880F26
S11313209695879597F90895990F0008550FAA0B7C
S1131330E0E8FEEF16161706E807F907C0F01216E4
S11313401306E407F50798F0621B730B840B950BE7
S113135039F40A2661F0232B242B252B21F408953C
S11313600A2609F4A140A6958FEF811D811D0895D9
S113137097F99F6780E870E060E008959FEF80EC44
S1131380089500240A9416161706180609060895E7
S113139000240A9412161306140605060895092E4D
S11313A00394000C11F4882352F0BB0F40F4BF2BBC
S11313B011F460FF04C06F5F7F4F8F4F9F4F0895FC
S11313C057FD9058440F551F59F05F3F71F04795F2
S11313D0880F97FB991F61F09F3F79F087950895D7
S11313E0121613061406551FF2CF4695F1DF08C0F6
S11313F0161617061806991FF1CF86957105610513
S113140008940895E894BB2766277727CB0197F9BA
S113141008958ADF08F48FEF08950BD0C0CFB1DFB1
S113142028F0B6DF18F0952309F0A2CFA7CF112436
S1131430EACFC6DFA0F3959FD1F3950F50E0551F77
S1131440629FF001729FBB27F00DB11D639FAA2715
S1131450F00DB11DAA1F649F6627B00DA11D661F64
S1131460829F2227B00DA11D621F739FB00DA11D85
S1131470621F839FA00D611D221F749F3327A00D3F
S1131480611D231F849F600D211D822F762F6A2FDB
S113149011249F5750408AF0E1F088234AF0EE0F60
S11314A0FF1FBB1F661F771F881F91505040A9F76D
S11314B09E3F510570F05CCFA6CF5F3FECF3983EA2
S11314C0DCF3869577956795B795F795E7959F5FD4
S11314D0C1F7FE2B880F911D9695879597F908956E
S11314E097FB072E16F4009406D077FD08D038D069
S11314F007FC05D03EF4909581959F4F0895709513
S113150061957F4F0895EE0FFF1F0590F491E02D34
S1131510199497FB10F8169400080F93083098F06C
S11315200850232F342F452F562F672F782F892FBC
S1131530902DF4CF05949795879577956795579552
S11315404795379527950A95AAF70F9108952A0D7F
S11315503B1D4C1D5D1D6E1D7F1D801F911F089539
S1131560AA1BBB1B51E107C0AA1FBB1FA617B707C5
S113157010F0A61BB70B881F991F5A95A9F78095E1
S11315809095BC01CD0108950F931F93CF93DF93E2
S1131590EC018B01009731F46115710519F480E0B9
S11315A090E037C06EE070E081E090E063D2FC012F
S11315B00097A9F380E883830115110571F013875F
S11315C0028781E883838091A2039091A303892BEE
S11315D021F4F093A303E093A2032097C9F0D187E9
S11315E0C0878381826083838091A4039091A50343
S11315F0892B71F4F093A503E093A4038091A603CF
S11316009091A703892B21F4F093A703E093A603F9
S1131610CF01DF91CF911F910F910895CF93DF9365
S1131620CDB7DEB7FE01369661917191AF0180911D
S1131630A4039091A50330D0DF91CF9108950F9327
S11316401F93CF93DF93E091A403F091A50323812B
S113165021FF1BC0EC0100E010E089916091A4031C
S11316607091A503DB011896ED91FC9119978823DD
S113167031F01995892B89F30FEF1FEFEECF8AE034
S11316801995892B11F4C80102C08FEF9FEFDF91E8
S1131690CF911F910F9108952F923F924F925F9295
S11316A06F927F928F929F92AF92BF92CF92DF926E
S11316B0EF92FF920F931F93CF93DF93CDB7DEB7D3
S11316C02C970FB6F894DEBF0FBECDBF7C016B0123
S11316D08A01FC0117821682838181FFB0C1CE0189
S11316E001964C01F7019381F60193FD859193FFD7
S11316F081916F01882309F49EC1853239F493FDE9
S1131700859193FF81916F01853221F4B70190E0B7
S11317100FD3E8CF512C312C20E02032A0F48B32AF
S113172069F030F4803259F0833269F420612CC0BE
S11317308D3239F0803339F4216026C02260246070
S113174023C0286021C027FD27C030ED380F3A3070
S113175078F426FF06C0FAE05F9E300D1124532E64
S113176013C08AE0389E300D1124332E20620CC041
S11317708E3221F426FD5FC1206406C08C3611F43C
S1131780206802C0883641F4F60193FD859193FFE9
S113179081916F018111C1CF982F9F7D9554933012
S11317A028F40C5F1F4FFFE3F9830DC0833631F03B
S11317B0833771F0833509F057C021C0F801808167
S11317C089830E5F1F4F44244394512C540114C049
S11317D03801F2E06F0E711CF801A080B18026FF81
S11317E003C0652D70E002C06FEF7FEFC5012C8749
S11317F094D22C0183012C852F77222E16C0380118
S1131800F2E06F0E711CF801A080B18026FF03C0C6
S1131810652D70E002C06FEF7FEFC5012C876BD29E
S11318202C012C852068222E830123FC19C0832DD2
S113183090E048165906A0F4B70180E290E078D20F
S11318403A94F5CFF50127FC859127FE81915F013C
S1131850B70190E06DD231103A94F1E04F1A51087B
S11318604114510479F7DEC0843611F0893631F51C
S1131870F80127FF07C060817181828193810C5F29
S11318801F4F08C060817181882777FD8095982F4C
S11318900E5F1F4F2F76B22E97FF09C0909580954B
S11318A0709561957F4F8F4F9F4F2068B22E2AE02D
S11318B030E0A4016FD2A82EA81843C0853729F4BC
S11318C02F7EB22E2AE030E025C0F22FF97FBF2E02
S11318D08F36C1F018F4883579F0ADC0803719F02F
S11318E0883721F0A8C02F2F2061B22EB4FE0DC07E
S11318F08B2D8460B82E09C024FF0AC09F2F9660E8
S1131900B92E06C028E030E005C020E130E002C076
S113191020E132E0F801B7FE07C060817181828165
S113192093810C5F1F4F06C06081718180E090E05D
S11319300E5F1F4FA4012ED2A82EA818FB2DFF77EF
S1131940BF2EB6FE0BC02B2D2E7FA51450F4B4FE73
S11319500AC0B2FC08C02B2D2E7E05C07A2C2B2D7C
S113196003C07A2C01C0752C24FF0DC0FE01EA0DC2
S1131970F11D8081803311F4297E09C022FF06C045
S11319807394739404C0822F867809F0739423FDB2
S113199012C020FF06C05A2C731418F4530C5718A5
S11319A0732C731460F4B70180E290E02C87C0D1EB
S11319B073942C85F6CF731410F4371801C0312CAE
S11319C024FF11C0B70180E390E02C87B1D12C85AE
S11319D022FF16C021FF03C088E590E002C088E71B
S11319E090E0B7010CC0822F867851F021FD02C02F
S11319F080E201C08BE227FD8DE2B70190E098D12F
S1131A00A51430F4B70180E390E092D15A94F8CF52
S1131A10AA94F401EA0DF11D8081B70190E088D108
S1131A20A110F6CF332009F45DCEB70180E290E037
S1131A307FD13A94F7CFF7018681978102C08FEF67
S1131A409FEF2C960FB6F894DEBF0FBECDBFDF918B
S1131A50CF911F910F91FF90EF90DF90CF90BF90A7
S1131A60AF909F908F907F906F905F904F903F903A
S1131A702F9008950F931F93CF93DF93869F800138
S1131A80879F100D969F100D1124C8010DD0EC01F5
S1131A90009721F0A80160E070E038D1CE01DF9119
S1131AA0CF911F910F910895CF93DF9382309105C9
S1131AB010F482E090E0E091AA03F091AB0320E0FF
S1131AC030E0A0E0B0E0309739F14081518148170F
S1131AD05907B8F04817590771F482819381109718
S1131AE029F013969C938E9312972CC09093AB037A
S1131AF08093AA0327C02115310531F042175307FB
S1131B0018F0A901DB0101C0EF019A01BD01DF0159
S1131B100280F381E02DD7CF21153105F9F0281B80
S1131B20390B2430310580F48A819B81611571055C
S1131B3021F0FB019383828304C09093AB038093D1
S1131B40AA03FE01329644C0FE01E20FF31F819303
S1131B50919322503109398328833AC02091A803F4
S1131B603091A903232B41F4209102023091030206
S1131B703093A9032093A80320910002309101021D
S1131B802115310541F42DB73EB74091040250911F
S1131B900502241B350BE091A803F091A903E21779
S1131BA0F307A0F42E1B3F0B2817390778F0AC017C
S1131BB04E5F5F4F2417350748F04E0F5F1F509359
S1131BC0A9034093A8038193919302C0E0E0F0E05D
S1131BD0CF01DF91CF910895CF93DF93009709F45C
S1131BE087C0FC01329713821282C091AA03D0915C
S1131BF0AB03209781F420813181280F391F809114
S1131C00A8039091A9038217930779F5F093A90388
S1131C10E093A8036DC0DE0120E030E0AE17BF07FB
S1131C2050F412964D915C9113979D014115510505
S1131C3009F1DA01F3CFB383A28340815181840F88
S1131C40951F8A179B0771F48D919C911197840FAE
S1131C50951F02969183808312968D919C91139780
S1131C60938382832115310529F4F093AB03E09328
S1131C70AA033EC0D9011396FC93EE9312974D919B
S1131C805D91A40FB51FEA17FB0779F48081918158
S1131C90840F951F0296D90111969C938E9382818D
S1131CA0938113969C938E931297E0E0F0E08A81DF
S1131CB09B81009719F0FE01EC01F9CFCE01029649
S1131CC028813981820F931F2091A8033091A903A1
S1131CD02817390769F4309729F41092AB0310924E
S1131CE0AA0302C013821282D093A903C093A8034B
S1131CF0DF91CF910895FC0105906150704001106F
S1131D00D8F7809590958E0F9F1F0895DC0101C030
S1131D106D9341505040E0F70895FC0161507040CC
S1131D2001900110D8F7809590958E0F9F1F08950C
S1131D300F931F93CF93DF93182F092FEB018B8100
S1131D4081FD03C08FEF9FEF20C082FF10C04E8142
S1131D505F812C813D81421753077CF4E881F9812E
S1131D609F012F5F3F4F39832883108306C0E88586
S1131D70F985812F1995892B29F72E813F812F5FB2
S1131D803F4F3F832E83812F902FDF91CF911F915F
S1131D900F910895FA01AA27283051F1203181F1D9
S1131DA0E8946F936E7F6E5F7F4F8F4F9F4FAF4F5F
S1131DB0B1E03ED0B4E03CD0670F781F891F9A1F72
S1131DC0A11D680F791F8A1F911DA11D6A0F711D26
S1131DD0811D911DA11D20D009F468943F912AE032
S1131DE0269F11243019305D3193DEF6CF0108951A
S1131DF0462F4770405D4193B3E00FD0C9F7F6CF4B
S1131E00462F4F70405D4A3318F0495D31FD405212
S1131E10419302D0A9F7EACFB4E0A69597958795A8
S1131E2077956795BA95C9F7009761057105089587
S1131E309B01AC010A2E0694579547953795279533
S1131E40BA95C9F7620F731F841F951FA01D0895CB
S1071E50F894FFCF30
S1131E540000AC032000F864009CFF64009CFF6451
S1131E64009CFF64009CFF64009CFF7365636F6EB9
S1131E7464733A2025642E2564200A004D435032AD
S1131E84353135206973204E4F5420696E20636FB9
S1131E946E66696775726174696F6E206D6F6465CF
S1131EA420616674657220726573657421002D2D3A
S1131EB42D2D2D2D2D2D2D2D2D2D2D2D2D2D2D2D4A
S1131EC42D2D2D2D2D2D2D2D2D2D2D2D2D2D2D2D3A
S1131ED42D2D2D2D2D2D2D2D2D2D2D2D2D2D2D2D2A
S1131EE42D2D2D2D2D2D2D0043414C49425241546D
S1131EF4452054484520454E434F444552204259B9
S1131F04204D4541535552494E4720544845204D90
S1131F144158494D554D2056454C4F434954590059
S1131F24505245535320414E5920425554544F4E18
S1131F3420544F20434F4E54494E5545005B4D4168
S1131F444E55414C5D2031303030202A204D4158CB
S1131F542053504545443A2025640A0043414C49E2
S1131F6442524154494F4E20434F4D504C455445E1
S1131F74005365742076656C6F6369747920746F9B
S1131F843A2025640A005B4155544F4D415449435A
S1131F945D2031303030202A204D415820535045A3
S1131FA445443A2025640A005B4E4F4445325D2083
S1131FB4496E697469616C697A6174696F6E2063CE
S10D1FC46F6D706C657465210A00EE
S9030000FC
