:1000000071C000008FC000008DC000008BC00000D8
:1000100089C0000087C00000A4C0000083C00000A9
:1000200081C000007FC000007DC000007BC00000D8
:1000300079C0000077C0000075C0000073C00000E8
:1000400071C000006FC000006DC000006BC00000F8
:1000500069C0000067C0000065C0000063C0000008
:1000600061C000005FC000005DC000005BC0000018
:1000700059C0000057C0000055C0000053C0000028
:1000800051C000004FC000004DC000004BC0000038
:1000900049C0000047C0000045C0000043C0000048
:1000A00041C000003FC000003DC000003BC0000058
:1000B00039C0000037C0000035C0000033C0000068
:1000C00031C000002FC000002DC000002BC0000078
:1000D00029C0000027C0000025C0000023C0000088
:1000E00021C0000011241FBECFEFD1E2DEBFCDBF83
:1000F00000E00CBF13E0A0E0B2E0E0E9F2E100E0D4
:100100000BBF02C007900D92A23FB107D9F724E0C0
:10011000A2EFB3E001C01D92A030B207E1F71BD2FD
:100120000C9446096DCFCF938CE2EDD0C82F80FFA1
:100130000AC040E061E08CE2F3D021E030E030938F
:10014000F5032093F403C1FF0AC040E062E08CE2B3
:10015000E7D081E090E09093F3038093F203CF9196
:1001600008951F920F920FB60F9211240BB60F92A3
:100170002F933F934F935F936F937F938F939F93AF
:10018000AF93BF93EF93FF93CEDFFF91EF91BF91BA
:10019000AF919F918F917F916F915F914F913F911F
:1001A0002F910F900BBE0F900FBE0F901F901895C0
:1001B000ED98EAE6F0E08081877F808380818B7F05
:1001C0008083ED9AC6D08EE09ED01F928F9386E0FA
:1001D00092E09F938F9340D44FEF64E680E6A0D0E7
:1001E0004FEF60E680E79CD043E063E08BE298D07D
:1001F0008BE289D01F928F938FE192E09F938F9330
:100200002BD440E060EE8FE08BD08EE07CD01F924C
:100210008F9380E392E09F938F931ED48DB79EB708
:100220000C960FB6F8949EBF0FBE8DBF0895DF9257
:10023000EF92FF920F931F93CF93DF938C01F8946B
:100240008091F4039091F503892B39F01092F50316
:100250001092F403C0E0D0E010C08091F2039091BE
:10026000F303892B39F01092F3031092F203C1E0EB
:10027000D0E003C0F80112823EC0FC2EFF0CFF0C40
:10028000FF0CFF0C81E68F0D3ED0E82E82E68F0D2D
:100290003AD02E2D30E0220F331F220F331F220FB2
:1002A000331F829586958770280F311DF8013183A1
:1002B000208385E68F0D27D08770F80182838823FD
:1002C000C9F07E01EE0CFF1CEE0CFF1CEE0CFF1CB7
:1002D000EE0CFF1CD12CCD2DD0E0CE018A599F4FC2
:1002E0008E0D11D0C00FD11F8B83D394F801828162
:1002F000D81688F37894DF91CF911F910F91FF90DA
:10030000EF90DF900895CF93C82F98D083E08AD0E4
:100310008C2F88D08CD0C82F93D08C2FCF9108955C
:100320001F93CF93DF93182FD62FC42F87D085E04C
:1003300079D0812F77D08D2F75D08C2F73D080D02E
:10034000DF91CF911F91089579D080EC6BD078C068
:1003500008955AD0F9DF84EA8A95F1F78EE0D3DF69
:10036000807E803829F080EA93E087D381E0089589
:1003700080E0089567D060E070E080EC9FE386C085
:100380000895CF92DF92EF92FF92682F772767FD53
:100390007095872F972FFFD120E030E040E05FE39A
:1003A000AED220E030E048EC52E45FD120E030E013
:1003B00040EC5FE3F2D06B017C0120E030E040E8EC
:1003C0005FE34FD1882354F020E030E040E050E478
:1003D000C701B60190D2181654F00EC00F2EC12CD2
:1003E000D12CF0E8EF2EFFE3FF2EF02D05C0C12C3D
:1003F000D12C76016894F6F8C701B60147D0FF907A
:10040000EF90DF90CF900895229A219A279A209A10
:100410008CB580618CBD8CB581608CBD8CB58064E1
:100420008CBD08958EBD0DB407FEFDCF089580E00C
:10043000F9DF0DB407FEFDCF8EB508952F9808950E
:100440002F9A0895E1E8F0E080818B7F808380819E
:100450008260808380818E7F8083808180618083C1
:10046000808188608083E0E8F0E080818260808322
:1004700080818E7F80838FE39CE9909387008093B7
:100480008600808180688083259A089520E034E288
:1004900044EF59E434D220E030E04AE754E4E5D0B8
:1004A00020E030E040E85FE377D047D170938900E7
:1004B000609388000895E0ECF0E0908195FFFDCF17
:1004C0008093C6000895E0ECF0E080818823ECF78B
:1004D0008091C60008959093C5008093C40088E180
:1004E0008093C1008EE08093C20063E672E08BE5EA
:1004F00092E068C20895F89487E690E0ECDF58DE59
:1005000039DF789408950F931F93CF93DF93CDB77E
:10051000DEB72B970FB6F894DEBF0FBECDBF8C01B0
:100520001B82CE01019683DE8B818823D1F38BE081
:10053000FE013196D80101900D928A95E1F7C8012C
:100540002B960FB6F894DEBF0FBECDBFDF91CF91D3
:100550001F910F910895CF93DF93CDB7DEB72B97FF
:100560000FB6F894DEBF0FBECDBFC5DF8FE0CBDE88
:100570001F928F9382ED93E09F938F936DD283EEC2
:1005800093E07BD20F900F900F900F90CE010196C9
:10059000BADF8C81F6DEFACF5058BB27AA270ED0DF
:1005A00070C161D130F066D120F031F49F3F11F479
:1005B0001EF456C10EF4E095E7FB4CC1E92F72D151
:1005C00080F3BA17620773078407950718F071F470
:1005D0009EF58AC10EF4E0950B2EBA2FA02D0B01CB
:1005E000B90190010C01CA01A0011124FF27591B78
:1005F00099F0593F50F4503E68F11A16F040A22F7E
:10060000232F342F4427585FF3CF469537952795EE
:10061000A795F0405395C9F77EF41F16BA0B620BED
:10062000730B840BBAF09150A1F0FF0FBB1F661F34
:10063000771F881FC2F70EC0BA0F621F731F841F77
:1006400048F4879577956795B795F7959E3F08F09D
:10065000B3CF9395880F08F09927EE0F979587955C
:100660000895D4D008F481E008950CD00AC102D1D5
:1006700040F0F9D030F021F45F3F19F0EBC0511198
:1006800034C1EEC00FD198F39923C9F35523B1F3C8
:10069000951B550BBB27AA2762177307840738F0F1
:1006A0009F5F5F4F220F331F441FAA1FA9F333D050
:1006B0000E2E3AF0E0E830D091505040E695001C04
:1006C000CAF729D0FE2F27D0660F771F881FBB1FC0
:1006D000261737074807AB07B0E809F0BB0B802D9A
:1006E000BF01FF2793585F4F2AF09E3F510568F0E6
:1006F000B1C0FBC05F3FECF3983EDCF38695779585
:100700006795B795F7959F5FC9F7880F911D9695E7
:10071000879597F90895E1E0660F771F881FBB1F43
:10072000621773078407BA0720F0621B730B840BF0
:10073000BA0BEE1F88F7E0950895BCD088F09F575C
:1007400090F0B92F9927B751A0F0D1F0660F771F1D
:10075000881F991F1AF0BA95C9F712C0B13081F0FD
:10076000C3D0B1E00895C0C0672F782F8827B85F45
:1007700039F0B93FCCF3869577956795B395D9F75E
:100780003EF490958095709561957F4F8F4F9F4F68
:100790000895E89409C097FB3EF490958095709574
:1007A00061957F4F8F4F9F4F9923A9F0F92F96E9BD
:1007B000BB279395F695879577956795B795F11132
:1007C000F8CFFAF4BB0F11F460FF1BC06F5F7F4FCF
:1007D0008F4F9F4F16C0882311F096E911C07723E1
:1007E00021F09EE8872F762F05C0662371F096E8EA
:1007F000862F70E060E02AF09A95660F771F881FB9
:10080000DAF7880F9695879597F90895990F00085C
:10081000550FAA0BE0E8FEEF16161706E807F907D2
:10082000C0F012161306E407F50798F0621B730B6D
:10083000840B950B39F40A2661F0232B242B252BEE
:1008400021F408950A2609F4A140A6958FEF811D91
:10085000811D089597F99F6780E870E060E0089532
:100860009FEF80EC089500240A94161617061806C8
:100870000906089500240A941216130614060506A4
:100880000895092E0394000C11F4882352F0BB0F35
:1008900040F4BF2B11F460FF04C06F5F7F4F8F4F98
:1008A0009F4F089557FD9058440F551F59F05F3FD3
:1008B00071F04795880F97FB991F61F09F3F79F082
:1008C00087950895121613061406551FF2CF469504
:1008D000F1DF08C0161617061806991FF1CF869586
:1008E0007105610508940895E894BB27662777276A
:1008F000CB0197F908958ADF08F48FEF08950BD0A4
:10090000C0CFB1DF28F0B6DF18F0952309F0A2CFF1
:10091000A7CF1124EACFC6DFA0F3959FD1F3950F9F
:1009200050E0551F629FF001729FBB27F00DB11D73
:10093000639FAA27F00DB11DAA1F649F6627B00D03
:10094000A11D661F829F2227B00DA11D621F739FEC
:10095000B00DA11D621F839FA00D611D221F749FFA
:100960003327A00D611D231F849F600D211D822F41
:10097000762F6A2F11249F5750408AF0E1F0882388
:100980004AF0EE0FFF1FBB1F661F771F881F915095
:100990005040A9F79E3F510570F05CCFA6CF5F3F56
:1009A000ECF3983EDCF3869577956795B795F795C8
:1009B000E7959F5FC1F7FE2B880F911D9695879550
:1009C00097F908950F931F93CF93DF93EC018B0159
:1009D000009731F46115710519F480E090E037C09B
:1009E0006EE070E081E090E063D2FC010097A9F333
:1009F00080E883830115110571F01387028781E870
:100A000083838091F6039091F703892B21F4F0936F
:100A1000F703E093F6032097C9F0D187C08783815D
:100A2000826083838091F8039091F903892B71F49C
:100A3000F093F903E093F8038091FA039091FB039C
:100A4000892B21F4F093FB03E093FA03CF01DF91AC
:100A5000CF911F910F910895CF93DF93CDB7DEB75C
:100A6000FE01369661917191AF018091F8039091EA
:100A7000F90330D0DF91CF9108950F931F93CF9357
:100A8000DF93E091F803F091F903238121FF1BC06C
:100A9000EC0100E010E089916091F8037091F90396
:100AA000DB011896ED91FC911997882331F0199587
:100AB000892B89F30FEF1FEFEECF8AE01995892B71
:100AC00011F4C80102C08FEF9FEFDF91CF911F910A
:100AD0000F9108952F923F924F925F926F927F9263
:100AE0008F929F92AF92BF92CF92DF92EF92FF923E
:100AF0000F931F93CF93DF93CDB7DEB72C970FB62D
:100B0000F894DEBF0FBECDBF7C016B018A01FC01F2
:100B100017821682838181FFB0C1CE0101964C01FC
:100B2000F7019381F60193FD859193FF81916F0108
:100B3000882309F49EC1853239F493FD859193FF92
:100B400081916F01853221F4B70190E00FD3E8CF96
:100B5000512C312C20E02032A0F48B3269F030F49B
:100B6000803259F0833269F420612CC08D3239F023
:100B7000803339F4216026C02260246023C02860BD
:100B800021C027FD27C030ED380F3A3078F426FF1A
:100B900006C0FAE05F9E300D1124532E13C08AE088
:100BA000389E300D1124332E20620CC08E3221F479
:100BB00026FD5FC1206406C08C3611F4206802C097
:100BC000883641F4F60193FD859193FF81916F0181
:100BD0008111C1CF982F9F7D9554933028F40C5FDD
:100BE0001F4FFFE3F9830DC0833631F0833771F077
:100BF000833509F057C021C0F801808189830E5FD9
:100C00001F4F44244394512C540114C03801F2E086
:100C10006F0E711CF801A080B18026FF03C0652D06
:100C200070E002C06FEF7FEFC5012C8794D22C01DA
:100C300083012C852F77222E16C03801F2E06F0E2B
:100C4000711CF801A080B18026FF03C0652D70E003
:100C500002C06FEF7FEFC5012C876BD22C012C8572
:100C60002068222E830123FC19C0832D90E04816B2
:100C70005906A0F4B70180E290E078D23A94F5CF1B
:100C8000F50127FC859127FE81915F01B70190E076
:100C90006DD231103A94F1E04F1A510841145104C9
:100CA00079F7DEC0843611F0893631F5F80127FF77
:100CB00007C060817181828193810C5F1F4F08C0E2
:100CC00060817181882777FD8095982F0E5F1F4F77
:100CD0002F76B22E97FF09C09095809570956195FB
:100CE0007F4F8F4F9F4F2068B22E2AE030E0A40143
:100CF0006FD2A82EA81843C0853729F42F7EB22EB4
:100D00002AE030E025C0F22FF97FBF2E8F36C1F0E8
:100D100018F4883579F0ADC0803719F0883721F0A4
:100D2000A8C02F2F2061B22EB4FE0DC08B2D846081
:100D3000B82E09C024FF0AC09F2F9660B92E06C0A6
:100D400028E030E005C020E130E002C020E132E0E0
:100D5000F801B7FE07C060817181828193810C5FC9
:100D60001F4F06C06081718180E090E00E5F1F4FD1
:100D7000A4012ED2A82EA818FB2DFF77BF2EB6FEF9
:100D80000BC02B2D2E7FA51450F4B4FE0AC0B2FC6C
:100D900008C02B2D2E7E05C07A2C2B2D03C07A2C5B
:100DA00001C0752C24FF0DC0FE01EA0DF11D8081EC
:100DB000803311F4297E09C022FF06C07394739416
:100DC00004C0822F867809F0739423FD12C020FF9F
:100DD00006C05A2C731418F4530C5718732C731440
:100DE00060F4B70180E290E02C87C0D173942C8529
:100DF000F6CF731410F4371801C0312C24FF11C042
:100E0000B70180E390E02C87B1D12C8522FF16C07A
:100E100021FF03C088E590E002C088E790E0B701B9
:100E20000CC0822F867851F021FD02C080E201C003
:100E30008BE227FD8DE2B70190E098D1A51430F444
:100E4000B70180E390E092D15A94F8CFAA94F401CC
:100E5000EA0DF11D8081B70190E088D1A110F6CF95
:100E6000332009F45DCEB70180E290E07FD13A945F
:100E7000F7CFF7018681978102C08FEF9FEF2C9605
:100E80000FB6F894DEBF0FBECDBFDF91CF911F919B
:100E90000F91FF90EF90DF90CF90BF90AF909F9019
:100EA0008F907F906F905F904F903F902F9008951C
:100EB0000F931F93CF93DF93869F8001879F100D21
:100EC000969F100D1124C8010DD0EC01009721F060
:100ED000A80160E070E038D1CE01DF91CF911F9181
:100EE0000F910895CF93DF938230910510F482E043
:100EF00090E0E091FE03F091FF0320E030E0A0E0FD
:100F0000B0E0309739F14081518148175907B8F066
:100F10004817590771F482819381109729F013962D
:100F20009C938E9312972CC09093FF038093FE03A3
:100F300027C02115310531F04217530718F0A901D8
:100F4000DB0101C0EF019A01BD01DF010280F381E5
:100F5000E02DD7CF21153105F9F0281B390B2430AE
:100F6000310580F48A819B816115710521F0FB01B7
:100F70009383828304C09093FF038093FE03FE015A
:100F8000329644C0FE01E20FF31F819391932250E9
:100F90003109398328833AC02091FC033091FD0345
:100FA000232B41F420910202309103023093FD0380
:100FB0002093FC032091000230910102211531059C
:100FC00041F42DB73EB74091040250910502241B15
:100FD000350BE091FC03F091FD03E217F307A0F459
:100FE0002E1B3F0B2817390778F0AC014E5F5F4F7F
:100FF0002417350748F04E0F5F1F5093FD034093B1
:10100000FC038193919302C0E0E0F0E0CF01DF9117
:10101000CF910895CF93DF93009709F487C0FC0127
:10102000329713821282C091FE03D091FF03209762
:1010300081F420813181280F391F8091FC03909128
:10104000FD038217930779F5F093FD03E093FC030A
:101050006DC0DE0120E030E0AE17BF0750F41296FD
:101060004D915C9113979D014115510509F1DA01EC
:10107000F3CFB383A28340815181840F951F8A17D8
:101080009B0771F48D919C911197840F951F029687
:101090009183808312968D919C9113979383828381
:1010A0002115310529F4F093FF03E093FE033EC0C0
:1010B000D9011396FC93EE9312974D915D91A40F75
:1010C000B51FEA17FB0779F480819181840F951F82
:1010D0000296D90111969C938E93828193811396E7
:1010E0009C938E931297E0E0F0E08A819B810097B9
:1010F00019F0FE01EC01F9CFCE0102962881398169
:10110000820F931F2091FC033091FD0328173907AC
:1011100069F4309729F41092FF031092FE0302C085
:1011200013821282D093FD03C093FC03DF91CF9111
:101130000895FC010590615070400110D8F780952A
:1011400090958E0F9F1F0895DC0101C06D93415053
:101150005040E0F70895FC0161507040019001108B
:10116000D8F7809590958E0F9F1F08950F931F932A
:10117000CF93DF93182F092FEB018B8181FD03C0E3
:101180008FEF9FEF20C082FF10C04E815F812C81C6
:101190003D81421753077CF4E881F9819F012F5F5D
:1011A0003F4F39832883108306C0E885F985812F56
:1011B0001995892B29F72E813F812F5F3F4F3F8360
:1011C0002E83812F902FDF91CF911F910F91089542
:1011D000FA01AA27283051F1203181F1E8946F9368
:1011E0006E7F6E5F7F4F8F4F9F4FAF4FB1E03ED00E
:1011F000B4E03CD0670F781F891F9A1FA11D680FAC
:10120000791F8A1F911DA11D6A0F711D811D911DDE
:10121000A11D20D009F468943F912AE0269F112453
:101220003019305D3193DEF6CF010895462F4770B7
:10123000405D4193B3E00FD0C9F7F6CF462F4F7012
:10124000405D4A3318F0495D31FD4052419302D070
:10125000A9F7EACFB4E0A695979587957795679516
:10126000BA95C9F700976105710508959B01AC0116
:101270000A2E06945795479537952795BA95C9F73D
:10128000620F731F841F951FA01D0895F894FFCF50
:1012900000000004200043414E5354415420696E25
:1012A00020696E69743A203078253032780A00431C
:1012B000414E494E54453A203078253032780A0064
:1012C00043414E535441543A203078253032780A05
:1012D000000A7C202D2D2D2D2D2D2D2D2D2D2D2D4C
:1012E0002D2D2D2D2D2D2D2D2D207C000A7C2043E4
:1012F000414E5F4552524F52207C005452414E5352
:101300004D4954204552524F52005245434549568B
:101310004544204552524F52005B4E4F4445325D8A
:101320005B43414E5F6D6573736167655F73656EA7
:10133000645D204E6F65206861722067E5747420DB
:1013400067616C74006772656174207375636365AF
:1013500073732100666F72206675636B732073610F
:101360006B6500646174612073656E743A20307837
:10137000253032780A64617461207265636569762C
:1013800065643A203078253032780A0A000A4341F1
:101390004E53544154206265666F72653A20257839
:1013A0000A004265666F7265207472616E736D69C2
:1013B0007420636F6D706C6574650041667465724E
:1013C000207472616E736D697420636F6D706C65EB
:1013D0007465000A0A53454E543A0A6C656E677488
:1013E000683A2025640A69643A2025640A00446149
:1013F0007461206E722E2025643A2025780A000A36
:101400000A52454345495645443A0A0A6C656E6797
:1014100074683A2025640A69643A2025640A004504
:1014200052524F5220464C4147533A2025780A00E9
:101430004D435032353135206973204E4F54206969
:101440006E20636F6E66696775726174696F6E2076
:101450006D6F646520616674657220726573657472
:10146000210043414E4354524C3A203078253032CB
:10147000780A0055736172742066756E6B65722E02
:0214800000006A
:00000001FF
