:10000000C2C00000E1C00000DFC00000DDC0000091
:10001000DBC00000D9C000001CC10000D5C000003A
:10002000D3C00000D1C00000CFC00000CDC0000090
:10003000CBC00000C9C00000C7C00000C5C00000A0
:10004000C3C00000C1C00000BFC00000BDC00000B0
:10005000BBC00000EEC10000B7C00000B5C000008A
:10006000B3C00000B1C00000AFC00000ADC00000D0
:10007000ABC00000A9C00000A7C00000A5C00000E0
:10008000A3C00000A1C000009FC000009DC00000F0
:100090009BC0000099C0000097C00000E3C70000AB
:1000A00093C0000091C00000DBC100008DC00000C3
:1000B0008BC0000089C0000087C00000B4C60000EB
:1000C000D6C6000081C000007FC000007DC00000D7
:1000D0007BC0000079C0000077C0000075C0000040
:1000E00073C000004D089F089F089F089F089F0845
:1000F0009F089F084D089F089F089F089F089F081A
:100100009F089F084F089F089F089F089F089F0807
:100110009F089F089F089F089F089F089F089F08A7
:100120009F089F084F089F089F089F089F089F08E7
:100130009F089F089F089F089F089F089F089F0887
:100140009F089F089B089F089F089F089F089F087B
:100150009F089F0878089F089F089F089F089F088E
:100160009F089F089F089F089F089F089F089F0857
:100170009F089F086C089F089F089F089F089F087A
:100180009F089F088A0811241FBECFEFD1E2DEBF6F
:10019000CDBF00E00CBF14E0A0E0B2E0E0E6FFE17C
:1001A00000E00BBF02C007900D92AC3CB107D9F73D
:1001B00025E0ACECB4E001C01D92A730B207E1F736
:1001C0000E94FF080C94AE0F1BCFEAE7F0E080819D
:1001D0008068808380818460808380818260808366
:1001E000808181608083ECE7F0E08081806480839F
:1001F0000895805C80937C00EAE7F0E08081806471
:100200008083808186FDFDCF809178009091790078
:100210000895CF93F8948CE24DD2C82F80FF0AC086
:1002200040E061E08CE26BD221E030E03093CF041B
:100230002093CE04C1FF0AC040E062E08CE25FD2AE
:1002400081E090E09093CD048093CC047894CF919A
:1002500008951F920F920FB60F9211240BB60F92B2
:100260002F933F934F935F936F937F938F939F93BE
:10027000AF93BF93EF93FF93CCDFFF91EF91BF91CB
:10028000AF919F918F917F916F915F914F913F912E
:100290002F910F900BBE0F900FBE0F901F901895CF
:1002A000ED98EAE6F0E08081877F808380818B7F14
:1002B0008083ED9A3DD24FEF64E680E620D24FEF87
:1002C00060E680E71CD263E08BE201D240E060EEA2
:1002D0008FE015C208958295807F805DEBD1869571
:1002E0008695869591E08927817090E008950F9317
:1002F0001F93CF93DF93EC0180E0EDDF892B29F191
:1003000008811981B80176956795769567957695F8
:10031000679581E3DCD1602F6295660F607E82E392
:10032000D6D16A8185E3D3D18A81882361F010E038
:10033000FE01E10FF11D638186E3810FC8D11F5FCC
:100340008A811817A8F381E0D1D1DF91CF911F9155
:100350000F910895DF92EF92FF920F931F93CF9327
:10036000DF938C01F8948091CE049091CF04892B77
:1003700039F01092CF041092CE04C0E0D0E013C048
:100380008091CC049091CD04892B39F01092CD044A
:100390001092CC04C1E0D0E006C0F80112821182B4
:1003A000108278943EC0FC2EFF0CFF0CFF0CFF0C5B
:1003B00081E68F0D7FD1E82E82E68F0D7BD12E2D29
:1003C00030E0220F331F220F331F220F331F82957D
:1003D00086958770280F311DF8013183208385E6CB
:1003E0008F0D68D18770F80182838823C9F07E0160
:1003F000EE0CFF1CEE0CFF1CEE0CFF1CEE0CFF1CA9
:10040000D12CCD2DD0E0CE018A599F4F8E0D52D1E7
:10041000C00FD11F8B83D394F8018281D81688F343
:100420007894DF91CF911F910F91FF90EF90DF9023
:1004300008951F920F920FB60F9211248F939F93DE
:100440008091EB049091EC0401969093EC048093DE
:10045000EB049F918F910F900FBE0F901F901895F6
:100460001F920F920FB60F9211248F939F9380913A
:10047000E9049091EA0401969093EA048093E904D8
:100480008091E7049091E80401969093E8048093AA
:10049000E7049F918F910F900FBE0F901F901895BA
:1004A000CF93DF93CDB7DEB72B970FB6F894DEBFAF
:1004B0000FBECDBF28E630E03A83298323E02B83AB
:1004C0009C838D83CE01019612DF2B960FB6F89494
:1004D000DEBF0FBECDBFDF91CF910895E0EAF0E01F
:1004E00080818068808384B5806884BDE1EAF0E023
:1004F00080818860808385B5886085BD88EA91E6C3
:100500009093A9008093A8008CE987BD85B584608D
:1005100085BD85B5816085BD808182608083808155
:1005200081608083E2E7F0E0808182608083EEE694
:10053000F0E08081826080831092EA041092E904E6
:100540001092EC041092EB0408958093E604C6CF59
:100550000895CF93DF93CDB7DEB72B970FB6F894FE
:10056000DEBF0FBECDBFD12CC12C05E610E00F2E93
:10057000FBE1EF2EF2E0FF2EF02D1A830983CE016E
:100580000196E8DE89819A818536910591F083365E
:10059000910519F4CC80D8840CC0009751F09F933A
:1005A0008F93FF92EF920E94940B0F900F900F90F9
:1005B0000F90D2FCA4D48091EB049091EC04892B91
:1005C000C9F01092EC041092EB048091E6048823A9
:1005D00019F0813039F00EC08C2D992787FD909548
:1005E000DDD008C06C2D772767FD7095872F972F7A
:1005F0000DD762D38091E9049091EA04892B09F424
:10060000BCCF1092EA041092E9048091E704909123
:10061000E80446DF0AD0882309F4AFCF1092E8043B
:100620001092E704AACFD1CD089580E090E0E1DDFB
:10063000E4EDF4E0208131813093D7042093D60497
:10064000A2EDB4E04D915C91119751834083E0EDB0
:10065000F4E0608171816D937C9391838083680F56
:10066000791F460F571F240F351F81E028323105AF
:1006700008F080E00895CF93C82FC8D47894CC0FA9
:10068000C05BC093D804CF910895CF93DF9300D07F
:10069000CDB7DEB79091D8049983880F8A836B8396
:1006A00063E0CE010196BCD40F900F900F90DF91C4
:1006B000CF910895CF93C82F4ED483E040D48C2F90
:1006C0003ED442D4C82F49D48C2FCF910895CF93D4
:1006D000DF93D82FC62F3FD482E031D48D2F2FD473
:1006E0008C2F2DD43AD4DF91CF910895CF93C82F7A
:1006F00032D480E88C0F23D430D4CF9108951F9347
:10070000CF93DF93182FD62FC42F25D485E017D48D
:10071000812F15D48D2F13D48C2F11D41ED4DF919B
:10072000CF911F91089517D480EC09D416C4089571
:10073000F8D3F9DF8FE891E00197F1F700C00000EE
:100740008EE0B8DF807E803829F081E592E0FDD729
:1007500081E0089580E00895E2E0F1E08081806129
:1007600080830895811106C0E2E0F1E080818D7FF1
:1007700080830895E2E0F1E08081826080830895C3
:10078000682F70E080E090E041D621EE3AE744EE39
:100790005FE3F0D60DD680E078CF0895CF93DF9356
:1007A000C82FD92FCC398FEFD80714F4CCE9DFEF5D
:1007B000892F8095881F8827881FD4DFC536D105EB
:1007C00014F0C4E6D0E0CE01DD2324F48827992775
:1007D0008C1B9D0BD5DFDF91CF910895E2E0F1E016
:1007E00080818F7D80838081877F80832AE62A9520
:1007F000F1F700C08091060190E0982F88272081B2
:10080000286020833AE63A95F1F700C0209106016E
:1008100030813F7B308335E83A95F1F70000308135
:1008200030643083308130623083820F911D0895AF
:100830008F929F92BF92CF92DF92EF92FF920F938F
:100840001F93CF93DF93CDB7DEB72B970FB6F894F6
:10085000DEBF0FBECDBF83E892E077D78DEB92E08D
:1008600074D785EF92E071D783E892E06ED702E10A
:1008700013E0CE0101966EDD8B818823D1F388854C
:100880008370B82E8C81992787FD909587DFA6DF2E
:100890007C01ABD34C01B701FF2024F466277727F6
:1008A0006E197F09882777FD8095982FAFD56B014A
:1008B0007C01B40180E090E0A7D59B01AC01C701A9
:1008C000B60109D56B017C012091D9043091DA047D
:1008D0004091DB045091DC0449D61816CCF4C09248
:1008E000D904D092DA04E092DB04F092DC0420E038
:1008F00030E04AE754E4C701B6013CD654D57F93B3
:100900006F931F930F9310D70F900F900F900F902E
:100910008FE39CE90197F1F700C00000BB2009F4C8
:10092000A8CF83E892E011D781E393E00ED783E864
:1009300092E00BD780E090E031DF2B960FB6F89471
:10094000DEBF0FBECDBFDF91CF911F910F91FF9002
:10095000EF90DF90CF90BF909F908F9008952F924F
:100960003F924F925F926F927F928F929F92AF923F
:10097000BF92CF92DF92EF92FF920F931F93CF938C
:10098000DF93CDB7DEB7A8970FB6F894DEBF0FBEE2
:10099000CDBFF89484E1E7E0F2E0DE01119601902A
:1009A0000D928A95E1F79E012F5F3F4F38A72FA345
:1009B000AE014B5E5F4F5E8B4D8B312C0FA118A5A6
:1009C000D80111968C9111978F938C918F93A6E4F7
:1009D000B3E0BF93AF93A8D67894F801808191815A
:1009E0002FA138A52E5F3F4F38A72FA3D7DEF8944D
:1009F0000F900F900F900F903F8E38A239A23AA21D
:100A00003BA23CA23DA23EA2F0D24C01AC0160E070
:100A100070E080E090E0DC018F8A588F698F7A8FD8
:100A20008B8F9C8FAD8FBE8F2F8D38A149A15AA17E
:100A30006BA17CA18DA19EA1AF88B88CC32CD32CB7
:100A4000E32CF32C032D132D1CD6222E532E642EB3
:100A5000752EA62EB72E082F192F2F8F38A349A336
:100A60005AA36BA37CA38DA39EA3B8DE99231CF489
:100A7000919581959109BC01882777FD8095982FE4
:100A8000C5D46B017C01B40180E090E0BDD49B0132
:100A9000AC01C701B6011FD4C62ED72EE82EF92E01
:100AA0009090D9048090DA045091DB045F8B4090E1
:100AB000DC04292D382D452F542D09D4882324F406
:100AC000C92CD82CEF88F42C8C2D9D2DAE2DBF2D4C
:100AD0008093D9049093DA04A093DB04B093DC04F0
:100AE0006FEF70E782E0615070408040E1F700C036
:100AF0000000222D352D462D572D6A2D7B2D802F60
:100B0000912F08E0A2D5253508F47ECFAFA1B8A576
:100B1000ED89FE89AE17BF0709F050CF20E030E025
:100B20004AE754E46091D9047091DA048091DB04BF
:100B30009091DC041FD537D47F936F938BE593E0BE
:100B40009F938F93F1D5789480E090E027DEF8941E
:100B50000F900F900F900F90A8960FB6F894DEBFED
:100B60000FBECDBFDF91CF911F910F91FF90EF90FE
:100B7000DF90CF90BF90AF909F908F907F906F90BD
:100B80005F904F903F902F900895CF93C82F80E0B3
:100B900072DDE2DDE2E0F1E080818F7D80838081A3
:100BA0008064808380E090E0F9DD8FEF8093010125
:100BB00015D214DEC13089F018F0C23081F010C0B7
:100BC00089ED9EECA7EFBEE38093D9049093DA04FD
:100BD000A093DB04B093DC0403C02ADE01C0BFDEB7
:100BE000CF910895CF92DF92EF92FF92CF93DF9350
:100BF000F5DD7C01FAD1EC01B701882777FD8095FE
:100C0000982F04D46B017C01BE0180E090E0FCD3FE
:100C10009B01AC01C701B6015ED320E030E048EC97
:100C200052E4A8D42091D9043091DA044091DB0435
:100C30005091DC0450D3B7D36536710544F46C3958
:100C40008FEF780714F46CE97FEF862F01C084E6FC
:100C5000DF91CF91FF90EF90DF90CF90089580E0EB
:100C600090E0A0EAB1E48093F9049093FA04A09391
:100C7000FB04B093FC041092F5041092F604109259
:100C8000F7041092F80480E090E0A0E0BFE38093C6
:100C9000ED049093EE04A093EF04B093F0048DEC78
:100CA0009CECACE4BEE38093F1049093F204A09337
:100CB000F304B093F4040895CF92DF92EF92FF9281
:100CC0000F931F93CF93DF936B017C018BDF682F12
:100CD000772767FD7095872F972F98D39B01AC01DD
:100CE000C701B6018FD26B017C01C5EFD4E06881EA
:100CF00079818A819B81A701960185D26883798356
:100D00008A839B83688179818A819B810091F90420
:100D10001091FA042091FB043091FC04A901980180
:100D20005058D5D2882364F48091F9049091FA0444
:100D3000A091FB04B091FC04BC01CD01905808C007
:100D40006091F5047091F6048091F7049091F80495
:100D50002091F9043091FA044091FB045091FC0475
:100D600005D418164CF48091F9049091FA04A091DE
:100D7000FB04B091FC0428C06091F5047091F60466
:100D80008091F7049091F8040091F9041091FA040D
:100D90002091FB043091FC04A9019801505897D28E
:100DA000882354F48091F9049091FA04A091FB04F3
:100DB000B091FC04B05808C08091F5049091F604FD
:100DC000A091F704B091F804E5EFF4E080839183FB
:100DD000A283B3838091ED049091EE04A091EF047F
:100DE000B091F0048091F1049091F204A091F30489
:100DF000B091F40480819181A281B381C701B601D1
:100E0000D2D2CB01CBDCDF91CF911F910F91FF901C
:100E1000EF90DF90CF900895A2D060E070E080EC7A
:100E20009FE3C1C008951F920F920FB60F92112435
:100E30000BB60F928F939F93EF93FF938091DD04F6
:100E40009091DE0401969093DE048093DD04E3E745
:100E5000F0E080818D7F8083FF91EF919F918F9152
:100E60000F900BBE0F900FBE0F901F9018951F9202
:100E70000F920FB60F9211240BB60F928F93EF9330
:100E8000FF932C9AE3E7F0E080818B7F8083D19AF7
:100E9000808182608083FF91EF918F910F900BBED4
:100EA0000F900FBE0F901F901895E1E2F1E0808146
:100EB00088608083A0E2B1E08C9180688C9380810F
:100EC0008160808380818D7F808380818460808346
:100ED0008FE492E1909329018093280184ED91E0C1
:100EE00090932B0180932A01D29AE3E7F0E080816E
:100EF000846080830895249A2C9AD7CF0895809196
:100F0000DD049091DE04892B59F01092DE041092DA
:100F1000DD042C98D29AE3E7F0E08081846080833E
:100F20000895229A219A279A209A8CB580618CBDC7
:100F30008CB581608CBD8CB580648CBD08958EBDF0
:100F40000DB407FEFDCF089580E0F9DF0DB407FE74
:100F5000FDCF8EB508952F9808952F9A0895E1E852
:100F6000F0E080818B7F80838081826080838081BC
:100F70008E7F808380818061808380818860808390
:100F8000E0E8F0E080818260808380818E7F8083D2
:100F90008FE39CE99093870080938600808180682E
:100FA0008083259A089520E034E244EF59E4E2D2A8
:100FB00020E030E04AE754E48ED120E030E040E821
:100FC0005FE320D1F5D17093890060938800089584
:100FD0001092950010929400C09A0895E1E9F0E013
:100FE000808184608083F4CF0895CF93DF93C09194
:100FF0009400D0919500ECDF209719F481E090E007
:1010000002C08C2F9D2FDF91CF9108958CE08093AB
:10101000B8008FEF8093BB0084E08093BC000895FC
:10102000ECEBF0E0208120FDFDCF6093E104FC01BA
:1010300020812093E20420FD0CC0623050F0DC01DE
:101040001196E3EEF4E081E09D9191938F5F86131A
:10105000FBCF1092E00488EF8093060285EA80932C
:10106000BC0008951F920F920FB60F9211240BB679
:101070000F922F933F938F939F93AF93BF93EF93D1
:10108000FF938091B90090E0FC013897E135F105BC
:1010900008F055C0EE58FF4FD0C21092DF04E09127
:1010A000DF048091E104E81770F481E08E0F8093F3
:1010B000DF04F0E0EE51FB4F80818093BB0085E8B8
:1010C0008093BC0043C08091E00481608093E00481
:1010D00084E98093BC003AC0E091DF0481E08E0F88
:1010E0008093DF048091BB00F0E0EE51FB4F8083E2
:1010F0002091DF0430E08091E10490E0019728170F
:10110000390724F485EC8093BC0020C085E88093E7
:10111000BC001CC08091BB00E091DF04F0E0EE5108
:10112000FB4F80838091E00481608093E00484E938
:101130008093BC000BC085EA8093BC0007C08091FF
:10114000B9008093060284E08093BC00FF91EF9188
:10115000BF91AF919F918F913F912F910F900BBEB7
:101160000F900FBE0F901F901895E0ECF0E090816B
:1011700095FFFDCF8093C6000895E0ECF0E08081FC
:101180008823ECF78091C60008959093C500809362
:10119000C40088E18093C1008EE08093C2006DEBB3
:1011A00078E085EB98E076C20895F89487E690E0C1
:1011B000ECDF8DE793E0C9D273D883EA93E0C5D220
:1011C0002BDE86EC93E0C1D22EDA8BEE93E0BDD21B
:1011D00080E0DBDC8DE094E0B8D241DD82E394E096
:1011E000B4D281E0B2D984E594E0AFD284DE8BE75B
:1011F00094E0ABD283EA94E0A8D278940895D5DF46
:10120000A8D9FFCF5058BB27AA270ED075C166D1E9
:1012100030F06BD120F031F49F3F11F41EF45BC12C
:101220000EF4E095E7FB51C1E92F77D180F3BA17AF
:10123000620773078407950718F071F49EF58FC154
:101240000EF4E0950B2EBA2FA02D0B01B9019001E1
:101250000C01CA01A0011124FF27591B99F0593F25
:1012600050F4503E68F11A16F040A22F232F342F6D
:101270004427585FF3CF469537952795A795F040BB
:101280005395C9F77EF41F16BA0B620B730B840BD0
:10129000BAF09150A1F0FF0FBB1F661F771F881F88
:1012A000C2F70EC0BA0F621F731F841F48F48795E0
:1012B00077956795B795F7959E3F08F0B3CF9395CF
:1012C000880F08F09927EE0F979587950895D9D044
:1012D00008F481E008950CD00FC107D140F0FED092
:1012E00030F021F45F3F19F0F0C0511139C1F3C063
:1012F00014D198F39923C9F35523B1F3951B550BDA
:10130000BB27AA2762177307840738F09F5F5F4FD8
:10131000220F331F441FAA1FA9F333D00E2E3AF019
:10132000E0E830D091505040E695001CCAF729D033
:10133000FE2F27D0660F771F881FBB1F2617370782
:101340004807AB07B0E809F0BB0B802DBF01FF27B2
:1013500093585F4F2AF09E3F510568F0B6C000C118
:101360005F3FECF3983EDCF3869577956795B795EC
:10137000F7959F5FC9F7880F911D9695879597F907
:101380000895E1E0660F771F881FBB1F6217730780
:101390008407BA0720F0621B730B840BBA0BEE1F95
:1013A00088F7E095089504D06894B111D9C00895E4
:1013B000BCD088F09F5790F0B92F9927B751A0F073
:1013C000D1F0660F771F881F991F1AF0BA95C9F7D9
:1013D00012C0B13081F0C3D0B1E00895C0C0672F12
:1013E000782F8827B85F39F0B93FCCF38695779589
:1013F0006795B395D9F73EF4909580957095619572
:101400007F4F8F4F9F4F0895E89409C097FB3EF49C
:1014100090958095709561957F4F8F4F9F4F992341
:10142000A9F0F92F96E9BB279395F69587957795BF
:101430006795B795F111F8CFFAF4BB0F11F460FF7F
:101440001BC06F5F7F4F8F4F9F4F16C0882311F0D7
:1014500096E911C0772321F09EE8872F762F05C0EB
:10146000662371F096E8862F70E060E02AF09A9586
:10147000660F771F881FDAF7880F9695879597F97B
:101480000895990F0008550FAA0BE0E8FEEF161615
:101490001706E807F907C0F012161306E407F50768
:1014A00098F0621B730B840B950B39F40A2661F0DC
:1014B000232B242B252B21F408950A2609F4A1407F
:1014C000A6958FEF811D811D089597F99F6780E88C
:1014D00070E060E008959FEF80EC089500240A9486
:1014E0001616170618060906089500240A941216FF
:1014F0001306140605060895092E0394000C11F432
:10150000882352F0BB0F40F4BF2B11F460FF04C0DE
:101510006F5F7F4F8F4F9F4F089557FD9058440F37
:10152000551F59F05F3F71F04795880F97FB991F42
:1015300061F09F3F79F087950895121613061406FF
:10154000551FF2CF4695F1DF08C01616170618068C
:10155000991FF1CF86957105610508940895E89467
:10156000BB2766277727CB0197F908958ADF08F410
:101570008FEF08950BD0C0CFB1DF28F0B6DF18F0A1
:10158000952309F0A2CFA7CF1124EACFC6DFA0F39D
:10159000959FD1F3950F50E0551F629FF001729F08
:1015A000BB27F00DB11D639FAA27F00DB11DAA1F27
:1015B000649F6627B00DA11D661F829F2227B00D74
:1015C000A11D621F739FB00DA11D621F839FA00DFF
:1015D000611D221F749F3327A00D611D231F849F4F
:1015E000600D211D822F762F6A2F11249F575040A6
:1015F0008AF0E1F088234AF0EE0FFF1FBB1F661F41
:10160000771F881F91505040A9F79E3F510570F0F9
:101610005CCFA6CF5F3FECF3983EDCF386957795E1
:101620006795B795F795E7959F5FC1F7FE2B880FF4
:10163000911D9695879597F90895EE0FFF1F0590D8
:10164000F491E02D199497FB10F8169400080F936D
:10165000083098F00850232F342F452F562F672F2E
:10166000782F892F902DF4CF0594979587957795AE
:10167000679557954795379527950A95AAF70F913E
:1016800008952A0D3B1D4C1D5D1D6E1D7F1D801F85
:10169000911F08950F931F93CF93DF93EC018B015C
:1016A000009731F46115710519F480E090E037C0BE
:1016B0006EE070E081E090E063D2FC010097A9F356
:1016C00080E883830115110571F01387028781E893
:1016D00083838091FD049091FE04892B21F4F09383
:1016E000FE04E093FD042097C9F0D187C087838171
:1016F000826083838091FF0490910005892B71F4AF
:10170000F0930005E093FF0480910105909102059C
:10171000892B21F4F0930205E0930105CF01DF91BD
:10172000CF911F910F910895CF93DF93CDB7DEB77F
:10173000FE01369661917191AF018091FF04909105
:10174000000530D0DF91CF9108950F931F93CF9371
:10175000DF93E091FF04F0910005238121FF1BC07E
:10176000EC0100E010E089916091FF0470910005A8
:10177000DB011896ED91FC911997882331F01995AA
:10178000892B89F30FEF1FEFEECF8AE01995892B94
:1017900011F4C80102C08FEF9FEFDF91CF911F912D
:1017A0000F9108952F923F924F925F926F927F9286
:1017B0008F929F92AF92BF92CF92DF92EF92FF9261
:1017C0000F931F93CF93DF93CDB7DEB72C970FB650
:1017D000F894DEBF0FBECDBF7C016B018A01FC0116
:1017E00017821682838181FFB0C1CE0101964C0120
:1017F000F7019381F60193FD859193FF81916F012C
:10180000882309F49EC1853239F493FD859193FFB5
:1018100081916F01853221F4B70190E00FD3E8CFB9
:10182000512C312C20E02032A0F48B3269F030F4BE
:10183000803259F0833269F420612CC08D3239F046
:10184000803339F4216026C02260246023C02860E0
:1018500021C027FD27C030ED380F3A3078F426FF3D
:1018600006C0FAE05F9E300D1124532E13C08AE0AB
:10187000389E300D1124332E20620CC08E3221F49C
:1018800026FD5FC1206406C08C3611F4206802C0BA
:10189000883641F4F60193FD859193FF81916F01A4
:1018A0008111C1CF982F9F7D9554933028F40C5F00
:1018B0001F4FFFE3F9830DC0833631F0833771F09A
:1018C000833509F057C021C0F801808189830E5FFC
:1018D0001F4F44244394512C540114C03801F2E0AA
:1018E0006F0E711CF801A080B18026FF03C0652D2A
:1018F00070E002C06FEF7FEFC5012C8794D22C01FE
:1019000083012C852F77222E16C03801F2E06F0E4E
:10191000711CF801A080B18026FF03C0652D70E026
:1019200002C06FEF7FEFC5012C876BD22C012C8595
:101930002068222E830123FC19C0832D90E04816D5
:101940005906A0F4B70180E290E078D23A94F5CF3E
:10195000F50127FC859127FE81915F01B70190E099
:101960006DD231103A94F1E04F1A510841145104EC
:1019700079F7DEC0843611F0893631F5F80127FF9A
:1019800007C060817181828193810C5F1F4F08C005
:1019900060817181882777FD8095982F0E5F1F4F9A
:1019A0002F76B22E97FF09C090958095709561951E
:1019B0007F4F8F4F9F4F2068B22E2AE030E0A40166
:1019C0006FD2A82EA81843C0853729F42F7EB22ED7
:1019D0002AE030E025C0F22FF97FBF2E8F36C1F00C
:1019E00018F4883579F0ADC0803719F0883721F0C8
:1019F000A8C02F2F2061B22EB4FE0DC08B2D8460A5
:101A0000B82E09C024FF0AC09F2F9660B92E06C0C9
:101A100028E030E005C020E130E002C020E132E003
:101A2000F801B7FE07C060817181828193810C5FEC
:101A30001F4F06C06081718180E090E00E5F1F4FF4
:101A4000A4012ED2A82EA818FB2DFF77BF2EB6FE1C
:101A50000BC02B2D2E7FA51450F4B4FE0AC0B2FC8F
:101A600008C02B2D2E7E05C07A2C2B2D03C07A2C7E
:101A700001C0752C24FF0DC0FE01EA0DF11D80810F
:101A8000803311F4297E09C022FF06C07394739439
:101A900004C0822F867809F0739423FD12C020FFC2
:101AA00006C05A2C731418F4530C5718732C731463
:101AB00060F4B70180E290E02C87C0D173942C854C
:101AC000F6CF731410F4371801C0312C24FF11C065
:101AD000B70180E390E02C87B1D12C8522FF16C09E
:101AE00021FF03C088E590E002C088E790E0B701DD
:101AF0000CC0822F867851F021FD02C080E201C027
:101B00008BE227FD8DE2B70190E098D1A51430F467
:101B1000B70180E390E092D15A94F8CFAA94F401EF
:101B2000EA0DF11D8081B70190E088D1A110F6CFB8
:101B3000332009F45DCEB70180E290E07FD13A9482
:101B4000F7CFF7018681978102C08FEF9FEF2C9628
:101B50000FB6F894DEBF0FBECDBFDF91CF911F91BE
:101B60000F91FF90EF90DF90CF90BF90AF909F903C
:101B70008F907F906F905F904F903F902F9008953F
:101B80000F931F93CF93DF93869F8001879F100D44
:101B9000969F100D1124C8010DD0EC01009721F083
:101BA000A80160E070E038D1CE01DF91CF911F91A4
:101BB0000F910895CF93DF938230910510F482E066
:101BC00090E0E0910505F091060520E030E0A0E00E
:101BD000B0E0309739F14081518148175907B8F08A
:101BE0004817590771F482819381109729F0139651
:101BF0009C938E9312972CC09093060580930505B5
:101C000027C02115310531F04217530718F0A901FB
:101C1000DB0101C0EF019A01BD01DF010280F38108
:101C2000E02DD7CF21153105F9F0281B390B2430D1
:101C3000310580F48A819B816115710521F0FB01DA
:101C40009383828304C09093060580930505FE016B
:101C5000329644C0FE01E20FF31F8193919322500C
:101C60003109398328833AC0209103053091040556
:101C7000232B41F42091020230910302309304059A
:101C800020930305209100023091010221153105B6
:101C900041F42DB73EB74091040250910502241B38
:101CA000350BE0910305F0910405E217F307A0F46A
:101CB0002E1B3F0B2817390778F0AC014E5F5F4FA2
:101CC0002417350748F04E0F5F1F509304054093CB
:101CD00003058193919302C0E0E0F0E0CF01DF9132
:101CE000CF910895CF93DF93009709F487C0FC014B
:101CF000329713821282C0910505D0910605209774
:101D000081F420813181280F391F80910305909142
:101D100004058217930779F5F0930405E093030512
:101D20006DC0DE0120E030E0AE17BF0750F4129620
:101D30004D915C9113979D014115510509F1DA010F
:101D4000F3CFB383A28340815181840F951F8A17FB
:101D50009B0771F48D919C911197840F951F0296AA
:101D60009183808312968D919C91139793838283A4
:101D70002115310529F4F0930605E09305053EC0D1
:101D8000D9011396FC93EE9312974D915D91A40F98
:101D9000B51FEA17FB0779F480819181840F951FA5
:101DA0000296D90111969C938E938281938113960A
:101DB0009C938E931297E0E0F0E08A819B810097DC
:101DC00019F0FE01EC01F9CFCE010296288139818C
:101DD000820F931F209103053091040528173907BE
:101DE00069F4309729F4109206051092050502C097
:101DF00013821282D0930405C0930305DF91CF9123
:101E00000895FC010590615070400110D8F780954D
:101E100090958E0F9F1F0895DC0101C06D93415076
:101E20005040E0F70895FC016150704001900110AE
:101E3000D8F7809590958E0F9F1F08950F931F934D
:101E4000CF93DF93182F092FEB018B8181FD03C006
:101E50008FEF9FEF20C082FF10C04E815F812C81E9
:101E60003D81421753077CF4E881F9819F012F5F80
:101E70003F4F39832883108306C0E885F985812F79
:101E80001995892B29F72E813F812F5F3F4F3F8383
:101E90002E83812F902FDF91CF911F910F91089565
:101EA000FA01AA27283051F1203181F1E8946F938B
:101EB0006E7F6E5F7F4F8F4F9F4FAF4FB1E03ED031
:101EC000B4E03CD0670F781F891F9A1FA11D680FCF
:101ED000791F8A1F911DA11D6A0F711D811D911D02
:101EE000A11D20D009F468943F912AE0269F112477
:101EF0003019305D3193DEF6CF010895462F4770DB
:101F0000405D4193B3E00FD0C9F7F6CF462F4F7035
:101F1000405D4A3318F0495D31FD4052419302D093
:101F2000A9F7EACFB4E0A695979587957795679539
:101F3000BA95C9F700976105710508959B01AC0139
:101F40000A2E06945795479537952795BA95C9F760
:101F5000620F731F841F951FA01D0895F894FFCF73
:101F6000000007052000F864009CFF64009CFF64EB
:101F7000009CFF64009CFF64009CFF534F4D455440
:101F800048494E472057454E5420534552494F55D6
:101F9000534C592057524F4E4720574954482054CC
:101FA00048452043414E20425553205B25645D0A3D
:101FB000004D435032353135206973204E4F542047
:101FC000696E20636F6E66696775726174696F6EA2
:101FD000206D6F646520616674657220726573653B
:101FE0007421002D2D2D2D2D2D2D2D2D2D2D2D2D13
:101FF0002D2D2D2D2D2D2D2D2D2D2D2D2D2D2D2D11
:102000002D2D2D2D2D2D2D2D2D2D2D2D2D2D2D2D00
:102010002D2D2D2D2D2D2D2D2D2D2D2D0043414CD4
:102020004942524154452054484520454E434F446F
:102030004552204259204D4541535552494E472063
:10204000544845204D4158494D554D2056454C4F1B
:102050004349545900505245535320414E59204250
:102060005554544F4E20544F20434F4E54494E55D3
:1020700045005B4D414E55414C5D203130303020A4
:102080002A204D41582053504545443A2025640AA2
:102090000043414C4942524154494F4E20434F4D19
:1020A000504C455445005365742076656C6F6369E8
:1020B000747920746F3A2025640A005B4155544FAF
:1020C0004D415449435D2031303030202A204D416C
:1020D000582053504545443A2025640A000A5B4E77
:1020E0004F444520325D5B6D61696E2E635D3A2021
:1020F000555341525420696E697469616C697A65FF
:10210000642E005B4E4F444520325D5B6D61696E0D
:102110002E635D3A2043414E20696E697469616C9B
:10212000697A65642E005B4E4F444520325D5B6DDD
:1021300061696E2E635D3A20534552564F20696E99
:10214000697469616C697A65642E005B4E4F444521
:1021500020325D5B6D61696E2E635D3A20495220CD
:10216000696E697469616C697A65642E005B4E4FB3
:10217000444520325D5B6D61696E2E635D3A204D92
:102180004F544F5220696E697469616C697A656455
:1021900021005B4E4F444520325D5B6D61696E2EC0
:1021A000635D3A20504920696E697469616C697A8F
:1021B000656421005B4E4F444520325D5B6D616973
:1021C0006E2E635D3A20434F4E54524F4C20696E41
:1021D000697469616C697A656421005B4E4F44459E
:1021E00020325D5B6D61696E2E635D3A20534F4C0A
:1021F000454E4F494420696E697469616C697A651E
:102200006421000A3D3D3D3D3D3D20494E49544934
:10221000414C495A4154494F4E20434F4D504C4533
:0C2220005445203D3D3D3D3D3D0A000081
:00000001FF
