S00D00004E6F6465322E737265635F
S1130000C2C00000E1C00000DFC00000DDC000008D
S1130010DBC00000D9C000001CC10000D5C0000036
S1130020D3C00000D1C00000CFC00000CDC000008C
S1130030CBC00000C9C00000C7C00000C5C000009C
S1130040C3C00000C1C00000BFC00000BDC00000AC
S1130050BBC00000B9C00000B7C00000B5C00000BC
S1130060B3C00000B1C00000AFC00000ADC00000CC
S1130070ABC00000A9C00000A7C00000A5C00000DC
S1130080A3C00000A1C000009FC000009DC00000EC
S11300909BC0000099C0000097C000000C948F081A
S11300A093C0000091C00000C4C100008DC00000D6
S11300B08BC0000089C0000087C0000011C7000089
S11300C033C7000081C000007FC000007DC0000075
S11300D07BC0000079C0000077C0000075C000003C
S11300E073C00000AA08FC08FC08FC08FC08FC0813
S11300F0FC08FC08AA08FC08FC08FC08FC08FC082E
S1130100FC08FC08AC08FC08FC08FC08FC08FC081B
S1130110FC08FC08FC08FC08FC08FC08FC08FC08BB
S1130120FC08FC08AC08FC08FC08FC08FC08FC08FB
S1130130FC08FC08FC08FC08FC08FC08FC08FC089B
S1130140FC08FC08F808FC08FC08FC08FC08FC088F
S1130150FC08FC08D508FC08FC08FC08FC08FC08A2
S1130160FC08FC08FC08FC08FC08FC08FC08FC086B
S1130170FC08FC08C908FC08FC08FC08FC08FC088E
S1130180FC08FC08E70811241FBECFEFD1E2DEBF54
S1130190CDBF00E00CBF15E0A0E0B2E0EAE1F0E280
S11301A000E00BBF02C007900D92A233B107D9F74C
S11301B025E0A2E3B5E001C01D92AF36B207E1F736
S11301C00E945C090C940B101BCFEAE7F0E08081DD
S11301D08068808380818460808380818260808362
S11301E0808181608083ECE7F0E08081806480839B
S11301F00895805C80937C00EAE7F0E0808180646D
S11302008083808186FDFDCF809178009091790074
S11302100895CF93F8948CE25CD2C82F80FF0AC073
S113022040E061E08CE27AD221E030E030933505A1
S113023020933405C1FF0AC040E062E08CE26ED234
S113024081E090E090933305809332057894CF91C8
S113025008951F920F920FB60F9211240BB60F92AE
S11302602F933F934F935F936F937F938F939F93BA
S1130270AF93BF93EF93FF93CCDFFF91EF91BF91C7
S1130280AF919F918F917F916F915F914F913F912A
S11302902F910F900BBE0F900FBE0F901F901895CB
S11302A0ED98EAE6F0E08081877F808380818B7F10
S11302B08083ED9A4CD24FEF64E680E62FD24FEF65
S11302C060E680E72BD263E08BE210D240E060EE80
S11302D08FE024C208958295807F805DFAD186954F
S11302E08695869591E08927817090E008950F9313
S11302F01F93CF93DF93EC0180E0EDDF892B29F18D
S113030008811981B80176956795769567957695F4
S1130310679581E3EBD1602F6295660F607E82E37F
S1130320E5D16A8185E3E2D18A81882361F010E016
S1130330FE01E10FF11D638186E3810FD7D11F5FB9
S11303408A811817A8F381E0E0D1DF91CF911F9142
S11303500F910895DF92EF92FF920F931F93CF9323
S1130360DF938C01F8948091340590913505892BA5
S113037039F01092350510923405C0E0D0E013C076
S11303808091320590913305892B39F01092330511
S113039010923205C1E0D0E006C0F8011282118249
S11303A0108278943EC0FC2EFF0CFF0CFF0CFF0C57
S11303B081E68F0D8ED1E82E82E68F0D8AD12E2D07
S11303C030E0220F331F220F331F220F331F829579
S11303D086958770280F311DF8013183208385E6C7
S11303E08F0D77D18770F80182838823C9F07E014D
S11303F0EE0CFF1CEE0CFF1CEE0CFF1CEE0CFF1CA5
S1130400D12CCD2DD0E0CE018A599F4F8E0D61D1D4
S1130410C00FD11F8B83D394F8018281D81688F33F
S11304207894DF91CF911F910F91FF90EF90DF901F
S113043008951F920F920FB60F9211248F939F93DA
S113044080914C0590914D05019690934D058093B4
S11304504C0580914C0590914D050A979CF01092A3
S11304604D0510924C0581E090E0909352058093E5
S1130470510580914F059091500501969093500538
S113048080934F0581E090E0909354058093530549
S11304909F918F910F900FBE0F901F901895CF933F
S11304A0DF93CDB7DEB72B970FB6F894DEBF0FBE40
S11304B0CDBF28E630E03A83298322E02B839C8356
S11304C08D83CE01019613DF2B960FB6F894DEBF11
S11304D00FBECDBFDF91CF910895E0EAF0E08081B7
S11304E080688083E1EAF0E080818860808380E234
S11304F09EE49093A9008093A80080818B7F8083E1
S113050080818260808380818E7F8083E2E7F0E057
S1130510808182608083109252051092510510925E
S1130520500510924F0510924D0510924C050895F8
S113053080934E05D2CF0895CF93DF93CDB7DEB726
S11305402B970FB6F894DEBF0FBECDBF00E010E0CE
S1130550F12CCE010196FEDE29813A812337310543
S1130560C1F71092500510924F054CC0CE01019670
S1130570F1DE29813A812115310559F023363105FF
S113058021F4FC801F81088504C08DE692E00E945E
S1130590020C812F58D402FD0FD580915305909100
S11305A05405892BC9F0109254051092530580917B
S11305B04E05882319F0813039F00EC08F2D99270C
S11305C087FD9095FBD008C06F2D772767FD709548
S11305D0872F972F78D780D380915105909152051A
S11305E0892B81F0109252051092510519D088235D
S11305F021F01092500510924F0580914F05909173
S113060050054DDF89819A818137910509F0AECF7C
S11306108FE719D480E090E0D1D09BCFD6CD089558
S1130620CF93DF9380E090E0E4DDEAE3F5E020811E
S1130630318130933D0520933C05A8E3B5E04D910D
S11306405C91119751834083E6E3F5E06081718109
S11306506D937C9391838083680F791F460F571F96
S1130660240F351FE901D695C795D695C795DF9315
S1130670CF938DE992E09F938F930E94F10B81E0D9
S11306800F900F900F900F902A9708F080E0DF9161
S1130690CF910895CF93C82F16D57894CC0FC05B13
S11306A0C0933E05CF910895CF93DF9300D0CDB78B
S11306B0DEB790913E059983880F8A836B8363E04C
S11306C0CE0101960AD50F900F900F90DF91CF9134
S11306D00895CF93C82F9CD483E08ED48C2F8CD4D0
S11306E090D4C82F97D48C2FCF910895CF93DF93B4
S11306F0D82FC62F8DD482E07FD48D2F7DD48C2F1C
S11307007BD488D4DF91CF910895CF93C82F80D420
S113071080E88C0F71D47ED4CF9108951F93CF932A
S1130720DF93182FD62FC42F73D485E065D4812F7F
S113073063D48D2F61D48C2F5FD46CD4DF91CF918F
S11307401F91089565D480EC57D464C4089546D4A9
S1130750F9DF8FE891E00197F1F700C000008EE027
S1130760B8DF807E803831F087EB92E00E94020C83
S113077081E0089580E00895E2E0F1E08081806105
S113078080830895811106C0E2E0F1E080818D7FCD
S113079080830895E2E0F1E080818260808308959F
S11307A0682F70E080E090E08ED621EE3AE744EEC8
S11307B05FE33DD75AD680E077CF0895CF93DF9398
S11307C0C82FD92FCC398FEFD80714F4CCE9DFEF39
S11307D0892F8095881F8827881FD4DFC536D105C7
S11307E014F0C4E6D0E0CE01DD2324F48827992751
S11307F08C1B9D0BD5DFDF91CF910895E2E0F1E0F2
S113080080818F7D80838081877F80832AE62A95FB
S1130810F1F700C08091060190E0982F882720818D
S1130820286020833AE63A95F1F700C0209106014A
S113083030813F7B308335E83A95F1F70000308111
S113084030643083308130623083820F911D08958B
S11308508F929F92BF92CF92DF92EF92FF920F936B
S11308601F93CF93DF93CDB7DEB72B970FB6F894D2
S1130870DEBF0FBECDBF89EE92E0C4D783E293E022
S1130880C1D78BE593E0BED789EE92E0BBD708E7EA
S113089013E0CE0101965EDD8B818823D1F3888538
S11308A08370B82E8C81992787FD909587DFA6DF0A
S11308B07C01F8D34C01B701FF2024F46627772785
S11308C06E197F09882777FD8095982FFCD56B01D9
S11308D07C01B40180E090E0F4D59B01AC01C70138
S11308E0B60156D56B017C0120913F05309140053E
S11308F0409141055091420596D61816CCF4C09209
S11309003F05D0924005E0924105F092420520E077
S113091030E04AE754E4C701B60189D6A1D57F93F4
S11309206F931F930F935DD70F900F900F900F90BD
S11309308FE39CE90197F1F700C00000BB2009F4A4
S1130940A8CF89EE92E05ED787E993E05BD789EE82
S113095092E058D780E090E031DF2B960FB6F89400
S1130960DEBF0FBECDBFDF91CF911F910F91FF90DE
S1130970EF90DF90CF90BF909F908F9008952F922B
S11309803F924F925F926F927F928F929F92AF921B
S1130990BF92CF92DF92EF92FF920F931F93CF9368
S11309A0DF93CDB7DEB7A8970FB6F894DEBF0FBEBE
S11309B0CDBFF89484E1E7E0F2E0DE011196019006
S11309C00D928A95E1F79E012F5F3F4F38A72FA321
S11309D0AE014B5E5F4F5E8B4D8B312C0FA118A582
S11309E0D80111968C9111978F938C918F93ACEAC7
S11309F0B3E0BF93AF93F5D67894F80180819181E9
S1130A002FA138A52E5F3F4F38A72FA3D7DEF89428
S1130A100F900F900F900F903F8E38A239A23AA2F8
S1130A203BA23CA23DA23EA23DD34C01AC0160E0FE
S1130A3070E080E090E0DC018F8A588F698F7A8FB4
S1130A408B8F9C8FAD8FBE8F2F8D38A149A15AA15A
S1130A506BA17CA18DA19EA1AF88B88CC32CD32C93
S1130A60E32CF32C032D132D69D6222E532E642E42
S1130A70752EA62EB72E082F192F2F8F38A349A312
S1130A805AA36BA37CA38DA39EA3B8DE99231CF465
S1130A90919581959109BC01882777FD8095982FC0
S1130AA012D56B017C01B40180E090E00AD59B0172
S1130AB0AC01C701B6016CD4C62ED72EE82EF92E90
S1130AC090903F0580904005509141055F8B409088
S1130AD04205292D382D452F542D56D4882324F42E
S1130AE0C92CD82CEF88F42C8C2D9D2DAE2DBF2D28
S1130AF080933F0590934005A0934105B093420530
S1130B006FEF70E782E0615070408040E1F700C011
S1130B100000222D352D462D572D6A2D7B2D802F3B
S1130B20912F08E0EFD5253508F47ECFAFA1B8A505
S1130B30ED89FE89AE17BF0709F050CF20E030E001
S1130B404AE754E460913F05709140058091410566
S1130B50909142056CD584D47F936F9381EC93E09C
S1130B609F938F933ED6789480E090E027DEF894AC
S1130B700F900F900F900F90A8960FB6F894DEBFC9
S1130B800FBECDBFDF91CF911F910F91FF90EF90DA
S1130B90DF90CF90BF90AF909F908F907F906F9099
S1130BA05F904F903F902F900895CF93C82F80E08F
S1130BB071DDE2DDE2E0F1E080818F7D8083808180
S1130BC08064808380E090E0F9DD8FEF8093010101
S1130BD062D214DEC13089F018F0C23081F010C046
S1130BE089ED9EECA7EFBEE380933F05909340050B
S1130BF0A0934105B093420503C02ADE01C0BFDEC5
S1130C00CF910895CF92DF92EF92FF92CF93DF932B
S1130C10F5DD7C0147D2EC01B701882777FD80958B
S1130C20982F51D46B017C01BE0180E090E049D43F
S1130C309B01AC01C701B601ABD320E030E048EC26
S1130C4052E4F5D420913F0530914005409141058F
S1130C50509142059DD304D46536710544F46C3932
S1130C608FEF780714F46CE97FEF862F01C084E6D8
S1130C70DF91CF91FF90EF90DF90CF90089580E0C7
S1130C8090E0A0EAB1E48093610590936205A0939B
S1130C906305B093640510925D0510925E05109291
S1130CA05F051092600580E090E0A0E0BFE38093D0
S1130CB0550590935605A0935705B09358058DECB0
S1130CC09CECACE4BEE38093590590935A05A09341
S1130CD05B05B0935C050895CF92DF92EF92FF928B
S1130CE00F931F93CF93DF936B017C018BDF682FEE
S1130CF0772767FD7095872F972FE5D39B01AC016C
S1130D00C701B601DCD26B017C01CDE5D5E0688179
S1130D1079818A819B81A7019601D2D268837983E4
S1130D208A839B83688179818A819B810091610593
S1130D30109162052091630530916405A901980121
S1130D40505822D3882364F4809161059091620500
S1130D50A0916305B0916405BC01CD01905808C011
S1130D6060915D0570915E0580915F0590916005CD
S1130D7020916105309162054091630550916405AD
S1130D8052D418164CF48091610590916205A0919B
S1130D906305B091640528C060915D0570915E059E
S1130DA080915F0590916005009161051091620545
S1130DB02091630530916405A90198015058E4D24B
S1130DC0882354F48091610590916205A091630594
S1130DD0B0916405B05808C080915D0590915E059E
S1130DE0A0915F05B0916005EDE5F5E08083918306
S1130DF0A283B3838091550590915605A091570520
S1130E00B09158058091590590915A05A0915B05C0
S1130E10B0915C0580819181A281B381C701B60143
S1130E201FD3CB01CBDCDF91CF911F910F91FF90AA
S1130E30EF90DF90CF900895EFD060E070E080EC09
S1130E409FE30EC10895CF92DF92EF92FF92682F35
S1130E5070E080E090E035D320E030E04FE753E4E9
S1130E6097D220E030E040E85FE32AD26B017C01B6
S1130E7020E030E040E85FE387D28823DCF020E024
S1130E8030E040E050E4C701B601CDD31816DCF0E1
S1130E9020E030E040E85FE3C701B60175D2882363
S1130EA0BCF40F2EC12CD12CF0E8EF2EFFE3FF2E63
S1130EB0F02D0EC00F2EC12CD12CF0E8EF2EFFE345
S1130EC0FF2EF02D05C0C12CD12C76016894F6F8C4
S1130ED0C701B601C5D0FF90EF90DF90CF90089581
S1130EE01F920F920FB60F9211240BB60F928F938D
S1130EF09F93EF93FF93809143059091440501964E
S1130F009093440580934305E3E7F0E080818D7F6F
S1130F108083FF91EF919F918F910F900BBE0F9063
S1130F200FBE0F901F9018951F920F920FB60F923D
S1130F3011240BB60F928F93EF93FF932C9AE3E750
S1130F40F0E080818B7F8083D19A8081826080836E
S1130F50FF91EF918F910F900BBE0F900FBE0F90EA
S1130F601F901895E1E2F1E0808188608083A0E21F
S1130F70B1E08C9180688C938081816080838081D2
S1130F808D7F80838081846080838FE492E190935D
S1130F9029018093280184ED91E090932B018093A3
S1130FA02A01D29AE3E7F0E0808184608083089587
S1130FB0249A2C9AD7CF08958091430590914405A3
S1130FC0892B59F010924405109243052C98D29A1B
S1130FD0E3E7F0E08081846080830895229A219A77
S1130FE0279A209A8CB580618CBD8CB581608CBDAC
S1130FF08CB580648CBD08958EBD0DB407FEFDCF05
S1131000089580E0F9DF0DB407FEFDCF8EB5089595
S11310102F9808952F9A0895E1E8F0E080818B7F5E
S1131020808380818260808380818E7F80838081C1
S113103080618083808188608083E0E8F0E0808143
S11310408260808380818E7F80838FE39CE990938C
S1131050870080938600808180688083259A089524
S113106020E034E244EF59E4E2D220E030E04AE701
S113107054E48ED120E030E040E85FE320D1F5D1A4
S113108070938900609388000895109295001092DF
S11310909400C09A0895E1E9F0E08081846080833F
S11310A0F4CF0895CF93DF93C0919400D09195002D
S11310B0ECDF209719F481E090E002C08C2F9D2F83
S11310C0DF91CF9108958CE08093B8008FEF8093E7
S11310D0BB0084E08093BC000895ECEBF0E0208139
S11310E020FDFDCF60934705FC0120812093480536
S11310F020FD0CC0623050F0DC011196E9E4F5E00B
S113110081E09D9191938F5F8613FBCF10924605EA
S113111088EF8093060285EA8093BC0008951F92AD
S11311200F920FB60F9211240BB60F922F933F9389
S11311308F939F93AF93BF93EF93FF938091B900E5
S113114090E0FC013897E135F10508F055C0EE5800
S1131150FF4FD0C210924505E091450580914705A7
S1131160E81770F481E08E0F80934505F0E0E85BAA
S1131170FA4F80818093BB0085E88093BC0043C014
S11311808091460581608093460584E98093BC0084
S11311903AC0E091450581E08E0F8093450580912A
S11311A0BB00F0E0E85BFA4F80832091450530E016
S11311B08091470590E001972817390724F485ECBE
S11311C08093BC0020C085E88093BC001CC0809143
S11311D0BB00E0914505F0E0E85BFA4F8083809125
S11311E0460581608093460584E98093BC000BC06A
S11311F085EA8093BC0007C08091B9008093060201
S113120084E08093BC00FF91EF91BF91AF919F91D7
S11312108F913F912F910F900BBE0F900FBE0F90A7
S11312201F901895E0ECF0E0908195FFFDCF80933E
S1131230C6000895E0ECF0E080818823ECF780910B
S1131240C60008959093C5008093C40088E18093FC
S1131250C1008EE08093C2006AE179E082E199E006
S113126076C20895F89487E690E0ECDF83EE93E08D
S1131270C9D216D889E094E0C5D2DEDD8CE294E0D0
S1131280C1D2CCD981E594E0BDD280E08EDC83E785
S113129094E0B8D2F4DC88E994E0B4D281E048D98F
S11312A08AEB94E0AFD284DE81EE94E0ABD289E0A5
S11312B095E0A8D278940895D5DF3ED9FECF505852
S11312C0BB27AA270ED075C166D130F06BD120F0B0
S11312D031F49F3F11F41EF45BC10EF4E095E7FB7B
S11312E051C1E92F77D180F3BA17620773078407D6
S11312F0950718F071F49EF58FC10EF4E0950B2E4E
S1131300BA2FA02D0B01B90190010C01CA01A00153
S11313101124FF27591B99F0593F50F4503E68F1AE
S11313201A16F040A22F232F342F4427585FF3CFEF
S1131330469537952795A795F0405395C9F77EF4C0
S11313401F16BA0B620B730B840BBAF09150A1F009
S1131350FF0FBB1F661F771F881FC2F70EC0BA0F8F
S1131360621F731F841F48F4879577956795B79517
S1131370F7959E3F08F0B3CF9395880F08F099270F
S1131380EE0F979587950895D9D008F481E00895D4
S11313900CD00FC107D140F0FED030F021F45F3FF4
S11313A019F0F0C0511139C1F3C014D198F3992345
S11313B0C9F35523B1F3951B550BBB27AA27621715
S11313C07307840738F09F5F5F4F220F331F441F5A
S11313D0AA1FA9F333D00E2E3AF0E0E830D0915092
S11313E05040E695001CCAF729D0FE2F27D0660F7F
S11313F0771F881FBB1F261737074807AB07B0E8BE
S113140009F0BB0B802DBF01FF2793585F4F2AF0D3
S11314109E3F510568F0B6C000C15F3FECF3983EB3
S1131420DCF3869577956795B795F7959F5FC9F730
S1131430880F911D9695879597F90895E1E0660FB9
S1131440771F881FBB1F621773078407BA0720F032
S1131450621B730B840BBA0BEE1F88F7E09508959B
S113146004D06894B111D9C00895BCD088F09F57B6
S113147090F0B92F9927B751A0F0D1F0660F771FDC
S1131480881F991F1AF0BA95C9F712C0B13081F0BC
S1131490C3D0B1E00895C0C0672F782F8827B85F04
S11314A039F0B93FCCF3869577956795B395D9F71D
S11314B03EF490958095709561957F4F8F4F9F4F27
S11314C00895E89409C097FB3EF490958095709533
S11314D061957F4F8F4F9F4F9923A9F0F92F96E97C
S11314E0BB279395F695879577956795B795F111F1
S11314F0F8CFFAF4BB0F11F460FF1BC06F5F7F4F8E
S11315008F4F9F4F16C0882311F096E911C077239F
S113151021F09EE8872F762F05C0662371F096E8A8
S1131520862F70E060E02AF09A95660F771F881F77
S1131530DAF7880F9695879597F90895990F00081B
S1131540550FAA0BE0E8FEEF16161706E807F90791
S1131550C0F012161306E407F50798F0621B730B2C
S1131560840B950B39F40A2661F0232B242B252BAD
S113157021F408950A2609F4A140A6958FEF811D50
S1131580811D089597F99F6780E870E060E00895F1
S11315909FEF80EC089500240A9416161706180687
S11315A00906089500240A94121613061406050663
S11315B00895092E0394000C11F4882352F0BB0FF4
S11315C040F4BF2B11F460FF04C06F5F7F4F8F4F57
S11315D09F4F089557FD9058440F551F59F05F3F92
S11315E071F04795880F97FB991F61F09F3F79F041
S11315F087950895121613061406551FF2CF4695C3
S1131600F1DF08C0161617061806991FF1CF869544
S11316107105610508940895E894BB276627772728
S1131620CB0197F908958ADF08F48FEF08950BD062
S1131630C0CFB1DF28F0B6DF18F0952309F0A2CFB0
S1131640A7CF1124EACFC6DFA0F3959FD1F3950F5E
S113165050E0551F629FF001729FBB27F00DB11D32
S1131660639FAA27F00DB11DAA1F649F6627B00DC2
S1131670A11D661F829F2227B00DA11D621F739FAB
S1131680B00DA11D621F839FA00D611D221F749FB9
S11316903327A00D611D231F849F600D211D822F00
S11316A0762F6A2F11249F5750408AF0E1F0882347
S11316B04AF0EE0FFF1FBB1F661F771F881F915054
S11316C05040A9F79E3F510570F05CCFA6CF5F3F15
S11316D0ECF3983EDCF3869577956795B795F79587
S11316E0E7959F5FC1F7FE2B880F911D969587950F
S11316F097F90895EE0FFF1F0590F491E02D1994CA
S113170097FB10F8169400080F93083098F00850CF
S1131710232F342F452F562F672F782F892F902D65
S1131720F4CF059497958795779567955795479541
S1131730379527950A95AAF70F9108952A0D3B1D11
S11317404C1D5D1D6E1D7F1D801F911F08950F93FD
S11317501F93CF93DF93EC018B01009731F4611554
S1131760710519F480E090E037C06EE070E081E02C
S113177090E063D2FC010097A9F380E8838301150C
S1131780110571F01387028781E8838380916505D1
S113179090916605892B21F4F0936605E093650525
S11317A02097C9F0D187C087838182608383809129
S11317B0670590916805892B71F4F0936805E093AF
S11317C067058091690590916A05892B21F4F0934E
S11317D06A05E0936905CF01DF91CF911F910F91C5
S11317E00895CF93DF93CDB7DEB7FE0136966191AE
S11317F07191AF01809167059091680530D0DF91B8
S1131800CF9108950F931F93CF93DF93E0916705D2
S1131810F0916805238121FF1BC0EC0100E010E07A
S113182089916091670570916805DB011896ED91C7
S1131830FC911997882331F01995892B89F30FEFBF
S11318401FEFEECF8AE01995892B11F4C80102C06D
S11318508FEF9FEFDF91CF911F910F9108952F92FA
S11318603F924F925F926F927F928F929F92AF922C
S1131870BF92CF92DF92EF92FF920F931F93CF9379
S1131880DF93CDB7DEB72C970FB6F894DEBF0FBE4B
S1131890CDBF7C016B018A01FC0117821682838112
S11318A081FFB0C1CE0101964C01F7019381F6018D
S11318B093FD859193FF81916F01882309F49EC163
S11318C0853239F493FD859193FF81916F018532BF
S11318D021F4B70190E00FD3E8CF512C312C20E054
S11318E02032A0F48B3269F030F4803259F0833224
S11318F069F420612CC08D3239F0803339F42160D1
S113190026C02260246023C0286021C027FD27C090
S113191030ED380F3A3078F426FF06C0FAE05F9EC7
S1131920300D1124532E13C08AE0389E300D11243B
S1131930332E20620CC08E3221F426FD5FC1206458
S113194006C08C3611F4206802C0883641F4F601D2
S113195093FD859193FF81916F018111C1CF982FE0
S11319609F7D9554933028F40C5F1F4FFFE3F98358
S11319700DC0833631F0833771F0833509F057C0D9
S113198021C0F801808189830E5F1F4F4424439452
S1131990512C540114C03801F2E06F0E711CF8018F
S11319A0A080B18026FF03C0652D70E002C06FEFF8
S11319B07FEFC5012C8794D22C0183012C852F77CE
S11319C0222E16C03801F2E06F0E711CF801A080BF
S11319D0B18026FF03C0652D70E002C06FEF7FEF7A
S11319E0C5012C876BD22C012C852068222E830103
S11319F023FC19C0832D90E048165906A0F4B701C2
S1131A0080E290E078D23A94F5CFF50127FC8591F5
S1131A1027FE81915F01B70190E06DD231103A94B5
S1131A20F1E04F1A51084114510479F7DEC08436AD
S1131A3011F0893631F5F80127FF07C06081718103
S1131A40828193810C5F1F4F08C060817181882758
S1131A5077FD8095982F0E5F1F4F2F76B22E97FF3C
S1131A6009C090958095709561957F4F8F4F9F4FDA
S1131A702068B22E2AE030E0A4016FD2A82EA81864
S1131A8043C0853729F42F7EB22E2AE030E025C0EA
S1131A90F22FF97FBF2E8F36C1F018F4883579F014
S1131AA0ADC0803719F0883721F0A8C02F2F2061EE
S1131AB0B22EB4FE0DC08B2D8460B82E09C024FF55
S1131AC00AC09F2F9660B92E06C028E030E005C0FA
S1131AD020E130E002C020E132E0F801B7FE07C0A7
S1131AE060817181828193810C5F1F4F06C0608188
S1131AF0718180E090E00E5F1F4FA4012ED2A82ECA
S1131B00A818FB2DFF77BF2EB6FE0BC02B2D2E7F02
S1131B10A51450F4B4FE0AC0B2FC08C02B2D2E7ECE
S1131B2005C07A2C2B2D03C07A2C01C0752C24FF00
S1131B300DC0FE01EA0DF11D8081803311F4297E70
S1131B4009C022FF06C07394739404C0822F867860
S1131B5009F0739423FD12C020FF06C05A2C73149D
S1131B6018F4530C5718732C731460F4B70180E203
S1131B7090E02C87C0D173942C85F6CF731410F4A5
S1131B80371801C0312C24FF11C0B70180E390E065
S1131B902C87B1D12C8522FF16C021FF03C088E514
S1131BA090E002C088E790E0B7010CC0822F8678ED
S1131BB051F021FD02C080E201C08BE227FD8DE2DD
S1131BC0B70190E098D1A51430F4B70180E390E018
S1131BD092D15A94F8CFAA94F401EA0DF11D8081B0
S1131BE0B70190E088D1A110F6CF332009F45DCE7F
S1131BF0B70180E290E07FD13A94F7CFF701868174
S1131C00978102C08FEF9FEF2C960FB6F894DEBF3A
S1131C100FBECDBFDF91CF911F910F91FF90EF9039
S1131C20DF90CF90BF90AF909F908F907F906F90F8
S1131C305F904F903F902F9008950F931F93CF93F1
S1131C40DF93869F8001879F100D969F100D1124AE
S1131C50C8010DD0EC01009721F0A80160E070E00C
S1131C6038D1CE01DF91CF911F910F910895CF9379
S1131C70DF938230910510F482E090E0E0916D05ED
S1131C80F0916E0520E030E0A0E0B0E0309739F14B
S1131C904081518148175907B8F04817590771F422
S1131CA082819381109729F013969C938E931297B7
S1131CB02CC090936E0580936D0527C021153105C6
S1131CC031F04217530718F0A901DB0101C0EF01FD
S1131CD09A01BD01DF010280F381E02DD7CF2115E8
S1131CE03105F9F0281B390B2430310580F48A8141
S1131CF09B816115710521F0FB019383828304C0EC
S1131D0090936E0580936D05FE01329644C0FE01EA
S1131D10E20FF31F81939193225031093983288371
S1131D203AC020916B0530916C05232B41F420912E
S1131D3002023091030230936C0520936B052091CD
S1131D400002309101022115310541F42DB73EB74F
S1131D504091040250910502241B350BE0916B0560
S1131D60F0916C05E217F307A0F42E1B3F0B281724
S1131D70390778F0AC014E5F5F4F2417350748F000
S1131D804E0F5F1F50936C0540936B0581939193A5
S1131D9002C0E0E0F0E0CF01DF91CF910895CF934E
S1131DA0DF93009709F487C0FC01329713821282F3
S1131DB0C0916D05D0916E05209781F42081318109
S1131DC0280F391F80916B0590916C05821793073A
S1131DD079F5F0936C05E0936B056DC0DE0120E0AE
S1131DE030E0AE17BF0750F412964D915C911397F3
S1131DF09D014115510509F1DA01F3CFB383A283A3
S1131E0040815181840F951F8A179B0771F48D912E
S1131E109C911197840F951F02969183808312964B
S1131E208D919C911397938382832115310529F415
S1131E30F0936E05E0936D053EC0D9011396FC93B3
S1131E40EE9312974D915D91A40FB51FEA17FB070E
S1131E5079F480819181840F951F0296D90111969E
S1131E609C938E938281938113969C938E93129765
S1131E70E0E0F0E08A819B81009719F0FE01EC011B
S1131E80F9CFCE01029628813981820F931F2091C8
S1131E906B0530916C052817390769F4309729F4DC
S1131EA010926E0510926D0502C013821282D093B7
S1131EB06C05C0936B05DF91CF910895FC010590EB
S1131EC0615070400110D8F7809590958E0F9F1F38
S1131ED00895DC0101C06D9341505040E0F708952E
S1131EE0FC016150704001900110D8F780959095E5
S1131EF08E0F9F1F08950F931F93CF93DF93182F77
S1131F00092FEB018B8181FD03C08FEF9FEF20C070
S1131F1082FF10C04E815F812C813D81421753079F
S1131F207CF4E881F9819F012F5F3F4F3983288337
S1131F30108306C0E885F985812F1995892B29F727
S1131F402E813F812F5F3F4F3F832E83812F902F20
S1131F50DF91CF911F910F910895FA01AA2728309C
S1131F6051F1203181F1E8946F936E7F6E5F7F4F62
S1131F708F4F9F4FAF4FB1E03ED0B4E03CD0670FDE
S1131F80781F891F9A1FA11D680F791F8A1F911D31
S1131F90A11D6A0F711D811D911DA11D20D009F481
S1131FA068943F912AE0269F11243019305D3193C3
S1131FB0DEF6CF010895462F4770405D4193B3E0AC
S1131FC00FD0C9F7F6CF462F4F70405D4A3318F053
S1131FD0495D31FD4052419302D0A9F7EACFB4E004
S1131FE0A6959795879577956795BA95C9F70097BC
S1131FF06105710508959B01AC010A2E069457955D
S1132000479537952795BA95C9F7620F731F841FB3
S10D2010951FA01D0895F894FFCF5A
S113201A00006F052000F864009CFF64009CFF64C4
S113202A009CFF64009CFF64009CFF0A3D3D3D2028
S113203A43414E204D455353414745204245474964
S113204A4E203D3D3D0069643A202564096C656E65
S113205A6774683A2025640920444154413A0A00C5
S113206A257809000A3D3D3D2043414E204D455304
S113207A5341474520454E44203D3D3D00534F4D75
S113208A455448494E472057454E542053455249D2
S113209A4F55534C592057524F4E4720574954488D
S11320AA205448452043414E204255530046696C0A
S11320BA7465726564206272696768746E657373A5
S11320CA3A202534640A004D4350323531352069AB
S11320DA73204E4F5420696E20636F6E666967756C
S11320EA726174696F6E206D6F64652061667465D0
S11320FA7220726573657421002D2D2D2D2D2D2DC1
S113210A2D2D2D2D2D2D2D2D2D2D2D2D2D2D2D2DF1
S113211A2D2D2D2D2D2D2D2D2D2D2D2D2D2D2D2DE1
S113212A2D2D2D2D2D2D2D2D2D2D2D2D2D2D2D2DD1
S113213A2D2D0043414C49425241544520544845AF
S113214A20454E434F444552204259204D45415360
S113215A5552494E4720544845204D4158494D55FA
S113216A4D2056454C4F43495459005052455353F8
S113217A20414E5920425554544F4E20544F204327
S113218A4F4E54494E5545005B4D414E55414C5DA9
S113219A2031303030202A204D41582053504545B3
S11321AA443A2025640A0043414C49425241544965
S11321BA4F4E20434F4D504C4554450053657420AF
S11321CA76656C6F6369747920746F3A2025640AA2
S11321DA005B4155544F4D415449435D20313030E1
S11321EA30202A204D41582053504545443A202551
S11321FA640A000A5B4E4F444520325D5B6D616997
S113220A6E2E635D3A20555341525420696E6974A7
S113221A69616C697A65642E005B4E4F44452032CD
S113222A5D5B6D61696E2E635D3A2043414E2069A0
S113223A6E697469616C697A65642E005B4E4F44F9
S113224A4520325D5B6D61696E2E635D3A205345AC
S113225A52564F20696E697469616C697A65642E95
S113226A005B4E4F444520325D5B6D61696E2E639F
S113227A5D3A20495220696E697469616C697A65AC
S113228A642E005B4E4F444520325D5B6D61696E7E
S113229A2E635D3A204D4F544F5220696E6974691A
S11322AA616C697A656421005B4E4F444520325D56
S11322BA5B6D61696E2E635D3A20504920696E69CF
S11322CA7469616C697A656421005B4E4F444520E8
S11322DA325D5B6D61696E2E635D3A20434F4E54E5
S11322EA524F4C20696E697469616C697A6564211C
S11322FA005B4E4F444520325D5B6D61696E2E630F
S113230A5D3A20534F4C454E4F494420696E6974D7
S113231A69616C697A656421000A3D3D3D3D3D3D34
S113232A20494E495449414C495A4154494F4E2037
S113233A434F4D504C455445203D3D3D3D3D3D0A9E
S105234A00008D
S9030000FC
