S00D00004E6F6465322E737265635F
S1130000C2C00000E0C00000DEC00000DCC0000090
S1130010DAC00000D8C0000009C10000D4C000004C
S1130020D2C00000D0C00000CEC00000CCC0000090
S1130030CAC00000C8C00000C6C00000C4C00000A0
S1130040C2C00000C0C00000BEC00000BCC00000B0
S1130050BAC00000C3C10000B6C00000B4C00000B4
S1130060B2C00000B0C00000AEC00000ACC00000D0
S1130070AAC00000A8C00000A6C00000A4C00000E0
S1130080A2C00000A0C000009EC000009CC00000F0
S11300909AC0000098C0000096C00000EFC600009F
S11300A092C0000090C000008EC000008CC0000010
S11300B08AC0000088C0000086C0000084C0000020
S11300C082C0000080C000007EC000007CC0000030
S11300D07AC0000078C0000076C0000074C0000040
S11300E072C000005907AB07AB07AB07AB07AB0700
S11300F0AB07AB075907AB07AB07AB07AB07AB07BE
S1130100AB07AB075B07AB07AB07AB07AB07AB07AB
S1130110AB07AB07AB07AB07AB07AB07AB07AB074B
S1130120AB07AB075B07AB07AB07AB07AB07AB078B
S1130130AB07AB07AB07AB07AB07AB07AB07AB072B
S1130140AB07AB07A707AB07AB07AB07AB07AB071F
S1130150AB07AB078407AB07AB07AB07AB07AB0732
S1130160AB07AB07AB07AB07AB07AB07AB07AB07FB
S1130170AB07AB077807AB07AB07AB07AB07AB071E
S1130180AB07AB07960711241FBECFEFD1E2DEBF4A
S1130190CDBF00E00CBF13E0A0E0B2E0ECE4FDE171
S11301A000E00BBF02C007900D92AA36B107D9F741
S11301B023E0AAE6B3E001C01D92A839B207E1F733
S11301C00ED70C94A40E1CCFEAE7F0E0808180687F
S11301D08083808184608083808182608083808149
S11301E081608083ECE7F0E08081806480830895FF
S11301F0CF938CE28DD1C82F80FF0AC040E061E02C
S11302008CE293D121E030E030936D0320936C03B2
S1130210C1FF0AC040E062E08CE287D181E090E057
S113022090936B0380936A03CF9108951F920F926A
S11302300FB60F9211240BB60F922F933F934F9347
S11302405F936F937F938F939F93AF93BF93EF933A
S1130250FF93CEDFFF91EF91BF91AF919F918F916B
S11302607F916F915F914F913F912F910F900BBEB2
S11302700F900FBE0F901F901895ED98EAE6F0E0EE
S11302808081877F808380818B7F8083ED9A66D194
S11302904FEF64E680E649D14FEF60E680E745D151
S11302A043E063E08BE241D140E060EE8FE03DC18A
S11302B00895DF92EF92FF920F931F93CF93DF93F2
S11302C08C01F89480916C0390916D03892B39F023
S11302D010926D0310926C03C0E0D0E011C08091C5
S11302E06A0390916B03892B39F010926B0310927F
S11302F06A03C1E0D0E004C0F801128278943EC0E1
S1130300FC2EFF0CFF0CFF0CFF0C81E68F0D00D1BF
S1130310E82E82E68F0DFCD02E2D30E0220F331F05
S1130320220F331F220F331F829586958770280F63
S1130330311DF8013183208385E68F0DE9D0877064
S1130340F80182838823C9F07E01EE0CFF1CEE0CB9
S1130350FF1CEE0CFF1CEE0CFF1CD12CCD2DD0E0AD
S1130360CE018A599F4F8E0DD3D0C00FD11F8B83DE
S1130370D394F8018281D81688F37894DF91CF91D1
S11303801F910F91FF90EF90DF9008950F931F93AB
S1130390CF93DF93CDB7DEB72B970FB6F894DEBFBC
S11303A00FBECDBF8C011B82CE01019682DF8B81F3
S11303B08823D1F38BE0FE013196D80101900D9290
S11303C08A95E1F7C8012B960FB6F894DEBF0FBEED
S11303D0CDBFDF91CF911F910F9108951F920F927E
S11303E00FB60F9211248F939F9380917A0390916B
S11303F07B0301968334910534F480917A039091C0
S11304007B03019602C082E490E090937B03809387
S11304107A0381E090E090937D0380937C039F9125
S11304208F910F900FBE0F901F90189584B5826026
S113043084BD85B5816085BD85B5846085BD8AEE42
S113044087BDEEE6F0E08081826080830895CF93DB
S1130450DF93CDB7DEB72B970FB6F894DEBF0FBE90
S1130460CDBFF82ECE01019691DF0C811E819885B7
S113047020917A0330917B032234310539F492FFC1
S113048005C055D410927B0310927A03812FFFD3B9
S113049020917C0330917D03232B21F310927D0363
S11304A010927C03FF2021F081E0F81639F0DACFB6
S11304B0802F992787FD909587D0D4CF602F7727F9
S11304C067FD7095872F972F97D60DD3CBCF7CCE12
S11304D00895CF93C82FA6D47894CC0FC05BC09353
S11304E06E03CF910895CF93DF9300D0CDB7DEB7DD
S11304F090916E039983880F8A836B8363E0CE01A6
S113050001969AD40F900F900F90DF91CF91089598
S1130510CF93C82F32D483E024D48C2F22D426D472
S1130520C82F2DD48C2FCF9108951F93CF93DF9391
S1130530182FD62FC42F21D485E013D4812F11D4A2
S11305408D2F0FD48C2F0DD41AD4DF91CF911F91FE
S1130550089513D480EC05D412C40895F4D3F9DFBC
S11305608FE891E00197F1F700C000008EE0D0DF42
S1130570807E803829F08BE192E0DDD781E0089518
S113058080E00895E2E0F1E0808180618083089555
S1130590811106C0E2E0F1E080818D7F80830895BF
S11305A0E2E0F1E08081826080830895682F70E04A
S11305B080E090E021D621EE3AE744EE5FE3D0D626
S11305C0EDD580E090CF0895CF93DF93C82FD92F36
S11305D0CC398FEFD80714F4CCE9DFEF892F80955D
S11305E0881F8827881FD4DFC536D10514F0C4E6D8
S11305F0D0E0CE01DD2324F4882799278C1B9D0BA2
S1130600D5DFDF91CF910895E2E0F1E080818F7D25
S113061080838081877F80832AE62A95F1F700C052
S11306208091060190E0982F8827208128602083FC
S11306303AE63A95F1F700C02091060130813F7BFC
S1130640308335E83A95F1F7000030813064308327
S1130650308130623083820F911D08958F929F9272
S1130660AF92BF92CF92DF92EF92FF921F93CF93FC
S1130670DF93CDB7DEB72B970FB6F894DEBF0FBE6E
S1130680CDBF8DE492E057D787E892E054D78FEB43
S113069092E051D78DE492E04ED70F2EFCEDAF2EB1
S11306A0F2E0BF2EF02DCE01019670DE8885182F62
S11306B013708C81992787FD909586DFA5DF7C01D7
S11306C0A6D34C01B701FF2024F4662777276E19BF
S11306D07F09882777FD8095982F8ED56B017C0143
S11306E0B40180E090E086D59B01AC01C701B6015E
S11306F0E8D46B017C0120916F0330917003409129
S113070071035091720328D61816CCF4C0926F036B
S1130710D0927003E0927103F092720320E030E013
S11307204AE754E4C701B6011BD633D57F936F93D0
S1130730BF92AF92EFD60F900F900F900F908FE370
S11307409CE90197F1F700C00000112309F4ABCF35
S11307508DE492E0F0D68BEF92E0EDD68DE492E05A
S1130760EAD680E090E030DF2B960FB6F894DEBF37
S11307700FBECDBFDF91CF911F91FF90EF90DF901F
S1130780CF90BF90AF909F908F9008952F923F92FB
S11307904F925F926F927F928F929F92AF92BF928D
S11307A0CF92DF92EF92FF920F931F93CF93DF9339
S11307B0CDB7DEB7A8970FB6F894DEBF0FBECDBF96
S11307C0F89484E1E7E0F2E0DE01119601900D92E5
S11307D08A95E1F79E012F5F3F4F38A72FA3AE0103
S11307E04B5E5F4F5E8B4D8B312C0FA118A5D8014A
S11307F011968C9111978F938C918F93A0E1B3E014
S1130800BF93AF9387D67894F801808191812FA10B
S113081038A52E5F3F4F38A72FA3D6DEF8940F904C
S11308200F900F900F903F8E38A239A23AA23BA2AC
S11308303CA23DA23EA2EBD24C01AC0160E070E0D0
S113084080E090E0DC018F8A588F698F7A8F8B8FDC
S11308509C8FAD8FBE8F2F8D38A149A15AA16BA15A
S11308607CA18DA19EA1AF88B88CC32CD32CE32C82
S1130870F32C032D132DFBD5222E532E642E752E0F
S1130880A62EB72E082F192F2F8F38A349A35AA3AA
S11308906BA37CA38DA39EA3B7DE99231CF491952F
S11308A081959109BC01882777FD8095982FA4D460
S11308B06B017C01B40180E090E09CD49B01AC010D
S11308C0C701B601FED3C62ED72EE82EF92E90907E
S11308D06F0380907003509171035F8B409072039B
S11308E0292D382D452F542DE8D3882324F4C92CE1
S11308F0D82CEF88F42C8C2D9D2DAE2DBF2D8093FC
S11309006F0390937003A0937103B09372036FEF1E
S113091070E782E0615070408040E1F700C0000061
S1130920222D352D462D572D6A2D7B2D802F912F6D
S113093008E081D5253508F47ECFAFA1B8A5ED89AF
S1130940FE89AE17BF0709F050CF20E030E04AE738
S113095054E460916F0370917003809171039091DE
S11309607203FED416D47F936F9385E293E09F9332
S11309708F93D0D5789480E090E026DEF8940F90A1
S11309800F900F900F90A8960FB6F894DEBF0FBE8D
S1130990CDBFDF91CF911F910F91FF90EF90DF902A
S11309A0CF90BF90AF909F908F907F906F905F900B
S11309B04F903F902F900895CF93C82F80E089DD0A
S11309C0E1DDE2E0F1E080818F7D808380818064DD
S11309D0808380E090E0F8DD8FEF8093010110D2F6
S11309E013DEC13089F018F0C23081F010C089EDF7
S11309F09EECA7EFBEE380936F0390937003A093E4
S1130A007103B093720303C029DE01C0BFDECF912E
S1130A100895CF92DF92EF92FF92CF93DF93F4DDAC
S1130A207C01F5D1EC01B701882777FD8095982FDB
S1130A30E3D36B017C01BE0180E090E0DBD39B013A
S1130A40AC01C701B6013DD320E030E048EC52E4EC
S1130A5087D420916F0330917003409171035091BA
S1130A6072032FD396D36536710544F46C398FEF36
S1130A70780714F46CE97FEF862F01C084E6DF91D8
S1130A80CF91FF90EF90DF90CF90089580E090E0B9
S1130A90A0EAB1E480938A0390938B03A0938C0320
S1130AA0B0938D03109286031092870310928803EB
S1130AB01092890380E090E0A0E0BFE380937E037E
S1130AC090937F03A0938003B09381038DEC9CECFF
S1130AD0ACE4BEE38093820390938303A0938403E6
S1130AE0B093850308954F925F926F927F928F9295
S1130AF09F92AF92BF92CF92DF92EF92FF920F93A9
S1130B001F93CF93DF936B017C0183DF682F7727DB
S1130B1067FD7095872F972F6FD39B01AC01C70199
S1130B20B60166D26B017C01C6E8D3E068817981A5
S1130B308A819B81A70196015CD2688379838A8329
S1130B409B83688179818A819B8100918A031091BA
S1130B508B0320918C0330918D03A9019801505887
S1130B60ACD2882364F480918A0390918B03A09182
S1130B708C03B0918D03BC01CD01905808C06091E5
S1130B808603709187038091880390918903209153
S1130B908A0330918B0340918C0350918D03DCD3F5
S1130BA018164CF480918A0390918B03A0918C03C6
S1130BB0B0918D0328C06091860370918703809162
S1130BC088039091890300918A0310918B032091EB
S1130BD08C0330918D03A901980150586ED288235B
S1130BE054F480918A0390918B03A0918C03B0916B
S1130BF08D03B05808C08091860390918703A0911B
S1130C008803B0918903E6E8F3E080839183A283AB
S1130C10B38360917E0370917F03809180039091F0
S1130C2081038090820390908303A0908403B0900A
S1130C3085034080518062807380A701960190D320
S1130C406B017C01A3019201C501B40189D39B010D
S1130C50AC01C701B601CDD19CD2CB01B5DCDF918B
S1130C60CF911F910F91FF90EF90DF90CF90BF90A5
S1130C70AF909F908F907F906F905F904F9008956A
S1130C8080D060E070E080EC9FE39FC00895CF9235
S1130C90DF92EF92FF92682F70E080E090E0AAD29A
S1130CA020E030E04FE753E40CD220E030E040E8AD
S1130CB05FE39FD16B017C0120E030E040E85FE31B
S1130CC0FCD18823DCF020E030E040E050E4C701B0
S1130CD0B60142D31816DCF020E030E040E85FE3D0
S1130CE0C701B601EAD18823BCF40F2EC12CD12C44
S1130CF0F0E8EF2EFFE3FF2EF02D0EC00F2EC12CD7
S1130D00D12CF0E8EF2EFFE3FF2EF02D05C0C12C0F
S1130D10D12C76016894F6F8C701B60156D0FF903D
S1130D20EF90DF90CF900895249A2C9A08952C98F0
S1130D302FEF86E791E0215080409040E1F700C01A
S1130D4000002C9A0895229A219A279A209A8CB509
S1130D5080618CBD8CB581608CBD8CB580648CBD8C
S1130D6008958EBD0DB407FEFDCF089580E0F9DF30
S1130D700DB407FEFDCF8EB508952F9808952F9AD0
S1130D800895E1E8F0E080818B7F80838081826038
S1130D90808380818E7F8083808180618083808155
S1130DA088608083E0E8F0E08081826080838081D5
S1130DB08E7F80838FE39CE99093870080938600E5
S1130DC0808180688083259A089520E034E244EF8E
S1130DD059E4C6D220E030E04AE754E472D120E07E
S1130DE030E040E85FE304D1D9D170938900609387
S1130DF0880008951092950010929400C09A089566
S1130E00E1E9F0E0808184608083F4CF0895CF939A
S1130E10DF93C0919400D0919500ECDFCE01DF9177
S1130E20CF9108958CE08093B8008FEF8093BB003E
S1130E3084E08093BC000895ECEBF0E0208120FD79
S1130E40FDCF60937503FC0120812093760320FD80
S1130E500CC0623050F0DC011196E7E7F3E081E06A
S1130E609D9191938F5F8613FBCF1092740388EF4B
S1130E708093060285EA8093BC0008951F920F9226
S1130E800FB60F9211240BB60F922F933F938F93AB
S1130E909F93AF93BF93EF93FF938091B90090E03A
S1130EA0FC013897E135F10508F055C0EE58FF4FC5
S1130EB0BAC210927303E091730380917503E8172B
S1130EC070F481E08E0F80937303F0E0EA58FC4FD6
S1130ED080818093BB0085E88093BC0043C08091EF
S1130EE0740381608093740384E98093BC003AC0E6
S1130EF0E091730381E08E0F809373038091BB00B4
S1130F00F0E0EA58FC4F80832091730330E0809135
S1130F10750390E001972817390724F485EC809332
S1130F20BC0020C085E88093BC001CC08091BB003D
S1130F30E0917303F0E0EA58FC4F808380917403DE
S1130F4081608093740384E98093BC000BC085EABC
S1130F508093BC0007C08091B9008093060284E0AE
S1130F608093BC00FF91EF91BF91AF919F918F91BE
S1130F703F912F910F900BBE0F900FBE0F901F90BB
S1130F801895E0ECF0E0908195FFFDCF8093C600CA
S1130F900895E0ECF0E080818823ECF78091C600AE
S1130FA008959093C5008093C40088E18093C100A4
S1130FB08EE08093C20069EC77E081EC97E060C238
S1130FC00895F89487E690E0ECDF57D959DE7FDA8C
S1130FD080E0F2DC5BDD2ADAA7DE78940895F1DFA5
S1130FE087E493E0A8D281E032DA80E090E00895CB
S1130FF05058BB27AA270ED075C166D130F06BD1EB
S113100020F031F49F3F11F41EF45BC10EF4E0951F
S1131010E7FB51C1E92F77D180F3BA176207730751
S11310208407950718F071F49EF58FC10EF4E095CE
S11310300B2EBA2FA02D0B01B90190010C01CA018E
S1131040A0011124FF27591B99F0593F50F4503E39
S113105068F11A16F040A22F232F342F4427585F2B
S1131060F3CF469537952795A795F0405395C9F743
S11310707EF41F16BA0B620B730B840BBAF09150FB
S1131080A1F0FF0FBB1F661F771F881FC2F70EC09A
S1131090BA0F621F731F841F48F48795779567956D
S11310A0B795F7959E3F08F0B3CF9395880F08F056
S11310B09927EE0F979587950895D9D008F481E084
S11310C008950CD00FC107D140F0FED030F021F4C8
S11310D05F3F19F0F0C0511139C1F3C014D198F336
S11310E09923C9F35523B1F3951B550BBB27AA27A5
S11310F062177307840738F09F5F5F4F220F331F17
S1131100441FAA1FA9F333D00E2E3AF0E0E830D0E2
S113111091505040E695001CCAF729D0FE2F27D0E5
S1131120660F771F881FBB1F261737074807AB07B3
S1131130B0E809F0BB0B802DBF01FF2793585F4F28
S11311402AF09E3F510568F0B6C000C15F3FECF342
S1131150983EDCF3869577956795B795F7959F5FED
S1131160C9F7880F911D9695879597F90895E1E041
S1131170660F771F881FBB1F621773078407BA07A0
S113118020F0621B730B840BBA0BEE1F88F7E095FB
S1131190089504D06894B111D9C00895BCD088F0E2
S11311A09F5790F0B92F9927B751A0F0D1F0660F4F
S11311B0771F881F991F1AF0BA95C9F712C0B1306A
S11311C081F0C3D0B1E00895C0C0672F782F88277D
S11311D0B85F39F0B93FCCF3869577956795B395A9
S11311E0D9F73EF490958095709561957F4F8F4F18
S11311F09F4F0895E89409C097FB3EF4909580951D
S1131200709561957F4F8F4F9F4F9923A9F0F92FC8
S113121096E9BB279395F695879577956795B79546
S1131220F111F8CFFAF4BB0F11F460FF1BC06F5F2C
S11312307F4F8F4F9F4F16C0882311F096E911C03E
S1131240772321F09EE8872F762F05C0662371F05F
S113125096E8862F70E060E02AF09A95660F771F73
S1131260881FDAF7880F9695879597F90895990F4F
S11312700008550FAA0BE0E8FEEF16161706E8075C
S1131280F907C0F012161306E407F50798F0621B7D
S1131290730B840B950B39F40A2661F0232B242B52
S11312A0252B21F408950A2609F4A140A6958FEF71
S11312B0811D811D089597F99F6780E870E060E0C3
S11312C008959FEF80EC089500240A9416161706DB
S11312D018060906089500240A9412161306140623
S11312E005060895092E0394000C11F4882352F086
S11312F0BB0F40F4BF2B11F460FF04C06F5F7F4F3E
S11313008F4F9F4F089557FD9058440F551F59F024
S11313105F3F71F04795880F97FB991F61F09F3FDE
S113132079F087950895121613061406551FF2CF07
S11313304695F1DF08C0161617061806991FF1CF57
S113134086957105610508940895E894BB2766277E
S11313507727CB0197F908958ADF08F48FEF089572
S11313600BD0C0CFB1DF28F0B6DF18F0952309F019
S1131370A2CFA7CF1124EACFC6DFA0F3959FD1F364
S1131380950F50E0551F629FF001729FBB27F00D2F
S1131390B11D639FAA27F00DB11DAA1F649F662784
S11313A0B00DA11D661F829F2227B00DA11D621FD3
S11313B0739FB00DA11D621F839FA00D611D221F8D
S11313C0749F3327A00D611D231F849F600D211D71
S11313D0822F762F6A2F11249F5750408AF0E1F014
S11313E088234AF0EE0FFF1FBB1F661F771F881F5D
S11313F091505040A9F79E3F510570F05CCFA6CFA5
S11314005F3FECF3983EDCF3869577956795B79547
S1131410F795E7959F5FC1F7FE2B880F911D969571
S1131420879597F90895EE0FFF1F0590F491E02D2D
S1131430199497FB10F8169400080F93083098F04D
S11314400850232F342F452F562F672F782F892F9D
S1131450902DF4CF05949795879577956795579533
S11314604795379527950A95AAF70F9108952A0D60
S11314703B1D4C1D5D1D6E1D7F1D801F911F08951A
S11314800F931F93CF93DF93EC018B01009731F4FB
S11314906115710519F480E090E037C06EE070E0EA
S11314A081E090E063D2FC010097A9F380E8838394
S11314B00115110571F01387028781E883838091F8
S11314C08E0390918F03892B21F4F0938F03E09383
S11314D08E032097C9F0D187C0878381826083837C
S11314E08091900390919103892B71F4F09391036F
S11314F0E09390038091920390919303892B21F4BC
S1131500F0939303E0939203CF01DF91CF911F9166
S11315100F910895CF93DF93CDB7DEB7FE013696D2
S113152061917191AF01809190039091910330D0BA
S1131530DF91CF9108950F931F93CF93DF93E091A1
S11315409003F0919103238121FF1BC0EC0100E083
S113155010E089916091900370919103DB011896DA
S1131560ED91FC911997882331F01995892B89F312
S11315700FEF1FEFEECF8AE01995892B11F4C80104
S113158002C08FEF9FEFDF91CF911F910F910895CC
S11315902F923F924F925F926F927F928F929F927F
S11315A0AF92BF92CF92DF92EF92FF920F931F936D
S11315B0CF93DF93CDB7DEB72C970FB6F894DEBF89
S11315C00FBECDBF7C016B018A01FC01178216821C
S11315D0838181FFB0C1CE0101964C01F701938153
S11315E0F60193FD859193FF81916F01882309F49E
S11315F09EC1853239F493FD859193FF81916F01EA
S1131600853221F4B70190E00FD3E8CF512C312C6F
S113161020E02032A0F48B3269F030F4803259F0AB
S1131620833269F420612CC08D3239F0803339F46F
S1131630216026C02260246023C0286021C027FDC9
S113164027C030ED380F3A3078F426FF06C0FAE0B0
S11316505F9E300D1124532E13C08AE0389E300D46
S11316601124332E20620CC08E3221F426FD5FC17A
S1131670206406C08C3611F4206802C0883641F418
S1131680F60193FD859193FF81916F018111C1CF83
S1131690982F9F7D9554933028F40C5F1F4FFFE3E0
S11316A0F9830DC0833631F0833771F0833509F047
S11316B057C021C0F801808189830E5F1F4F4424E5
S11316C04394512C540114C03801F2E06F0E711C84
S11316D0F801A080B18026FF03C0652D70E002C030
S11316E06FEF7FEFC5012C8794D22C0183012C85E9
S11316F02F77222E16C03801F2E06F0E711CF8010C
S1131700A080B18026FF03C0652D70E002C06FEF9A
S11317107FEFC5012C876BD22C012C852068222EEB
S1131720830123FC19C0832D90E048165906A0F4C8
S1131730B70180E290E078D23A94F5CFF50127FC26
S1131740859127FE81915F01B70190E06DD2311040
S11317503A94F1E04F1A51084114510479F7DEC06C
S1131760843611F0893631F5F80127FF07C060810E
S11317707181828193810C5F1F4F08C060817181E8
S1131780882777FD8095982F0E5F1F4F2F76B22EF6
S113179097FF09C090958095709561957F4F8F4F05
S11317A09F4F2068B22E2AE030E0A4016FD2A82E09
S11317B0A81843C0853729F42F7EB22E2AE030E0E2
S11317C025C0F22FF97FBF2E8F36C1F018F488356B
S11317D079F0ADC0803719F0883721F0A8C02F2FD9
S11317E02061B22EB4FE0DC08B2D8460B82E09C0CA
S11317F024FF0AC09F2F9660B92E06C028E030E06F
S113180005C020E130E002C020E132E0F801B7FE7B
S113181007C060817181828193810C5F1F4F06C074
S11318206081718180E090E00E5F1F4FA4012ED291
S1131830A82EA818FB2DFF77BF2EB6FE0BC02B2DAC
S11318402E7FA51450F4B4FE0AC0B2FC08C02B2DA0
S11318502E7E05C07A2C2B2D03C07A2C01C0752C4A
S113186024FF0DC0FE01EA0DF11D8081803311F4C7
S1131870297E09C022FF06C07394739404C0822F8A
S1131880867809F0739423FD12C020FF06C05A2CF9
S1131890731418F4530C5718732C731460F4B701B1
S11318A080E290E02C87C0D173942C85F6CF73141A
S11318B010F4371801C0312C24FF11C0B70180E3A4
S11318C090E02C87B1D12C8522FF16C021FF03C0E4
S11318D088E590E002C088E790E0B7010CC0822F51
S11318E0867851F021FD02C080E201C08BE227FD21
S11318F08DE2B70190E098D1A51430F4B70180E3EC
S113190090E092D15A94F8CFAA94F401EA0DF11D13
S11319108081B70190E088D1A110F6CF332009F47B
S11319205DCEB70180E290E07FD13A94F7CFF70122
S11319308681978102C08FEF9FEF2C960FB6F894A3
S1131940DEBF0FBECDBFDF91CF911F910F91FF90EE
S1131950EF90DF90CF90BF90AF909F908F907F904B
S11319606F905F904F903F902F9008950F931F9327
S1131970CF93DF93869F8001879F100D969F100D54
S11319801124C8010DD0EC01009721F0A80160E0FA
S113199070E038D1CE01DF91CF911F910F9108955E
S11319A0CF93DF938230910510F482E090E0E091D0
S11319B09603F091970320E030E0A0E0B0E0309788
S11319C039F14081518148175907B8F04817590730
S11319D071F482819381109729F013969C938E93CE
S11319E012972CC0909397038093960327C02115D8
S11319F0310531F04217530718F0A901DB0101C08A
S1131A00EF019A01BD01DF010280F381E02DD7CF00
S1131A1021153105F9F0281B390B2430310580F4E8
S1131A208A819B816115710521F0FB019383828377
S1131A3004C09093970380939603FE01329644C0AA
S1131A40FE01E20FF31F81939193225031093983F0
S1131A5028833AC02091940330919503232B41F4B9
S1131A602091020230910302309395032093940352
S1131A7020910002309101022115310541F42DB766
S1131A803EB74091040250910502241B350BE091AE
S1131A909403F0919503E217F307A0F42E1B3F0B78
S1131AA02817390778F0AC014E5F5F4F24173507CC
S1131AB048F04E0F5F1F5093950340939403819316
S1131AC0919302C0E0E0F0E0CF01DF91CF9108955F
S1131AD0CF93DF93009709F487C0FC0132971382F8
S1131AE01282C0919603D0919703209781F42081AC
S1131AF03181280F391F80919403909195038217A7
S1131B00930779F5F0939503E09394036DC0DE0198
S1131B1020E030E0AE17BF0750F412964D915C916F
S1131B2013979D014115510509F1DA01F3CFB383F0
S1131B30A28340815181840F951F8A179B0771F4FA
S1131B408D919C911197840F951F029691838083A8
S1131B5012968D919C91139793838283211531055D
S1131B6029F4F0939703E09396033EC0D9011396AA
S1131B70FC93EE9312974D915D91A40FB51FEA1754
S1131B80FB0779F480819181840F951F0296D90116
S1131B9011969C938E938281938113969C938E933A
S1131BA01297E0E0F0E08A819B81009719F0FE0132
S1131BB0EC01F9CFCE01029628813981820F931F5F
S1131BC020919403309195032817390769F43097CD
S1131BD029F4109297031092960302C01382128282
S1131BE0D0939503C0939403DF91CF910895FC01A2
S1131BF00590615070400110D8F7809590958E0F34
S1131C009F1F0895DC0101C06D9341505040E0F7DF
S1131C100895FC016150704001900110D8F780953F
S1131C2090958E0F9F1F08950F931F93CF93DF936B
S1131C30182F092FEB018B8181FD03C08FEF9FEFDC
S1131C4020C082FF10C04E815F812C813D814217EC
S1131C5053077CF4E881F9819F012F5F3F4F39835B
S1131C602883108306C0E885F985812F1995892B6F
S1131C7029F72E813F812F5F3F4F3F832E83812F92
S1131C80902FDF91CF911F910F910895FA01AA2708
S1131C90283051F1203181F1E8946F936E7F6E5FAB
S1131CA07F4F8F4F9F4FAF4FB1E03ED0B4E03CD059
S1131CB0670F781F891F9A1FA11D680F791F8A1F3C
S1131CC0911DA11D6A0F711D811D911DA11D20D0A3
S1131CD009F468943F912AE0269F11243019305D5D
S1131CE03193DEF6CF010895462F4770405D41934E
S1131CF0B3E00FD0C9F7F6CF462F4F70405D4A339B
S1131D0018F0495D31FD4052419302D0A9F7EACF62
S1131D10B4E0A6959795879577956795BA95C9F791
S1131D2000976105710508959B01AC010A2E069484
S1131D305795479537952795BA95C9F7620F731F3D
S10F1D40841F951FA01D0895F894FFCF88
S1131D4C000098032000F864009CFF64009CFF646E
S1131D5C009CFF64009CFF64009CFF4D4350323593
S1131D6C3135206973204E4F5420696E20636F6E99
S1131D7C66696775726174696F6E206D6F64652036
S1131D8C616674657220726573657421002D2D2D46
S1131D9C2D2D2D2D2D2D2D2D2D2D2D2D2D2D2D2D63
S1131DAC2D2D2D2D2D2D2D2D2D2D2D2D2D2D2D2D53
S1131DBC2D2D2D2D2D2D2D2D2D2D2D2D2D2D2D2D43
S1131DCC2D2D2D2D2D2D0043414C4942524154456E
S1131DDC2054484520454E434F44455220425920F7
S1131DEC4D4541535552494E4720544845204D4189
S1131DFC58494D554D2056454C4F43495459005064
S1131E0C5245535320414E5920425554544F4E2061
S1131E1C544F20434F4E54494E5545005B4D414E53
S1131E2C55414C5D2031303030202A204D41582012
S1131E3C53504545443A2025640A0043414C4942D9
S1131E4C524154494F4E20434F4D504C455445003C
S1131E5C5365742076656C6F6369747920746F3A7A
S1131E6C2025640A005B4155544F4D415449435D50
S1131E7C2031303030202A204D41582053504545D4
S1131E8C443A2025640A005B4E4F4445325D204998
S1131E9C6E697469616C697A6174696F6E20636FC1
S10D1EAC6D706C657465210A000076
S9030000FC
