S00D00004E6F6465322E737265635F
S1130000C2C00000E0C00000DEC00000DCC0000090
S1130010DAC00000D8C0000019C10000D4C000003C
S1130020D2C00000D0C00000CEC00000CCC0000090
S1130030CAC00000C8C00000C6C00000C4C00000A0
S1130040C2C00000C0C00000BEC00000BCC00000B0
S1130050BAC00000B8C00000B6C00000B4C00000C0
S1130060B2C00000B0C00000AEC00000ACC00000D0
S1130070AAC00000A8C00000A6C00000A4C00000E0
S1130080A2C00000A0C000009EC000009CC00000F0
S11300909AC0000098C0000096C00000C0C20000D2
S11300A092C0000090C000008EC000008CC0000010
S11300B08AC0000088C0000086C0000084C0000020
S11300C082C0000080C000007EC000007CC0000030
S11300D07AC0000078C0000076C0000074C0000040
S11300E072C000002A037C037C037C037C037C0332
S11300F07C037C032A037C037C037C037C037C0356
S11301007C037C032C037C037C037C037C037C0343
S11301107C037C037C037C037C037C037C037C03E3
S11301207C037C032C037C037C037C037C037C0323
S11301307C037C037C037C037C037C037C037C03C3
S11301407C037C0378037C037C037C037C037C03B7
S11301507C037C0355037C037C037C037C037C03CA
S11301607C037C037C037C037C037C037C037C0393
S11301707C037C0349037C037C037C037C037C03B6
S11301807C037C03670311241FBECFEFD1E2DEBFE3
S1130190CDBF00E00CBF14E0A0E0B2E0E2E0F5E186
S11301A000E00BBF02C007900D92A232B107D9F74D
S11301B024E0A2E2B4E001C01D92AF33B207E1F73C
S11301C01CD30C947F0A1CCFEAE7F0E0808180689E
S11301D08083808184608083808182608083808149
S11301E081608083ECE7F0E08081806480830895FF
S11301F0805C80937C00EAE7F0E080818064808307
S1130200808186FDFDCF80917800909179000895DA
S1130210CF938CE229D1C82F80FF0AC040E061E06F
S11302208CE22FD121E030E0309325042093240484
S1130230C1FF0AC040E062E08CE223D181E090E09B
S11302409093230480932204CF9108951F920F92D8
S11302500FB60F9211240BB60F922F933F934F9327
S11302605F936F937F938F939F93AF93BF93EF931A
S1130270FF93CEDFFF91EF91BF91AF919F918F914B
S11302807F916F915F914F913F912F910F900BBE92
S11302900F900FBE0F901F901895ED98EAE6F0E0CE
S11302A08081877F808380818B7F8083ED9A02D1D8
S11302B08EE0DAD01F928F9387E092E09F938F9322
S11302C004D54FEF64E680E6DCD04FEF60E680E7CC
S11302D0D8D043E063E08BE2D4D08BE2C5D01F9248
S11302E08F9380E292E09F938F93EFD440E060EE8F
S11302F08FE0C7D08EE0B8D01F928F9381E392E055
S11303009F938F93E2D48DB79EB70C960FB6F89453
S11303109EBF0FBE8DBF0895DF92EF92FF920F93A1
S11303201F93CF93DF938C01F894809124049091D0
S11303302504892B39F01092250410922404C0E07E
S1130340D0E011C08091220490912304892B39F0CC
S11303501092230410922204C1E0D0E004C0F801FA
S1130360128278943EC0FC2EFF0CFF0CFF0CFF0C95
S113037081E68F0D79D0E82E82E68F0D75D02E2D73
S113038030E0220F331F220F331F220F331F8295B9
S113039086958770280F311DF8013183208385E607
S11303A08F0D62D08770F80182838823C9F07E01A3
S11303B0EE0CFF1CEE0CFF1CEE0CFF1CEE0CFF1CE5
S11303C0D12CCD2DD0E0CE018A599F4F8E0D4CD02B
S11303D0C00FD11F8B83D394F8018281D81688F380
S11303E07894DF91CF911F910F91FF90EF90DF9060
S11303F00895EACE0895CF93DF9380E090E0F8DE8D
S1130400EAE2F4E02081318130932D0420932C041E
S1130410A8E2B4E04D915C91119751834083E6E2E8
S1130420F4E0608171816D937C9391838083680F84
S1130430791F460F571F240F351FE901D695C7951D
S1130440D695C795DF93CF9381EA93E09F938F93DB
S11304503CD481E00F900F900F900F902A9708F0F2
S113046080E0DF91CF910895CF93C82F9BD083E094
S11304708DD08C2F8BD08FD0C82F96D08C2FCF912E
S113048008951F93CF93DF93182FD62FC42F8AD0AC
S113049085E07CD0812F7AD08D2F78D08C2F76D0A8
S11304A083D0DF91CF911F9108957CD080EC6ED0E2
S11304B07BC008955DD0F9DF8FE891E00197F1F7F3
S11304C000C000008EE0D0DF807E803829F08AEB07
S11304D093E00CD481E0089580E0089567D060E053
S11304E070E080EC9FE386C00895CF92DF92EF9294
S11304F0FF92682F772767FD7095872F972F7ED2FD
S113050020E030E040E05FE32DD320E030E048EC31
S113051052E4DED120E030E040EC5FE371D16B01C6
S11305207C0120E030E040E85FE3CED1882354F042
S113053020E030E040E050E4C701B6010FD31816C4
S113054054F00EC00F2EC12CD12CF0E8EF2EFFE397
S1130550FF2EF02D05C0C12CD12C76016894F6F83D
S1130560C701B60147D0FF90EF90DF90CF90089578
S1130570229A219A279A209A8CB580618CBD8CB5D9
S113058081608CBD8CB580648CBD08958EBD0DB426
S113059007FEFDCF089580E0F9DF0DB407FEFDCF1F
S11305A08EB508952F9808952F9A0895E1E8F0E004
S11305B080818B7F808380818260808380818E7F35
S11305C08083808180618083808188608083E0E88B
S11305D0F0E080818260808380818E7F80838FE3DE
S11305E09CE9909387008093860080818068808353
S11305F0259A089520E034E244EF59E4B3D220E090
S113060030E04AE754E464D120E030E040E85FE3BE
S1130610F6D0C6D1709389006093880008951F9224
S11306200F920FB60F9211240BB60F922F933F9394
S11306308F939F93AF93BF93EF93FF938091B900F0
S113064090E0FC013897E135F10508F055C0EE580B
S1130650FF4FEBC210922E04E0912E0480913004DF
S1130660E81770F481E08E0F80932E04F0E0EF5CC5
S1130670FB4F80818093BB0085E88093BC0043C01E
S113068080912F04816080932F0484E98093BC00BF
S11306903AC0E0912E0481E08E0F80932E04809165
S11306A0BB00F0E0EF5CFB4F808320912E0430E030
S11306B08091300490E001972817390724F485ECE1
S11306C08093BC0020C085E88093BC001CC080914E
S11306D0BB00E0912E04F0E0EF5CFB4F808380913F
S11306E02F04816080932F0484E98093BC000BC0A5
S11306F085EA8093BC0007C08091B900809306020C
S113070084E08093BC00FF91EF91BF91AF919F91E2
S11307108F913F912F910F900BBE0F900FBE0F90B2
S11307201F901895E0ECF0E0908195FFFDCF809349
S1130730C6000895E0ECF0E080818823ECF7809116
S1130740C60008959093C5008093C40088E1809307
S1130750C1008EE08093C2006AE973E082E993E00D
S11307606AC20895F89487E690E0ECDF96DDB6DE81
S113077040DE789408950F931F93CF93DF93CDB702
S1130780DEB72B970FB6F894DEBF0FBECDBF8C013A
S11307901B82CE010196C0DD8B818823D1F38BE0CF
S11307A0FE013196D80101900D928A95E1F7C801B6
S11307B02B960FB6F894DEBF0FBECDBFDF91CF915D
S11307C01F910F910895CF93DF93CDB7DEB72B9789
S11307D00FB6F894DEBF0FBECDBFCE010196CBDFBE
S11307E08C8183DE08DE882321F08CEE93E07ED2B8
S11307F0F4CF89E094E07AD2F0CFB4DFE4DF50584C
S1130800BB27AA270ED070C161D130F066D120F089
S113081031F49F3F11F41EF456C10EF4E095E7FB4A
S11308204CC1E92F72D180F3BA17620773078407AA
S1130830950718F071F49EF58AC10EF4E0950B2E1D
S1130840BA2FA02D0B01B90190010C01CA01A0011E
S11308501124FF27591B99F0593F50F4503E68F179
S11308601A16F040A22F232F342F4427585FF3CFBA
S1130870469537952795A795F0405395C9F77EF48B
S11308801F16BA0B620B730B840BBAF09150A1F0D4
S1130890FF0FBB1F661F771F881FC2F70EC0BA0F5A
S11308A0621F731F841F48F4879577956795B795E2
S11308B0F7959E3F08F0B3CF9395880F08F09927DA
S11308C0EE0F979587950895D4D008F481E00895A4
S11308D00CD00AC102D140F0F9D030F021F45F3FCE
S11308E019F0EBC0511134C1EEC00FD198F3992324
S11308F0C9F35523B1F3951B550BBB27AA276217E0
S11309007307840738F09F5F5F4F220F331F441F24
S1130910AA1FA9F333D00E2E3AF0E0E830D091505C
S11309205040E695001CCAF729D0FE2F27D0660F49
S1130930771F881FBB1F261737074807AB07B0E888
S113094009F0BB0B802DBF01FF2793585F4F2AF09E
S11309509E3F510568F0B1C0FBC05F3FECF3983E89
S1130960DCF3869577956795B795F7959F5FC9F7FB
S1130970880F911D9695879597F90895E1E0660F84
S1130980771F881FBB1F621773078407BA0720F0FD
S1130990621B730B840BBA0BEE1F88F7E095089566
S11309A0BCD088F09F5790F0B92F9927B751A0F089
S11309B0D1F0660F771F881F991F1AF0BA95C9F7EF
S11309C012C0B13081F0C3D0B1E00895C0C0672F28
S11309D0782F8827B85F39F0B93FCCF3869577959F
S11309E06795B395D9F73EF4909580957095619588
S11309F07F4F8F4F9F4F0895E89409C097FB3EF4B3
S1130A0090958095709561957F4F8F4F9F4F992357
S1130A10A9F0F92F96E9BB279395F69587957795D5
S1130A206795B795F111F8CFFAF4BB0F11F460FF95
S1130A301BC06F5F7F4F8F4F9F4F16C0882311F0ED
S1130A4096E911C0772321F09EE8872F762F05C001
S1130A50662371F096E8862F70E060E02AF09A959C
S1130A60660F771F881FDAF7880F9695879597F991
S1130A700895990F0008550FAA0BE0E8FEEF16162B
S1130A801706E807F907C0F012161306E407F5077E
S1130A9098F0621B730B840B950B39F40A2661F0F2
S1130AA0232B242B252B21F408950A2609F4A14095
S1130AB0A6958FEF811D811D089597F99F6780E8A2
S1130AC070E060E008959FEF80EC089500240A949C
S1130AD01616170618060906089500240A94121615
S1130AE01306140605060895092E0394000C11F448
S1130AF0882352F0BB0F40F4BF2B11F460FF04C0F5
S1130B006F5F7F4F8F4F9F4F089557FD9058440F4D
S1130B10551F59F05F3F71F04795880F97FB991F58
S1130B2061F09F3F79F08795089512161306140615
S1130B30551FF2CF4695F1DF08C0161617061806A2
S1130B40991FF1CF86957105610508940895E8947D
S1130B50BB2766277727CB0197F908958ADF08F426
S1130B608FEF08950BD0C0CFB1DF28F0B6DF18F0B7
S1130B70952309F0A2CFA7CF1124EACFC6DFA0F3B3
S1130B80959FD1F3950F50E0551F629FF001729F1E
S1130B90BB27F00DB11D639FAA27F00DB11DAA1F3D
S1130BA0649F6627B00DA11D661F829F2227B00D8A
S1130BB0A11D621F739FB00DA11D621F839FA00D15
S1130BC0611D221F749F3327A00D611D231F849F65
S1130BD0600D211D822F762F6A2F11249F575040BC
S1130BE08AF0E1F088234AF0EE0FFF1FBB1F661F57
S1130BF0771F881F91505040A9F79E3F510570F010
S1130C005CCFA6CF5F3FECF3983EDCF386957795F7
S1130C106795B795F795E7959F5FC1F7FE2B880F0A
S1130C20911D9695879597F90895EE0FFF1F0590EE
S1130C30F491E02D19940F931F93CF93DF93EC015C
S1130C408B01009731F46115710519F480E090E08F
S1130C5037C06EE070E081E090E063D2FC01009761
S1130C60A9F380E883830115110571F013870287C6
S1130C7081E883838091350490913604892B21F493
S1130C80F0933604E09335042097C9F0D187C087E8
S1130C908381826083838091370490913804892B07
S1130CA071F4F0933804E0933704809139049091FF
S1130CB03A04892B21F4F0933A04E0933904CF01E8
S1130CC0DF91CF911F910F910895CF93DF93CDB70B
S1130CD0DEB7FE01369661917191AF0180913704C0
S1130CE09091380430D0DF91CF9108950F931F93E2
S1130CF0CF93DF93E0913704F0913804238121FFEF
S1130D001BC0EC0100E010E0899160913704709100
S1130D103804DB011896ED91FC911997882331F082
S1130D201995892B89F30FEF1FEFEECF8AE0199500
S1130D30892B11F4C80102C08FEF9FEFDF91CF918F
S1130D401F910F9108952F923F924F925F926F924D
S1130D507F928F929F92AF92BF92CF92DF92EF9247
S1130D60FF920F931F93CF93DF93CDB7DEB72C97EA
S1130D700FB6F894DEBF0FBECDBF7C016B018A01B4
S1130D80FC0117821682838181FFB0C1CE010196D6
S1130D904C01F7019381F60193FD859193FF8191B5
S1130DA06F01882309F49EC1853239F493FD85913E
S1130DB093FF81916F01853221F4B70190E00FD345
S1130DC0E8CF512C312C20E02032A0F48B3269F092
S1130DD030F4803259F0833269F420612CC08D32B2
S1130DE039F0803339F4216026C02260246023C0A6
S1130DF0286021C027FD27C030ED380F3A3078F441
S1130E0026FF06C0FAE05F9E300D1124532E13C056
S1130E108AE0389E300D1124332E20620CC08E32AD
S1130E2021F426FD5FC1206406C08C3611F42068CD
S1130E3002C0883641F4F60193FD859193FF8191B8
S1130E406F018111C1CF982F9F7D9554933028F461
S1130E500C5F1F4FFFE3F9830DC0833631F08337F6
S1130E6071F0833509F057C021C0F801808189836E
S1130E700E5F1F4F44244394512C540114C0380175
S1130E80F2E06F0E711CF801A080B18026FF03C050
S1130E90652D70E002C06FEF7FEFC5012C8794D2FF
S1130EA02C0183012C852F77222E16C03801F2E005
S1130EB06F0E711CF801A080B18026FF03C0652D60
S1130EC070E002C06FEF7FEFC5012C876BD22C015D
S1130ED02C852068222E830123FC19C0832D90E0E9
S1130EE048165906A0F4B70180E290E078D23A940B
S1130EF0F5CFF50127FC859127FE81915F01B701AC
S1130F0090E06DD231103A94F1E04F1A5108411437
S1130F10510479F7DEC0843611F0893631F5F801D1
S1130F2027FF07C060817181828193810C5F1F4F0D
S1130F3008C060817181882777FD8095982F0E5FA6
S1130F401F4F2F76B22E97FF09C09095809570950C
S1130F5061957F4F8F4F9F4F2068B22E2AE030E07B
S1130F60A4016FD2A82EA81843C0853729F42F7E78
S1130F70B22E2AE030E025C0F22FF97FBF2E8F3643
S1130F80C1F018F4883579F0ADC0803719F088378E
S1130F9021F0A8C02F2F2061B22EB4FE0DC08B2DDE
S1130FA08460B82E09C024FF0AC09F2F9660B92E12
S1130FB006C028E030E005C020E130E002C020E1B6
S1130FC032E0F801B7FE07C06081718182819381AC
S1130FD00C5F1F4F06C06081718180E090E00E5F5E
S1130FE01F4FA4012ED2A82EA818FB2DFF77BF2EC9
S1130FF0B6FE0BC02B2D2E7FA51450F4B4FE0AC0F0
S1131000B2FC08C02B2D2E7E05C07A2C2B2D03C0DC
S11310107A2C01C0752C24FF0DC0FE01EA0DF11DD0
S11310208081803311F4297E09C022FF06C07394A5
S1131030739404C0822F867809F0739423FD12C040
S113104020FF06C05A2C731418F4530C5718732C31
S1131050731460F4B70180E290E02C87C0D17394DC
S11310602C85F6CF731410F4371801C0312C24FFEB
S113107011C0B70180E390E02C87B1D12C8522FF09
S113108016C021FF03C088E590E002C088E790E025
S1131090B7010CC0822F867851F021FD02C080E296
S11310A001C08BE227FD8DE2B70190E098D1A51431
S11310B030F4B70180E390E092D15A94F8CFAA9427
S11310C0F401EA0DF11D8081B70190E088D1A110EF
S11310D0F6CF332009F45DCEB70180E290E07FD1F2
S11310E03A94F7CFF7018681978102C08FEF9FEF83
S11310F02C960FB6F894DEBF0FBECDBFDF91CF9113
S11311001F910F91FF90EF90DF90CF90BF90AF9021
S11311109F908F907F906F905F904F903F902F9013
S113112008950F931F93CF93DF93869F8001879F2A
S1131130100D969F100D1124C8010DD0EC010097DD
S113114021F0A80160E070E038D1CE01DF91CF91A9
S11311501F910F910895CF93DF938230910510F47E
S113116082E090E0E0913D04F0913E0420E030E024
S1131170A0E0B0E0309739F1408151814817590718
S1131180B8F04817590771F482819381109729F0B8
S113119013969C938E9312972CC090933E04809345
S11311A03D0427C02115310531F04217530718F0CB
S11311B0A901DB0101C0EF019A01BD01DF01028039
S11311C0F381E02DD7CF21153105F9F0281B390B18
S11311D02430310580F48A819B816115710521F0E9
S11311E0FB019383828304C090933E0480933D0467
S11311F0FE01329644C0FE01E20FF31F81939193E6
S113120022503109398328833AC020913B0430911C
S11312103C04232B41F420910202309103023093C9
S11312203C0420933B0420910002309101022115DB
S1131230310541F42DB73EB74091040250910502A7
S1131240241B350BE0913B04F0913C04E217F307B7
S1131250A0F42E1B3F0B2817390778F0AC014E5F22
S11312605F4F2417350748F04E0F5F1F50933C041F
S113127040933B048193919302C0E0E0F0E0CF01FE
S1131280DF91CF910895CF93DF93009709F487C03E
S1131290FC01329713821282C0913D04D0913E0426
S11312A0209781F420813181280F391F80913B04DC
S11312B090913C048217930779F5F0933C04E093F2
S11312C03B046DC0DE0120E030E0AE17BF0750F4F0
S11312D012964D915C9113979D014115510509F1A9
S11312E0DA01F3CFB383A28340815181840F951F28
S11312F08A179B0771F48D919C911197840F951F08
S113130002969183808312968D919C911397938377
S113131082832115310529F4F0933E04E0933D04C2
S11313203EC0D9011396FC93EE9312974D915D91B3
S1131330A40FB51FEA17FB0779F480819181840F0C
S1131340951F0296D90111969C938E938281938165
S113135013969C938E931297E0E0F0E08A819B8130
S1131360009719F0FE01EC01F9CFCE010296288115
S11313703981820F931F20913B0430913C0428173C
S1131380390769F4309729F410923E0410923D0411
S113139002C013821282D0933C04C0933B04DF91B9
S11313A0CF910895FC010590615070400110D8F769
S11313B0809590958E0F9F1F0895DC0101C06D9359
S11313C041505040E0F70895FC0161507040019095
S11313D00110D8F7809590958E0F9F1F08950F9355
S11313E01F93CF93DF93182F092FEB018B8181FD7E
S11313F003C08FEF9FEF20C082FF10C04E815F813A
S11314002C813D81421753077CF4E881F9819F01C7
S11314102F5F3F4F39832883108306C0E885F98501
S1131420812F1995892B29F72E813F812F5F3F4FFB
S11314303F832E83812F902FDF91CF911F910F91A6
S11314400895FA01AA27283051F1203181F1E89456
S11314506F936E7F6E5F7F4F8F4F9F4FAF4FB1E0A3
S11314603ED0B4E03CD0670F781F891F9A1FA11D9E
S1131470680F791F8A1F911DA11D6A0F711D811D9F
S1131480911DA11D20D009F468943F912AE0269F64
S113149011243019305D3193DEF6CF010895462FC3
S11314A04770405D4193B3E00FD0C9F7F6CF462FA4
S11314B04F70405D4A3318F0495D31FD405241930D
S11314C002D0A9F7EACFB4E0A695979587957795CA
S11314D06795BA95C9F700976105710508959B0151
S11314E0AC010A2E06945795479537952795BA95DA
S11314F0C9F7620F731F841F951FA01D0895F894E8
S1051500FFCF17
S113150200003F042000F843414E535441542069E3
S11315126E20696E69743A203078253032780A0078
S113152243414E494E54453A203078253032780AA8
S11315320043414E535441543A2030782530327896
S11315420A000A7C202D2D2D2D2D2D2D2D2D2D2DF6
S11315522D2D2D2D2D2D2D2D2D2D207C000A7C2081
S113156243414E5F4552524F52207C005452414EE9
S1131572534D4954204552524F5200524543454916
S1131582564544204552524F52005B4E4F44453219
S11315925D5B43414E5F6D6573736167655F736540
S11315A26E645D204E6F65206861722067E5747415
S11315B22067616C7400677265617420737563637C
S11315C26573732100666F72206675636B73207393
S11315D2616B6500646174612073656E743A2030D6
S11315E278253032780A64617461207265636569B2
S11315F27665643A203078253032780A0A000A4344
S1131602414E53544154206265666F72653A2025F7
S1131612780A004265666F7265207472616E736D3A
S1131622697420636F6D706C6574650041667465DE
S113163272207472616E736D697420636F6D706C65
S1131642657465000A0A53454E543A0A6C656E671E
S113165274683A2025640A69643A2025640A0044BD
S1131662617461206E722E2025643A2025780A0066
S11316720A0A52454345495645443A0A0A6C656E7C
S11316826774683A2025640A69643A2025640A006A
S11316924552524F5220464C4147533A2025780A2C
S11316A20046696C74657265642062726967687465
S11316B26E6573733A2025640A004D435032353106
S11316C235206973204E4F5420696E20636F6E6615
S11316D2696775726174696F6E206D6F64652061EC
S11316E26674657220726573657421005B4E4F44A3
S11316F24520325D5B6D61696E5D204952206469EB
S11317027372757074656421005B4E4F44452032D8
S11317125D5B6D61696E5D20495220636C65617227
S10517220000C1
S9030000FC
