:10000000C2C00000E0C00000DEC00000DCC0000094
:10001000DAC00000D8C0000009C10000D4C0000050
:10002000D2C00000D0C00000CEC00000CCC0000094
:10003000CAC00000C8C00000C6C00000C4C00000A4
:10004000C2C00000C0C00000BEC00000BCC00000B4
:10005000BAC00000B8C00000B6C00000B4C00000C4
:10006000B2C00000B0C00000AEC00000ACC00000D4
:10007000AAC00000A8C00000A6C00000A4C00000E4
:10008000A2C00000A0C000009EC000009CC00000F4
:100090009AC0000098C0000096C00000A6C50000ED
:1000A00092C0000090C0000094C400008CC000000A
:1000B0008AC0000088C0000086C0000084C0000024
:1000C00082C0000080C000007EC000007CC0000034
:1000D0007AC0000078C0000076C0000074C0000044
:1000E00072C00000100662066206620662066206C0
:1000F0006206620610066206620662066206620612
:1001000062066206120662066206620662066206FF
:10011000620662066206620662066206620662069F
:1001200062066206120662066206620662066206DF
:10013000620662066206620662066206620662067F
:10014000620662065E066206620662066206620673
:10015000620662063B066206620662066206620686
:10016000620662066206620662066206620662064F
:10017000620662062F066206620662066206620672
:10018000620662064D0611241FBECFEFD1E2DEBF2C
:10019000CDBF00E00CBF13E0A0E0B2E0E4EDFAE177
:1001A00000E00BBF02C007900D92AE35B107D9F742
:1001B00023E0AEE5B3E001C01D92AA37B207E1F734
:1001C000D9D50C94680D1CCFEAE7F0E080818068F7
:1001D000808380818460808380818260808380814D
:1001E00081608083ECE7F0E0808180648083089503
:1001F000CF938CE214D1C82F80FF0AC040E061E0A9
:100200008CE21AD121E030E0309361032093600347
:10021000C1FF0AC040E062E08CE20ED181E090E0D4
:1002200090935F0380935E03CF9108951F920F9286
:100230000FB60F9211240BB60F922F933F934F934B
:100240005F936F937F938F939F93AF93BF93EF933E
:10025000FF93CEDFFF91EF91BF91AF919F918F916F
:100260007F916F915F914F913F912F910F900BBEB6
:100270000F900FBE0F901F901895ED98EAE6F0E0F2
:100280008081877F808380818B7F8083ED9AEDD012
:100290004FEF64E680E6D0D04FEF60E680E7CCD049
:1002A00043E063E08BE2C8D040E060EE8FE0C4C082
:1002B0000895DF92EF92FF920F931F93CF93DF93F6
:1002C0008C01F8948091600390916103892B39F03F
:1002D0001092610310926003C0E0D0E011C08091E1
:1002E0005E0390915F03892B39F010925F031092A7
:1002F0005E03C1E0D0E004C0F801128278943EC0F1
:10030000FC2EFF0CFF0CFF0CFF0C81E68F0D87D03D
:10031000E82E82E68F0D83D02E2D30E0220F331F82
:10032000220F331F220F331F829586958770280F67
:10033000311DF8013183208385E68F0D70D08770E1
:10034000F80182838823C9F07E01EE0CFF1CEE0CBD
:10035000FF1CEE0CFF1CEE0CFF1CD12CCD2DD0E0B1
:10036000CE018A599F4F8E0D5AD0C00FD11F8B835B
:10037000D394F8018281D81688F37894DF91CF91D5
:100380001F910F91FF90EF90DF9008950F931F93AF
:10039000CF93DF93CDB7DEB72B970FB6F894DEBFC0
:1003A0000FBECDBF8C011B82CE01019682DF8B81F7
:1003B0008823D1F38BE0FE013196D80101900D9294
:1003C0008A95E1F7C8012B960FB6F894DEBF0FBEF1
:1003D000CDBFDF91CF911F910F910895F5CE089574
:1003E000CF93C82FD6D37894CC0FC05BC093620351
:1003F000CF910895CF93DF9300D0CDB7DEB7909122
:1004000062039983880F8A836B8363E0CE01019630
:10041000CAD30F900F900F90DF91CF910895CF9393
:10042000C82F62D383E054D38C2F52D356D3C82F16
:100430005DD38C2FCF9108951F93CF93DF93182F07
:10044000D62FC42F51D385E043D3812F41D38D2F95
:100450003FD38C2F3DD34AD3DF91CF911F91089585
:1004600043D380EC35D342C3089524D3F9DF8FE81A
:1004700091E00197F1F700C000008EE0D0DF807EB0
:10048000803829F083E192E01AD781E0089580E076
:100490000895E2E0F1E08081806180830895811118
:1004A00006C0E2E0F1E080818D7F80830895E2E084
:1004B000F1E08081826080830895682F80E09ACF88
:1004C0000895CF93DF93C82FD92FDD231CF4D19546
:1004D000C195D109892F8095881F8827881FDFDF64
:1004E0006C2FC53608F064E670E080E090E048D5F7
:1004F00023E333E343E35FE3F7D520E030E04FE766
:1005000053E4F2D520E030E048EC52E49ED40AD522
:10051000862FD3DFDF91CF910895E2E0F1E0808173
:100520008F7D80838081877F80832AE62A95F1F7FB
:1005300000C08091060190E0982F882720812860D4
:1005400020833AE63A95F1F700C020910601308108
:100550003F7B308335E83A95F1F700003081306415
:100560003083308130623083820F911D08952F9245
:100570003F924F925F926F927F928F929F92AF9233
:10058000BF92CF92DF92EF92FF920F931F93CF9380
:10059000DF93CDB7DEB76F970FB6F894DEBF0FBE0F
:1005A000CDBFF8948CE0E7E0F2E0DE011196019017
:1005B0000D928A95E1F79E012F5F3F4F3F8F2E8F5F
:1005C000AE01435F5F4F5E874D87412C0E8D1F8DBF
:1005D000D80111968C9111978F938C918F93A9EEDE
:1005E000B2E0BF93AF935AD67894F801808191819D
:1005F0002E8D3F8D2E5F3F4F3F8F2E8F62DFF89401
:100600000F900F900F900F90342C4F8A488E498E88
:100610004A8E4B8E4C8E4D8EB1D24C01AC0160E0B7
:1006200070E080E090E0DC018F86588B698B7A8BDC
:100630008B8B9C8BAD8BBE8B232D3F89488D598D29
:100640006A8D7B8D8C8D9D8DAF84B888C42CD42C05
:10065000E42CF42C042D142DCED5222E532E642EF2
:10066000752EA62EB72E082F192F322E3F8B488FAE
:10067000598F6A8F7B8F8C8F9D8F4FDF99231CF44E
:10068000919581959109BC01882777FD8095982FD8
:1006900077D46B017C01B40180E090E06FD49B01C2
:1006A000AC01C701B601D1D36B017C01209163037A
:1006B00030916403409165035091660311D518167B
:1006C00044F4C0926303D0926403E0926503F09215
:1006D000660320E030E04AE754E4C701B60104D5E0
:1006E0001CD47F936F93AEEFB2E0BF93AF93D6D598
:1006F000FFEF20E732E0F15020403040E1F700C04A
:100700000000222D352D462D572D6A2D7B2D802F53
:10071000912F08E054D50F900F900F900F90283C28
:1007200008F47ACF20E030E04AE754E460916303B4
:10073000709164038091650390916603D5D4EDD3E5
:100740007F936F93A9E0B3E0BF93AF93A7D5FFEF7B
:1007500023ED30E3F15020403040E1F700C00000CD
:100760000F900F900F900F904E8D5F8D6D857E8551
:100770004617570709F02ACF789480E090E0A1DE71
:10078000F8946F960FB6F894DEBF0FBECDBFDF9121
:10079000CF911F910F91FF90EF90DF90CF90BF907E
:1007A000AF909F908F907F906F905F904F903F9011
:1007B0002F90089588E193E082D580E011DE69DE14
:1007C000E2E0F1E080818F7D80838081806480839E
:1007D00080E065DE80E071DE8FEF80930101C7D19C
:1007E000C6CE08954F925F926F927F928F929F92A2
:1007F000AF92BF92CF92DF92EF92FF928EDE7C019A
:10080000BDD15C01B701882777FD8095982FB8D3BB
:100810006B017C01B50180E090E0B0D39B01AC019D
:10082000C701B60112D36B017C012B013C01E89496
:1008300077F88090630390906403A0906503B09074
:100840006603A5019401C301B2014AD41816ACF4A1
:10085000C0926303D0926403E0926503F092660352
:1008600020E030E048EC52E4C301B2013DD4A701DE
:100870009601EBD252D3F62E0CC020E030E048ECCB
:1008800052E4C701B60130D4A5019401DED245D3AC
:10089000F62E7F93FF922AE233E03F932F93FED40C
:1008A0000F900F900F900F908F2DFF90EF90DF9093
:1008B000CF90BF90AF909F908F907F906F905F9000
:1008C0004F900895E1EAF0E080818860808380E1C4
:1008D00097E29093A9008093A80080818B7F80830A
:1008E00080818260808380818E7F808308951092D2
:1008F0006F0310926E03E0EAF0E0808180688083ED
:10090000E1CF089520916E0330916F03280F391FB6
:1009100030936F0320936E0320916E0330916F0329
:1009200033231CF041E050E002C04FEF5FEF209115
:100930006E0330916F0333231CF4319521953109F7
:100940002230310554F460916E0370916F03772368
:1009500034F471956195710902C061E070E0469FC1
:100960009001479F300D569F300D112430936F0337
:1009700020936E0320916E0330916F03A2CD0895F2
:100980000F931F93CF93DF93CDB7DEB72B970FB69F
:10099000F894DEBF0FBECDBF83E493E090D4CE01C8
:1009A0000196F4DC0C81112707FD10951BDF9801DF
:1009B000281B310987FD3395C901A4DF2B960FB69B
:1009C000F894DEBF0FBECDBFDF91CF911F910F9185
:1009D00008951F920F920FB60F9211240BB60F922B
:1009E0002F933F934F935F936F937F938F939F9337
:1009F000AF93BF93EF93FF93C3DFFF91EF91BF914D
:100A0000AF919F918F917F916F915F914F913F91A6
:100A10002F910F900BBE0F900FBE0F901F90189547
:100A200067D060E070E080EC9FE386C00895CF92CD
:100A3000DF92EF92FF92682F772767FD7095872FDF
:100A4000972F9ED220E030E040E05FE34DD320E0DE
:100A500030E048EC52E4F9D120E030E040EC5FE3D4
:100A60008CD16B017C0120E030E040E85FE3E9D10C
:100A7000882354F020E030E040E050E4C701B601A4
:100A80002FD3181654F00EC00F2EC12CD12CF0E825
:100A9000EF2EFFE3FF2EF02D05C0C12CD12C7601E7
:100AA0006894F6F8C701B60147D0FF90EF90DF9049
:100AB000CF900895229A219A279A209A8CB5806126
:100AC0008CBD8CB581608CBD8CB580648CBD089567
:100AD0008EBD0DB407FEFDCF089580E0F9DF0DB4A3
:100AE00007FEFDCF8EB508952F9808952F9A08958B
:100AF000E1E8F0E080818B7F808380818260808369
:100B000080818E7F80838081806180838081886006
:100B10008083E0E8F0E080818260808380818E7F46
:100B200080838FE39CE99093870080938600808187
:100B300080688083259A089520E034E244EF59E4E8
:100B4000D3D220E030E04AE754E47FD120E030E027
:100B500040E85FE311D1E6D170938900609388008B
:100B600008951092950010929400C09A0895E1E9BA
:100B7000F0E0808184608083F4CF0895CF93DF9389
:100B8000C0919400D0919500ECDFCE01DF91CF9120
:100B900008958CE08093B8008FEF8093BB0084E0D1
:100BA0008093BC000895ECEBF0E0208120FDFDCFA8
:100BB00060936903FC01208120936A0320FD0CC02F
:100BC000623050F0DC011196EBE6F3E081E09D919C
:100BD00091938F5F8613FBCF1092680388EF809309
:100BE000060285EA8093BC0008951F920F920FB60B
:100BF0000F9211240BB60F922F933F938F939F93D5
:100C0000AF93BF93EF93FF938091B90090E0FC0105
:100C10003897E135F10508F055C0EE58FF4FC7C2CF
:100C200010926703E091670380916903E81770F4FD
:100C300081E08E0F80936703F0E0E659FC4F8081DE
:100C40008093BB0085E88093BC0043C0809168031B
:100C500081608093680384E98093BC003AC0E0918E
:100C6000670381E08E0F809367038091BB00F0E003
:100C7000E659FC4F80832091670330E0809169033F
:100C800090E001972817390724F485EC8093BC0085
:100C900020C085E88093BC001CC08091BB00E0911F
:100CA0006703F0E0E659FC4F808380916803816020
:100CB0008093680384E98093BC000BC085EA80932D
:100CC000BC0007C08091B9008093060284E0809345
:100CD000BC00FF91EF91BF91AF919F918F913F9198
:100CE0002F910F900BBE0F900FBE0F901F90189575
:100CF000E0ECF0E0908195FFFDCF8093C600089571
:100D0000E0ECF0E080818823ECF78091C600089544
:100D10009093C5008093C40088E18093C1008EE069
:100D20008093C20060E876E088E796E06DC208959F
:100D3000F89487E690E0ECDFA0DA72DE4FDBD7DDD7
:100D400039DD78940895CF93DF93CDB7DEB72B9735
:100D50000FB6F894DEBF0FBECDBFCE01019616DBF5
:100D60001C81812F64DE812F992787FD9095A9DB57
:100D700039DDF3CFDDDFE7DF5058BB27AA270ED0E0
:100D800075C166D130F06BD120F031F49F3F11F482
:100D90001EF45BC10EF4E095E7FB51C1E92F77D15A
:100DA00080F3BA17620773078407950718F071F488
:100DB0009EF58FC10EF4E0950B2EBA2FA02D0B01DE
:100DC000B90190010C01CA01A0011124FF27591B90
:100DD00099F0593F50F4503E68F11A16F040A22F96
:100DE000232F342F4427585FF3CF46953795279507
:100DF000A795F0405395C9F77EF41F16BA0B620B06
:100E0000730B840BBAF09150A1F0FF0FBB1F661F4C
:100E1000771F881FC2F70EC0BA0F621F731F841F8F
:100E200048F4879577956795B795F7959E3F08F0B5
:100E3000B3CF9395880F08F09927EE0F9795879574
:100E40000895D9D008F481E008950CD00FC107D1DE
:100E500040F0FED030F021F45F3F19F0F0C05111A6
:100E600039C1F3C014D198F39923C9F35523B1F3D1
:100E7000951B550BBB27AA2762177307840738F009
:100E80009F5F5F4F220F331F441FAA1FA9F333D068
:100E90000E2E3AF0E0E830D091505040E695001C1C
:100EA000CAF729D0FE2F27D0660F771F881FBB1FD8
:100EB000261737074807AB07B0E809F0BB0B802DB2
:100EC000BF01FF2793585F4F2AF09E3F510568F0FE
:100ED000B6C000C15F3FECF3983EDCF38695779592
:100EE0006795B795F7959F5FC9F7880F911D969500
:100EF000879597F90895E1E0660F771F881FBB1F5C
:100F0000621773078407BA0720F0621B730B840B08
:100F1000BA0BEE1F88F7E095089504D06894B111DC
:100F2000D9C00895BCD088F09F5790F0B92F992769
:100F3000B751A0F0D1F0660F771F881F991F1AF0E4
:100F4000BA95C9F712C0B13081F0C3D0B1E00895AD
:100F5000C0C0672F782F8827B85F39F0B93FCCF32E
:100F6000869577956795B395D9F73EF490958095DA
:100F7000709561957F4F8F4F9F4F0895E89409C0FA
:100F800097FB3EF490958095709561957F4F8F4FBC
:100F90009F4F9923A9F0F92F96E9BB279395F695D2
:100FA000879577956795B795F111F8CFFAF4BB0F50
:100FB00011F460FF1BC06F5F7F4F8F4F9F4F16C0B4
:100FC000882311F096E911C0772321F09EE8872F3E
:100FD000762F05C0662371F096E8862F70E060E0FA
:100FE0002AF09A95660F771F881FDAF7880F969573
:100FF000879597F90895990F0008550FAA0BE0E817
:10100000FEEF16161706E807F907C0F012161306CA
:10101000E407F50798F0621B730B840B950B39F40A
:101020000A2661F0232B242B252B21F408950A2670
:1010300009F4A140A6958FEF811D811D089597F9B0
:101040009F6780E870E060E008959FEF80EC08956E
:1010500000240A9416161706180609060895002497
:101060000A9412161306140605060895092E039411
:10107000000C11F4882352F0BB0F40F4BF2B11F485
:1010800060FF04C06F5F7F4F8F4F9F4F089557FDE4
:101090009058440F551F59F05F3F71F04795880FE6
:1010A00097FB991F61F09F3F79F08795089512167D
:1010B00013061406551FF2CF4695F1DF08C0161629
:1010C00017061806991FF1CF8695710561050894DA
:1010D0000895E894BB2766277727CB0197F90895F1
:1010E0008ADF08F48FEF08950BD0C0CFB1DF28F06E
:1010F000B6DF18F0952309F0A2CFA7CF1124EACFCD
:10110000C6DFA0F3959FD1F3950F50E0551F629F66
:10111000F001729FBB27F00DB11D639FAA27F00D50
:10112000B11DAA1F649F6627B00DA11D661F829F77
:101130002227B00DA11D621F739FB00DA11D621F5C
:10114000839FA00D611D221F749F3327A00D611D79
:10115000231F849F600D211D822F762F6A2F11245B
:101160009F5750408AF0E1F088234AF0EE0FFF1FAE
:10117000BB1F661F771F881F91505040A9F79E3FE5
:10118000510570F05CCFA6CF5F3FECF3983EDCF3E7
:10119000869577956795B795F795E7959F5FC1F722
:1011A000FE2B880F911D9695879597F90895EE0F60
:1011B000FF1F0590F491E02D199497FB10F81694F9
:1011C00000080F93083098F00850232F342F452F34
:1011D000562F672F782F892F902DF4CF0594979550
:1011E00087957795679557954795379527950A95EC
:1011F000AAF70F9108952A0D3B1D4C1D5D1D6E1D14
:101200007F1D801F911F08950F931F93CF93DF932E
:10121000EC018B01009731F46115710519F480E040
:1012200090E037C06EE070E081E090E063D2FC01B6
:101230000097A9F380E883830115110571F01387E6
:10124000028781E883838091700390917103892BD9
:1012500021F4F0937103E09370032097C9F0D187D4
:10126000C08783818260838380917203909173032E
:10127000892B71F4F0937303E093720380917403EC
:1012800090917503892B21F4F0937503E093740317
:10129000CF01DF91CF911F910F910895CF93DF93ED
:1012A000CDB7DEB7FE01369661917191AF018091A5
:1012B00072039091730330D0DF91CF9108950F9313
:1012C0001F93CF93DF93E0917203F0917303238117
:1012D00021FF1BC0EC0100E010E0899160917203D6
:1012E00070917303DB011896ED91FC911997882397
:1012F00031F01995892B89F30FEF1FEFEECF8AE0BC
:101300001995892B11F4C80102C08FEF9FEFDF916F
:10131000CF911F910F9108952F923F924F925F921C
:101320006F927F928F929F92AF92BF92CF92DF92F5
:10133000EF92FF920F931F93CF93DF93CDB7DEB75A
:101340002C970FB6F894DEBF0FBECDBF7C016B01AA
:101350008A01FC0117821682838181FFB0C1CE0110
:1013600001964C01F7019381F60193FD859193FF5E
:1013700081916F01882309F49EC1853239F493FD70
:10138000859193FF81916F01853221F4B70190E03F
:101390000FD3E8CF512C312C20E02032A0F48B3237
:1013A00069F030F4803259F0833269F420612CC046
:1013B0008D3239F0803339F4216026C022602460F8
:1013C00023C0286021C027FD27C030ED380F3A30F8
:1013D00078F426FF06C0FAE05F9E300D1124532EEC
:1013E00013C08AE0389E300D1124332E20620CC0C9
:1013F0008E3221F426FD5FC1206406C08C3611F4C4
:10140000206802C0883641F4F60193FD859193FF70
:1014100081916F018111C1CF982F9F7D9554933099
:1014200028F40C5F1F4FFFE3F9830DC0833631F0C2
:10143000833771F0833509F057C021C0F8018081EE
:1014400089830E5F1F4F44244394512C540114C0D0
:101450003801F2E06F0E711CF801A080B18026FF08
:1014600003C0652D70E002C06FEF7FEFC5012C87D0
:1014700094D22C0183012C852F77222E16C038019F
:10148000F2E06F0E711CF801A080B18026FF03C04E
:10149000652D70E002C06FEF7FEFC5012C876BD226
:1014A0002C012C852068222E830123FC19C0832D5A
:1014B00090E048165906A0F4B70180E290E078D297
:1014C0003A94F5CFF50127FC859127FE81915F01C4
:1014D000B70190E06DD231103A94F1E04F1A510803
:1014E0004114510479F7DEC0843611F0893631F5A4
:1014F000F80127FF07C060817181828193810C5FB1
:101500001F4F08C060817181882777FD8095982FD3
:101510000E5F1F4F2F76B22E97FF09C090958095D2
:10152000709561957F4F8F4F9F4F2068B22E2AE0B4
:1015300030E0A4016FD2A82EA81843C0853729F443
:101540002F7EB22E2AE030E025C0F22FF97FBF2E89
:101550008F36C1F018F4883579F0ADC0803719F0B6
:10156000883721F0A8C02F2F2061B22EB4FE0DC005
:101570008B2D8460B82E09C024FF0AC09F2F96606F
:10158000B92E06C028E030E005C020E130E002C0FE
:1015900020E132E0F801B7FE07C0608171818281ED
:1015A00093810C5F1F4F06C06081718180E090E0E5
:1015B0000E5F1F4FA4012ED2A82EA818FB2DFF7777
:1015C000BF2EB6FE0BC02B2D2E7FA51450F4B4FEFB
:1015D0000AC0B2FC08C02B2D2E7E05C07A2C2B2D04
:1015E00003C07A2C01C0752C24FF0DC0FE01EA0D4A
:1015F000F11D8081803311F4297E09C022FF06C0CD
:101600007394739404C0822F867809F0739423FD39
:1016100012C020FF06C05A2C731418F4530C57182C
:10162000732C731460F4B70180E290E02C87C0D172
:1016300073942C85F6CF731410F4371801C0312C35
:1016400024FF11C0B70180E390E02C87B1D12C8535
:1016500022FF16C021FF03C088E590E002C088E7A2
:1016600090E0B7010CC0822F867851F021FD02C0B6
:1016700080E201C08BE227FD8DE2B70190E098D1B6
:10168000A51430F4B70180E390E092D15A94F8CFDA
:10169000AA94F401EA0DF11D8081B70190E088D190
:1016A000A110F6CF332009F45DCEB70180E290E0BF
:1016B0007FD13A94F7CFF7018681978102C08FEFEF
:1016C0009FEF2C960FB6F894DEBF0FBECDBFDF9113
:1016D000CF911F910F91FF90EF90DF90CF90BF902F
:1016E000AF909F908F907F906F905F904F903F90C2
:1016F0002F9008950F931F93CF93DF93869F8001C0
:10170000879F100D969F100D1124C8010DD0EC017C
:10171000009721F0A80160E070E038D1CE01DF91A0
:10172000CF911F910F910895CF93DF938230910550
:1017300010F482E090E0E0917803F091790320E0EA
:1017400030E0A0E0B0E0309739F140815181481796
:101750005907B8F04817590771F48281938110979F
:1017600029F013969C938E9312972CC09093790333
:101770008093780327C02115310531F042175307B4
:1017800018F0A901DB0101C0EF019A01BD01DF01E1
:101790000280F381E02DD7CF21153105F9F0281B08
:1017A000390B2430310580F48A819B8161157105E4
:1017B00021F0FB019383828304C09093790380938B
:1017C0007803FE01329644C0FE01E20FF31F8193BD
:1017D000919322503109398328833AC020917603AE
:1017E00030917703232B41F42091020230910302C0
:1017F0003093770320937603209100023091010209
:101800002115310541F42DB73EB7409104025091A6
:101810000502241B350BE0917603F0917703E21764
:10182000F307A0F42E1B3F0B2817390778F0AC0103
:101830004E5F5F4F2417350748F04E0F5F1F5093E0
:101840007703409376038193919302C0E0E0F0E048
:10185000CF01DF91CF910895CF93DF93009709F4E3
:1018600087C0FC01329713821282C0917803D09115
:101870007903209781F420813181280F391F8091CD
:101880007603909177038217930779F5F0937703A6
:10189000E09376036DC0DE0120E030E0AE17BF07B5
:1018A00050F412964D915C9113979D01411551058D
:1018B00009F1DA01F3CFB383A28340815181840F10
:1018C000951F8A179B0771F48D919C911197840F36
:1018D000951F02969183808312968D919C91139708
:1018E000938382832115310529F4F0937903E093E2
:1018F00078033EC0D9011396FC93EE9312974D9155
:101900005D91A40FB51FEA17FB0779F480819181DF
:10191000840F951F0296D90111969C938E93828114
:10192000938113969C938E931297E0E0F0E08A8166
:101930009B81009719F0FE01EC01F9CFCE010296D0
:1019400028813981820F931F20917603309177038C
:101950002817390769F4309729F410927903109207
:10196000780302C013821282D0937703C093760368
:10197000DF91CF910895FC010590615070400110F6
:10198000D8F7809590958E0F9F1F0895DC0101C0B8
:101990006D9341505040E0F70895FC016150704054
:1019A00001900110D8F7809590958E0F9F1F089594
:1019B0000F931F93CF93DF93182F092FEB018B8188
:1019C00081FD03C08FEF9FEF20C082FF10C04E81CA
:1019D0005F812C813D81421753077CF4E881F981B6
:1019E0009F012F5F3F4F39832883108306C0E8850E
:1019F000F985812F1995892B29F72E813F812F5F3A
:101A00003F4F3F832E83812F902FDF91CF911F91E6
:101A10000F910895FA01AA27283051F1203181F160
:101A2000E8946F936E7F6E5F7F4F8F4F9F4FAF4FE6
:101A3000B1E03ED0B4E03CD0670F781F891F9A1FF9
:101A4000A11D680F791F8A1F911DA11D6A0F711DAD
:101A5000811D911DA11D20D009F468943F912AE0B9
:101A6000269F11243019305D3193DEF6CF010895A1
:101A7000462F4770405D4193B3E00FD0C9F7F6CFD2
:101A8000462F4F70405D4A3318F0495D31FD40529A
:101A9000419302D0A9F7EACFB4E0A6959795879530
:101AA00077956795BA95C9F700976105710508950F
:101AB0009B01AC010A2E06945795479537952795BB
:101AC000BA95C9F7620F731F841F951FA01D089553
:041AD000F894FFCFB8
:101AD40000007A032000F83200CEFF64009CFF96D9
:101AE400006AFF4D435032353135206973204E4F23
:101AF4005420696E20636F6E6669677572617469DC
:101B04006F6E206D6F646520616674657220726506
:101B140073657421002D2D2D2D2D2D2D2D2D2D2D65
:101B24002D2D2D2D2D2D2D2D2D2D2D2D2D2D2D2DE1
:101B34002D2D2D2D2D2D2D2D2D2D2D2D2D2D2D2DD1
:101B44002D2D2D2D2D2D2D2D2D2D2D2D2D2D0043D8
:101B5400414C4942524154452054484520454E4346
:101B64004F444552204259204D4541535552494E08
:101B74004720544845204D4158494D554D20564520
:101B84004C4F4349545900505245535320414E59E8
:101B940020425554544F4E20544F20434F4E5449E5
:101BA4004E55450043414C4942524154494F4E2001
:101BB400434F4D504C455445005365742076656C35
:101BC4006F6369747920746F3A2025640A00737016
:101BD4006565643A2025640A004D415820535045F8
:101BE40045443A2025640A00496E73696465206D92
:101BF4006F746F725F696E69740056656C6F6369A8
:101C040074795F70657263656E746167653A2025E7
:101C1400640A00494E534944452050495F74696D34
:0E1C240065725F696E7465727275707400008F
:00000001FF
