S01700006D6963726F636F6E74726F6C6C65722E73726563AF
S11300000C94B4010C9402020C94D1010C94D1010F
S11300100C94D1010C94D1010C94D1010C94D10114
S11300200C94D1010C94D1010C94D1010C94D10104
S11300300C94D1010C94D1010C94D1010C94D101F4
S11300400C94D1010C94D1010C94D1010C94D101E4
S11300500C94D1010C94D1010C94D1010C94D101D4
S11300600C94D1010C94D1010C94D1010C94D101C4
S1130070000000000000000000065F5F06000000B2
S11300800007070007070000147F7F147F7F140018
S1130090242E6B6B3A120000466630180C66620020
S11300A0307A4F5D377A48000407030000000000EF
S11300B0001C3E63410000000041633E1C00000040
S11300C0082A3E1C1C3E2A0808083E3E0808000078
S11300D000A0E0600000000008080808080800000C
S11300E000006060000000006030180C060301008E
S11300F03E7F594D7F3E000042427F7F40400000DA
S1130100627359496F660000226349497F360000D3
S1130110181C16137F7F1000276745457D390000A2
S11301203C7E4B4979300000036371190F070000CE
S1130130367F49497F360000064F49693F1E00005B
S113014000006C6C0000000000A0EC6C00000000DB
S1130150081C366341000000141414141414000025
S1130160004163361C080000020351590F060000C9
S11301703E7F415D5D1F1E007C7E13137E7C00006C
S1130180417F7F49497F36001C3E63414163220021
S1130190417F7F41637F1C00417F7F495D41630054
S11301A0417F7F491D0103001C3E6341517372006E
S11301B07F7F08087F7F000000417F7F41000000AF
S11301C0307040417F3F0100417F7F081C7763000E
S11301D0417F7F41406070007F7F060C067F7F0077
S11301E07F7F060C187F7F001C3E6341633E1C002A
S11301F0417F7F49090F06001E3F21717F5E000089
S1130200417F7F19396F460026674D597B320000C4
S113021003417F7F410300007F7F40407F7F0000D8
S11302201F3F60603F1F00007F7F3018307F7F00DA
S113023063771C081C776300074F78784F0700002A
S11302406773594D47637100007F7F41410000008F
S11302500103060C183060000041417F7F0000005C
S1130260080C0603060C0800808080808080808053
S11302700000030704000000207454543C7840003C
S1130280413F7F44447C3800387C44446C2800005F
S1130290307848493F7F4000387C54545C18000053
S11302A0487E7F490302000098BCA4A4F87C0400A3
S11302B0417F7F08047C780000447D7D400000007D
S11302C040C484FD7D000000417F7F10386C4400F1
S11302D000417F7F400000007C7C0C180C7C78007F
S11302E07C7C04047C780000387C44447C38000026
S11302F084FCF8A4243C1800183C24A4F8FC8400D2
S1130300447C78441C180000485C54547424000055
S113031000043E7F442400003C7C40403C7C400080
S11303201C3C60603C1C00003C7C6030607C3C00F9
S1130330446C3810386C44009CBCA0A0FC7C0000C9
S11303404C64745C4C64000008083E774141000032
S113035000000077770000004141773E0808000064
S1130360020301030203010011241FBECFEFD4E0F6
S1130370DEBFCDBF13E0A0E0B1E0E6EBF6E102C0E2
S113038005900D92A631B107D9F723E0A6E1B3E0B9
S113039001C01D92A433B207E1F70E9477050C94C3
S11303A0590B0C94000030980895843040F48C5F0D
S11303B0809300142899FECF80910014089580E062
S11303C00895CF938CE20E94C003C82F80FF0BC016
S11303D040E061E08CE20E94F20321E030E03093DF
S11303E0190320931803C1FF0BC040E062E08CE2C4
S11303F00E94F20381E090E0909317038093160328
S1130400CF9108951F920F920FB60F9211242F933C
S11304103F934F935F936F937F938F939F93AF9388
S1130420BF93EF93FF930E94E101FF91EF91BF917E
S1130430AF919F918F917F916F915F914F913F9178
S11304402F910F900FBE0F901F9018950E941404C7
S11304504FEF64E680E60E94F2034FEF60E680E728
S11304600E94F20343E063E08BE20E94F20340E067
S113047060EE8FE00E94F20308950F931F93CF93D1
S1130480DF93EC0108811981B8017695679576951B
S113049067957695679581E30E94D203602F6295F4
S11304A0660F607E82E30E94D2036A8185E30E9424
S11304B0D2038A81882369F010E0FE01E10FF11D67
S11304C0638186E3810F0E94D2031F5F8A8118171C
S11304D0A0F381E00E94E603DF91CF911F910F9179
S11304E0089503968295807F0E94C00383FB88272A
S11304F080F991E089270895CF93DF930E94DA056C
S11305008DE391E09F938F938CE891E09F938F9379
S1130510C6E0D1E0DF93CF930E94340880911E039C
S11305201F928F938BE491E09F938F93DF93CF93EC
S11305300E943408809122031F928F9387E591E0F3
S11305409F938F93DF93CF930E94340880911F036E
S11305501F928F9383E691E09F938F93DF93CF93C2
S11305600E943408809123031F928F938FE691E0B9
S11305709F938F93DF93CF930E9434088BE791E08E
S11305809F938F938BE891E09F938F93DF93CF9307
S11305900E9434088DB79EB784960FB6F8949EBF18
S11305A00FBE8DBFDF91CF910895BF92CF92DF929E
S11305B0EF92FF920F931F93CF93DF932FEF20932C
S11305C01E0320931F03109222031092230301970A
S11305D0E9F5B29B3BC00F2EFEE1CF2EF3E0DF2EF8
S11305E0F02D0F2EFFE1EF2EF3E0FF2EF02D02E2AF
S11305F013E0C3E2D3E080E00E94D501B82E81E08D
S11306000E94D501F60120819B2DB21608F4922F89
S1130610F6019083F7012081982F821708F4922F16
S1130620F7019083F80190819B1508F4B92EF80125
S1130630B0829881981708F4892F88830E947C02DD
S113064080E090EF0197F1F7B299D5CFE0911E03C6
S1130650F0E06091220370E09F01261B370BC90173
S113066099230CF4019695958795809320034091E6
S11306701F0350E02091230330E0DA01A21BB30BE7
S1130680CD010AF4019695958795809321036E0F09
S11306907F1F7595679560932403240F351F359547
S11306A0279520932503DF91CF911F910F91FF9000
S11306B0EF90DF90CF90BF900895C29ABA9820B778
S11306C02B7F20BF0E94D5020895813041F018F09D
S11306D0823051F011C086B3817090E0089586B3E2
S11306E08695817090E0089586B38695869591E00D
S11306F08927817090E0089580E090E008951F9329
S1130700CF93DF9380E00E94D501282F30E08091C1
S11307102403281B310914E6129FC001139F900D76
S113072011246091200370E00E949A06EB0181E09D
S11307300E94D501282F30E080912503281B310920
S1130740129FC001139F900D11246091210370E04A
S11307500E949A069B01BE01C901DF91CF911F91AE
S11307600895CF9382E00E94D501C82F83E00E94B0
S1130770D501282F6C2F70E0822F90E0CF9108953F
S1130780CF93C82F0E94740683E00E9469068C2FC1
S11307900E9469060E946D06C82F0E9476068C2F5F
S11307A0CF910895CF93DF93D82FC62F0E9474065C
S11307B082E00E9469068D2F0E9469068C2F0E9498
S11307C069060E947606DF91CF910895CF93C82FD2
S11307D00E94740680E88C0F0E9469060E947606C7
S11307E0CF9108951F93CF93DF93182FD62FC42F43
S11307F00E94740685E00E946906812F0E946906A2
S11308008D2F0E9469068C2F0E9469060E9476062D
S1130810DF91CF911F9108950E94740680EC0E948D
S113082069060E94760608950E9457060E940C04E9
S11308308EE00E94C003807E803831F083E192E034
S11308400E945A0881E0089580E0089585E492E0CA
S11308500E945A080895DF92EF92FF920F931F931C
S1130860CF93DF930E94DA05E0912803F0912903E6
S1130870C481D581209761F1D12C0F2EFBE5EF2E99
S1130880F2E0FF2EF02D04E111E060E08D2D0E94D6
S1130890A7052091260330912703C217D30711F42B
S11308A00E943A0689818F9388818F93FF92EF92F9
S11308B01F930F930E9434080E80DF81C02DD394C0
S11308C00F900F900F900F900F900F902097E9F6D4
S11308D0DF91CF911F910F91FF90EF90DF900895DA
S11308E0EF92FF920F931F93CF93DF93EC017B0161
S11308F08A018CE090E00E94C206DC011196FC9211
S1130900EE921396DC93CE93129715961C921E9238
S1130910149717961C921E92169719961C921E9263
S113092018971B961C930E931A972097A1F0EC81AD
S1130930FD81309719F49D838C830DC02681378106
S11309402115310511F0F901F9CFB783A683199662
S1130950FC93EE931897CD01DF91CF911F910F91E6
S1130960FF90EF900895CF92DF92EF92FF920F9352
S11309701F93CF93DF9340E050E06FE572E080E097
S113098090E00E947004EC0140E050E069E672E0FF
S11309900E9470046C0146E254E063E772E0CE0109
S11309A00E94700440E050E06DE772E0CE010E94C6
S11309B070047C0140E050E066E073E0CE010E94E8
S11309C070048C0140E050E066E872E0C7010E94C8
S11309D0700440E050E061E972E0C7010E947004D5
S11309E040E050E06AE972E0C8010E94700440E00F
S11309F050E063EA72E0C8010E94700440E050E0F5
S1130A006EEA72E0C8010E94700440E050E068EBB6
S1130A1072E0C8010E947004D0932903C093280394
S1130A20D0922703C09226030E942B04DF91CF911A
S1130A301F910F91FF90EF90DF90CF900895F8945D
S1130A408FE190E00E948D060E9478060E94D301F7
S1130A5080E090E00E945D030E94DF050E94B304E1
S1130A600E94260278940895FF920F931F93CF93C8
S1130A70DF93CDB7DEB72B970FB6F894DEBF0FBE6A
S1130A80CDBF1A82198285E08B830E947F036C8319
S1130A908D830E94B1036E838F8382E00E9465037D
S1130AA08C0180E00E946503F82E81E00E946503BA
S1130AB0000F111F000F111F880F991F082BF02A18
S1130AC0F886CE0101960E943D0280E090E00E94EB
S1130AD071028823D1F32B960FB6F894DEBF0FBEB4
S1130AE0CDBFDF91CF911F910F91FF9008950E9488
S1130AF01F0586EC92E00E945A080E943405FDCF3F
S1130B00883060F490EB980FE0912201F09123017A
S1130B10908390E090931D0380931C030895882391
S1130B20ACF0982F9F70E0912201F0912301908303
S1130B30982F92959F70905FE0912201F09123018C
S1130B40908390E090931B0380931A030895CF93AE
S1130B50C62F883010F466234CF48AEE92E09F93FB
S1130B608F930E9446080F900F9005C00E94800545
S1130B708C2F0E948F05CF91089560E080E00E9441
S1130B80A705089560E00E94A70580E890E0E09141
S1130B902401F0912501108201970097C1F708956F
S1130BA0CF93C0E08C2F0E94C205CF5FC830D1F72D
S1130BB0CF9108950E94D0050E94BD050895CF935A
S1130BC0DF93CDB7DEB767970FB6F894DEBF0FBEDD
S1130BD0CDBF87E1E6E2F1E0DE01119601900D92CE
S1130BE08A95E1F7FE013196CE0148962191A091B4
S1130BF02201B09123012C93E817F907B9F70E9459
S1130C00DA0567960FB6F894DEBF0FBECDBFDF914D
S1130C10CF9108958A3029F08D3061F0811112C08E
S1130C20089580911C0390911D0360E08F5F0E94E2
S1130C30A705089580911C0390911D0360E00E9414
S1130C40A7050895E82FF0E0EE0FFF1FEE0FFF1F3A
S1130C50EE0FFF1FE059F04080E090E02491A09156
S1130C602401B09125012C93019631968830910589
S1130C70A9F70895E0912401F091250188E180838A
S1130C80E0912401F09125018083E0912401F09109
S1130C9025019EE79083E0912401F09125019CE3D6
S1130CA09083E0912401F0912501808308958BB70E
S1130CB080648BBF85B78D7F85BF85B78E7F85BFE9
S1130CC0BD9ABF9ABC9A6C9A6E9A689A6998689809
S1130CD008958FB9779BFECF089580E00E9469063E
S1130CE0779BFECF8FB10895C4980895C49A089550
S1130CF085B7806885BF80B7806280BF80B78F7EEC
S1130D0080BF80B7877F80BF08955D9BFECF8CB97D
S1130D1008955F9BFECF8CB1089590BD89B988E199
S1130D208AB98EE880BD69E876E085E896E00E949D
S1130D30E907089597FB072E16F4009407D077FD72
S1130D4009D00E94AE0607FC05D03EF4909581952B
S1130D509F4F0895709561957F4F0895AA1BBB1B03
S1130D6051E107C0AA1FBB1FA617B70710F0A61BA7
S1130D70B70B881F991F5A95A9F780959095BC01C8
S1130D80CD010895CF93DF938230910510F482E072
S1130D9090E0E0912C03F0912D0320E030E0A0E0FE
S1130DA0B0E0309739F14081518148175907B8F0C4
S1130DB04817590771F482819381109729F013968B
S1130DC09C938E9312972CC090932D0380932C03A5
S1130DD027C02115310531F04217530718F0A90136
S1130DE0DB0101C0EF019A01BD01DF010280F38143
S1130DF0E02DD7CF21153105F9F0281B390B24300C
S1130E00310580F48A819B816115710521F0FB0114
S1130E109383828304C090932D0380932C03FE015B
S1130E20329644C0FE01E20FF31F81939193225046
S1130E303109398328833AC020912A0330912B0346
S1130E40232B41F4209102013091030130932B03B1
S1130E5020932A03209100013091010121153105CD
S1130E6041F42DB73EB74091040150910501241B74
S1130E70350BE0912A03F0912B03E217F307A0F45A
S1130E802E1B3F0B2817390778F0AC014E5F5F4FDC
S1130E902417350748F04E0F5F1F50932B034093E0
S1130EA02A038193919302C0E0E0F0E0CF01DF9147
S1130EB0CF910895CF93DF93009709F487C0FC0185
S1130EC0329713821282C0912C03D0912D03209764
S1130ED081F420813181280F391F80912A03909158
S1130EE02B038217930779F5F0932B03E0932A03DE
S1130EF06DC0DE0120E030E0AE17BF0750F412965B
S1130F004D915C9113979D014115510509F1DA0149
S1130F10F3CFB383A28340815181840F951F8A1735
S1130F209B0771F48D919C911197840F951F0296E4
S1130F309183808312968D919C91139793838283DE
S1130F402115310529F4F0932D03E0932C033EC0C1
S1130F50D9011396FC93EE9312974D915D91A40FD2
S1130F60B51FEA17FB0779F480819181840F951FDF
S1130F700296D90111969C938E9382819381139644
S1130F809C938E931297E0E0F0E08A819B81009716
S1130F9019F0FE01EC01F9CFCE01029628813981C6
S1130FA0820F931F20912A0330912B0328173907AE
S1130FB069F4309729F410922D0310922C0302C087
S1130FC013821282D0932B03C0932A03DF91CF9113
S1130FD008950F931F93CF93DF93EC018B01009738
S1130FE031F46115710519F480E090E038C06EE0C9
S1130FF070E081E090E00E94590AFC010097A1F39F
S113100080E883830115110571F01387028781E855
S1131010838380912E0390912F03892B21F4F093E5
S11310202F03E0932E032097C9F0D187C0878381D3
S1131030826083838091300390913103892B71F412
S1131040F0933103E09330038091320390913303A2
S1131050892B21F4F0933303E0933203CF01DF9122
S1131060CF911F910F910895A0E0B0E0EAE3F8E07A
S11310700C94320BAE01475F5F4F6F8178858D8191
S11310809E810E948708E2E00C944E0BA0E0B0E041
S1131090ECE4F8E00C94320BFE0135966191719109
S11310A0AF0180913003909131030E948708E2E000
S11310B00C944E0B0F931F93CF93DF93E091300367
S11310C0F0913103238121FF1BC0EC0100E010E00B
S11310D089916091300370913103DB011896ED9191
S11310E0FC911997882331F00995892B89F30FEF27
S11310F01FEFEECF8AE00995892B11F4C80102C0D5
S11311008FEF9FEFDF91CF911F910F910895ACE086
S1131110B0E0EDE8F8E00C94220B7C016B018A014D
S1131120FC0117821682838181FFBDC1CE01019625
S11311304C01F7019381F60193FD859193FF819111
S11311406F01882309F4ABC1853239F493FD85918D
S113115093FF81916F01853229F4B70190E00E94D9
S1131160920AE7CF512C312C20E02032A0F48B32AC
S113117069F030F4803259F0833269F420612CC074
S11311808D3239F0803339F4216026C02260246026
S113119023C0286021C027FD27C030ED380F3A3026
S11311A078F426FF06C0FAE05F9E300D1124532E1A
S11311B013C08AE0389E300D1124332E20620CC0F7
S11311C08E3221F426FD6BC1206406C08C3611F4E6
S11311D0206802C0883641F4F60193FD859193FF9F
S11311E081916F018111C1CF982F9F7D95549330C8
S11311F028F40C5F1F4FFFE3F9830DC0833631F0F1
S1131200833771F0833509F05BC022C0F801808117
S113121089830E5F1F4F44244394512C540115C0FD
S11312203801F2E06F0E711CF801A080B18026FF36
S113123003C0652D70E002C06FEF7FEFC5012C87FE
S11312400E94870A2C0183012C852F77222E17C038
S11312503801F2E06F0E711CF801A080B18026FF06
S113126003C0652D70E002C06FEF7FEFC5012C87CE
S11312700E94750A2C012C852068222E830123FCF0
S11312801BC0832D90E048165906B0F4B70180E2E4
S113129090E00E94920A3A94F4CFF50127FC8591DC
S11312A027FE81915F01B70190E00E94920A3110FC
S11312B03A94F1E04F1A51084114510471F7E5C012
S11312C0843611F0893639F5F80127FF07C06081AB
S11312D07181828193810C5F1F4F08C0608171818D
S11312E0882777FD8095982F0E5F1F4F2F76B22E9B
S11312F097FF09C090958095709561957F4F8F4FAA
S11313009F4F2068B22E2AE030E0A4010E94C40A54
S1131310A82EA81844C0853729F42F7EB22E2AE0BF
S113132030E025C0F22FF97FBF2E8F36C1F018F4BC
S1131330883579F0B4C0803719F0883721F0AFC010
S11313402F2F2061B22EB4FE0DC08B2D8460B82ED9
S113135009C024FF0AC09F2F9660B92E06C028E05A
S113136030E005C020E130E002C020E132E0F801C5
S1131370B7FE07C060817181828193810C5F1F4F2A
S113138006C06081718180E090E00E5F1F4FA40170
S11313900E94C40AA82EA818FB2DFF77BF2EB6FE04
S11313A00BC02B2D2E7FA51450F4B4FE0AC0B2FC42
S11313B008C02B2D2E7E05C07A2C2B2D03C07A2C31
S11313C001C0752C24FF0DC0FE01EA0DF11D8081C2
S11313D0803311F4297E09C022FF06C073947394EC
S11313E004C0822F867809F0739423FD13C020FF74
S11313F006C05A2C731418F4530C5718732C731416
S113140068F4B70180E290E02C870E94920A7394FA
S11314102C85F5CF731410F4371801C0312C24FF38
S113142012C0B70180E390E02C870E94920A2C85B9
S113143022FF17C021FF03C088E590E002C088E7BF
S113144090E0B7010CC0822F867859F021FD02C0CC
S113145080E201C08BE227FD8DE2B70190E00E949B
S1131460920AA51438F4B70180E390E00E94920A2E
S11314705A94F7CFAA94F401EA0DF11D8081B701C3
S113148090E00E94920AA110F5CF332009F451CEC6
S1131490B70180E290E00E94920A3A94F6CFF701F5
S11314A08681978102C08FEF9FEF2C96E2E10C9426
S11314B03E0B0F931F93CF93DF93869F8001879FEB
S11314C0100D969F100D1124C8010E94C206EC0154
S11314D0009729F0A80160E070E00E94800ACE0124
S11314E0DF91CF911F910F910895FC0105906150F8
S11314F070400110D8F7809590958E0F9F1F089526
S1131500DC0101C06D9341505040E0F70895FC01A7
S11315106150704001900110D8F7809590958E0F1E
S11315209F1F08950F931F93CF93DF93182F092FB5
S1131530EB018B8181FD03C08FEF9FEF20C082FF01
S113154010C04E815F812C813D81421753077CF48A
S1131550E881F9819F012F5F3F4F398328831083EE
S113156006C0E885F985812F0995892B29F72E81F5
S11315703F812F5F3F4F3F832E83812F902FDF9139
S1131580CF911F910F910895FA01AA27283051F1A4
S1131590203181F1E8946F936E7F6E5F7F4F8F4FA0
S11315A09F4FAF4FB1E03ED0B4E03CD0670F781FFF
S11315B0891F9A1FA11D680F791F8A1F911DA11DE4
S11315C06A0F711D811D911DA11D20D009F468941D
S11315D03F912AE0269F11243019305D3193DEF6C5
S11315E0CF010895462F4770405D4193B3E00FD07B
S11315F0C9F7F6CF462F4F70405D4A3318F0495D66
S113160031FD4052419302D0A9F7EACFB4E0A69548
S11316109795879577956795BA95C9F7009761056A
S1131620710508959B01AC010A2E069457954795C0
S113163037952795BA95C9F7620F731F841F951FB5
S1131640A01D08952F923F924F925F926F927F92C6
S11316508F929F92AF92BF92CF92DF92EF92FF92BE
S11316600F931F93CF93DF93CDB7DEB7CA1BDB0B6A
S11316700FB6F894DEBF0FBECDBF09942A8839880F
S113168048885F846E847D848C849B84AA84B98416
S1131690C884DF80EE80FD800C811B81AA81B98122
S11316A0CE0FD11D0FB6F894DEBF0FBECDBFED0136
S10916B00895F894FFCF39
S11316B600003403200000000002000000000A06B7
S11316C60000000000000002000000000A060000FE
S11316D6000000100012AEA1DA12C8A83FD580811E
S11316E650D921A72002DB30AD00A4A6AF43616C1C
S11316F6696272617465204A4F5900785F6D61783A
S11317063A202536640A00785F6D696E3A202536DC
S1131716640A00795F6D61783A202536640A007997
S11317265F6D696E3A202536640A00436C69636B03
S1131736207768656E20646F6E65000A25730A005B
S1131746582D706F736974696F6E3A202534640975
S113175609592D706F736974696F6E3A2025346464
S11317660909004C65667420736C696465723A20D5
S1131776253464090920526967687420736C6964A6
S113178665723A202534640909004C656674206242
S11317967574746F6E3A20253464095269676874E7
S11317A620627574746F6E3A20253464096A6F7901
S11317B6737469636B20627574746F6E3A20253492
S11317C6640A004D435032353135206973204E4F3B
S11317D65420696E20636F6E6669677572617469F9
S11317E66F6E206D6F646520616674657220726524
S11317F673657421000A0A4869676873636F7265C2
S113180620636C69636B6564210A00202573004DAF
S113181661696E206D656E7500506C617920676133
S11318266D65004869676873636F72650053657414
S113183674696E6773004272696768746E65737360
S11318460053657420666F6E74004B6579626F6130
S11318567264004D616E64656C62726F7400506CE4
S1131866617920706F6E6700726F746174696E6758
S1131876206375626500496E697469616C697A6191
S113188674696F6E206F66204E6F64652031206325
S11318966F6D706C657465210A004F7574206F66F0
S11318A62072616E676520696E204F4C45445F70F7
S11318B66F73282900204578747261206665617407
S10918C675726573000059
S9030000FC
