:100000000C94E4010C94DD020C9401020C940102A6
:100010000C9401020C9401020C9401020C94010254
:100020000C9401020C9401020C9401020C94010244
:100030000C9401020C9401020C9401020C94010234
:100040000C9401020C9401020C9401020C94010224
:100050000C9401020C9401020C9401020C94010214
:100060000C9401020C9401020C9401020C94010204
:1000700030313233343536373839213F51574552D4
:10008000545955494F50292B4153444647484A4BF0
:100090004C28272D5A584356424E4D2C2E3B3A237E
:1000A00030313233343536373839213F7177657224
:1000B000747975696F70262B6173646667686A6B03
:1000C0006C25242D7A786376626E6D2C2E3B3A2354
:1000D000000000000000000000065F5F0600000056
:1000E0000007070007070000147F7F147F7F1400BC
:1000F0002054543854545800386454544C38000038
:100100002050545554784000601816117F4949001A
:100110005C22514945221D006030282528306000AE
:10012000082A3E1C1C3E2A0808083E3E080800001B
:1001300000A0E060000000000808080808080000AF
:1001400000006060000000006030180C0603010031
:100150003E7F594D7F3E000042427F7F404000007D
:10016000627359496F660000226349497F36000077
:10017000181C16137F7F1000276745457D39000046
:100180003C7E4B4979300000036371190F07000072
:10019000367F49497F360000064F49693F1E0000FF
:1001A00000006C6C0000000000A0EC6C000000007F
:1001B000081C3663410000001414141414140000C9
:1001C000004163361C080000020351590F0600006D
:1001D0003E7F415D5D1F1E007C7E13137E7C000010
:1001E000417F7F49497F36001C3E634141632200C5
:1001F000417F7F41637F1C00417F7F495D416300F8
:10020000417F7F491D0103001C3E63415173720011
:100210007F7F08087F7F000000417F7F4100000052
:10022000307040417F3F0100417F7F081C776300B1
:10023000417F7F41406070007F7F060C067F7F001A
:100240007F7F060C187F7F001C3E6341633E1C00CD
:10025000417F7F49090F06001E3F21717F5E00002C
:10026000417F7F19396F460026674D597B32000068
:1002700003417F7F410300007F7F40407F7F00007C
:100280001F3F60603F1F00007F7F3018307F7F007E
:1002900063771C081C776300074F78784F070000CE
:1002A0006773594D47637100007F7F414100000033
:1002B0000103060C183060000041417F7F00000000
:1002C000080C0603060C08008080808080808080F7
:1002D0000000030704000000207454543C784000E0
:1002E000413F7F44447C3800387C44446C28000003
:1002F000307848493F7F4000387C54545C180000F7
:10030000487E7F490302000098BCA4A4F87C040046
:10031000417F7F08047C780000447D7D4000000020
:1003200040C484FD7D000000417F7F10386C440094
:1003300000417F7F400000007C7C0C180C7C780022
:100340007C7C04047C780000387C44447C380000C9
:1003500084FCF8A4243C1800183C24A4F8FC840075
:10036000447C78441C180000485C545474240000F9
:1003700000043E7F442400003C7C40403C7C400024
:100380001C3C60603C1C00003C7C6030607C3C009D
:10039000446C3810386C44009CBCA0A0FC7C00006D
:1003A0004C64745C4C64000008083E7741410000D6
:1003B00000000077770000004141773E0808000008
:1003C000020301030203010011241FBECFEFD4E09A
:1003D000DEBFCDBF13E0A0E0B1E0E8E2F8E202C08A
:1003E00005900D92AE34B107D9F723E0AEE4B3E047
:1003F00001C01D92A63AB207E1F70E94990C0C9435
:1004000012140C94000030980895843040F48C5FEE
:10041000809300142899FECF80910014089580E005
:1004200008950F931F93CF93DF930E94FE0C89E6EC
:1004300091E09F938F9303E711E01F930F93C6E022
:10044000D1E0DF93CF930E94BD1060E081E00E9475
:10045000CF0C87E791E09F938F931F930F93DF93C8
:10046000CF930E94BD1060E082E00E94CF0C87E82D
:1004700091E09F938F931F930F93DF93CF930E94ED
:10048000BD1084E00E94850D85E00E94850D86E008
:100490000E94850D87E00E94850D8DB79EB742961C
:1004A0000FB6F8949EBF0FBE8DBFDF91CF911F9105
:1004B0000F9108950E94110205C00E94D706862F51
:1004C0000E945E0D80E00E945B06892BB1F30895C7
:1004D000CF92DF92EF92FF920F931F93CF93DF9310
:1004E0008C01FC0182818823F1F11F928F9381811D
:1004F0008F9380818F9386E991E09F938F930E94E1
:100500002A11F80182810F900F900F900F900F9099
:100510000F90882321F16801F3E0CF0ED11CC0E0D9
:10052000D0E00F2EF1EBEF2EF1E0FF2EF02DF601D3
:1005300021916F01822F992787FD90959F932F938B
:10054000FF92EF920E942A112196F801828190E099
:100550000F900F900F900F90C817D90744F38AE0BF
:1005600090E00E943E11DF91CF911F910F91FF907B
:10057000EF90DF90CF900895CF938CE20E94BA0A5B
:10058000C82F80FF0BC040E061E08CE20E94EC0AC3
:1005900021E030E03093510320935003C1FF0BC0A2
:1005A00040E062E08CE20E94EC0A81E090E09093EF
:1005B0004F0380934E03CF9108951F920F920FB671
:1005C0000F9211242F933F934F935F936F937F93D9
:1005D0008F939F93AF93BF93EF93FF930E94BC02BF
:1005E000FF91EF91BF91AF919F918F917F916F910B
:1005F0005F914F913F912F910F900FBE0F901F90E1
:1006000018950E940E0B4FEF64E680E60E94EC0AFC
:100610004FEF60E680E70E94EC0A63E08BE20E9405
:10062000CC0A40E060EE8FE00E94EC0A0895039649
:100630008295807F0E94BA0A83FB882780F991E027
:10064000892708950F931F93CF93DF93EC0180E0E8
:1006500090E00E941703882381F108811981B80175
:1006600076956795769567957695679581E30E946F
:10067000CC0A602F6295660F607E82E30E94CC0AEE
:100680006A8185E30E94CC0A8A81882369F010E0A0
:10069000FE01E10FF11D638186E3810F0E94CC0A08
:1006A0001F5F8A811817A0F381E00E94E00A80E0B2
:1006B00090E00E9417038823D1F3DF91CF911F911F
:1006C0000F910895DF92EF92FF920F931F93CF93B4
:1006D000DF938C01F8948091500390915103892B02
:1006E00039F01092510310925003C0E0D0E011C0D5
:1006F00080914E0390914F03892B39F010924F0354
:1007000010924E03C1E0D0E004C0F8011282789448
:1007100042C0FC2EFF0CFF0CFF0CFF0C81E68F0D7E
:100720000E94BA0AE82E82E68F0D0E94BA0A2E2D88
:1007300030E0220F331F220F331F220F331F829509
:1007400086958770280F311DF8013183208385E657
:100750008F0D0E94BA0A8770F80182838823D1F036
:100760007E01EE0CFF1CEE0CFF1CEE0CFF1CEE0CD1
:10077000FF1CD12CCD2DD0E0CE018A599F4F8E0D7C
:100780000E94BA0AC00FD11F8B83D394F8018281D3
:10079000D81680F37894DF91CF911F910F91FF903D
:1007A000EF90DF900895FF920F931F93CF93DF9305
:1007B000CDB7DEB72B970FB6F894DEBF0FBECDBF17
:1007C00083E690E09A83898385E08B830E94750697
:1007D0006C838D830E94D7066E838F8382E00E9494
:1007E0005B068C0180E00E945B06F82E81E00E948F
:1007F0005B06000F111F000F111F880F991F082B98
:10080000F02AF886CE0101960E9422032B960FB69D
:10081000F894DEBF0FBECDBFDF91CF911F910F9136
:10082000FF900895CF93DF93CDB7DEB72B970FB628
:10083000F894DEBF0FBECDBF1B82CE0101960E9491
:100840006203CE0101960E9468028B81882309F41D
:1008500096C089819A818836910509F090C08C8173
:1008600090E0982F88272D81822B2091560330917C
:100870005703265F3F4F2817390764F0209156032E
:1008800030915703821793072CF09093570380936E
:1008900056033CC0892BD1F58091560390915703A4
:1008A000892BA1F1809156039091570390935303A4
:1008B00080935203109257031092560360E087E032
:1008C0000E94CF0C8091520390915303E091520308
:1008D000F09153032AE030E0B9010E94230F9F9367
:1008E0008F93CF01B9010E94230F7F936F9385EB04
:1008F00091E09F938F9384E191E09F938F930E9467
:10090000BD100FB6F894DEBF0FBECDBF20915603C9
:1009100030915703809154039091550382179307A8
:1009200044F480915603909157039093550380931C
:1009300054030E94E10C8091560390915703E0917B
:100940005603F09157032AE030E0B9010E94230FCB
:100950009F938F93CF01B9010E94230F7F936F93D1
:1009600087EC91E09F938F9384E191E09F938F9325
:100970000E94BD100FB6F894DEBF0FBECDBF2B9600
:100980000FB6F894DEBF0FBECDBFDF91CF910895B3
:100990000F931F93CF93DF93CDB7DEB72B970FB68F
:1009A000F894DEBF0FBECDBF0E94FE0C88ED91E033
:1009B0009F938F938CED91E09F938F9304E111E0CF
:1009C0001F930F930E94BD1086EE91E09F938F932B
:1009D00084EF91E09F938F931F930F930E94BD101C
:1009E0008AEF91E09F938F9385EF91E09F938F9390
:1009F0001F930F930E94BD102FEF8FE797E02150B8
:100A000080409040E1F700C0000081E08B8383E7E5
:100A100090E09A8389838FEF8C83CE0101960E94A8
:100A200022030FB6F894DEBF0FBECDBF04C00E94F4
:100A3000D3030E94120480E00E945B06892BB9F365
:100A400081E790E09A838983CE0101960E94220378
:100A50002B960FB6F894DEBF0FBECDBFDF91CF91BE
:100A60001F910F910895CF93DF930E94FE0C809108
:100A7000540390915503E0915403F09155032AE0FB
:100A800030E0B9010E94230F9F938F93CF01B901EA
:100A90000E94230F7F936F9389E092E09F938F933F
:100AA000C4E1D1E0DF93CF930E94BD1088E292E0D1
:100AB0009F938F9386E392E09F938F93DF93CF93DF
:100AC0000E94BD108DB79EB70E960FB6F8949EBFCC
:100AD0000FBE8DBF80E00E945B06892BD9F3DF91AA
:100AE000CF910895CF93DF930E94FE0C8EE392E0A6
:100AF0009F938F938DE892E09F938F93C2E2D1E012
:100B0000DF93CF930E94BD10809168031F928F9353
:100B10008CE492E09F938F93DF93CF930E94BD105C
:100B200080916C031F928F9388E592E09F938F933F
:100B3000DF93CF930E94BD10809169031F928F9322
:100B400084E692E09F938F93DF93CF930E94BD1032
:100B500080916D031F928F9380E792E09F938F9314
:100B6000DF93CF930E94BD108CE792E09F938F9309
:100B70008CE892E09F938F93DF93CF930E94BD10F8
:100B80008DB79EB784960FB6F8949EBF0FBE8DBFEB
:100B9000DF91CF910895BF92CF92DF92EF92FF92B3
:100BA0000F931F93CF93DF932FEF2093680320932E
:100BB000690310926C0310926D030197E9F5B29BE3
:100BC0003BC00F2EF8E6CF2EF3E0DF2EF02D0F2ED8
:100BD000F9E6EF2EF3E0FF2EF02D0CE613E0CDE664
:100BE000D3E080E00E940502B82E81E00E94050259
:100BF000F60120819B2DB21608F4922FF601908306
:100C0000F7012081982F821708F4922FF701908323
:100C1000F80190819B1508F4B92EF801B0829881F3
:100C2000981708F4892F88830E94720580E090EF5E
:100C30000197F1F7B299D5CFE0916803F0E06091A8
:100C40006C0370E09F01261B370BC90199230CF43C
:100C500001969595879580936A034091690350E0CA
:100C600020916D0330E0DA01A21BB30BCD010AF431
:100C700001969595879580936B036E0F7F1F7595F1
:100C8000679560936E03240F351F35952795209344
:100C90006F03DF91CF911F910F91FF90EF90DF9045
:100CA000CF90BF900895C29ABA9820B72B7F20BFEB
:100CB0000E94CB050895813041F018F0823051F048
:100CC00011C086B3817090E0089586B386958170D7
:100CD00090E0089586B38695869591E08927817086
:100CE00090E0089580E090E008951F93CF93DF9304
:100CF00080E00E940502282F30E080916E03281BBF
:100D0000310914E6129FC001139F900D11246091C8
:100D10006A0370E00E94230FEB0181E00E9405024C
:100D2000282F30E080916F03281B3109129FC001EA
:100D3000139F900D112460916B0370E00E94230FAC
:100D40009B01BE01C901DF91CF911F9108950E94BF
:100D50007506FB01AC019B012C5F3F4F293031052B
:100D600030F49C012C5F3F4F29303105E0F0DB016E
:100D7000FF2324F4AA27BB27A61BB70B9C015523EE
:100D800024F422273327281B390B2A173B0734F476
:100D900081E01E161F0654F080E008951416150613
:100DA00024F482E0089584E0089583E00895CF93C9
:100DB00082E00E940502C82F83E00E940502282FCE
:100DC0006C2F70E0822F90E0CF910895E0E7F3E080
:100DD00001900020E9F73197E057F340E832F10540
:100DE0006CF4E059FC4F80831182809162039091F2
:100DF0006303019690936303809362030895809147
:100E00007003882339F0E0E7F3E001900020E9F770
:100E10003297108208956E5F7F4F660F660F660FE0
:100E20008D5F0E94CF0C0895CF93DF930E94E10C59
:100E300062E371E080E793E00E940111C0E7D3E034
:100E400009900020E9F72197C057D340C031D10560
:100E500054F462E371E080E290E00E94CF102196AA
:100E6000C031D105B1F7E0E7F3E001900020E9F7E8
:100E70003197E057F340EF70FF27BF01660F771FF0
:100E8000660F771F660F771F80E00E94CF0C88E007
:100E900090E00E94C80D109261031092600360916F
:100EA0005C0370915D0380915E0390915F030E94EB
:100EB0000B07DF91CF91089560E070E00E940B076F
:100EC0000895EF92FF920F931F93CF93DF930E94A9
:100ED000FE0CC0E7D3E018820E94140780EA90E07D
:100EE000909331018093300180E090E00E945C0794
:100EF00010925D0310925C0310925F0310925E03E8
:100F00001882E0913001F0913101849161E070E04C
:100F10000E94D80EC1E0D0E00CE010E00F2EFEE5FC
:100F2000EF2EF3E0FF2EF02D0EC0CE01B8010E948F
:100F3000230F892B41F4F7018081918101969183E0
:100F400080830E945C07E0913001F0913101EC0F49
:100F5000FD1F849160E070E00E94D80E2196C0339E
:100F6000D10519F784E090E00E945C0720E030E0B2
:100F700040E050E060E070E080E090E00E94BD0E54
:100F800010925F0310925E03FFEF2FE787E0F150AE
:100F900020408040E1F700C00000DF91CF911F9119
:100FA0000F91FF90EF900895EF92FF920F931F9390
:100FB000CF93DF9380E090E00E945C0710925F0384
:100FC00010925E03C0E0D0E00CE010E00F2EFEE5D2
:100FD000EF2EF3E0FF2EF02D10C0CE01B8010E94DD
:100FE000230F892B51F4209741F0F70180819181E3
:100FF0000196918380830E945C07E0913001F0911B
:101000003101EC0FFD1F849160E070E00E94D80E6A
:101010002196C033D10509F784E090E00E945C0777
:1010200020E030E040E050E060E070E080E090E000
:101030000E94BD0EDF91CF911F910F91FF90EF9015
:1010400008958091300190913101805A904039F497
:1010500080E790E0909331018093300106C080EAF0
:1010600090E090933101809330010E94D40784E096
:1010700090E00E945C0781E090E00E94DF0D84E038
:1010800090E090935F0380935E0310925D03109253
:101090005C030895843009F48AC0833091F4209170
:1010A0005E0330915F0324303105BCF5C901019620
:1010B00090935F0380935E0330935B0320935A0306
:1010C00008958230A1F480915E0390915F03181619
:1010D00019060CF06CC09C012150310930935F035C
:1010E00020935E0390935B0380935A0308958111CC
:1010F00014C080915C0390915D03181619060CF0E2
:1011000056C09C012150310930935D0320935C034C
:1011100090935903809358030895813009F047C094
:1011200080915C0390915D038B3091050CF03FC082
:1011300020915E0330915F032430310569F58230E0
:1011400091055CF4109259031092580382E090E0EC
:1011500090935D0380935C030895883091056CF44F
:1011600082E090E0909359038093580388E090E0E8
:1011700090935D0380935C0308950A97C4F488E01C
:1011800090E090935903809358038AE090E0909305
:101190005D0380935C0308959C012F5F3F4F309364
:1011A0005D0320935C039093590380935803089543
:1011B000CF93DF9380915A0390915B038430910524
:1011C00024F5C8E5D3E0688179810E940B078091FE
:1011D0005A0390915B03FC01EE0FFF1F8E0F9F1FC0
:1011E000FC01EE0FFF1FEE0FFF1F28813981E20F78
:1011F000F31F8091300190913101E80FF91F849124
:1012000060E070E00E94D80E46C0209158033091F3
:101210005903223031056CF410925903109258038F
:1012200060E070E00E940B0780E090E00E94DF0D1C
:1012300032C0283031057CF422E030E0309359038D
:101240002093580362E070E00E940B0780E090E07A
:101250000E94830E20C02A3031057CF428E030E063
:10126000309359032093580368E070E00E940B0705
:1012700080E090E00E942B0E0EC02AE030E0309318
:101280005903209358036AE070E00E940B0780E046
:1012900090E00E94570EDF91CF910895CF93DF9396
:1012A00080915E0390915F038430910524F5CCE535
:1012B000D3E0688179810E940B0780915E03909151
:1012C0005F03FC01EE0FFF1F8E0F9F1FFC01EE0F4F
:1012D000FF1FEE0FFF1F28813981E20FF31F80915E
:1012E000300190913101E80FF91F849161E070E0C5
:1012F0000E94D80E46C020915C0330915D032230DD
:1013000031056CF410925D0310925C0360E070E0B4
:101310000E940B0781E090E00E94DF0D32C0283070
:1013200031057CF422E030E030935D0320935C03D0
:1013300062E070E00E940B0781E090E00E94830E63
:1013400020C02A3031057CF428E030E030935D0382
:1013500020935C0368E070E00E940B0781E090E05E
:101360000E942B0E0EC02AE030E030935D032093E4
:101370005C036AE070E00E940B0781E090E00E944D
:10138000570EDF91CF91089580915E0390915F0396
:1013900084309105E4F4FC01EE0FFF1F8E0F9F1FB8
:1013A000FC01EE0FFF1FEE0FFF1F20915C03309139
:1013B0005D03E20FF31F8091300190913101E80F3E
:1013C000F91F84910E94E6060E94140708958091F7
:1013D0005C0390915D03823091051CF40E9421080A
:1013E00008958830910534F480E20E94E6060E9458
:1013F000140708958A30910574F4209162033091A6
:101400006303121613063CF4215031093093630331
:101410002093620308950C97A4F480916203909145
:101420006303E0E7F3E001900020E9F73197E0572C
:10143000F3408E179F0728F40196909363038093DF
:10144000620308956F927F928F929F92AF92BF92A4
:10145000CF92DF92EF92FF920F931F93CF93DF9380
:101460000E9461070F2EFAE5EF2EF3E0FF2EF02D1C
:101470000EE513E00F2EF8E5AF2EF3E0BF2EF02DB2
:101480000F2EFCE5CF2EF3E0DF2EF02D8824839481
:10149000912C612C712C59C00E94A7060E944A0809
:1014A000F70120813181F801808191812817390766
:1014B00049F4F50120813181F6018081918128175D
:1014C000390799F00E94D8080E944E09F6018081E0
:1014D0009181F50191838083F80180819181F701E9
:1014E00091838083C82DD92D02C0C62DD72D82E0CF
:1014F0000E945B06892B29F00E94C409882D992D32
:101500000EC081E00E945B06892B39F00E94FF0625
:101510000E941407882D992D02C0862D972DCD2B62
:1015200049F0EFEFFFEB23E0E150F0402040E1F71E
:1015300000C00000892B49F03FEF4FE385E03150B8
:1015400040408040E1F700C000C080E00E945B06A0
:10155000892B09F4A1CFDF91CF911F910F91FF90BB
:10156000EF90DF90CF90BF90AF909F908F907F9043
:101570006F900895CF93C82F0E94FD0E83E00E94C4
:10158000F20E8C2F0E94F20E0E94F60EC82F0E94BF
:10159000FF0E8C2FCF910895CF93DF93D82FC62FB6
:1015A0000E94FD0E82E00E94F20E8D2F0E94F20E2C
:1015B0008C2F0E94F20E0E94FF0EDF91CF910895B2
:1015C000CF93C82F0E94FD0E80E88C0F0E94F20E70
:1015D0000E94FF0ECF9108951F93CF93DF93182F92
:1015E000D62FC42F0E94FD0E85E00E94F20E812F9F
:1015F0000E94F20E8D2F0E94F20E8C2F0E94F20E8E
:101600000E94FF0EDF91CF911F9108950E94FD0E61
:1016100080EC0E94F20E0E94FF0E08950E94E00EE0
:101620000E94060B8EE00E94BA0A807E803831F05C
:1016300081E992E00E94451181E0089580E00895DB
:10164000DF92EF92FF920F931F93CF93DF930E944D
:10165000FE0CE0919A03F0919B03C481D581209701
:1016600061F1D12C0F2EFAE3EF2EF2E0FF2EF02DD8
:1016700000E411E060E08D2D0E94CF0C20919803D2
:1016800030919903C217D30711F40E94940D8981F8
:101690008F9388818F93FF92EF921F930F930E94F5
:1016A000BD100E80DF81C02DD3940F900F900F904E
:1016B0000F900F900F902097E9F6DF91CF911F9137
:1016C0000F91FF90EF90DF900895E0919803F091D3
:1016D000990386819781892B41F086819781909328
:1016E0009903809398030E94200B0895E09198033A
:1016F000F091990380859185892B41F080859185B2
:1017000090939903809398030E94200B0895E09191
:101710009803F091990382859385892B31F0028497
:10172000F385E02D09950E94200BE0919803F0913C
:10173000990384819581892B61F0F0939B03E09359
:101740009A038481958190939903809398030E94D2
:10175000200B0895E0919A03F0919B03828193817D
:10176000892B79F00280F381E02DF0939B03E093C5
:101770009A038481958190939903809398030E94A2
:10178000200B0895CF930E94A706833021F40E9476
:10179000650BC1E009C00E94A706823021F40E94B7
:1017A000760BC1E001C0C0E082E00E945B06892B9D
:1017B00019F00E94870B0AC080E00E945B06892B0B
:1017C00019F00E94AA0B02C0CC2349F022E383ED5A
:1017D00093E0215080409040E1F700C000C0CF91DD
:1017E0000895EF92FF920F931F93CF93DF93EC0135
:1017F0007B018A018CE090E00E944B0FDC01119686
:10180000FC92EE921396DC93CE93129715961C924F
:101810001E92149717961C921E92169719961C9258
:101820001E9218971B961C930E931A972097A1F05F
:10183000EC81FD81309719F49D838C830DC0268146
:1018400037812115310511F0F901F9CFB783A6834E
:101850001996FC93EE931897CD01DF91CF911F91CC
:101860000F91FF90EF900895CF92DF92EF92FF9249
:101870000F931F93CF93DF9340E050E063EC72E04F
:1018800080E090E00E94F10BEC0148EC54E06DEC3C
:1018900072E00E94F10B8C0143E355E067ED72E0CA
:1018A000CE010E94F10B40E050E061EE72E0CE010B
:1018B0000E94F10B6C0140E050E06EE373E0CE015A
:1018C0000E94F10B7C014AE552E06AEE72E0C6012B
:1018D0000E94F10B42E25AE065EF72E0C7010E94FC
:1018E000F10BD0939B03C0939A0310939903009339
:1018F00098030E94200BDF91CF911F910F91FF90D1
:10190000EF90DF90CF900895F8948FE190E00E94DF
:10191000160F0E94010F0E94030280E090E00E94D7
:1019200053060E94030D0E94340C0E940103789418
:1019300008950E94840C8EEF92E00E9445110E944F
:10194000C20BFDCFE0915001F091510180830895C9
:10195000883060F490EB980FE0914E01F0914F01C8
:10196000908390E0909367038093660308958823A3
:10197000ACF0982F9F70E0914E01F0914F01908351
:10198000982F92959F70905FE0914E01F0914F01DA
:10199000908390E090936503809364030895CF93C0
:1019A000C62F883010F466232CF482E293E00E9464
:1019B000451105C00E94A80C8C2F0E94B70CCF9136
:1019C000089560E080E00E94CF0C089560E00E94DE
:1019D000CF0C80E890E0E0915001F091510110822D
:1019E00001970097C1F70895CF93C0E08C2F0E9414
:1019F000E60CCF5FC830D1F7CF9108950E94F40C68
:101A00000E94E10C0895CF93DF93CDB7DEB76797BF
:101A10000FB6F894DEBF0FBECDBF87E1E2E5F1E07F
:101A2000DE01119601900D928A95E1F7FE01319643
:101A3000CE0148962191A0914E01B0914F012C9377
:101A4000E817F907B9F70E94FE0C67960FB6F894ED
:101A5000DEBF0FBECDBFDF91CF9108958A3029F050
:101A60008D3061F0811112C00895809166039091CC
:101A7000670360E08F5F0E94CF0C0895809166033A
:101A80009091670360E00E94CF0C0895E82FF0E08A
:101A9000EE0FFF1FEE0FFF1FEE0FFF1FE053F04092
:101AA00080E090E02491A0915001B09151012C93DD
:101AB0000196319688309105A9F70895E0914E017D
:101AC000F0914F0191E89083E0914E01F0914F0128
:101AD000808308958823C1F0E82FF0E0EE0FFF1F08
:101AE000EE0FFF1FEE0FFF1FE053F04080E090E08D
:101AF00024912095A0915001B09151012C93019611
:101B0000319688309105A1F7089560E00E94CF0CCE
:101B100080E890E02FEFE0915001F0915101208397
:101B200001970097C1F70895E0915001F09151019C
:101B300088E18083E0915001F09151018083E09130
:101B40005001F09151019EE79083E0915001F09196
:101B500051019CE39083E0915001F0915101808309
:101B600008950F931F93CF93DF938C0118161906D6
:101B700054F4C0E0D0E080E090E00E94A20C2196F6
:101B8000C017D107C1F7DF91CF911F910F91089531
:101B90000F931F93CF93DF938C011816190654F4FB
:101BA000C0E0D0E08FEF90E00E94A20C2196C01719
:101BB000D107C1F7DF91CF911F910F910895892B24
:101BC00029F584E090E00E94B10D80E190E00E9450
:101BD000A20C88E190E00E94A20C8CE390E00E94AD
:101BE000A20C8EE390E00E94A20C8CE390E00E9495
:101BF000A20C88E190E00E94A20C80E190E00E949B
:101C0000A20C85E090E00E94B10D089584E090E080
:101C10000E94C80D8FEE9FEF0E94A20C87EE9FEFEF
:101C20000E94A20C83EC9FEF0E94A20C81EC9FEF1C
:101C30000E94A20C83EC9FEF0E94A20C87EE9FEF04
:101C40000E94A20C8FEE9FEF0E94A20C85E090E014
:101C50000E94C80D0895892BA9F486E090E00E94A7
:101C6000B10D80E190E00E94A20C88E390E00E9418
:101C7000A20C8CE790E00E94A20C87E090E00E940A
:101C8000B10D089586E090E00E94C80D8FEE9FEFA1
:101C90000E94A20C87EC9FEF0E94A20C83E89FEFAA
:101CA0000E94A20C87E090E00E94C80D0895892B45
:101CB000A9F486E090E00E94B10D8CE790E00E94CC
:101CC000A20C88E390E00E94A20C80E190E00E94C8
:101CD000A20C87E090E00E94B10D089586E090E0AC
:101CE0000E94C80D83E89FEF0E94A20C87EC9FEF33
:101CF0000E94A20C8FEE9FEF0E94A20C87E090E062
:101D00000E94C80D0895CF93DF93892BD1F484E00E
:101D100090E00E94B10D88E390E00E94A20CC7E21F
:101D2000D0E080E290E00E94A20C21972097C9F7B2
:101D300088E390E00E94A20C85E090E00E94B10D43
:101D400019C084E090E00E94B10D87EC9FEF0E94E3
:101D5000A20CC7E2D0E08FED9FEF0E94A20C21976A
:101D60002097C9F787EC9FEF0E94A20C85E090E0D6
:101D70000E94B10DDF91CF910895EF92FF920F93E2
:101D80001F93CF93DF937B018A01E9010E94DF0D4E
:101D9000C7010E94830EC8010E942B0ECE010E9433
:101DA000570EDF91CF911F910F91FF90EF90089503
:101DB000672B19F40E942E0D08950E946A0D089554
:101DC0008BB780648BBF85B78D7F85BF85B78E7FCE
:101DD00085BFBD9ABF9ABC9A6C9A6E9A689A6998A8
:101DE000689808958FB9779BFECF089580E00E9490
:101DF000F20E779BFECF8FB10895C4980895C49AD0
:101E0000089585B7806885BF80B7806280BF80B73E
:101E10008F7E80BF80B7877F80BF08955D9BFECF98
:101E20008CB908955F9BFECF8CB1089590BD89B9A0
:101E300088E18AB98EE880BD62E17FE08EE09FE0B4
:101E40000E947210089597FB072E16F4009407D095
:101E500077FD09D00E94370F07FC05D03EF490951E
:101E600081959F4F0895709561957F4F0895AA1BA6
:101E7000BB1B51E107C0AA1FBB1FA617B70710F075
:101E8000A61BB70B881F991F5A95A9F780959095A7
:101E9000BC01CD010895CF93DF938230910510F4FA
:101EA00082E090E0E0919E03F0919F0320E030E01B
:101EB000A0E0B0E0309739F14081518148175907CF
:101EC000B8F04817590771F482819381109729F06F
:101ED00013969C938E9312972CC090939F0380939C
:101EE0009E0327C02115310531F04217530718F022
:101EF000A901DB0101C0EF019A01BD01DF010280F0
:101F0000F381E02DD7CF21153105F9F0281B390BCE
:101F10002430310580F48A819B816115710521F09F
:101F2000FB019383828304C090939F0380939E035D
:101F3000FE01329644C0FE01E20FF31F819391939C
:101F400022503109398328833AC020919C03309173
:101F50009D03232B41F42091020130910301309322
:101F60009D0320939C0320910001309101012115D4
:101F7000310541F42DB73EB7409104015091050160
:101F8000241B350BE0919C03F0919D03E217F307AE
:101F9000A0F42E1B3F0B2817390778F0AC014E5FD9
:101FA0005F4F2417350748F04E0F5F1F50939D0376
:101FB00040939C038193919302C0E0E0F0E0CF0155
:101FC000DF91CF910895CF93DF93009709F487C0F5
:101FD000FC01329713821282C0919E03D0919F031D
:101FE000209781F420813181280F391F80919C0333
:101FF00090919D038217930779F5F0939D03E093E9
:102000009C036DC0DE0120E030E0AE17BF0750F446
:1020100012964D915C9113979D014115510509F15F
:10202000DA01F3CFB383A28340815181840F951FDE
:102030008A179B0771F48D919C911197840F951FBE
:1020400002969183808312968D919C91139793832E
:1020500082832115310529F4F0939F03E0939E03B9
:102060003EC0D9011396FC93EE9312974D915D916A
:10207000A40FB51FEA17FB0779F480819181840FC3
:10208000951F0296D90111969C938E93828193811C
:1020900013969C938E931297E0E0F0E08A819B81E7
:1020A000009719F0FE01EC01F9CFCE0102962881CC
:1020B0003981820F931F20919C0330919D03281733
:1020C000390769F4309729F410929F0310929E0308
:1020D00002C013821282D0939D03C0939C03DF91B0
:1020E000CF9108950F931F93CF93DF93EC018B0152
:1020F000009731F46115710519F480E090E038C063
:102100006EE070E081E090E00E944413FC010097D3
:10211000A1F380E883830115110571F0138702870D
:1021200081E883838091A0039091A103892B21F4FE
:10213000F093A103E093A0032097C9F0D187C08753
:102140008381826083838091A2039091A303892B72
:1021500071F4F093A303E093A2038091A403909100
:10216000A503892B21F4F093A503E093A403CF01E9
:10217000DF91CF911F910F910895A0E0B0E0E3ECC3
:10218000F0E10C94EB13AE01475F5F4F6F817885F0
:102190008D819E810E947211E2E00C9407140F93CE
:1021A0001F93CF93DF93182F092FEB018B8181FDB4
:1021B00003C08FEF9FEF20C082FF10C04E815F8170
:1021C0002C813D81421753077CF4E881F9819F01FE
:1021D0002F5F3F4F39832883108306C0E885F98538
:1021E000812F0995892B29F72E813F812F5F3F4F42
:1021F0003F832E83812F902FDF91CF911F910F91DD
:102200000895EF92FF920F931F93CF93DF938B016B
:10221000DB0113962C9121FF16C0EC01E12CF12C6F
:102220008991882371F0D8011896ED91FC91199746
:10223000B8010995892BA1F3EE24EA94FF24FA94BE
:10224000EFCFC70102C08FEF9FEFCDB7DEB7E6E05B
:102250000C940314A0E0B0E0E0E3F1E10C94EB1384
:10226000FE01359661917191AF018091A203909129
:10227000A3030E947211E2E00C9407146091A20380
:102280007091A3030E94CF1008950F931F93CF93D3
:10229000DF93E091A203F091A303238121FF1BC0F0
:1022A000EC0100E010E089916091A2037091A3031A
:1022B000DB011896ED91FC911997882331F009956F
:1022C000892B89F30FEF1FEFEECF8AE00995892B59
:1022D00011F4C80102C08FEF9FEFDF91CF911F91E2
:1022E0000F910895ACE0B0E0E8E7F1E10C94DB1366
:1022F0007C016B018A01FC0117821682838181FFB8
:10230000BDC1CE0101964C01F7019381F60193FD09
:10231000859193FF81916F01882309F4ABC18532C8
:1023200039F493FD859193FF81916F01853229F4F2
:10233000B70190E00E94CF10E7CF512C312C20E064
:102340002032A0F48B3269F030F4803259F08332BD
:1023500069F420612CC08D3239F0803339F421606A
:1023600026C02260246023C0286021C027FD27C02A
:1023700030ED380F3A3078F426FF06C0FAE05F9E61
:10238000300D1124532E13C08AE0389E300D1124D5
:10239000332E20620CC08E3221F426FD6BC12064E6
:1023A00006C08C3611F4206802C0883641F4F6016C
:1023B00093FD859193FF81916F018111C1CF982F7A
:1023C0009F7D9554933028F40C5F1F4FFFE3F983F2
:1023D0000DC0833631F0833771F0833509F05BC06F
:1023E00022C0F801808189830E5F1F4F44244394EB
:1023F000512C540115C03801F2E06F0E711CF80128
:10240000A080B18026FF03C0652D70E002C06FEF91
:102410007FEFC5012C870E9472132C0183012C854C
:102420002F77222E17C03801F2E06F0E711CF801D1
:10243000A080B18026FF03C0652D70E002C06FEF61
:102440007FEFC5012C870E9460132C012C8520682A
:10245000222E830123FC1BC0832D90E048165906D1
:10246000B0F4B70180E290E00E94CF103A94F4CF2C
:10247000F50127FC859127FE81915F01B70190E06E
:102480000E94CF1031103A94F1E04F1A51084114D4
:10249000510471F7E5C0843611F0893639F5F80139
:1024A00027FF07C060817181828193810C5F1F4F7C
:1024B00008C060817181882777FD8095982F0E5F15
:1024C0001F4F2F76B22E97FF09C09095809570957B
:1024D00061957F4F8F4F9F4F2068B22E2AE030E0EA
:1024E000A4010E947D13A82EA81844C0853729F4A2
:1024F0002F7EB22E2AE030E025C0F22FF97FBF2ECA
:102500008F36C1F018F4883579F0B4C0803719F0EF
:10251000883721F0AFC02F2F2061B22EB4FE0DC03E
:102520008B2D8460B82E09C024FF0AC09F2F9660AF
:10253000B92E06C028E030E005C020E130E002C03E
:1025400020E132E0F801B7FE07C06081718182812D
:1025500093810C5F1F4F06C06081718180E090E025
:102560000E5F1F4FA4010E947D13A82EA818FB2DFB
:10257000FF77BF2EB6FE0BC02B2D2E7FA51450F477
:10258000B4FE0AC0B2FC08C02B2D2E7E05C07A2CEA
:102590002B2D03C07A2C01C0752C24FF0DC0FE0129
:1025A000EA0DF11D8081803311F4297E09C022FFDC
:1025B00006C07394739404C0822F867809F07394D4
:1025C00023FD13C020FF06C05A2C731418F4530CBB
:1025D0005718732C731468F4B70180E290E02C87CD
:1025E0000E94CF1073942C85F5CF731410F4371814
:1025F00001C0312C24FF12C0B70180E390E02C878A
:102600000E94CF102C8522FF17C021FF03C088E550
:1026100090E002C088E790E0B7010CC0822F867876
:1026200059F021FD02C080E201C08BE227FD8DE25E
:10263000B70190E00E94CF10A51438F4B70180E3F1
:1026400090E00E94CF105A94F7CFAA94F401EA0DBB
:10265000F11D8081B70190E00E94CF10A110F5CF4D
:10266000332009F451CEB70180E290E00E94CF10F0
:102670003A94F6CFF7018681978102C08FEF9FEFE2
:102680002C96E2E10C94F7130F931F93CF93DF93F3
:10269000869F8001879F100D969F100D1124C80101
:1026A0000E944B0FEC01009729F0A80160E070E058
:1026B0000E946B13CE01DF91CF911F910F9108956E
:1026C000FC010590615070400110D8F780959095FD
:1026D0008E0F9F1F0895DC0101C06D934150504043
:1026E000E0F70895FC016150704001900110D8F7A7
:1026F000809590958E0F9F1F0895FA01AA27283084
:1027000051F1203181F1E8946F936E7F6E5F7F4FBE
:102710008F4F9F4FAF4FB1E03ED0B4E03CD0670F3A
:10272000781F891F9A1FA11D680F791F8A1F911D8D
:10273000A11D6A0F711D811D911DA11D20D009F4DD
:1027400068943F912AE0269F11243019305D31931F
:10275000DEF6CF010895462F4770405D4193B3E008
:102760000FD0C9F7F6CF462F4F70405D4A3318F0AF
:10277000495D31FD4052419302D0A9F7EACFB4E060
:10278000A6959795879577956795BA95C9F7009718
:102790006105710508959B01AC010A2E06945795B9
:1027A000479537952795BA95C9F7620F731F841F10
:1027B000951FA01D08952F923F924F925F926F92A6
:1027C0007F928F929F92AF92BF92CF92DF92EF92C1
:1027D000FF920F931F93CF93DF93CDB7DEB7CA1B42
:1027E000DB0B0FB6F894DEBF0FBECDBF09942A886D
:1027F000398848885F846E847D848C849B84AA8415
:10280000B984C884DF80EE80FD800C811B81AA81A1
:10281000B981CE0FD11D0FB6F894DEBF0FBECDBF6C
:08282000ED010895F894FFCFCB
:102828000000A603200000000002000000002E0D9A
:102838000000000000000002000000002E0D000053
:10284800000000000002000000002E0D0000000043
:10285800A00000000002000000002E0D0000000093
:1028680000000002000000002E0D00000000001013
:102878000012AEA1DA12C8A83FD5808150D921A78D
:102888002002DB30AD00A4A6AF6C5F736C69646591
:10289800723A002573200073657473206272696749
:1028A80068746E657373006C5F627574746F6E3AEA
:1028B800206261636B000A69643A202564096C65CB
:1028C8006E6774683A2025640920444154413A0AE5
:1028D80000257809006C6173742073636F72653A20
:1028E8002025642E25640073636F72653A20256481
:1028F8002E25642020202000302E300073636F7254
:10290800653A202573006C427574746F6E3A2071B5
:10291800756974000A2573200A006A427574746F19
:102928006E3A2073686F6F7400202020484947482A
:1029380053434F52453A0A202025642E25642073BC
:1029480065636F6E64730A006C427574746F6E3AD7
:10295800206261636B000A0A0A0A2025730043613A
:102968006C696272617465204A4F5900785F6D61C5
:10297800783A202536640A00785F6D696E3A20251A
:1029880036640A00795F6D61783A202536640A005A
:10299800795F6D696E3A202536640A00436C696375
:1029A8006B207768656E20646F6E65000A25730A70
:1029B800004D435032353135206973204E4F542035
:1029C800696E20636F6E66696775726174696F6E90
:1029D800206D6F6465206166746572207265736529
:1029E8007421004D61696E206D656E7500506C61D3
:1029F800792067616D65004869676873636F726500
:102A08000053657474696E6773004272696768740D
:102A18006E657373004B6579626F61726400496E0D
:102A2800697469616C697A6174696F6E206F662078
:102A38004E6F6465203120636F6D706C657465211D
:102A48000A004F7574206F662072616E6765206991
:102A58006E204F4C45445F706F73282900204578DD
:0E2A680074726120666561747572657300009A
:00000001FF
