:100000000C94B4010C9402020C94D1010C94D10113
:100010000C94D1010C94D1010C94D1010C94D10118
:100020000C94D1010C94D1010C94D1010C94D10108
:100030000C94D1010C94D1010C94D1010C94D101F8
:100040000C94D1010C94D1010C94D1010C94D101E8
:100050000C94D1010C94D1010C94D1010C94D101D8
:100060000C94D1010C94D1010C94D1010C94D101C8
:10007000000000000000000000065F5F06000000B6
:100080000007070007070000147F7F147F7F14001C
:10009000242E6B6B3A120000466630180C66620024
:1000A000307A4F5D377A48000407030000000000F3
:1000B000001C3E63410000000041633E1C00000044
:1000C000082A3E1C1C3E2A0808083E3E080800007C
:1000D00000A0E06000000000080808080808000010
:1000E00000006060000000006030180C0603010092
:1000F0003E7F594D7F3E000042427F7F40400000DE
:10010000627359496F660000226349497F360000D7
:10011000181C16137F7F1000276745457D390000A6
:100120003C7E4B4979300000036371190F070000D2
:10013000367F49497F360000064F49693F1E00005F
:1001400000006C6C0000000000A0EC6C00000000DF
:10015000081C366341000000141414141414000029
:10016000004163361C080000020351590F060000CD
:100170003E7F415D5D1F1E007C7E13137E7C000070
:10018000417F7F49497F36001C3E63414163220025
:10019000417F7F41637F1C00417F7F495D41630058
:1001A000417F7F491D0103001C3E63415173720072
:1001B0007F7F08087F7F000000417F7F41000000B3
:1001C000307040417F3F0100417F7F081C77630012
:1001D000417F7F41406070007F7F060C067F7F007B
:1001E0007F7F060C187F7F001C3E6341633E1C002E
:1001F000417F7F49090F06001E3F21717F5E00008D
:10020000417F7F19396F460026674D597B320000C8
:1002100003417F7F410300007F7F40407F7F0000DC
:100220001F3F60603F1F00007F7F3018307F7F00DE
:1002300063771C081C776300074F78784F0700002E
:100240006773594D47637100007F7F414100000093
:100250000103060C183060000041417F7F00000060
:10026000080C0603060C0800808080808080808057
:100270000000030704000000207454543C78400040
:10028000413F7F44447C3800387C44446C28000063
:10029000307848493F7F4000387C54545C18000057
:1002A000487E7F490302000098BCA4A4F87C0400A7
:1002B000417F7F08047C780000447D7D4000000081
:1002C00040C484FD7D000000417F7F10386C4400F5
:1002D00000417F7F400000007C7C0C180C7C780083
:1002E0007C7C04047C780000387C44447C3800002A
:1002F00084FCF8A4243C1800183C24A4F8FC8400D6
:10030000447C78441C180000485C54547424000059
:1003100000043E7F442400003C7C40403C7C400084
:100320001C3C60603C1C00003C7C6030607C3C00FD
:10033000446C3810386C44009CBCA0A0FC7C0000CD
:100340004C64745C4C64000008083E774141000036
:1003500000000077770000004141773E0808000068
:10036000020301030203010011241FBECFEFD4E0FA
:10037000DEBFCDBF12E0A0E0B1E0EEE0F8E102C0E8
:1003800005900D92A83EB107D9F723E0A8EEB2E0A0
:1003900001C01D92A230B207E1F70E9442060C9400
:1003A000050C0C94000030980895843040F48C5F64
:1003B000809300142899FECF80910014089580E066
:1003C0000895CF938CE20E944604C82F80FF0BC093
:1003D00040E061E08CE20E94780421E030E030935C
:1003E000EB022093EA02C1FF0BC040E062E08CE226
:1003F0000E94780481E090E09093E9028093E80203
:10040000CF9108951F920F920FB60F9211242F9340
:100410003F934F935F936F937F938F939F93AF938C
:10042000BF93EF93FF930E94E101FF91EF91BF9182
:10043000AF919F918F917F916F915F914F913F917C
:100440002F910F900FBE0F901F9018950E949A0445
:100450004FEF64E680E60E9478044FEF60E680E7A5
:100460000E94780443E063E08BE20E94780440E05D
:1004700060EE8FE00E94780408950F931F93CF934E
:10048000DF93EC0108811981B8017695679576951F
:1004900067957695679581E30E945804602F629571
:1004A000660F607E82E30E9458046A8185E30E94A1
:1004B00058048A81882369F010E0FE01E10FF11DE4
:1004C000638186E3810F0E9458041F5F8A81181799
:1004D000A0F381E00E946C04DF91CF911F910F91F6
:1004E000089580E30E94460483FB882780F991E009
:1004F00089270895DF92EF92FF920F931F93CF9376
:10050000DF938C018091EA029091EB02892B51F4E8
:100510008091E8029091E902892B09F446C0C1E07C
:10052000D0E002C0C0E0D0E0FC2EFF0CFF0CFF0CBE
:10053000FF0C81E68F0D0E944604E82E82E68F0DA7
:100540000E9446042E2D30E0220F331F220F331F4E
:10055000220F331F829586958770280F311DF80171
:100560003183208385E68F0D0E9446048770F80151
:1005700082838823D1F07E01EE0CFF1CEE0CFF1C61
:10058000EE0CFF1CEE0CFF1CD12CCD2DD0E0CE01CB
:100590008A599F4F8E0D0E944604C00FD11F8B8336
:1005A000D394F8018281D81680F3DF91CF911F9107
:1005B0000F91FF90EF90DF900895FF920F931F939C
:1005C000CF93DF93CDB7DEB766970FB6F894DEBF53
:1005D0000FBECDBF40E460EE8FE00E9478048EE055
:1005E0000E9446041F928F9387E791E09F938F9319
:1005F0000E94F2080F900F900F900F9080E090E013
:100600000E9471028823D1F386E990E09A8389835E
:1006100083E08B831C828FEF8D8385E58E83CE01F3
:1006200001960E943D0280E090E00E9471028823C2
:10063000D1F3CE010C960E947A028A818F93898130
:100640008F938B811F928F938CE891E09F938F9370
:100650000E94F2080F900F900F900F900F900F9044
:100660008B818823E1F0F12C07EA11E0E4E0F0E06F
:10067000EC0FFD1FEF0DF11D80811F928F931F92D4
:10068000FF921F930F930E94F208F3940F900F9024
:100690000F900F900F900F908B81F81638F38D8587
:1006A0008F938C858F938E851F928F9388EB91E02B
:1006B0009F938F930E94F2080F900F900F900F90CE
:1006C0000F900F908E858823E1F0F12C07EA11E05E
:1006D000EFE0F0E0EC0FFD1FEF0DF11D80811F92A8
:1006E0008F931F92FF921F930F930E94F208F3942F
:1006F0000F900F900F900F900F900F908E85F8161F
:1007000038F340E060EE8FE00E9478048DE20E94B2
:1007100046041F928F9308ED11E01F930F930E94E0
:10072000F208CE0101960E943D028EE00E9446042E
:100730001F928F9389EE91E09F938F930E94F2080E
:1007400080E30E9446041F928F938DEF91E09F9368
:100750008F930E94F2088DE20E9446041F928F93AD
:100760001F930F930E94F2082FEF8FE797E021501D
:1007700080409040E1F700C000000FB6F894DEBF63
:100780000FBECDBF66960FB6F894DEBF0FBECDBFCD
:10079000DF91CF911F910F91FF900895813039F033
:1007A00018F0823041F00EC086B38170089586B390
:1007B00086958170089586B382FB882780F991E041
:1007C0008927089580E008951F93CF93DF9380E0F9
:1007D0000E94D501282F30E08091F202281B3109B8
:1007E00014E6129FC001139F900D11246091EE0238
:1007F00070E00E944607EB0181E00E94D501282F9E
:1008000030E08091F302281B3109129FC001139F31
:10081000900D11246091EF0270E00E9446079B0149
:10082000BE01C901DF91CF911F9108950E94E40399
:10083000FB01AC019B012C5F3F4F2930310530F4A7
:100840009C012C5F3F4F29303105E0F0DB01FF2395
:1008500024F4AA27BB27A61BB70B9C01552324F41D
:1008600022273327281B390B2A173B0734F481E052
:100870001E161F0654F080E008951416150624F481
:1008800082E0089584E0089583E00895CF93C82F0F
:100890000E94200783E00E9415078C2F0E941507F5
:1008A0000E941907C82F0E9422078C2FCF9108950C
:1008B000CF93DF93D82FC62F0E94200782E00E949B
:1008C00015078D2F0E9415078C2F0E9415070E9477
:1008D0002207DF91CF910895CF93C82F0E94200760
:1008E00080E88C0F0E9415070E942207CF9108957F
:1008F0001F93CF93DF93182FD62FC42F0E9420076A
:1009000085E00E941507812F0E9415078D2F0E94F8
:1009100015078C2F0E9415070E942207DF91CF91A7
:100920001F9108950E94200780EC0E9415070E94E5
:10093000220708950E9403070E9492048EE00E94FD
:100940004604807E803831F089E092E00E940609FA
:1009500081E0089580E008958BE392E00E9406090B
:100960000895DF92EF92FF920F931F93CF93DF933F
:100970000E94AF06E091F602F091F702C481D581A2
:10098000209761F1D12C0F2EF1E5EF2EF2E0FF2E32
:10099000F02D06E011E060E08D2D0E94860620918A
:1009A000F4023091F502C217D30711F40E94E60653
:1009B00089818F9388818F93FF92EF921F930F937A
:1009C0000E94E0080E80DF81C02DD3940F900F901D
:1009D0000F900F900F900F902097E9F6DF91CF9135
:1009E0001F910F91FF90EF90DF900895E091F40236
:1009F000F091F50286819781892B41F0868197815C
:100A00009093F5028093F4020E94B1040895E0915E
:100A1000F402F091F50280859185892B41F0808563
:100A200091859093F5028093F4020E94B104089599
:100A3000E091F402F091F50282859385892B21F0F3
:100A40000284F385E02D0995E091F402F091F5021E
:100A500084819581892B61F0F093F702E093F6028F
:100A6000848195819093F5028093F4020E94B104F1
:100A70000895E091F602F091F70282819381892B2B
:100A800079F00280F381E02DF093F702E093F60213
:100A9000848195819093F5028093F4020E94B104C1
:100AA0000895CF930E941604833021F40E94F60427
:100AB000C1E009C00E941604823021F40E9407059B
:100AC000C1E001C0C0E082E00E94CE03882319F09B
:100AD0000E9418050AC080E00E94CE03882319F006
:100AE0000E94390502C0CC2349F022E383ED93E054
:100AF000215080409040E1F700C000C0CF910895A0
:100B0000EF92FF920F931F93CF93DF93EC017B0142
:100B10008A018CE090E00E946E07DC011196FC9245
:100B2000EE921396DC93CE93129715961C921E921A
:100B3000149717961C921E92169719961C921E9245
:100B400018971B961C930E931A972097A1F0EC818F
:100B5000FD81309719F49D838C830DC026813781E8
:100B60002115310511F0F901F9CFB783A683199644
:100B7000FC93EE931897CD01DF91CF911F910F91C8
:100B8000FF90EF900895CF92DF92EF92FF920F9334
:100B90001F93CF93DF9340E050E065E572E080E083
:100BA00090E00E948005EC0140E050E06FE572E0CB
:100BB0000E9480056C014CEA54E069E672E0CE01C7
:100BC0000E94800540E050E063E772E0CE010E94A1
:100BD00080057C0140E050E068ED72E0CE010E94AB
:100BE00080058C0140E050E06CE772E0C7010E9494
:100BF000800540E050E067E872E0C7010E94800590
:100C000040E050E060E972E0C8010E94800540E0E9
:100C100050E069E972E0C8010E94800540E050E0C0
:100C200064EA72E0C8010E94800540E050E06EEA8C
:100C300072E0C8010E948005D093F702C093F602CB
:100C4000D092F502C092F4020E94B104DF91CF91DC
:100C50001F910F91FF90EF90DF90CF900895F8943F
:100C60000E94AF068FE190E00E9439070E9424079E
:100C70000E94D3010E94BB060E94C3050E94260267
:100C8000789408950E942F060E94DD020E9451056B
:100C9000FDCF8823F9F0E82FF0E0B09780911401A0
:100CA0008823C1F0EE0FFF1FEE0FFF1FEE0FFF1F97
:100CB000E059FF4F80E090E02491A0911701B0919E
:100CC00018012C93019631962091140130E082177F
:100CD000930794F30895883030F48055E09115011E
:100CE000F09116018083089588237CF0982F9F70DF
:100CF000E0911501F0911601908382958F70805FCD
:100D0000E0911501F091160180830895CF93C62FCD
:100D1000883010F466234CF48CEB92E09F938F9311
:100D20000E94F2080F900F9005C00E946B068C2F56
:100D30000E947406CF91089560E080E00E948606CC
:100D4000089560E00E94860680E890E0E091170137
:100D5000F0911801108201970097C1F70895CF9381
:100D6000C0E08C2F0E94A106CF5FC830D1F70E944F
:100D70009C06CF910895CF93DF93CDB7DEB76697EA
:100D80000FB6F894DEBF0FBECDBF86E1E9E1F1E01A
:100D9000DE01119601900D928A95E1F7FE013196E0
:100DA000CE0147962191A0911501B09116012C9387
:100DB000E817F907B9F70E94AF0666960FB6F894E0
:100DC000DEBF0FBECDBFDF91CF910895E091170137
:100DD000F091180188E18083E0911701F0911801EA
:100DE0008083E0911701F09118019EE79083E091D4
:100DF0001701F09118019CE39083E0911701F091A5
:100E00001801808308958BB780648BBF85B78D7F71
:100E100085BF85B78E7F85BFBD9ABF9ABC9A6C9AF5
:100E20006E9A689A6998689808958FB9779BFECFF3
:100E3000089580E00E941507779BFECF8FB108953B
:100E4000C4980895C49A089585B7806885BF80B70F
:100E5000806280BF80B78F7E80BF80B7877F80BF72
:100E600008955D9BFECF8CB908955F9BFECF8CB13A
:100E7000089590BD89B988E18AB98EE880BD65E39F
:100E800077E081E397E00E949508089597FB072E8D
:100E900016F4009407D077FD09D00E945A0707FC8A
:100EA00005D03EF4909581959F4F0895709561957A
:100EB0007F4F0895AA1BBB1B51E107C0AA1FBB1F90
:100EC000A617B70710F0A61BB70B881F991F5A95D6
:100ED000A9F780959095BC01CD010895CF93DF933C
:100EE0008230910510F482E090E0E091FA02F091F6
:100EF000FB0220E030E0A0E0B0E0309739F1408123
:100F0000518148175907B8F04817590771F4828181
:100F10009381109729F013969C938E9312972CC06F
:100F20009093FB028093FA0227C02115310531F01E
:100F30004217530718F0A901DB0101C0EF019A0124
:100F4000BD01DF010280F381E02DD7CF21153105EE
:100F5000F9F0281B390B2430310580F48A819B81FC
:100F60006115710521F0FB019383828304C0909386
:100F7000FB028093FA02FE01329644C0FE01E20FAA
:100F8000F31F8193919322503109398328833AC00A
:100F90002091F8023091F902232B41F420910201B3
:100FA000309103013093F9022093F802209100015F
:100FB000309101012115310541F42DB73EB7409123
:100FC000040150910501241B350BE091F802F091CA
:100FD000F902E217F307A0F42E1B3F0B281739077D
:100FE00078F0AC014E5F5F4F2417350748F04E0F85
:100FF0005F1F5093F9024093F8028193919302C0CE
:10100000E0E0F0E0CF01DF91CF910895CF93DF933F
:10101000009709F487C0FC01329713821282C091B5
:10102000FA02D091FB02209781F420813181280FB0
:10103000391F8091F8029091F9028217930779F590
:10104000F093F902E093F8026DC0DE0120E030E099
:10105000AE17BF0750F412964D915C9113979D0106
:101060004115510509F1DA01F3CFB383A283408121
:101070005181840F951F8A179B0771F48D919C9164
:101080001197840F951F02969183808312968D91FC
:101090009C911397938382832115310529F4F09352
:1010A000FB02E093FA023EC0D9011396FC93EE9343
:1010B00012974D915D91A40FB51FEA17FB0779F4C4
:1010C00080819181840F951F0296D90111969C937E
:1010D0008E938281938113969C938E931297E0E076
:1010E000F0E08A819B81009719F0FE01EC01F9CFB5
:1010F000CE01029628813981820F931F2091F80238
:101100003091F9022817390769F4309729F41092C1
:10111000FB021092FA0202C013821282D093F902EB
:10112000C093F802DF91CF9108950F931F93CF934F
:10113000DF93EC018B01009731F46115710519F40F
:1011400080E090E038C06EE070E081E090E00E94C6
:10115000050BFC010097A1F380E8838301151105BD
:1011600071F01387028781E883838091FC0290915C
:10117000FD02892B21F4F093FD02E093FC022097FD
:10118000C9F0D187C0878381826083838091FE020A
:101190009091FF02892B71F4F093FF02E093FE021D
:1011A0008091000390910103892B21F4F0930103B6
:1011B000E0930003CF01DF91CF911F910F9108952C
:1011C000A0E0B0E0E6EEF8E00C94DE0BAE01475F85
:1011D0005F4F6F8178858D819E810E943309E2E0A7
:1011E0000C94FA0BA0E0B0E0E8EFF8E00C94DE0B12
:1011F000FE01359661917191AF018091FE0290914F
:10120000FF020E943309E2E00C94FA0B0F931F9344
:10121000CF93DF93E091FE02F091FF02238121FF43
:101220001BC0EC0100E010E089916091FE0270911A
:10123000FF02DB011896ED91FC911997882331F09C
:101240000995892B89F30FEF1FEFEECF8AE00995FF
:10125000892B11F4C80102C08FEF9FEFDF91CF916E
:101260001F910F910895ACE0B0E0E9E3F9E00C9430
:10127000CE0B7C016B018A01FC01178216828381EF
:1012800081FFBDC1CE0101964C01F7019381F601AA
:1012900093FD859193FF81916F01882309F4ABC180
:1012A000853239F493FD859193FF81916F018532E9
:1012B00029F4B70190E00E943E0BE7CF512C312C6E
:1012C00020E02032A0F48B3269F030F4803259F003
:1012D000833269F420612CC08D3239F0803339F4C7
:1012E000216026C02260246023C0286021C027FD21
:1012F00027C030ED380F3A3078F426FF06C0FAE008
:101300005F9E300D1124532E13C08AE0389E300D9D
:101310001124332E20620CC08E3221F426FD6BC1C5
:10132000206406C08C3611F4206802C0883641F46F
:10133000F60193FD859193FF81916F018111C1CFDA
:10134000982F9F7D9554933028F40C5F1F4FFFE337
:10135000F9830DC0833631F0833771F0833509F09E
:101360005BC022C0F801808189830E5F1F4F442437
:101370004394512C540115C03801F2E06F0E711CDA
:10138000F801A080B18026FF03C0652D70E002C087
:101390006FEF7FEFC5012C870E94330B2C01830177
:1013A0002C852F77222E17C03801F2E06F0E711CAA
:1013B000F801A080B18026FF03C0652D70E002C057
:1013C0006FEF7FEFC5012C870E94210B2C012C852C
:1013D0002068222E830123FC1BC0832D90E0481639
:1013E0005906B0F4B70180E290E00E943E0B3A94B7
:1013F000F4CFF50127FC859127FE81915F01B701AC
:1014000090E00E943E0B31103A94F1E04F1A5108DF
:101410004114510471F7E5C0843611F0893639F56D
:10142000F80127FF07C060817181828193810C5F81
:101430001F4F08C060817181882777FD8095982FA4
:101440000E5F1F4F2F76B22E97FF09C090958095A3
:10145000709561957F4F8F4F9F4F2068B22E2AE085
:1014600030E0A4010E94700BA82EA81844C0853754
:1014700029F42F7EB22E2AE030E025C0F22FF97F2A
:10148000BF2E8F36C1F018F4883579F0B4C080379C
:1014900019F0883721F0AFC02F2F2061B22EB4FE93
:1014A0000DC08B2D8460B82E09C024FF0AC09F2F69
:1014B0009660B92E06C028E030E005C020E130E09B
:1014C00002C020E132E0F801B7FE07C060817181FF
:1014D000828193810C5F1F4F06C06081718180E023
:1014E00090E00E5F1F4FA4010E94700BA82EA81859
:1014F000FB2DFF77BF2EB6FE0BC02B2D2E7FA51424
:1015000050F4B4FE0AC0B2FC08C02B2D2E7E05C0DC
:101510007A2C2B2D03C07A2C01C0752C24FF0DC012
:10152000FE01EA0DF11D8081803311F4297E09C08E
:1015300022FF06C07394739404C0822F867809F04A
:10154000739423FD13C020FF06C05A2C731418F4A3
:10155000530C5718732C731468F4B70180E290E0B1
:101560002C870E943E0B73942C85F5CF731410F4D6
:10157000371801C0312C24FF12C0B70180E390E07E
:101580002C870E943E0B2C8522FF17C021FF03C031
:1015900088E590E002C088E790E0B7010CC0822F98
:1015A000867859F021FD02C080E201C08BE227FD60
:1015B0008DE2B70190E00E943E0BA51438F4B7010C
:1015C00080E390E00E943E0B5A94F7CFAA94F40176
:1015D000EA0DF11D8081B70190E00E943E0BA11041
:1015E000F5CF332009F451CEB70180E290E00E949C
:1015F0003E0B3A94F6CFF7018681978102C08FEFB8
:101600009FEF2C96E2E10C94EA0B0F931F93CF937C
:10161000DF93869F8001879F100D969F100D1124E8
:10162000C8010E946E07EC01009729F0A80160E054
:1016300070E00E942C0BCE01DF91CF911F910F9192
:101640000895FC010590615070400110D8F7809515
:1016500090958E0F9F1F0895DC0101C06D9341503E
:101660005040E0F70895FC01615070400190011076
:10167000D8F7809590958E0F9F1F08950F931F9315
:10168000CF93DF93182F092FEB018B8181FD03C0CE
:101690008FEF9FEF20C082FF10C04E815F812C81B1
:1016A0003D81421753077CF4E881F9819F012F5F48
:1016B0003F4F39832883108306C0E885F985812F41
:1016C0000995892B29F72E813F812F5F3F4F3F835B
:1016D0002E83812F902FDF91CF911F910F9108952D
:1016E000FA01AA27283051F1203181F1E8946F9353
:1016F0006E7F6E5F7F4F8F4F9F4FAF4FB1E03ED0F9
:10170000B4E03CD0670F781F891F9A1FA11D680F96
:10171000791F8A1F911DA11D6A0F711D811D911DC9
:10172000A11D20D009F468943F912AE0269F11243E
:101730003019305D3193DEF6CF010895462F4770A2
:10174000405D4193B3E00FD0C9F7F6CF462F4F70FD
:10175000405D4A3318F0495D31FD4052419302D05B
:10176000A9F7EACFB4E0A695979587957795679501
:10177000BA95C9F700976105710508959B01AC0101
:101780000A2E06945795479537952795BA95C9F728
:10179000620F731F841F951FA01D08952F923F9203
:1017A0004F925F926F927F928F929F92AF92BF9271
:1017B000CF92DF92EF92FF920F931F93CF93DF931D
:1017C000CDB7DEB7CA1BDB0B0FB6F894DEBF0FBE7A
:1017D000CDBF09942A88398848885F846E847D84C7
:1017E0008C849B84AA84B984C884DF80EE80FD80C9
:1017F0000C811B81AA81B981CE0FD11D0FB6F8943F
:0E180000DEBF0FBECDBFED010895F894FFCFFF
:10180E000000020320000000000200000000490654
:10181E00000000000800100012AEA1DA12C8A83FA6
:10182E00D5808150D9212002DB30AD00A4A6AF0AAD
:10183E007C202D2D2D2D2D2D2D2D2D2D2D2D2D2D88
:10184E002D2D2D2D2D2D2D207C000A7C2043414E3B
:10185E005F4552524F52207C005452414E534D49D7
:10186E0054204552524F5200524543454956454425
:10187E00204552524F52000A43414E535441542078
:10188E006265666F72653A2025780A000A0A53452A
:10189E004E543A0A6C656E6774683A2025640A697C
:1018AE00643A2025640A0044617461206E722E2011
:1018BE0025643A2025780A000A0A524543454956BE
:1018CE0045443A0A0A6C656E6774683A2025640AC4
:1018DE0069643A2025640A004552524F5220464C04
:1018EE004147533A2025780A000A43414E5354414A
:1018FE00542061667465723A2025780A0054584364
:10190E0054524C3A2025780A004D43503235313529
:10191E00206973204E4F5420696E20636F6E666986
:10192E006775726174696F6E206D6F646520616694
:10193E0074657220726573657421000A0A486967BE
:10194E006873636F726520636C69636B6564210AEB
:10195E0000202573004D61696E206D656E75005017
:10196E006C61792067616D65004869676873636FA4
:10197E0072650053657474696E67730042726967AD
:10198E0068746E6573730053657420666F6E7400B1
:10199E004B6579626F617264004D616E64656C6255
:1019AE00726F7400506C617920706F6E6700726F89
:1019BE00746174696E672063756265004F7574207B
:1019CE006F662072616E676520696E204F4C4544CC
:1019DE005F706F73282900204578747261206665E8
:0819EE0061747572657300005D
:00000001FF
