S01700006D6963726F636F6E74726F6C6C65722E73726563AF
S11300000C94E4010C9489020C9401020C940102F6
S11300100C9401020C9401020C9401020C94010250
S11300200C9401020C9401020C9401020C94010240
S11300300C9401020C9401020C9401020C94010230
S11300400C9401020C9401020C9401020C94010220
S11300500C9401020C9401020C9401020C94010210
S11300600C9401020C9401020C9401020C94010200
S113007030313233343536373839213F51574552D0
S1130080545955494F50292B4153444647484A4BEC
S11300904C28272D5A584356424E4D2C2E3B3A237A
S11300A030313233343536373839213F7177657220
S11300B0747975696F70262B6173646667686A6BFF
S11300C06C25242D7A786376626E6D2C2E3B3A2350
S11300D0000000000000000000065F5F0600000052
S11300E00007070007070000147F7F147F7F1400B8
S11300F02054543854545800386454544C38000034
S11301002050545554784000601816117F49490016
S11301105C22514945221D006030282528306000AA
S1130120082A3E1C1C3E2A0808083E3E0808000017
S113013000A0E060000000000808080808080000AB
S113014000006060000000006030180C060301002D
S11301503E7F594D7F3E000042427F7F4040000079
S1130160627359496F660000226349497F36000073
S1130170181C16137F7F1000276745457D39000042
S11301803C7E4B4979300000036371190F0700006E
S1130190367F49497F360000064F49693F1E0000FB
S11301A000006C6C0000000000A0EC6C000000007B
S11301B0081C3663410000001414141414140000C5
S11301C0004163361C080000020351590F06000069
S11301D03E7F415D5D1F1E007C7E13137E7C00000C
S11301E0417F7F49497F36001C3E634141632200C1
S11301F0417F7F41637F1C00417F7F495D416300F4
S1130200417F7F491D0103001C3E6341517372000D
S11302107F7F08087F7F000000417F7F410000004E
S1130220307040417F3F0100417F7F081C776300AD
S1130230417F7F41406070007F7F060C067F7F0016
S11302407F7F060C187F7F001C3E6341633E1C00C9
S1130250417F7F49090F06001E3F21717F5E000028
S1130260417F7F19396F460026674D597B32000064
S113027003417F7F410300007F7F40407F7F000078
S11302801F3F60603F1F00007F7F3018307F7F007A
S113029063771C081C776300074F78784F070000CA
S11302A06773594D47637100007F7F41410000002F
S11302B00103060C183060000041417F7F000000FC
S11302C0080C0603060C08008080808080808080F3
S11302D00000030704000000207454543C784000DC
S11302E0413F7F44447C3800387C44446C280000FF
S11302F0307848493F7F4000387C54545C180000F3
S1130300487E7F490302000098BCA4A4F87C040042
S1130310417F7F08047C780000447D7D400000001C
S113032040C484FD7D000000417F7F10386C440090
S113033000417F7F400000007C7C0C180C7C78001E
S11303407C7C04047C780000387C44447C380000C5
S113035084FCF8A4243C1800183C24A4F8FC840071
S1130360447C78441C180000485C545474240000F5
S113037000043E7F442400003C7C40403C7C400020
S11303801C3C60603C1C00003C7C6030607C3C0099
S1130390446C3810386C44009CBCA0A0FC7C000069
S11303A04C64745C4C64000008083E7741410000D2
S11303B000000077770000004141773E0808000004
S11303C0020301030203010011241FBECFEFD4E096
S11303D0DEBFCDBF13E0A0E0B1E0EEECF6E202C078
S11303E005900D92AA3DB107D9F724E0AAEDB3E038
S11303F001C01D92A033B207E1F70E94F30B0C94E5
S113040065130C94000030980895843040F48C5F98
S1130410809300142899FECF80910014089580E001
S113042008950F931F93CF93DF930E94580C89E68E
S113043091E09F938F9303E711E01F930F93C6E01E
S1130440D1E0DF93CF930E94171060E081E00E9417
S1130450290C87E791E09F938F931F930F93DF936A
S1130460CF930E94171060E082E00E94290C87E875
S113047091E09F938F931F930F93DF93CF930E94E9
S1130480171084E00E94DF0C85E00E94DF0C86E0F8
S11304900E94DF0C87E00E94DF0C8DB79EB7429666
S11304A00FB6F8949EBF0FBE8DBFDF91CF911F9101
S11304B00F9108950E94110205C00E942C06862FF8
S11304C00E94B80C80E00E94B005892BB1F3089516
S11304D0CF938CE20E940D0AC82F80FF0BC040E02E
S11304E061E08CE20E943F0A21E030E03093DD03BA
S11304F02093DC03C1FF0BC040E062E08CE20E9469
S11305003F0A81E090E09093DB038093DA03CF917C
S113051008951F920F920FB60F9211242F933F93B9
S11305204F935F936F937F938F939F93AF93BF93F7
S1130530EF93FF930E946802FF91EF91BF91AF91F7
S11305409F918F917F916F915F914F913F912F91E7
S11305500F900FBE0F901F9018950E94610A4FEFE5
S113056064E680E60E943F0A4FEF60E680E70E945F
S11305703F0A43E063E08BE20E943F0A40E060EE02
S11305808FE00E943F0A08950F931F93CF93DF9348
S1130590EC0108811981B801769567957695679580
S11305A07695679581E30E941F0A602F6295660F16
S11305B0607E82E30E941F0A6A8185E30E941F0A0B
S11305C08A81882369F010E0FE01E10FF11D638147
S11305D086E3810F0E941F0A1F5F8A811817A0F308
S11305E081E00E94330ADF91CF911F910F9108950A
S11305F003968295807F0E940D0A83FB882780F9E9
S113060091E089270895DF92EF92FF920F931F9351
S1130610CF93DF938C01F8948091DC039091DD03F8
S1130620892B39F01092DD031092DC03C0E0D0E096
S113063011C08091DA039091DB03892B39F0109279
S1130640DB031092DA03C1E0D0E004C0F8011282A7
S1130650789442C0FC2EFF0CFF0CFF0CFF0C81E6CB
S11306608F0D0E940D0AE82E82E68F0D0E940D0A5E
S11306702E2D30E0220F331F220F331F220F331F82
S1130680829586958770280F311DF8013183208368
S113069085E68F0D0E940D0A8770F80182838823F6
S11306A0D1F07E01EE0CFF1CEE0CFF1CEE0CFF1CC7
S11306B0EE0CFF1CD12CCD2DD0E0CE018A599F4FDA
S11306C08E0D0E940D0AC00FD11F8B83D394F801A5
S11306D08281D81680F37894DF91CF911F910F9186
S11306E0FF90EF90DF900895FF920F931F93CF93A5
S11306F0DF93CDB7DEB72B970FB6F894DEBF0FBEEE
S1130700CDBF1A82198285E08B830E94CA056C834F
S11307108D830E942C066E838F8382E00E94B00535
S11307208C0180E00E94B005F82E81E00E94B005A3
S1130730000F111F000F111F880F991F082BF02A9B
S1130740F886CE0101960E94C40280E090E00E94E7
S1130750F8028823D1F32B960FB6F894DEBF0FBEB0
S1130760CDBFDF91CF911F910F91FF9008950F930B
S11307701F93CF93DF93CDB7DEB72B970FB6F894C3
S1130780DEBF0FBECDBF1B82CE0101960E940303C4
S11307908B81882309F45CC08C8190E0982F882792
S11307A02D81822B9093E1038093E0032091E00359
S11307B03091E1038091DE039091DF038217930768
S11307C044F48091E0039091E1039093DF038093DC
S11307D0DE030E943B0C8091E0039091E1032091A1
S11307E0E0033091E1030AE010E0B8010E947D0EBD
S11307F09F938F93C901B8010E947D0E7F936F93DD
S113080086E991E09F938F930E9484108091E00386
S11308109091E1032091E0033091E103B8010E943B
S11308207D0E9F938F93C901B8010E947D0E7F9323
S11308306F9385EA91E09F938F9384E191E09F9376
S11308408F930E9417100FB6F894DEBF0FBECDBF72
S11308502B960FB6F894DEBF0FBECDBFDF91CF91BC
S11308601F910F910895CF93DF930E94580C85EB4D
S113087091E09F938F9383EC91E09F938F93C4E1D6
S1130880D1E0DF93CF930E9417108AEC91E09F93FD
S11308908F9385EC91E09F938F93DF93CF930E9486
S11308A017108FEF9FE727E0815090402040E1F739
S11308B000C000008DB79EB70C960FB6F8949EBF8B
S11308C00FBE8DBF04C00E9474030E94B70380E072
S11308D00E94B005892BB9F3DF91CF910895CF938E
S11308E0DF930E94580C8091DE039091DF032091E6
S11308F0DE033091DF03CAE0D0E0BE010E947D0E2A
S11309009F938F93C901BE010E947D0E7F936F93C5
S113091089ED91E09F938F930E9484108091DE0370
S11309209091DF032091DE033091DF03BE010E942A
S11309307D0E9F938F93C901BE010E947D0E7F930C
S11309406F9382EF91E09F938F93C4E1D1E0DF93A3
S1130950CF930E94171081E192E09F938F938FE1D0
S113096092E09F938F93DF93CF930E9417108DB7DC
S11309709EB744960FB6F8949EBF0FBE8DBF80E01D
S11309800E94B005892BD9F3DF91CF910895CF93BD
S1130990DF930E94580C87E292E09F938F9386E73F
S11309A092E09F938F93C2E2D1E0DF93CF930E94B2
S11309B017108091F2031F928F9385E392E09F9327
S11309C08F93DF93CF930E9417108091F6031F92A9
S11309D08F9381E492E09F938F93DF93CF930E9450
S11309E017108091F3031F928F938DE492E09F93ED
S11309F08F93DF93CF930E9417108091F7031F9278
S1130A008F9389E592E09F938F93DF93CF930E9416
S1130A10171085E692E09F938F9385E792E09F936A
S1130A208F93DF93CF930E9417108DB79EB7849650
S1130A300FB6F8949EBF0FBE8DBFDF91CF9108957E
S1130A40BF92CF92DF92EF92FF920F931F93CF93B7
S1130A50DF932FEF2093F2032093F3031092F60316
S1130A601092F7030197E9F5B29B3BC00F2EF2EF0A
S1130A70CF2EF3E0DF2EF02D0F2EF3EFEF2EF3E069
S1130A80FF2EF02D06EF13E0C7EFD3E080E00E94C5
S1130A900502B82E81E00E940502F60120819B2DFB
S1130AA0B21608F4922FF6019083F7012081982F53
S1130AB0821708F4922FF7019083F80190819B1517
S1130AC008F4B92EF801B0829881981708F4892F98
S1130AD088830E94C70480E090EF0197F1F7B299F0
S1130AE0D5CFE091F203F0E06091F60370E09F014E
S1130AF0261B370BC90199230CF40196959587950C
S1130B008093F4034091F30350E02091F70330E025
S1130B10DA01A21BB30BCD010AF4019695958795D2
S1130B208093F5036E0F7F1F759567956093F803A7
S1130B30240F351F359527952093F903DF91CF9125
S1130B401F910F91FF90EF90DF90CF90BF90089589
S1130B50C29ABA9820B72B7F20BF0E94200508951F
S1130B60813041F018F0823051F011C086B38170A9
S1130B7090E0089586B38695817090E0089586B3D9
S1130B808695869591E08927817090E0089580E0AC
S1130B9090E008951F93CF93DF9380E00E940502B5
S1130BA0282F30E08091F803281B310914E6129FA6
S1130BB0C001139F900D11246091F40370E00E9412
S1130BC07D0EEB0181E00E940502282F30E0809128
S1130BD0F903281B3109129FC001139F900D1124A2
S1130BE06091F50370E00E947D0E9B01BE01C90176
S1130BF0DF91CF911F9108950E94CA05FB01AC01BA
S1130C009B012C5F3F4F2930310530F49C012C5F50
S1130C103F4F29303105E0F0DB01FF2324F4AA27FC
S1130C20BB27A61BB70B9C01552324F4222733278B
S1130C30281B390B2A173B0734F481E01E161F06C4
S1130C4054F080E008951416150624F482E0089503
S1130C5084E0089583E00895CF9382E00E94050222
S1130C60C82F83E00E940502282F6C2F70E0822F8A
S1130C7090E0CF910895EAEFF3E001900020E9F7C6
S1130C803197EA5FF340E832F1056CF4E650FC4F2B
S1130C90808311828091EC039091ED0301969093EF
S1130CA0ED038093EC0308958091FA03882339F0CF
S1130CB0EAEFF3E001900020E9F7329710820895FB
S1130CC06E5F7F4F660F660F660F8D5F0E94290C63
S1130CD00895CF93DF930E943B0C62E371E08AEFA7
S1130CE093E00E945B10CAEFD3E009900020E9F77B
S1130CF02197CA5FD340C031D10554F462E371E057
S1130D0080E290E00E9429102196C031D105B1F70C
S1130D10EAEFF3E001900020E9F73197EA5FF3404E
S1130D20EF70FF27BF01660F771F660F771F660FEF
S1130D30771F80E00E94290C88E090E00E94220D39
S1130D401092EB031092EA036091E6037091E703BB
S1130D508091E8039091E9030E946006DF91CF91AE
S1130D60089560E070E00E9460060895EF92FF929B
S1130D700F931F93CF93DF930E94580C0E94690630
S1130D8080EA90E0909331018093300180E090E01C
S1130D900E94B1061092E7031092E6031092E90351
S1130DA01092E8031092FA03E0913001F0913101BE
S1130DB0849161E070E00E94320EC1E0D0E00CE06A
S1130DC010E00F2EF8EEEF2EF3E0FF2EF02D0EC004
S1130DD0CE01B8010E947D0E892B41F4F701808178
S1130DE091810196918380830E94B106E091300144
S1130DF0F0913101EC0FFD1F849160E070E00E94DE
S1130E00320E2196C033D10519F784E090E00E9498
S1130E10B10620E030E040E050E060E070E080E0C7
S1130E2090E00E94170E1092E9031092E803FFEF7E
S1130E302FE787E0F15020408040E1F700C0000038
S1130E40DF91CF911F910F91FF90EF900895EF9252
S1130E50FF920F931F93CF93DF9380E090E00E9463
S1130E60B1061092E9031092E803C0E0D0E00CE070
S1130E7010E00F2EF8EEEF2EF3E0FF2EF02D10C051
S1130E80CE01B8010E947D0E892B51F4209741F0C8
S1130E90F701808191810196918380830E94B1063C
S1130EA0E0913001F0913101EC0FFD1F849160E07D
S1130EB070E00E94320E2196C033D10509F784E018
S1130EC090E00E94B10620E030E040E050E060E0B5
S1130ED070E080E090E00E94170EDF91CF911F91A7
S1130EE00F91FF90EF90089580913001909131011E
S1130EF0805A904039F480E790E0909331018093D8
S1130F00300106C080EA90E0909331018093300173
S1130F100E94270784E090E00E94B10681E090E0FF
S1130F200E94390D84E090E09093E9038093E803F4
S1130F301092E7031092E6030895843009F48AC0FE
S1130F40833091F42091E8033091E9032430310592
S1130F50BCF5C90101969093E9038093E8033093AB
S1130F60E5032093E40308958230A1F48091E8031B
S1130F709091E903181619060CF06CC09C012150DD
S1130F8031093093E9032093E8039093E5038093B8
S1130F90E4030895811114C08091E6039091E7035E
S1130FA0181619060CF056C09C01215031093093D3
S1130FB0E7032093E6039093E3038093E203089509
S1130FC0813009F047C08091E6039091E7038B30AC
S1130FD091050CF03FC02091E8033091E9032430DF
S1130FE0310569F5823091055CF41092E3031092A7
S1130FF0E20382E090E09093E7038093E603089590
S1131000883091056CF482E090E09093E303809340
S1131010E20388E090E09093E7038093E603089569
S11310200A97C4F488E090E09093E3038093E2038A
S11310308AE090E09093E7038093E60308959C018F
S11310402F5F3F4F3093E7032093E6039093E3032E
S11310508093E2030895CF93DF938091E40390910A
S1131060E5038430910524F5C2EED3E068817981EB
S11310700E9460068091E4039091E503FC01EE0F69
S1131080FF1F8E0F9F1FFC01EE0FFF1FEE0FFF1FB0
S113109028813981E20FF31F809130019091310151
S11310A0E80FF91F849160E070E00E94320E46C0A0
S11310B02091E2033091E303223031056CF4109265
S11310C0E3031092E20360E070E00E94600680E0B7
S11310D090E00E94390D32C0283031057CF422E0C2
S11310E030E03093E3032093E20362E070E00E9477
S11310F0600680E090E00E94DD0D20C02A303105BA
S11311007CF428E030E03093E3032093E20368E0CA
S113111070E00E94600680E090E00E94850D0EC0A1
S11311202AE030E03093E3032093E2036AE070E0C6
S11311300E94600680E090E00E94B10DDF91CF91A3
S11311400895CF93DF938091E8039091E90384306D
S1131150910524F5C6EED3E0688179810E9460068A
S11311608091E8039091E903FC01EE0FFF1F8E0FBD
S11311709F1FFC01EE0FFF1FEE0FFF1F2881398117
S1131180E20FF31F8091300190913101E80FF91FB4
S1131190849161E070E00E94320E46C02091E60323
S11311A03091E703223031056CF41092E70310927A
S11311B0E60360E070E00E94600681E090E00E9437
S11311C0390D32C0283031057CF422E030E0309310
S11311D0E7032093E60362E070E00E94600681E08A
S11311E090E00E94DD0D20C02A3031057CF428E017
S11311F030E03093E7032093E60368E070E00E9458
S1131200600681E090E00E94850D0EC02AE030E087
S11312103093E7032093E6036AE070E00E946006DF
S113122081E090E00E94B10DDF91CF91089580910B
S1131230E8039091E90384309105E4F4FC01EE0F96
S1131240FF1F8E0F9F1FFC01EE0FFF1FEE0FFF1FEE
S11312502091E6033091E703E20FF31F8091300100
S113126090913101E80FF91F84910E943B060E947E
S1131270690608958091E6039091E7038230910511
S11312801CF40E94740708958830910534F480E2B8
S11312900E943B060E94690608958A30910574F401
S11312A02091EC033091ED03121613063CF4215007
S11312B031093093ED032093EC0308950C97A4F4C3
S11312C08091EC039091ED03EAEFF3E001900020AC
S11312D0E9F73197EA5FF3408E179F0728F40196E8
S11312E09093ED038093EC0308956F927F928F9215
S11312F09F92AF92BF92CF92DF92EF92FF920F93A1
S11313001F93CF93DF930E94B6060F2EF4EEEF2EB9
S1131310F3E0FF2EF02D08EE13E00F2EF2EEAF2EC9
S1131320F3E0BF2EF02D0F2EF6EECF2EF3E0DF2EDE
S1131330F02D88248394912C612C712C59C00E9427
S1131340FC050E949D07F70120813181F80180810D
S113135091812817390749F4F50120813181F6017B
S1131360808191812817390799F00E942B080E94E7
S1131370A108F60180819181F50191838083F801B0
S113138080819181F70191838083C82DD92D02C07A
S1131390C62DD72D82E00E94B005892B29F00E942A
S11313A01709882D992D0EC081E00E94B005892B64
S11313B039F00E9454060E946906882D992D02C0B6
S11313C0862D972DCD2B49F0EFEFFFEB23E0E15075
S11313D0F0402040E1F700C00000892B49F03FEFC6
S11313E04FE787E0315040408040E1F700C0000003
S11313F080E00E94B005892B09F4A1CFDF91CF9141
S11314001F910F91FF90EF90DF90CF90BF90AF901E
S11314109F908F907F906F900895CF93C82F0E94D4
S1131420570E83E00E944C0E8C2F0E944C0E0E949B
S1131430500EC82F0E94590E8C2FCF910895CF9330
S1131440DF93D82FC62F0E94570E82E00E944C0EC5
S11314508D2F0E944C0E8C2F0E944C0E0E94590E10
S1131460DF91CF910895CF93C82F0E94570E80E843
S11314708C0F0E944C0E0E94590ECF9108951F9319
S1131480CF93DF93182FD62FC42F0E94570E85E0D9
S11314900E944C0E812F0E944C0E8D2F0E944C0EE8
S11314A08C2F0E944C0E0E94590EDF91CF911F91F8
S11314B008950E94570E80EC0E944C0E0E94590E13
S11314C008950E943A0E0E94590A8EE00E940D0A65
S11314D0807E803831F08DEF92E00E94981081E098
S11314E0089580E00895DF92EF92FF920F931F9387
S11314F0CF93DF930E94580CE0912404F0912504CB
S1131500C481D581209761F1D12C0F2EF3E2EF2E07
S1131510F2E0FF2EF02D00E411E060E08D2D0E943A
S1131520290C2091220430912304C217D30711F40B
S11315300E94EE0C89818F9388818F93FF92EF92A2
S11315401F930F930E9417100E80DF81C02DD39438
S11315500F900F900F900F900F900F902097E9F637
S1131560DF91CF911F910F91FF90EF90DF9008953D
S1131570E0912204F091230486819781892B41F024
S11315808681978190932304809322040E94730A96
S11315900895E0912204F091230480859185892B9C
S11315A041F08085918590932304809322040E94C6
S11315B0730A0895E0912204F091230482859385AF
S11315C0892B31F00284F385E02D09950E94730A7A
S11315D0E0912204F091230484819581892B61F0A8
S11315E0F0932504E093240484819581909323044B
S11315F0809322040E94730A0895E0912404F091D8
S1131600250482819381892B79F00280F381E02D76
S1131610F0932504E093240484819581909323041A
S1131620809322040E94730A0895CF930E94FC05BC
S1131630833021F40E94B80AC1E009C00E94FC056D
S1131640823021F40E94C90AC1E001C0C0E082E0F6
S11316500E94B005892B19F00E94DA0A0AC080E0C2
S11316600E94B005892B19F00E94FD0A02C0CC2308
S113167049F022E383ED93E0215080409040E1F76C
S113168000C000C0CF910895EF92FF920F931F9373
S1131690CF93DF93EC017B018A018CE090E00E9400
S11316A0A50EDC011196FC92EE921396DC93CE9378
S11316B0129715961C921E92149717961C921E92BE
S11316C0169719961C921E9218971B961C930E93AC
S11316D01A972097A1F0EC81FD81309719F49D832E
S11316E08C830DC0268137812115310511F0F90154
S11316F0F9CFB783A6831996FC93EE931897CD017F
S1131700DF91CF911F910F91FF90EF900895CF92A9
S1131710DF92EF92FF920F931F93CF93DF9340E0FA
S113172050E065E473E080E090E00E94440BEC013B
S113173043E354E06FE473E00E94440B7C014FE602
S113174054E069E573E0CE010E94440B40E050E0B0
S113175063E673E0CE010E94440B6C0140E050E06C
S11317606AEC73E0CE010E94440B8C014AE552E01E
S11317706CE673E0C6010E94440B45E759E067E755
S113178073E0C8010E94440B40E050E060E873E05D
S1131790C8010E94440BD0932504C0932404F09202
S11317A02304E09222040E94730ADF91CF911F91D7
S11317B00F91FF90EF90DF90CF900895F8948FE110
S11317C090E00E94700E0E945B0E0E94030280E073
S11317D090E00E94A8050E945D0C0E94870B0E9465
S11317E0AD02789408950E94DE0B8AE893E00E948B
S11317F098100E94150BFDCFE0915001F09151011A
S113180080830895883060F490EB980FE0914E0146
S1131810F0914F01908390E09093F1038093F00353
S113182008958823ACF0982F9F70E0914E01F091B9
S11318304F019083982F92959F70905FE0914E0195
S1131840F0914F01908390E09093EF038093EE0327
S11318500895CF93C62F883010F466232CF48EEAB3
S113186093E00E94981005C00E94020C8C2F0E94E5
S1131870110CCF91089560E080E00E94290C089536
S113188060E00E94290C80E890E0E0915001F09122
S11318905101108201970097C1F70895CF93C0E0DA
S11318A08C2F0E94400CCF5FC830D1F7CF910895A0
S11318B00E944E0C0E943B0C0895CF93DF93CDB74A
S11318C0DEB767970FB6F894DEBF0FBECDBF87E1D2
S11318D0E2E5F1E0DE01119601900D928A95E1F7BF
S11318E0FE013196CE0148962191A0914E01B0910E
S11318F04F012C93E817F907B9F70E94580C679623
S11319000FB6F894DEBF0FBECDBFDF91CF9108951F
S11319108A3029F08D3061F0811112C008958091D0
S1131920F0039091F10360E08F5F0E94290C089509
S11319308091F0039091F10360E00E94290C0895D6
S1131940E82FF0E0EE0FFF1FEE0FFF1FEE0FFF1F5B
S1131950E053F04080E090E02491A0915001B091D8
S113196051012C930196319688309105A9F7089579
S1131970E0914E01F0914F0191E89083E0914E0186
S1131980F0914F01808308958823C1F0E82FF0E09F
S1131990EE0FFF1FEE0FFF1FEE0FFF1FE053F0408F
S11319A080E090E024912095A0915001B0915101E4
S11319B02C930196319688309105A1F7089560E043
S11319C00E94290C80E890E02FEFE0915001F09103
S11319D05101208301970097C1F70895E0915001C8
S11319E0F091510188E18083E0915001F09151011F
S11319F08083E0915001F09151019EE79083E09142
S1131A005001F09151019CE39083E0915001F091D9
S1131A105101808308950F931F93CF93DF938C011B
S1131A201816190654F4C0E0D0E080E090E00E945B
S1131A30FC0B2196C017D107C1F7DF91CF911F91FD
S1131A400F9108950F931F93CF93DF938C01181672
S1131A50190654F4C0E0D0E08FEF90E00E94FC0B34
S1131A602196C017D107C1F7DF91CF911F910F9134
S1131A700895892B29F584E090E00E940B0D80E104
S1131A8090E00E94FC0B88E190E00E94FC0B8CE348
S1131A9090E00E94FC0B8EE390E00E94FC0B8CE330
S1131AA090E00E94FC0B88E190E00E94FC0B80E136
S1131AB090E00E94FC0B85E090E00E940B0D0895DD
S1131AC084E090E00E94220D8FEE9FEF0E94FC0BB9
S1131AD087EE9FEF0E94FC0B83EC9FEF0E94FC0BB0
S1131AE081EC9FEF0E94FC0B83EC9FEF0E94FC0BA8
S1131AF087EE9FEF0E94FC0B8FEE9FEF0E94FC0B82
S1131B0085E090E00E94220D0895892BA9F486E0D7
S1131B1090E00E940B0D80E190E00E94FC0B88E3B2
S1131B2090E00E94FC0B8CE790E00E94FC0B87E0A5
S1131B3090E00E940B0D089586E090E00E94220D33
S1131B408FEE9FEF0E94FC0B87EC9FEF0E94FC0B33
S1131B5083E89FEF0E94FC0B87E090E00E94220D37
S1131B600895892BA9F486E090E00E940B0D8CE780
S1131B7090E00E94FC0B88E390E00E94FC0B80E163
S1131B8090E00E94FC0B87E090E00E940B0D08950A
S1131B9086E090E00E94220D83E89FEF0E94FC0BF8
S1131BA087EC9FEF0E94FC0B8FEE9FEF0E94FC0BD3
S1131BB087E090E00E94220D0895CF93DF93892B54
S1131BC0D1F484E090E00E940B0D88E390E00E9441
S1131BD0FC0BC7E2D0E080E290E00E94FC0B21976E
S1131BE02097C9F788E390E00E94FC0B85E090E021
S1131BF00E940B0D19C084E090E00E940B0D87EC4D
S1131C009FEF0E94FC0BC7E2D0E08FED9FEF0E9494
S1131C10FC0B21972097C9F787EC9FEF0E94FC0BE0
S1131C2085E090E00E940B0DDF91CF910895EF9233
S1131C30FF920F931F93CF93DF937B018A01E901F6
S1131C400E94390DC7010E94DD0DC8010E94850D57
S1131C50CE010E94B10DDF91CF911F910F91FF90A2
S1131C60EF900895672B19F40E94880C08950E9440
S1131C70C40C08958BB780648BBF85B78D7F85BFF7
S1131C8085B78E7F85BFBD9ABF9ABC9A6C9A6E9AAF
S1131C90689A6998689808958FB9779BFECF0895DC
S1131CA080E00E944C0E779BFECF8FB10895C498BC
S1131CB00895C49A089585B7806885BF80B7806207
S1131CC080BF80B78F7E80BF80B7877F80BF089535
S1131CD05D9BFECF8CB908955F9BFECF8CB10895B8
S1131CE090BD89B988E18AB98EE880BD6CE67EE052
S1131CF088E69EE00E94CC0F089597FB072E16F409
S1131D00009407D077FD09D00E94910E07FC05D0FE
S1131D103EF4909581959F4F0895709561957F4FFE
S1131D200895AA1BBB1B51E107C0AA1FBB1FA6171E
S1131D30B70710F0A61BB70B881F991F5A95A9F770
S1131D4080959095BC01CD010895CF93DF938230A7
S1131D50910510F482E090E0E0912804F0912904C8
S1131D6020E030E0A0E0B0E0309739F140815181CB
S1131D7048175907B8F04817590771F482819381BD
S1131D80109729F013969C938E9312972CC09093DE
S1131D9029048093280427C02115310531F0421706
S1131DA0530718F0A901DB0101C0EF019A01BD013D
S1131DB0DF010280F381E02DD7CF21153105F9F041
S1131DC0281B390B2430310580F48A819B816115ED
S1131DD0710521F0FB019383828304C0909329044D
S1131DE080932804FE01329644C0FE01E20FF31FE3
S1131DF08193919322503109398328833AC02091E9
S1131E00260430912704232B41F4209102013091C0
S1131E10030130932704209326042091000130917C
S1131E2001012115310541F42DB73EB7409104015C
S1131E3050910501241B350BE0912604F0912704F1
S1131E40E217F307A0F42E1B3F0B2817390778F08D
S1131E50AC014E5F5F4F2417350748F04E0F5F1FEC
S1131E6050932704409326048193919302C0E0E0A9
S1131E70F0E0CF01DF91CF910895CF93DF930097E6
S1131E8009F487C0FC01329713821282C09128049E
S1131E90D0912904209781F420813181280F391FA2
S1131EA080912604909127048217930779F5F09383
S1131EB02704E09326046DC0DE0120E030E0AE1775
S1131EC0BF0750F412964D915C9113979D014115F3
S1131ED0510509F1DA01F3CFB383A2834081518123
S1131EE0840F951F8A179B0771F48D919C9111970C
S1131EF0840F951F02969183808312968D919C91F5
S1131F001397938382832115310529F4F0932904CF
S1131F10E09328043EC0D9011396FC93EE931297E4
S1131F204D915D91A40FB51FEA17FB0779F48081E9
S1131F309181840F951F0296D90111969C938E93DB
S1131F408281938113969C938E931297E0E0F0E044
S1131F508A819B81009719F0FE01EC01F9CFCE0133
S1131F60029628813981820F931F20912604309193
S1131F7027042817390769F4309729F410922904A3
S1131F801092280402C013821282D0932704C093B3
S1131F902604DF91CF9108950F931F93CF93DF937E
S1131FA0EC018B01009731F46115710519F480E09F
S1131FB090E038C06EE070E081E090E00E949712FB
S1131FC0FC010097A1F380E883830115110571F0EA
S1131FD01387028781E8838380912A0490912B04DC
S1131FE0892B21F4F0932B04E0932A042097C9F061
S1131FF0D187C08783818260838380912C049091F0
S11320002D04892B71F4F0932D04E0932C0480911A
S11320102E0490912F04892B21F4F0932F04E09344
S11320202E04CF01DF91CF911F910F910895A0E06D
S1132030B0E0EDE1F0E10C943E13AE01475F5F4F79
S11320406F8178858D819E810E94C510E2E00C9499
S11320505A130F931F93CF93DF93182F092FEB017C
S11320608B8181FD03C08FEF9FEF20C082FF10C0E2
S11320704E815F812C813D81421753077CF4E881B6
S1132080F9819F012F5F3F4F39832883108306C056
S1132090E885F985812F0995892B29F72E813F81C0
S11320A02F5F3F4F3F832E83812F902FDF91CF915E
S11320B01F910F910895EF92FF920F931F93CF9367
S11320C0DF938B01DB0113962C9121FF16C0EC01E9
S11320D0E12CF12C8991882371F0D8011896ED91A7
S11320E0FC911997B8010995892BA1F3EE24EA9480
S11320F0FF24FA94EFCFC70102C08FEF9FEFCDB753
S1132100DEB7E6E00C945613A0E0B0E0EAE8F0E1B4
S11321100C943E13FE01359661917191AF0180914B
S11321202C0490912D040E94C510E2E00C945A13E3
S11321300F931F93CF93DF93E0912C04F0912D0420
S1132140238121FF1BC0EC0100E010E08991609124
S11321502C0470912D04DB011896ED91FC911997D4
S1132160882331F00995892B89F30FEF1FEFEECF08
S11321708AE00995892B11F4C80102C08FEF9FEF03
S1132180DF91CF911F910F910895ACE0B0E0EBEC9B
S1132190F0E10C942E137C016B018A01FC0117827F
S11321A01682838181FFBDC1CE0101964C01F701E6
S11321B09381F60193FD859193FF81916F018823AB
S11321C009F4ABC1853239F493FD859193FF819174
S11321D06F01853229F4B70190E00E942910E7CFFE
S11321E0512C312C20E02032A0F48B3269F030F4F1
S11321F0803259F0833269F420612CC08D3239F079
S1132200803339F4216026C02260246023C0286012
S113221021C027FD27C030ED380F3A3078F426FF6F
S113222006C0FAE05F9E300D1124532E13C08AE0DD
S1132230389E300D1124332E20620CC08E3221F4CE
S113224026FD6BC1206406C08C3611F4206802C0E0
S1132250883641F4F60193FD859193FF81916F01D6
S11322608111C1CF982F9F7D9554933028F40C5F32
S11322701F4FFFE3F9830DC0833631F0833771F0CC
S1132280833509F05BC022C0F801808189830E5F29
S11322901F4F44244394512C540115C03801F2E0DB
S11322A06F0E711CF801A080B18026FF03C0652D5C
S11322B070E002C06FEF7FEFC5012C870E94C5124A
S11322C02C0183012C852F77222E17C03801F2E0D0
S11322D06F0E711CF801A080B18026FF03C0652D2C
S11322E070E002C06FEF7FEFC5012C870E94B3122C
S11322F02C012C852068222E830123FC1BC0832DF6
S113230090E048165906B0F4B70180E290E00E94CC
S113231029103A94F4CFF50127FC859127FE819189
S11323205F01B70190E00E94291031103A94F1E066
S11323304F1A51084114510471F7E5C0843611F065
S1132340893639F5F80127FF07C0608171818281E0
S113235093810C5F1F4F08C060817181882777FDCE
S11323608095982F0E5F1F4F2F76B22E97FF09C0CE
S113237090958095709561957F4F8F4F9F4F206802
S1132380B22E2AE030E0A4010E94D012A82EA81890
S113239044C0853729F42F7EB22E2AE030E025C0D0
S11323A0F22FF97FBF2E8F36C1F018F4883579F0FB
S11323B0B4C0803719F0883721F0AFC02F2F2061C7
S11323C0B22EB4FE0DC08B2D8460B82E09C024FF3C
S11323D00AC09F2F9660B92E06C028E030E005C0E1
S11323E020E130E002C020E132E0F801B7FE07C08E
S11323F060817181828193810C5F1F4F06C060816F
S1132400718180E090E00E5F1F4FA4010E94D01202
S1132410A82EA818FB2DFF77BF2EB6FE0BC02B2DC0
S11324202E7FA51450F4B4FE0AC0B2FC08C02B2DB4
S11324302E7E05C07A2C2B2D03C07A2C01C0752C5E
S113244024FF0DC0FE01EA0DF11D8081803311F4DB
S1132450297E09C022FF06C07394739404C0822F9E
S1132460867809F0739423FD13C020FF06C05A2C0C
S1132470731418F4530C5718732C731468F4B701BD
S113248080E290E02C870E94291073942C85F5CF6C
S1132490731410F4371801C0312C24FF12C0B70193
S11324A080E390E02C870E9429102C8522FF17C01E
S11324B021FF03C088E590E002C088E790E0B701FF
S11324C00CC0822F867859F021FD02C080E201C041
S11324D08BE227FD8DE2B70190E00E942910A5143C
S11324E038F4B70180E390E00E9429105A94F7CFA2
S11324F0AA94F401EA0DF11D8081B70190E00E94D5
S11325002910A110F5CF332009F451CEB70180E290
S113251090E00E9429103A94F6CFF70186819781C2
S113252002C08FEF9FEF2C96E2E10C944A130F93B5
S11325301F93CF93DF93869F8001879F100D969FF3
S1132540100D1124C8010E94A50EEC01009729F07A
S1132550A80160E070E00E94BE12CE01DF91CF912D
S11325601F910F910895FC01059061507040011076
S1132570D8F7809590958E0F9F1F0895DC0101C0B8
S11325806D9341505040E0F70895FC016150704054
S113259001900110D8F7809590958E0F9F1F089594
S11325A0FA01AA27283051F1203181F1E8946F9380
S11325B06E7F6E5F7F4F8F4F9F4FAF4FB1E03ED026
S11325C0B4E03CD0670F781F891F9A1FA11D680FC4
S11325D0791F8A1F911DA11D6A0F711D811D911DF7
S11325E0A11D20D009F468943F912AE0269F11246C
S11325F03019305D3193DEF6CF010895462F4770D0
S1132600405D4193B3E00FD0C9F7F6CF462F4F702A
S1132610405D4A3318F0495D31FD4052419302D088
S1132620A9F7EACFB4E0A69597958795779567952E
S1132630BA95C9F700976105710508959B01AC012E
S11326400A2E06945795479537952795BA95C9F755
S1132650620F731F841F951FA01D08952F923F9230
S11326604F925F926F927F928F929F92AF92BF929E
S1132670CF92DF92EF92FF920F931F93CF93DF934A
S1132680CDB7DEB7CA1BDB0B0FB6F894DEBF0FBEA7
S1132690CDBF09942A88398848885F846E847D84F4
S11326A08C849B84AA84B984C884DF80EE80FD80F6
S11326B00C811B81AA81B981CE0FD11D0FB6F8946C
S11126C0DEBF0FBECDBFED010895F894FFCF2D
S11326CE0000300420000000000200000000880C0E
S11326DE000000000000000200000000880C000052
S11326EE00000000000200000000880C0000000042
S11326FEA0000000000200000000880C0000000092
S113270E0000000200000000880C00000000001011
S113271E0012AEA1DA12C8A83FD5808150D921A7E4
S113272E2002DB30AD00A4A6AF6C5F736C696465E8
S113273E723A0025732000736574732062726967A0
S113274E68746E657373006C5F627574746F6E3A41
S113275E206261636B007365636F6E64732025641E
S113276E2E25640A0074696D653A2025642E25644D
S113277E20202020006C427574746F6E3A2071759F
S113278E6974000A0A2573200A006A427574746F0C
S113279E6E3A2073686F6F74004849474853434F2D
S11327AE52453A25642E2564207365636F6E6473F7
S11327BE0A002020204849474853434F52453A0ABD
S11327CE202025642E2564207365636F6E64730A5E
S11327DE006C427574746F6E3A206261636B000A0A
S11327EE0A0A0A2025730043616C6962726174657A
S11327FE204A4F5900785F6D61783A202536640A75
S113280E00785F6D696E3A202536640A00795F6D33
S113281E61783A202536640A00795F6D696E3A2034
S113282E2536640A00436C69636B207768656E20F5
S113283E646F6E65000A25730A00582D706F7369F4
S113284E74696F6E3A202534640909592D706F73BB
S113285E6974696F6E3A202534640909004C656603
S113286E7420736C696465723A20253464090920F6
S113287E526967687420736C696465723A202534F2
S113288E640909004C65667420627574746F6E3A3F
S113289E2025346409526967687420627574746FF4
S11328AE6E3A20253464096A6F79737469636B20F8
S11328BE627574746F6E3A202534640A004D435069
S11328CE32353135206973204E4F5420696E2063A2
S11328DE6F6E66696775726174696F6E206D6F6471
S11328EE6520616674657220726573657421000AD1
S11328FE0A4869676873636F726520636C69636BFA
S113290E6564210A004D61696E206D656E75005017
S113291E6C61792067616D65004869676873636FE0
S113292E72650053657474696E67730042726967E9
S113293E68746E657373004B6579626F61726400BF
S113294E506C617920706F6E6700496E69746961AD
S113295E6C697A6174696F6E206F66204E6F646560
S113296E203120636F6D706C657465210A004F759C
S113297E74206F662072616E676520696E204F4CFD
S113298E45445F706F732829002045787472612066
S10D299E66656174757265730000CC
S9030000FC
