S01700006D6963726F636F6E74726F6C6C65722E73726563AF
S11300000C94CC010C9484020C94E9010C94E90145
S11300100C94E9010C94E9010C94E9010C94E901B4
S11300200C94E9010C94E9010C94E9010C94E901A4
S11300300C94E9010C94E9010C94E9010C94E90194
S11300400C94E9010C94E9010C94E9010C94E90184
S11300500C94E9010C94E9010C94E9010C94E90174
S11300600C94E9010C94E9010C94E9010C94E90164
S1130070000000000000000000065F5F06000000B2
S11300800007070007070000147F7F147F7F140018
S1130090242E6B6B3A120000466630180C66620020
S11300A0307A4F5D377A48000407030000000000EF
S11300B0001C3E63410000000041633E1C00000040
S11300C0082A3E1C1C3E2A0808083E3E0808000078
S11300D000A0E0600000000008080808080800000C
S11300E000006060000000006030180C060301008E
S11300F03E7F594D7F3E000042427F7F40400000DA
S1130100627359496F660000226349497F360000D3
S1130110181C16137F7F1000276745457D390000A2
S11301203C7E4B4979300000036371190F070000CE
S1130130367F49497F360000064F49693F1E00005B
S113014000006C6C0000000000A0EC6C00000000DB
S1130150081C366341000000141414141414000025
S1130160004163361C080000020351590F060000C9
S11301703E7F415D5D1F1E007C7E13137E7C00006C
S1130180417F7F49497F36001C3E63414163220021
S1130190417F7F41637F1C00417F7F495D41630054
S11301A0417F7F491D0103001C3E6341517372006E
S11301B07F7F08087F7F000000417F7F41000000AF
S11301C0307040417F3F0100417F7F081C7763000E
S11301D0417F7F41406070007F7F060C067F7F0077
S11301E07F7F060C187F7F001C3E6341633E1C002A
S11301F0417F7F49090F06001E3F21717F5E000089
S1130200417F7F19396F460026674D597B320000C4
S113021003417F7F410300007F7F40407F7F0000D8
S11302201F3F60603F1F00007F7F3018307F7F00DA
S113023063771C081C776300074F78784F0700002A
S11302406773594D47637100007F7F41410000008F
S11302500103060C183060000041417F7F0000005C
S1130260080C0603060C0800808080808080808053
S11302700000030704000000207454543C7840003C
S1130280413F7F44447C3800387C44446C2800005F
S1130290307848493F7F4000387C54545C18000053
S11302A0487E7F490302000098BCA4A4F87C0400A3
S11302B0417F7F08047C780000447D7D400000007D
S11302C040C484FD7D000000417F7F10386C4400F1
S11302D000417F7F400000007C7C0C180C7C78007F
S11302E07C7C04047C780000387C44447C38000026
S11302F084FCF8A4243C1800183C24A4F8FC8400D2
S1130300447C78441C180000485C54547424000055
S113031000043E7F442400003C7C40403C7C400080
S11303201C3C60603C1C00003C7C6030607C3C00F9
S1130330446C3810386C44009CBCA0A0FC7C0000C9
S11303404C64745C4C64000008083E774141000032
S113035000000077770000004141773E0808000064
S11303600203010302030100242E6B6B3A12000006
S1130370466630180C666200307A4F5D377A480062
S11303800407030000000000001C3E63410000005D
S11303900041633E1C00000011241FBECFEFD4E0D7
S11303A0DEBFCDBF13E0A0E0B1E0EEEEFFE102C09E
S11303B005900D92AA3BB107D9F723E0AAEBB3E06D
S11303C001C01D92A83DB207E1F70E94B5090C9443
S11303D0F50F0C94000030980895843040F48C5F3D
S11303E0809300142899FECF80910014089580E032
S11303F008950F931F93CF93DF930E94260A8DE5F0
S113040091E09F938F9307E611E01F930F93C6E04B
S1130410D1E0DF93CF930E94A70C60E081E00E94BB
S1130420FD098BE691E09F938F931F930F93DF93C6
S1130430CF930E94A70C60E082E00E94FD098BE745
S113044091E09F938F931F930F93DF93CF930E9419
S1130450A70C84E00E94B00A85E00E94B00A86E0FE
S11304600E94B00A87E00E94B00A8DB79EB74296F8
S11304700FB6F8949EBF0FBE8DBFDF91CF911F9131
S11304800F9108951F93CF93DF930E94F901CAE857
S1130490D1E010C00E94C203162F7F936F93DF93A5
S11304A0CF930E94E20C812F0E945D0A0F900F905F
S11304B00F900F9080E00E944603892B59F3DF913F
S11304C0CF911F910895CF938CE20E94EB07C82F20
S11304D080FF0BC040E061E08CE20E94FD0721E058
S11304E030E03093BD032093BC03C1FF0BC040E058
S11304F062E08CE20E94FD0781E090E09093BB03F0
S11305008093BA03CF9108951F920F920FB60F9262
S113051011242F933F934F935F936F937F938F9304
S11305209F93AF93BF93EF93FF930E946302FF9156
S1130530EF91BF91AF919F918F917F916F915F9157
S11305404F913F912F910F900FBE0F901F901895D0
S1130550BF92CF92DF92EF92FF920F931F93CF93AC
S1130560DF931092C2031092C3038FEF8093C603EC
S11305708093C7030E94260A85EA91E00E94F60C44
S11305808FEC91E00E94F60C84EF91E09F938F939F
S113059087E691E09F938F9384E191E09F938F93FB
S11305A00E94A70C0F900F900F900F900F900F9038
S11305B006EC13E00F2EF2ECCF2EF3E0DF2EF02D3D
S11305C0C7ECD3E00F2EF3ECEF2EF3E0FF2EF02D6B
S11305D01CC080E00E94ED01B82E81E00E94ED0174
S11305E0F8019081B91610F4B08205C0F60190812B
S11305F09B1508F4B0829881891710F4888305C08C
S1130600F7019081981708F48083B299E2CFE091C2
S1130610C203F0E06091C60370E09F01261B370B14
S1130620C90199230CF40196959587958093C40389
S11306304091C30350E02091C70330E0DA01A21BCC
S1130640B30BCD010AF40196959587958093C50364
S11306506E0F7F1F759567956093C803240F351F30
S1130660359527952093C903DF91CF911F910F9161
S1130670FF90EF90DF90CF90BF900895C29ABA9800
S113068080B78B7F80BF0E94A8020895813041F01B
S113069018F0823051F011C086B3817090E0089553
S11306A086B38695817090E0089586B38695869585
S11306B091E08927817090E0089580E090E00895AA
S11306C01F93CF93DF9380E00E94ED01282F30E049
S11306D08091C803281B310914E6129FC001139F9F
S11306E0900D11246091C40370E00E940D0BEB0186
S11306F081E00E94ED01282F30E08091C903281B7E
S11307003109129FC001139F900D11246091C503FC
S113071070E00E940D0B9B01BE01C901DF91CF91D6
S11307201F9108950E946003FB01AC019B012C5FA3
S11307303F4F2930310530F49C012C5F3F4F293065
S11307403105E0F0DB01FF2324F4AA27BB27A61B15
S1130750B70B9C01552324F422273327281B390B7C
S11307602A173B0734F481E01E161F0654F080E07C
S113077008951416150624F482E0089584E008957B
S113078083E00895CF9382E00E94ED01C82F83E0B7
S11307900E94ED01282F6C2F70E0822F90E0CF9102
S11307A008950F931F93CF93DF938C0118161906A6
S11307B054F4C0E0D0E080E090E00E94DC0921968F
S11307C0C017D107C1F7DF91CF911F910F91089501
S11307D00F931F93CF93DF938C011816190654F4CB
S11307E0C0E0D0E08FEF90E00E94DC092196C017B2
S11307F0D107C1F7DF91CF911F910F91089584E044
S113080090E00E94D10380E190E00E94DC0988E13D
S113081090E00E94DC098CE390E00E94DC098EE306
S113082090E00E94DC098CE390E00E94DC0988E1FE
S113083090E00E94DC0980E190E00E94DC0985E000
S113084090E00E94D103089584E090E00E94E803C0
S11308508FEE9FEF0E94DC0987EE9FEF0E94DC0978
S113086083EC9FEF0E94DC0981EC9FEF0E94DC097E
S113087083EC9FEF0E94DC0987EE9FEF0E94DC0966
S11308808FEE9FEF0E94DC0985E090E00E94E80370
S1130890089586E090E00E94D10380E190E00E94F8
S11308A0DC0988E390E00E94DC098CE790E00E9478
S11308B0DC0987E090E00E94D103089586E090E08F
S11308C00E94E8038FEE9FEF0E94DC0987EC9FEF04
S11308D00E94DC0983E89FEF0E94DC0987E090E036
S11308E00E94E803089586E090E00E94D1038CE71B
S11308F090E00E94DC0988E390E00E94DC0980E13A
S113090090E00E94DC0987E090E00E94D103089502
S113091086E090E00E94E80383E89FEF0E94DC09F0
S113092087EC9FEF0E94DC098FEE9FEF0E94DC09A9
S113093087E090E00E94E8030895CF93DF9384E07A
S113094090E00E94D10388E390E00E94DC09C7E2B2
S1130950D0E080E290E00E94DC0921972097C9F75B
S113096088E390E00E94DC0985E090E00E94D103D6
S1130970DF91CF910895CF93DF9384E090E00E94BC
S1130980D10387EC9FEF0E94DC09C7E2D0E08FED32
S11309909FEF0E94DC0921972097C9F787EC9FEF0E
S11309A00E94DC0985E090E00E94D103DF91CF91A1
S11309B008950E94FF030E949D040E9449040E941E
S11309C0730408956E5F7F4F660F660F660F8D5F29
S11309D00E94FD09089560E070E00E94E204089519
S11309E0EF92FF920F931F93CF93DF930E94260AF7
S11309F08AED92E0909325018093240180E090E0B9
S1130A000E94EB041092BF031092BE031092C10324
S1130A101092C003E0912201F09123011082E09131
S1130A202401F091250180810E94690AC1E0D0E08F
S1130A300CE010E00F2EF0ECEF2EF3E0FF2EF02D83
S1130A400EC0CE01B8010E940D0B892B41F4F701B1
S1130A50808191810196918380830E94EB04E091CF
S1130A602401F0912501EC0FFD1F80810E94BA0939
S1130A702196C033D10529F784E090E00E94EB046D
S1130A800E94D9041092C1031092C003DF91CF9148
S1130A901F910F91FF90EF900895CF92DF92EF9204
S1130AA0FF920F931F93CF93DF9380E090E00E9417
S1130AB0EB041092C1031092C00301E010E0C0E007
S1130AC0D0E00F2EFCE0EF2EF12CF02D0F2EF0ECE9
S1130AD0CF2EF3E0DF2EF02D03C021960F5F1F4FC2
S1130AE0CE01B7010E940D0B892B51F42097D9F048
S1130AF0F601808191810196918380830E94EB04A9
S1130B00E0912401F0912501EC0FFD1F80810E94EA
S1130B10BA09003311050CF384E090E00E94EB0461
S1130B200E94D9040AC0E0912401F0912501EC0F40
S1130B30FD1F80810E94BA09D0CFDF91CF911F9110
S1130B400F91FF90EF90DF90CF9008958091240152
S1130B50909125018A5D924039F48AEA92E090935B
S1130B6025018093240106C08AED92E0909325012B
S1130B70809324010E944D0584E090E00E94EB04E0
S1130B800E94240484E090E09093C1038093C00306
S1130B901092BF031092BE030895A0912201B09158
S1130BA02301FD0101900020E9F731979F012A1BE1
S1130BB03B0B80838091220190912301FC01E20F81
S1130BC0F31F118208952F923F924F925F926F927A
S1130BD07F928F929F92AF92BF92CF92DF92EF92C9
S1130BE0FF920F931F93CF93DF930E94F0042FEF94
S1130BF03FE747E0215030404040E1F700C00000AB
S1130C00E12CF12C00E010E0CEEBD3E00F2EF0EC61
S1130C10CF2EF3E0DF2EF02D0F2EFAE06F2E712C85
S1130C20F02D312C212C0F2EF3E88F2EF2E09F2E85
S1130C30F02D44244394512CB5C10E949203843076
S1130C4009F45CC0833061F4F601208131812430E1
S1130C50310524F5C90101969183808389014EC031
S1130C60823071F4F60180819181181619060CF016
S1130C7045C09C0121503109318320838C013EC041
S1130C8081110CC08881998118161906BCF59C0144
S1130C9021503109398328837C0130C0813071F5BA
S1130CA0888199818B3091054CF5F6012081318141
S1130CB024303105E9F48230910534F4F2E0F8830C
S1130CC01982E12CF22C1AC08830910544F428E0F2
S1130CD0288339826894EE24E1F8F12C0FC00A9736
S1130CE06CF4798268826894EE24E3F8F32C06C0ED
S1130CF09C012F5F3F4F398328837C01F60180815B
S1130D0091818017910731F4288139812E153F058F
S1130D1009F4BDC029812F9328812F93FF92EF926C
S1130D209F938F931F930F939F928F920E94E20C35
S1130D302DB73EB7265F3F4F0FB6F8943EBF0FBEA8
S1130D402DBF04301105D4F4B701C8010E94E20498
S1130D50F801EE0FFF1F0E0F1F1FF801EE0FFF1F0C
S1130D60EE0FFF1FEE0EFF1EE0912401F09125010E
S1130D70EE0DFF1D80810E94BA092AC032E0E316FD
S1130D80F10444F460E0722DC8010E94E2040E9460
S1130D90FF031EC048E0E416F10444F462E070E08E
S1130DA0C8010E94E2040E949D0412C08AE0E81671
S1130DB0F10444F468E0732DC8010E94E2040E9427
S1130DC0490406C0B301C8010E94E2040E947304EE
S1130DD0F601808191818430910514F568817981CF
S1130DE00E94E2048091C0039091C103FC01EE0FC4
S1130DF0FF1F8E0F9F1FFC01EE0FFF1FEE0FFF1F43
S1130E002091BE033091BF03E20FF31F80912401B0
S1130E1090912501E80FF91F80810E94690A2FC073
S1130E2028813981223031054CF41982188260E01E
S1130E30722D0E94E2040E94240421C0283031054E
S1130E4054F4F2E0F883198262E070E00E94E20454
S1130E500E94BB0414C02A30310554F428E02883CE
S1130E60398268E0732D0E94E2040E945E0407C088
S1130E7079826882B3010E94E2040E948804E880B7
S1130E80F980F60100811181A42CB52C03C08C01DA
S1130E90A12CB22C82E00E944603892B09F445C0A0
S1130EA0F60180819181843091056CF5FC01EE0F8F
S1130EB0FF1F8E0F9F1FFC01EE0FFF1FEE0FFF1F82
S1130EC02091BE033091BF03E20FF31F80912401F0
S1130ED090912501E80FF91F80810E94CD050E94A1
S1130EE0130A66E271E080912201909123010E942D
S1130EF0B90C68817981F601808191810E94E204B4
S1130F00842D952D39C088819981823091052CF4E6
S1130F100E94A605842D952D2FC0089744F580E2E4
S1130F200E94CD05842D952D27C081E00E944603A3
S1130F30892B01F1E0912201F0912301019000201D
S1130F40E9F7329710820E94130A66E271E08091F9
S1130F502201909123010E94B90C68817981F601E4
S1130F60808191810E94E204842D952D05C0842DF9
S1130F70952D02C080E0922DAB2849F0FFEF2FEBB6
S1130F8033E0F15020403040E1F700C00000892BED
S1130F9049F04FEF8FE797E0415080409040E1F7F0
S1130FA000C0000080E00E944603892B09F445CE6E
S1130FB0DF91CF911F910F91FF90EF90DF90CF9031
S1130FC0BF90AF909F908F907F906F905F904F9065
S1130FD03F902F900895CF93C82F0E94E70A83E093
S1130FE00E94DC0A8C2F0E94DC0A0E94E00AC82FAF
S1130FF00E94E90A8C2FCF9108951F93CF93DF931A
S1131000182FD62FC42F0E94E70A85E00E94DC0A1D
S1131010812F0E94DC0A8D2F0E94DC0A8C2F0E94F3
S1131020DC0A0E94E90ADF91CF911F9108958AE0BA
S113103093E00E94F60C0895DF92EF92FF920F93D3
S11310401F93CF93DF930E94260AE091CC03F09183
S1131050CD03C481D581209761F1D12C0F2EF0E20C
S1131060EF2EF3E0FF2EF02D04E311E060E08D2D70
S11310700E94FD092091CA033091CB03C217D30704
S113108011F40E94BF0A89818F9388818F93FF9204
S1131090EF921F930F930E94A70C0E80DF81C02D47
S11310A0D3940F900F900F900F900F900F90209764
S11310B0E9F6DF91CF911F910F91FF90EF90DF90B0
S11310C00895E091CA03F091CB0386819781892B1F
S11310D041F0868197819093CB038093CA030E9449
S11310E01C080895E091CA03F091CB038085918593
S11310F0892B41F0808591859093CB038093CA031B
S11311000E941C080895E091CA03F091CB038285E4
S11311109385892B61F084E293E00E94F60CE091C0
S1131120CA03F091CB030284F385E02D0995E09185
S1131130CA03F091CB0384819581892B61F0F093EC
S1131140CD03E093CC03848195819093CB0380936A
S1131150CA030E941C080895E091CC03F091CD03CA
S113116082819381892B79F00280F381E02DF093C1
S1131170CD03E093CC03848195819093CB0380933A
S1131180CA030E941C080895CF930E9492038330DF
S113119021F40E946108C1E009C00E9492038230D8
S11311A021F40E947208C1E001C0C0E082E00E9404
S11311B04603892B19F00E9483080AC080E00E942C
S11311C04603892B19F00E94AC0802C0CC2349F0D5
S11311D022E383ED93E0215080409040E1F700C08A
S11311E000C0CF910895EF92FF920F931F93CF9376
S11311F0DF93EC017B018A018CE090E00E94350BC7
S1131200DC011196FC92EE921396DC93CE93129726
S113121015961C921E92149717961C921E9216975E
S113122019961C921E9218971B961C930E931A974C
S11312302097A1F0EC81FD81309719F49D838C8374
S11312400DC0268137812115310511F0F901F9CF3F
S1131250B783A6831996FC93EE931897CD01DF917B
S1131260CF911F910F91FF90EF900895CF92DF924D
S1131270EF92FF920F931F93CF93DF9340E050E0E0
S113128068E273E080E090E00E94F308EC0140E043
S113129050E062E373E00E94F3086C0147E158E018
S11312A06CE373E0CE010E94F30840E050E066E492
S11312B073E0CE010E94F3087C0140E050E06BEA49
S11312C073E0CE010E94F3088C0142E452E06FE423
S11312D073E0C7010E94F30840E050E06AE573E060
S11312E0C7010E94F30843EE55E063E673E0C801CA
S11312F00E94F30840E050E06CE673E0C8010E94ED
S1131300F30840E050E067E773E0C8010E94F30887
S113131040E050E061E873E0C8010E94F308D09314
S1131320CD03C093CC03D092CB03C092CA030E94D6
S11313301C08DF91CF911F910F91FF90EF90DF90E8
S1131340CF900895F8940E94260A8FE190E00E94BD
S1131350000B0E94EB0A0E94EB010E943E030E94D4
S1131360320A0E943609789408950E94A2090E94C4
S1131370C408FDCF8823F9F0E82FF0E0B0978091FE
S113138042018823C1F0EE0FFF1FEE0FFF1FEE0F87
S1131390FF1FE059FF4F80E090E02491A0914501A8
S11313A0B09146012C93019631962091420130E090
S11313B08217930794F30895E0914501F091460153
S11313C080830895883030F48055E0914301F09192
S11313D044018083089588237CF0982F9F70E091C6
S11313E04301F0914401908382958F70805FE09176
S11313F04301F091440180830895CF93C62F883030
S113140010F466234CF48FE893E09F938F930E942B
S1131410E20C0F900F9005C00E94E2098C2F0E94ED
S1131420EB09CF91089560E080E00E94FD090895E2
S113143060E00E94FD0980E890E0E0914501F091B0
S11314404601108201970097C1F70895CF93C0E039
S11314508C2F0E94180ACF5FC830D1F70E94130A5C
S1131460CF910895CF93DF93CDB7DEB766970FB6CC
S1131470F894DEBF0FBECDBF86E1E7E4F1E0DE0104
S1131480119601900D928A95E1F7FE013196CE01F5
S113149047962191A0914301B09144012C93E81700
S11314A0F907B9F70E94260A66960FB6F894DEBFCC
S11314B00FBECDBFDF91CF910895E0914301F0912C
S11314C0440191E89083E0914301F09144018083C9
S11314D00895882309F443C0883DD1F028F4853C5D
S11314E0D1F0863C91F006C0863EC1F0883F39F0C9
S11314F0853E41F0482F50E04052510911C040E66A
S113150050E00EC041E650E00BC042E650E008C097
S113151043E650E005C044E650E002C04FE550E029
S1131520809142018823D9F0440F551F440F551F61
S1131530440F551F80E090E040595F4FFA01E80FD7
S1131540F91FE491E095A0914501B0914601EC9317
S113155001962091420130E0821793077CF30895AD
S113156060E00E94FD0980E890E02FEFE0914501E2
S1131570F0914601208301970097C1F70895E09107
S11315804501F091460188E18083E0914501F091A5
S113159046018083E0914501F09146019EE79083E6
S11315A0E0914501F09146019CE39083E09145016F
S11315B0F0914601808308958FB9779BFECF0895FB
S11315C080E00E94DC0A779BFECF8FB10895C49817
S11315D00895C49A089585B7806885BF80B78062EE
S11315E080BF80B78F7E80BF80B7877F80BF08951C
S11315F05D9BFECF8CB908955F9BFECF8CB108959F
S113160090BD89B988E18AB98EE880BD6CEF7AE033
S113161088EF9AE00E945C0C089597FB072E16F45D
S1131620009407D077FD09D00E94210B07FC05D058
S11316303EF4909581959F4F0895709561957F4FE5
S11316400895AA1BBB1B51E107C0AA1FBB1FA61705
S1131650B70710F0A61BB70B881F991F5A95A9F757
S113166080959095BC01CD010895CF93DF9382308E
S1131670910510F482E090E0E091D003F091D10361
S113168020E030E0A0E0B0E0309739F140815181B2
S113169048175907B8F04817590771F482819381A4
S11316A0109729F013969C938E9312972CC09093C5
S11316B0D1038093D00327C02115310531F042179F
S11316C0530718F0A901DB0101C0EF019A01BD0124
S11316D0DF010280F381E02DD7CF21153105F9F028
S11316E0281B390B2430310580F48A819B816115D4
S11316F0710521F0FB019383828304C09093D1038D
S11317008093D003FE01329644C0FE01E20FF31F22
S11317108193919322503109398328833AC02091CF
S1131720CE033091CF03232B41F420910201309159
S113173003013093CF032093CE0320910001309115
S113174001012115310541F42DB73EB74091040143
S113175050910501241B350BE091CE03F091CF038A
S1131760E217F307A0F42E1B3F0B2817390778F074
S1131770AC014E5F5F4F2417350748F04E0F5F1FD3
S11317805093CF034093CE038193919302C0E0E042
S1131790F0E0CF01DF91CF910895CF93DF930097CD
S11317A009F487C0FC01329713821282C091D003DE
S11317B0D091D103209781F420813181280F391FE2
S11317C08091CE039091CF038217930779F5F0931C
S11317D0CF03E093CE036DC0DE0120E030E0AE170E
S11317E0BF0750F412964D915C9113979D014115DA
S11317F0510509F1DA01F3CFB383A283408151810A
S1131800840F951F8A179B0771F48D919C911197F2
S1131810840F951F02969183808312968D919C91DB
S11318201397938382832115310529F4F093D1030F
S1131830E093D0033EC0D9011396FC93EE93129724
S11318404D915D91A40FB51FEA17FB0779F48081D0
S11318509181840F951F0296D90111969C938E93C2
S11318608281938113969C938E931297E0E0F0E02B
S11318708A819B81009719F0FE01EC01F9CFCE011A
S1131880029628813981820F931F2091CE033091D3
S1131890CF032817390769F4309729F41092D1033C
S11318A01092D00302C013821282D093CF03C0934C
S11318B0CE03DF91CF9108950F931F93CF93DF93BE
S11318C0EC018B01009731F46115710519F480E086
S11318D090E038C06EE070E081E090E00E94F50E88
S11318E0FC010097A1F380E883830115110571F0D1
S11318F01387028781E883838091D2039091D30375
S1131900892B21F4F093D303E093D2032097C9F0F9
S1131910D187C0878381826083838091D40390912F
S1131920D503892B71F4F093D503E093D40380910C
S1131930D6039091D703892B21F4F093D703E09336
S1131940D603CF01DF91CF911F910F910895A0E0AD
S1131950B0E0EDEAFCE00C94CE0FAE01475F5F4FC0
S11319606F8178858D819E810E94230DE2E00C9425
S1131970EA0FEF92FF920F931F93CF93DF938B01A4
S1131980DB0113962C9121FF16C0EC01E12CF12C04
S11319908991882371F0D8011896ED91FC911997DB
S11319A0B8010995892BA1F3EE24EA94FF24FA9453
S11319B0EFCFC70102C08FEF9FEFCDB7DEB7E6E0F0
S11319C00C94E60FA0E0B0E0E8EEFCE00C94CE0F3F
S11319D0FE01359661917191AF018091D40390918C
S11319E0D5030E94230DE2E00C94EA0F0F931F939A
S11319F0CF93DF93E091D403F091D503238121FFAA
S1131A001BC0EC0100E010E089916091D403709157
S1131A10D503DB011896ED91FC911997882331F0D9
S1131A200995892B89F30FEF1FEFEECF8AE0099513
S1131A30892B11F4C80102C08FEF9FEFDF91CF9182
S1131A401F910F910895ACE0B0E0E9E2FDE00C9441
S1131A50BE0F7C016B018A01FC011782168283810F
S1131A6081FFBDC1CE0101964C01F7019381F601BE
S1131A7093FD859193FF81916F01882309F4ABC194
S1131A80853239F493FD859193FF81916F018532FD
S1131A9029F4B70190E00E942E0FE7CF512C312C8E
S1131AA020E02032A0F48B3269F030F4803259F017
S1131AB0833269F420612CC08D3239F0803339F4DB
S1131AC0216026C02260246023C0286021C027FD35
S1131AD027C030ED380F3A3078F426FF06C0FAE01C
S1131AE05F9E300D1124532E13C08AE0389E300DB2
S1131AF01124332E20620CC08E3221F426FD6BC1DA
S1131B00206406C08C3611F4206802C0883641F483
S1131B10F60193FD859193FF81916F018111C1CFEE
S1131B20982F9F7D9554933028F40C5F1F4FFFE34B
S1131B30F9830DC0833631F0833771F0833509F0B2
S1131B405BC022C0F801808189830E5F1F4F44244B
S1131B504394512C540115C03801F2E06F0E711CEE
S1131B60F801A080B18026FF03C0652D70E002C09B
S1131B706FEF7FEFC5012C870E94230F2C01830197
S1131B802C852F77222E17C03801F2E06F0E711CBE
S1131B90F801A080B18026FF03C0652D70E002C06B
S1131BA06FEF7FEFC5012C870E94110F2C012C854C
S1131BB02068222E830123FC1BC0832D90E048164D
S1131BC05906B0F4B70180E290E00E942E0F3A94D7
S1131BD0F4CFF50127FC859127FE81915F01B701C0
S1131BE090E00E942E0F31103A94F1E04F1A510800
S1131BF04114510471F7E5C0843611F0893639F582
S1131C00F80127FF07C060817181828193810C5F95
S1131C101F4F08C060817181882777FD8095982FB8
S1131C200E5F1F4F2F76B22E97FF09C090958095B7
S1131C30709561957F4F8F4F9F4F2068B22E2AE099
S1131C4030E0A4010E94600FA82EA81844C0853774
S1131C5029F42F7EB22E2AE030E025C0F22FF97F3E
S1131C60BF2E8F36C1F018F4883579F0B4C08037B0
S1131C7019F0883721F0AFC02F2F2061B22EB4FEA7
S1131C800DC08B2D8460B82E09C024FF0AC09F2F7D
S1131C909660B92E06C028E030E005C020E130E0AF
S1131CA002C020E132E0F801B7FE07C06081718113
S1131CB0828193810C5F1F4F06C06081718180E037
S1131CC090E00E5F1F4FA4010E94600FA82EA81879
S1131CD0FB2DFF77BF2EB6FE0BC02B2D2E7FA51438
S1131CE050F4B4FE0AC0B2FC08C02B2D2E7E05C0F1
S1131CF07A2C2B2D03C07A2C01C0752C24FF0DC027
S1131D00FE01EA0DF11D8081803311F4297E09C0A2
S1131D1022FF06C07394739404C0822F867809F05E
S1131D20739423FD13C020FF06C05A2C731418F4B7
S1131D30530C5718732C731468F4B70180E290E0C5
S1131D402C870E942E0F73942C85F5CF731410F4F6
S1131D50371801C0312C24FF12C0B70180E390E092
S1131D602C870E942E0F2C8522FF17C021FF03C051
S1131D7088E590E002C088E790E0B7010CC0822FAC
S1131D80867859F021FD02C080E201C08BE227FD74
S1131D908DE2B70190E00E942E0FA51438F4B7012C
S1131DA080E390E00E942E0F5A94F7CFAA94F40196
S1131DB0EA0DF11D8081B70190E00E942E0FA11061
S1131DC0F5CF332009F451CEB70180E290E00E94B0
S1131DD02E0F3A94F6CFF7018681978102C08FEFD8
S1131DE09FEF2C96E2E10C94DA0F0F931F93CF939D
S1131DF0DF93869F8001879F100D969F100D1124FD
S1131E00C8010E94350BEC01009729F0A80160E09D
S1131E1070E00E941C0FCE01DF91CF911F910F91B2
S1131E200895FC010590615070400110D8F7809529
S1131E3090958E0F9F1F0895DC0101C06D93415052
S1131E405040E0F70895FC0161507040019001108A
S1131E50D8F7809590958E0F9F1F08950F931F9329
S1131E60CF93DF93182F092FEB018B8181FD03C0E2
S1131E708FEF9FEF20C082FF10C04E815F812C81C5
S1131E803D81421753077CF4E881F9819F012F5F5C
S1131E903F4F39832883108306C0E885F985812F55
S1131EA00995892B29F72E813F812F5F3F4F3F836F
S1131EB02E83812F902FDF91CF911F910F91089541
S1131EC0FA01AA27283051F1203181F1E8946F9367
S1131ED06E7F6E5F7F4F8F4F9F4FAF4FB1E03ED00D
S1131EE0B4E03CD0670F781F891F9A1FA11D680FAB
S1131EF0791F8A1F911DA11D6A0F711D811D911DDE
S1131F00A11D20D009F468943F912AE0269F112452
S1131F103019305D3193DEF6CF010895462F4770B6
S1131F20405D4193B3E00FD0C9F7F6CF462F4F7011
S1131F30405D4A3318F0495D31FD4052419302D06F
S1131F40A9F7EACFB4E0A695979587957795679515
S1131F50BA95C9F700976105710508959B01AC0115
S1131F600A2E06945795479537952795BA95C9F73C
S1131F70620F731F841F951FA01D08952F923F9217
S1131F804F925F926F927F928F929F92AF92BF9285
S1131F90CF92DF92EF92FF920F931F93CF93DF9331
S1131FA0CDB7DEB7CA1BDB0B0FB6F894DEBF0FBE8E
S1131FB0CDBF09942A88398848885F846E847D84DB
S1131FC08C849B84AA84B984C884DF80EE80FD80DD
S1131FD00C811B81AA81B981CE0FD11D0FB6F89453
S1111FE0DEBF0FBECDBFED010895F894FFCF14
S1131FEE0000D80320000000000200000000BA091F
S1131FFE000000000000000200000000BA0900000A
S113200E00001F03DA020000000200000000BA09FB
S113201E000000000000000200000000BA090000E9
S113202E00000800100012AEA1DA12C8A83FD58035
S113203E8150D9212002DB30AD00A4A6AF6C5F73B2
S113204E6C696465723A002573200073657473209D
S113205E6272696768746E657373006C5F6275741F
S113206E746F6E3A206261636B00736C696465729F
S113207E5F706F736974696F6E20286C656674295E
S113208E2025640A000A4D6F766520746865206AFF
S113209E6F79737469636B20746F20616C6C206547
S11320AE787472656D6520706F696E74732E00504E
S11320BE7265737320746865206A6F7973746963CB
S11320CE6B207768656E20796F7527726520646F53
S11320DE6E652E0043414C494252415445204A4FAD
S11320EE5900582D706F736974696F6E3A202534D8
S11320FE640909592D706F736974696F6E3A2025DE
S113210E346409094C65667420736C696465723AAB
S113211E20253464090920526967687420736C6938
S113212E6465723A2025346409094C65667420622C
S113213E7574746F6E3A2025346409526967687435
S113214E20627574746F6E3A20253464096A6F794F
S113215E737469636B20627574746F6E3A202534E0
S113216E640A006F6C645F793A2025642C20793AF6
S113217E2025642C206F6C645F783A2025642C2013
S113218E6F6C645F792025640A0030313233343544
S113219E36373839213F51574552545955494F50C6
S11321AE292B4153444647484A4B4C28272D5A580D
S11321BE4356424E4D2C2E3B3A2330313233343576
S11321CE36373839213F71776572747975696F7056
S11321DE262B6173646667686A6B6C25242D7A7886
S11321EE6376626E6D2C2E3B3A230A0A4869676841
S11321FE73636F726520636C69636B6564210A0097
S113220E20257300484549004D61696E206D656E49
S113221E7500506C61792067616D65004869676867
S113222E73636F72650053657474696E67730042ED
S113223E72696768746E6573730053657420666F94
S113224E6E74004B6579626F617264004D616E64E9
S113225E656C62726F7400506C617920706F6E677A
S113226E00726F746174696E672063756265004FE6
S113227E7574206F662072616E676520696E204FDB
S113228E4C45445F706F7328290020457874726141
S10D229E20666561747572657300B3
S9030000FC
