:100000000C94E4010C9489020C9401020C940102FA
:100010000C9401020C9401020C9401020C94010254
:100020000C9401020C9401020C9401020C94010244
:100030000C9401020C9401020C9401020C94010234
:100040000C9401020C9401020C9401020C94010224
:100050000C9401020C9401020C9401020C94010214
:100060000C9401020C9401020C9401020C94010204
:1000700030313233343536373839213F51574552D4
:10008000545955494F50292B4153444647484A4BF0
:100090004C28272D5A584356424E4D2C2E3B3A237E
:1000A00030313233343536373839213F7177657224
:1000B000747975696F70262B6173646667686A6B03
:1000C0006C25242D7A786376626E6D2C2E3B3A2354
:1000D000000000000000000000065F5F0600000056
:1000E0000007070007070000147F7F147F7F1400BC
:1000F0002054543854545800386454544C38000038
:100100002050545554784000601816117F4949001A
:100110005C22514945221D006030282528306000AE
:10012000082A3E1C1C3E2A0808083E3E080800001B
:1001300000A0E060000000000808080808080000AF
:1001400000006060000000006030180C0603010031
:100150003E7F594D7F3E000042427F7F404000007D
:10016000627359496F660000226349497F36000077
:10017000181C16137F7F1000276745457D39000046
:100180003C7E4B4979300000036371190F07000072
:10019000367F49497F360000064F49693F1E0000FF
:1001A00000006C6C0000000000A0EC6C000000007F
:1001B000081C3663410000001414141414140000C9
:1001C000004163361C080000020351590F0600006D
:1001D0003E7F415D5D1F1E007C7E13137E7C000010
:1001E000417F7F49497F36001C3E634141632200C5
:1001F000417F7F41637F1C00417F7F495D416300F8
:10020000417F7F491D0103001C3E63415173720011
:100210007F7F08087F7F000000417F7F4100000052
:10022000307040417F3F0100417F7F081C776300B1
:10023000417F7F41406070007F7F060C067F7F001A
:100240007F7F060C187F7F001C3E6341633E1C00CD
:10025000417F7F49090F06001E3F21717F5E00002C
:10026000417F7F19396F460026674D597B32000068
:1002700003417F7F410300007F7F40407F7F00007C
:100280001F3F60603F1F00007F7F3018307F7F007E
:1002900063771C081C776300074F78784F070000CE
:1002A0006773594D47637100007F7F414100000033
:1002B0000103060C183060000041417F7F00000000
:1002C000080C0603060C08008080808080808080F7
:1002D0000000030704000000207454543C784000E0
:1002E000413F7F44447C3800387C44446C28000003
:1002F000307848493F7F4000387C54545C180000F7
:10030000487E7F490302000098BCA4A4F87C040046
:10031000417F7F08047C780000447D7D4000000020
:1003200040C484FD7D000000417F7F10386C440094
:1003300000417F7F400000007C7C0C180C7C780022
:100340007C7C04047C780000387C44447C380000C9
:1003500084FCF8A4243C1800183C24A4F8FC840075
:10036000447C78441C180000485C545474240000F9
:1003700000043E7F442400003C7C40403C7C400024
:100380001C3C60603C1C00003C7C6030607C3C009D
:10039000446C3810386C44009CBCA0A0FC7C00006D
:1003A0004C64745C4C64000008083E7741410000D6
:1003B00000000077770000004141773E0808000008
:1003C000020301030203010011241FBECFEFD4E09A
:1003D000DEBFCDBF13E0A0E0B1E0E6E9F6E202C087
:1003E00005900D92AE39B107D9F723E0AEE9B3E03D
:1003F00001C01D92A43FB207E1F70E94EB0B0C94E1
:1004000049130C94000030980895843040F48C5FB8
:10041000809300142899FECF80910014089580E005
:1004200008950F931F93CF93DF930E94500C89E69A
:1004300091E09F938F9303E711E01F930F93C6E022
:10044000D1E0DF93CF930E940F1060E081E00E9423
:10045000210C87E791E09F938F931F930F93DF9376
:10046000CF930E940F1060E082E00E94210C87E889
:1004700091E09F938F931F930F93DF93CF930E94ED
:100480000F1084E00E94D70C85E00E94D70C86E014
:100490000E94D70C87E00E94D70C8DB79EB742967A
:1004A0000FB6F8949EBF0FBE8DBFDF91CF911F9105
:1004B0000F9108950E94110205C00E942906862FFF
:1004C0000E94B00C80E00E94AD05892BB1F3089525
:1004D000CF938CE20E940C0AC82F80FF0BC040E033
:1004E00061E08CE20E943E0A21E030E03093A103FB
:1004F0002093A003C1FF0BC040E062E08CE20E94A9
:100500003E0A81E090E090939F0380939E03CF91F9
:1005100008951F920F920FB60F9211242F933F93BD
:100520004F935F936F937F938F939F93AF93BF93FB
:10053000EF93FF930E946802FF91EF91BF91AF91FB
:100540009F918F917F916F915F914F913F912F91EB
:100550000F900FBE0F901F9018950E94600A4FEFEA
:1005600064E680E60E943E0A4FEF60E680E70E9464
:100570003E0A63E08BE20E941E0A40E060EE8FE0DC
:100580000E943E0A089503968295807F0E940C0A7D
:1005900083FB882780F991E0892708950F931F93A3
:1005A000CF93DF93EC0108811981B80176956795A7
:1005B000769567957695679581E30E941E0A602F70
:1005C0006295660F607E82E30E941E0A6A8185E35F
:1005D0000E941E0A8A81882369F010E0FE01E10F63
:1005E000F11D638186E3810F0E941E0A1F5F8A81CD
:1005F0001817A0F381E00E94320A80E090E00E9488
:10060000C3028823D1F3DF91CF911F910F910895F9
:10061000DF92EF92FF920F931F93CF93DF938C01A2
:10062000F8948091A0039091A103892B39F0109246
:10063000A1031092A003C0E0D0E011C080919E03FE
:1006400090919F03892B39F010929F0310929E0383
:10065000C1E0D0E004C0F8011282789442C0FC2EC0
:10066000FF0CFF0CFF0CFF0C81E68F0D0E940C0AA3
:10067000E82E82E68F0D0E940C0A2E2D30E0220F0C
:10068000331F220F331F220F331F829586958770E9
:10069000280F311DF8013183208385E68F0D0E94DC
:1006A0000C0A8770F80182838823D1F07E01EE0C5A
:1006B000FF1CEE0CFF1CEE0CFF1CEE0CFF1CD12CE3
:1006C000CD2DD0E0CE018A599F4F8E0D0E940C0A8D
:1006D000C00FD11F8B83D394F8018281D81680F389
:1006E0007894DF91CF911F910F91FF90EF90DF9061
:1006F0000895FF920F931F93CF93DF93CDB7DEB78B
:100700002B970FB6F894DEBF0FBECDBF83E690E007
:100710009A83898385E08B830E94C7056C838D83D0
:100720000E9429066E838F8382E00E94AD058C01B2
:1007300080E00E94AD05F82E81E00E94AD05000F1B
:10074000111F000F111F880F991F082BF02AF88620
:10075000CE0101960E94CE022B960FB6F894DEBF12
:100760000FBECDBFDF91CF911F910F91FF900895E4
:10077000CF93DF93CDB7DEB72B970FB6F894DEBFDC
:100780000FBECDBF1B82CE0101960E9408038B8154
:10079000882309F443C08C8190E0982F88272D810D
:1007A000822B9093A5038093A4032091A4033091FE
:1007B000A5038091A2039091A3038217930744F4A9
:1007C0008091A4039091A5039093A3038093A20327
:1007D0000E94330C8091A4039091A503E091A4039F
:1007E000F091A5032AE030E0B9010E94750E9F93B5
:1007F0008F93CF01B9010E94750E7F936F9386E9A5
:1008000091E09F938F9384E191E09F938F930E9457
:100810000F100FB6F894DEBF0FBECDBF2B960FB6EC
:10082000F894DEBF0FBECDBFDF91CF9108950F9337
:100830001F93CF93DF93CDB7DEB72B970FB6F89406
:10084000DEBF0FBECDBF0E94500C86EA91E09F93A1
:100850008F938AEA91E09F938F9304E111E01F93B5
:100860000F930E940F1083EB91E09F938F9381EC85
:1008700091E09F938F931F930F930E940F1087EC2B
:1008800091E09F938F9382EC91E09F938F931F93BE
:100890000F930E940F102FEF8FE797E021508040B9
:1008A0009040E1F700C000001B8283E790E09A834C
:1008B0008983CE0101960E94CE020FB6F894DEBF66
:1008C0000FBECDBF04C00E9479030E94B80380E030
:1008D0000E94AD05892BB9F381E790E09A83898363
:1008E000CE0101960E94CE0280E090E00E94C302F9
:1008F0008111FACF2B960FB6F894DEBF0FBECDBF95
:10090000DF91CF911F910F910895CF93DF930E94B4
:10091000500C8091A2039091A303E091A203F09167
:10092000A3032AE030E0B9010E94750E9F938F93D4
:10093000CF01B9010E94750E7F936F9386ED91E010
:100940009F938F93C4E1D1E0DF93CF930E940F1068
:1009500085EF91E09F938F9383E092E09F938F9335
:10096000DF93CF930E940F108DB79EB70E960FB6F0
:10097000F8949EBF0FBE8DBF80E00E94AD05892B0D
:10098000D9F3DF91CF910895CF93DF930E94500C5C
:100990008BE092E09F938F938AE592E09F938F93F1
:1009A000C2E2D1E0DF93CF930E940F108091B60393
:1009B0001F928F9389E192E09F938F93DF93CF9360
:1009C0000E940F108091BA031F928F9385E292E0EC
:1009D0009F938F93DF93CF930E940F108091B70363
:1009E0001F928F9381E392E09F938F93DF93CF9336
:1009F0000E940F108091BB031F928F938DE392E0B2
:100A00009F938F93DF93CF930E940F1089E492E01E
:100A10009F938F9389E592E09F938F93DF93CF937A
:100A20000E940F108DB79EB784960FB6F8949EBFA4
:100A30000FBE8DBFDF91CF910895BF92CF92DF920D
:100A4000EF92FF920F931F93CF93DF932FEF20939B
:100A5000B6032093B7031092BA031092BB03019719
:100A6000E9F5B29B3BC00F2EF6EBCF2EF3E0DF2E65
:100A7000F02D0F2EF7EBEF2EF3E0FF2EF02D0AEB0B
:100A800013E0CBEBD3E080E00E940502B82E81E0BA
:100A90000E940502F60120819B2DB21608F4922FC8
:100AA000F6019083F7012081982F821708F4922F86
:100AB000F7019083F80190819B1508F4B92EF80195
:100AC000B0829881981708F4892F88830E94C40403
:100AD00080E090EF0197F1F7B299D5CFE091B6039E
:100AE000F0E06091BA0370E09F01261B370BC9014B
:100AF00099230CF40196959587958093B8034091BE
:100B0000B70350E02091BB0330E0DA01A21BB30B26
:100B1000CD010AF40196959587958093B9036E0FE0
:100B20007F1F759567956093BC03240F351F35951E
:100B300027952093BD03DF91CF911F910F91FF90D7
:100B4000EF90DF90CF90BF900895C29ABA9820B7E7
:100B50002B7F20BF0E941D050895813041F018F0C1
:100B6000823051F011C086B3817090E0089586B351
:100B70008695817090E0089586B38695869591E07C
:100B80008927817090E0089580E090E008951F9398
:100B9000CF93DF9380E00E940502282F30E0809100
:100BA000BC03281B310914E6129FC001139F900D4E
:100BB00011246091B80370E00E94750EEB0181E092
:100BC0000E940502282F30E08091BD03281B3109C7
:100BD000129FC001139F900D11246091B90370E022
:100BE0000E94750E9B01BE01C901DF91CF911F913B
:100BF00008950E94C705FB01AC019B012C5F3F4F8C
:100C00002930310530F49C012C5F3F4F29303105EC
:100C1000E0F0DB01FF2324F4AA27BB27A61BB70BB8
:100C20009C01552324F422273327281B390B2A172C
:100C30003B0734F481E01E161F0654F080E008954F
:100C40001416150624F482E0089584E0089583E0E4
:100C50000895CF9382E00E940502C82F83E00E948E
:100C60000502282F6C2F70E0822F90E0CF9108951D
:100C7000EEEBF3E001900020E9F73197EE5BF340F3
:100C8000E832F1056CF4E254FC4F808311828091CC
:100C9000B0039091B10301969093B1038093B00398
:100CA00008958091BE03882339F0EEEBF3E00190C4
:100CB0000020E9F73297108208956E5F7F4F660F2C
:100CC000660F660F8D5F0E94210C0895CF93DF930E
:100CD0000E94330C62E371E08EEB93E00E945310AC
:100CE000CEEBD3E009900020E9F72197CE5BD3400B
:100CF000C031D10554F462E371E080E290E00E94DB
:100D000021102196C031D105B1F7EEEBF3E001904F
:100D10000020E9F73197EE5BF340EF70FF27BF014A
:100D2000660F771F660F771F660F771F80E00E94A0
:100D3000210C88E090E00E941A0D1092AF031092EF
:100D4000AE036091AA037091AB038091AC039091C4
:100D5000AD030E945D06DF91CF91089560E070E0E1
:100D60000E945D060895EF92FF920F931F93CF9319
:100D7000DF930E94500CCEEBD3E018820E946606EF
:100D800080EA90E0909331018093300180E090E020
:100D90000E94AE061092AB031092AA031092AD030C
:100DA0001092AC031882E0913001F09131018491EE
:100DB00061E070E00E942A0EC1E0D0E00CE010E09B
:100DC0000F2EFCEAEF2EF3E0FF2EF02D0EC0CE0129
:100DD000B8010E94750E892B41F4F7018081918141
:100DE0000196918380830E94AE06E0913001F091DC
:100DF0003101EC0FFD1F849160E070E00E942A0E2B
:100E00002196C033D10519F784E090E00E94AE0628
:100E100020E030E040E050E060E070E080E090E012
:100E20000E940F0E1092AD031092AC03FFEF2FE75C
:100E300087E0F15020408040E1F700C00000DF91E2
:100E4000CF911F910F91FF90EF900895EF92FF9235
:100E50000F931F93CF93DF9380E090E00E94AE0644
:100E60001092AD031092AC03C0E0D0E00CE010E0B3
:100E70000F2EFCEAEF2EF3E0FF2EF02D10C0CE0176
:100E8000B8010E94750E892B51F4209741F0F701AB
:100E9000808191810196918380830E94AE06E091CA
:100EA0003001F0913101EC0FFD1F849160E070E0A2
:100EB0000E942A0E2196C033D10509F784E090E004
:100EC0000E94AE0620E030E040E050E060E070E0DC
:100ED00080E090E00E940F0EDF91CF911F910F9163
:100EE000FF90EF9008958091300190913101805AE8
:100EF000904039F480E790E0909331018093300185
:100F000006C080EA90E090933101809330010E9406
:100F1000260784E090E00E94AE0681E090E00E9407
:100F2000310D84E090E09093AD038093AC03109278
:100F3000AB031092AA030895843009F48AC0833069
:100F400091F42091AC033091AD0324303105BCF510
:100F5000C90101969093AD038093AC033093A9032C
:100F60002093A80308958230A1F48091AC0390915E
:100F7000AD03181619060CF06CC09C012150310904
:100F80003093AD032093AC039093A9038093A803FF
:100F90000895811114C08091AA039091AB03181693
:100FA00019060CF056C09C01215031093093AB0357
:100FB0002093AA039093A7038093A60308958130FA
:100FC00009F047C08091AA039091AB038B30910543
:100FD0000CF03FC02091AC033091AD0324303105BB
:100FE00069F5823091055CF41092A7031092A60374
:100FF00082E090E09093AB038093AA030895883039
:1010000091056CF482E090E09093A7038093A6038F
:1010100088E090E09093AB038093AA0308950A9729
:10102000C4F488E090E09093A7038093A6038AE03D
:1010300090E09093AB038093AA0308959C012F5FE7
:101040003F4F3093AB032093AA039093A703809361
:10105000A6030895CF93DF938091A8039091A903ED
:101060008430910524F5C6EAD3E0688179810E9435
:101070005D068091A8039091A903FC01EE0FFF1F6C
:101080008E0F9F1FFC01EE0FFF1FEE0FFF1F288129
:101090003981E20FF31F8091300190913101E80F07
:1010A000F91F849160E070E00E942A0E46C02091F2
:1010B000A6033091A703223031056CF41092A703E8
:1010C0001092A60360E070E00E945D0680E090E070
:1010D0000E94310D32C0283031057CF422E030E02E
:1010E0003093A7032093A60362E070E00E945D06A0
:1010F00080E090E00E94D50D20C02A3031057CF4BC
:1011000028E030E03093A7032093A60368E070E066
:101110000E945D0680E090E00E947D0D0EC02AE0F6
:1011200030E03093A7032093A6036AE070E00E94AA
:101130005D0680E090E00E94A90DDF91CF910895B7
:10114000CF93DF938091AC039091AD0384309105F0
:1011500024F5CAEAD3E0688179810E945D06809116
:10116000AC039091AD03FC01EE0FFF1F8E0F9F1F8C
:10117000FC01EE0FFF1FEE0FFF1F28813981E20FE8
:10118000F31F8091300190913101E80FF91F849194
:1011900061E070E00E942A0E46C02091AA033091BF
:1011A000AB03223031056CF41092AB031092AA030A
:1011B00060E070E00E945D0681E090E00E94310DE9
:1011C00032C0283031057CF422E030E03093AB03AC
:1011D0002093AA0362E070E00E945D0681E090E047
:1011E0000E94D50D20C02A3031057CF428E030E083
:1011F0003093AB032093AA0368E070E00E945D0681
:1012000081E090E00E947D0D0EC02AE030E0309336
:10121000AB032093AA036AE070E00E945D0681E0C0
:1012200090E00E94A90DDF91CF9108958091AC03C9
:101230009091AD0384309105E4F4FC01EE0FFF1FA3
:101240008E0F9F1FFC01EE0FFF1FEE0FFF1F20915F
:10125000AA033091AB03E20FF31F8091300190910C
:101260003101E80FF91F84910E9438060E9466063A
:1012700008958091AA039091AB03823091051CF4EC
:101280000E94730708958830910534F480E20E942B
:1012900038060E94660608958A30910574F42091FC
:1012A000B0033091B103121613063CF421503109FA
:1012B0003093B1032093B00308950C97A4F4809168
:1012C000B0039091B103EEEBF3E001900020E9F759
:1012D0003197EE5BF3408E179F0728F401969093A9
:1012E000B1038093B00308956F927F928F929F9283
:1012F000AF92BF92CF92DF92EF92FF920F931F9324
:10130000CF93DF930E94B3060F2EF8EAEF2EF3E09F
:10131000FF2EF02D0CEA13E00F2EF6EAAF2EF3E0CD
:10132000BF2EF02D0F2EFAEACF2EF3E0DF2EF02D98
:1013300088248394912C612C712C59C00E94F9054A
:101340000E949C07F70120813181F8018081918101
:101350002817390749F4F50120813181F601808190
:1013600091812817390799F00E942A080E94A00845
:10137000F60180819181F50191838083F80180815C
:101380009181F70191838083C82DD92D02C0C62D8C
:10139000D72D82E00E94AD05892B29F00E94160905
:1013A000882D992D0EC081E00E94AD05892B39F062
:1013B0000E9451060E946606882D992D02C0862D36
:1013C000972DCD2B49F0EFEFFFEB23E0E150F040FC
:1013D0002040E1F700C00000892B49F03FEF4FE3C8
:1013E00085E0315040408040E1F700C000C080E01F
:1013F0000E94AD05892B09F4A1CFDF91CF911F91F8
:101400000F91FF90EF90DF90CF90BF90AF909F90A3
:101410008F907F906F900895CF93C82F0E944F0EAA
:1014200083E00E94440E8C2F0E94440E0E94480EBE
:10143000C82F0E94510E8C2FCF910895CF93DF9328
:10144000D82FC62F0E944F0E82E00E94440E8D2F8F
:101450000E94440E8C2F0E94440E0E94510EDF9178
:10146000CF910895CF93C82F0E944F0E80E88C0F24
:101470000E94440E0E94510ECF9108951F93CF9366
:10148000DF93182FD62FC42F0E944F0E85E00E94A5
:10149000440E812F0E94440E8D2F0E94440E8C2FEB
:1014A0000E94440E0E94510EDF91CF911F9108952A
:1014B0000E944F0E80EC0E94440E0E94510E08952F
:1014C0000E94320E0E94580A8EE00E940C0A807E12
:1014D000803831F081EE92E00E947C1081E0089526
:1014E00080E00895DF92EF92FF920F931F93CF93C6
:1014F000DF930E94500CE091E803F091E903C4816E
:10150000D581209761F1D12C0F2EF7E0EF2EF2E07C
:10151000FF2EF02D00E411E060E08D2D0E94210CE3
:101520002091E6033091E703C217D30711F40E941C
:10153000E60C89818F9388818F93FF92EF921F939E
:101540000F930E940F100E80DF81C02DD3940F9057
:101550000F900F900F900F900F902097E9F6DF916A
:10156000CF911F910F91FF90EF90DF900895E09140
:10157000E603F091E70386819781892B41F086810C
:1015800097819093E7038093E6030E94720A08957F
:10159000E091E603F091E70380859185892B41F086
:1015A000808591859093E7038093E6030E94720AF9
:1015B0000895E091E603F091E70382859385892BF6
:1015C00031F00284F385E02D09950E94720AE091C2
:1015D000E603F091E70384819581892B61F0F09314
:1015E000E903E093E803848195819093E703809376
:1015F000E6030E94720A0895E091E803F091E9037E
:1016000082819381892B79F00280F381E02DF09320
:10161000E903E093E803848195819093E703809345
:10162000E6030E94720A0895CF930E94F905833061
:1016300021F40E94B70AC1E009C00E94F905823076
:1016400021F40E94C80AC1E001C0C0E082E00E940B
:10165000AD05892B19F00E94D90A0AC080E00E94CA
:10166000AD05892B19F00E94FC0A02C0CC2349F079
:1016700022E383ED93E0215080409040E1F700C0E9
:1016800000C0CF910895EF92FF920F931F93CF93D5
:10169000DF93EC017B018A018CE090E00E949D0EBB
:1016A000DC011196FC92EE921396DC93CE93129786
:1016B00015961C921E92149717961C921E921697BE
:1016C00019961C921E9218971B961C930E931A97AC
:1016D0002097A1F0EC81FD81309719F49D838C83D4
:1016E0000DC0268137812115310511F0F901F9CF9F
:1016F000B783A6831996FC93EE931897CD01DF91DB
:10170000CF911F910F91FF90EF900895CF92DF92AC
:10171000EF92FF920F931F93CF93DF9340E050E03F
:1017200063E173E080E090E00E94430BEC0147E14D
:1017300054E06DE173E00E94430B8C0145E854E0F6
:1017400067E273E0CE010E94430B40E050E061E3AA
:1017500073E0CE010E94430B6C0140E050E06EE864
:1017600073E0CE010E94430B7C014AE552E06AE33C
:1017700073E0C6010E94430B44E759E065E473E05F
:10178000C7010E94430BD093E903C093E803109371
:10179000E7030093E6030E94720ADF91CF911F9145
:1017A0000F91FF90EF90DF90CF900895F8948FE124
:1017B00090E00E94680E0E94530E0E94030280E097
:1017C00090E00E94A5050E94550C0E94860B0E9485
:1017D000AD02789408950E94D60B8EE493E00E94A7
:1017E0007C100E94140BFDCFE0915001F09151014B
:1017F00080830895883060F490EB980FE0914E015B
:10180000F0914F01908390E09093B5038093B403DF
:1018100008958823ACF0982F9F70E0914E01F091CD
:101820004F019083982F92959F70905FE0914E01A9
:10183000F0914F01908390E09093B3038093B203B3
:101840000895CF93C62F883010F466232CF482E7D6
:1018500093E00E947C1005C00E94FA0B8C2F0E941E
:10186000090CCF91089560E080E00E94210C08955A
:1018700060E00E94210C80E890E0E0915001F0913E
:101880005101108201970097C1F70895CF93C0E0EE
:101890008C2F0E94380CCF5FC830D1F7CF910895BC
:1018A0000E94460C0E94330C0895CF93DF93CDB76E
:1018B000DEB767970FB6F894DEBF0FBECDBF87E1E6
:1018C000E2E5F1E0DE01119601900D928A95E1F7D3
:1018D000FE013196CE0148962191A0914E01B09122
:1018E0004F012C93E817F907B9F70E94500C67963F
:1018F0000FB6F894DEBF0FBECDBFDF91CF91089534
:101900008A3029F08D3061F0811112C008958091E4
:10191000B4039091B50360E08F5F0E94210C08959D
:101920008091B4039091B50360E00E94210C08956A
:10193000E82FF0E0EE0FFF1FEE0FFF1FEE0FFF1F6F
:10194000E053F04080E090E02491A0915001B091EC
:1019500051012C930196319688309105A9F708958D
:10196000E0914E01F0914F0191E89083E0914E019A
:10197000F0914F01808308958823C1F0E82FF0E0B3
:10198000EE0FFF1FEE0FFF1FEE0FFF1FE053F040A3
:1019900080E090E024912095A0915001B0915101F8
:1019A0002C930196319688309105A1F7089560E057
:1019B0000E94210C80E890E02FEFE0915001F0911F
:1019C0005101208301970097C1F70895E0915001DC
:1019D000F091510188E18083E0915001F091510133
:1019E0008083E0915001F09151019EE79083E09156
:1019F0005001F09151019CE39083E0915001F091EE
:101A00005101808308950F931F93CF93DF938C012F
:101A10001816190654F4C0E0D0E080E090E00E946F
:101A2000F40B2196C017D107C1F7DF91CF911F9119
:101A30000F9108950F931F93CF93DF938C01181686
:101A4000190654F4C0E0D0E08FEF90E00E94F40B50
:101A50002196C017D107C1F7DF91CF911F910F9148
:101A60000895892B29F584E090E00E94030D80E120
:101A700090E00E94F40B88E190E00E94F40B8CE36C
:101A800090E00E94F40B8EE390E00E94F40B8CE354
:101A900090E00E94F40B88E190E00E94F40B80E15A
:101AA00090E00E94F40B85E090E00E94030D089501
:101AB00084E090E00E941A0D8FEE9FEF0E94F40BDD
:101AC00087EE9FEF0E94F40B83EC9FEF0E94F40BD4
:101AD00081EC9FEF0E94F40B83EC9FEF0E94F40BCC
:101AE00087EE9FEF0E94F40B8FEE9FEF0E94F40BA6
:101AF00085E090E00E941A0D0895892BA9F486E0F4
:101B000090E00E94030D80E190E00E94F40B88E3D6
:101B100090E00E94F40B8CE790E00E94F40B87E0C9
:101B200090E00E94030D089586E090E00E941A0D57
:101B30008FEE9FEF0E94F40B87EC9FEF0E94F40B57
:101B400083E89FEF0E94F40B87E090E00E941A0D5B
:101B50000895892BA9F486E090E00E94030D8CE79C
:101B600090E00E94F40B88E390E00E94F40B80E187
:101B700090E00E94F40B87E090E00E94030D08952E
:101B800086E090E00E941A0D83E89FEF0E94F40B1C
:101B900087EC9FEF0E94F40B8FEE9FEF0E94F40BF7
:101BA00087E090E00E941A0D0895CF93DF93892B70
:101BB000D1F484E090E00E94030D88E390E00E945D
:101BC000F40BC7E2D0E080E290E00E94F40B219792
:101BD0002097C9F788E390E00E94F40B85E090E03D
:101BE0000E94030D19C084E090E00E94030D87EC71
:101BF0009FEF0E94F40BC7E2D0E08FED9FEF0E94B1
:101C0000F40B21972097C9F787EC9FEF0E94F40B04
:101C100085E090E00E94030DDF91CF910895EF924F
:101C2000FF920F931F93CF93DF937B018A01E9010A
:101C30000E94310DC7010E94D50DC8010E947D0D83
:101C4000CE010E94A90DDF91CF911F910F91FF90BE
:101C5000EF900895672B19F40E94800C08950E945C
:101C6000BC0C08958BB780648BBF85B78D7F85BF13
:101C700085B78E7F85BFBD9ABF9ABC9A6C9A6E9AC3
:101C8000689A6998689808958FB9779BFECF0895F0
:101C900080E00E94440E779BFECF8FB10895C498D8
:101CA0000895C49A089585B7806885BF80B780621B
:101CB00080BF80B78F7E80BF80B7877F80BF089549
:101CC0005D9BFECF8CB908955F9BFECF8CB10895CC
:101CD00090BD89B988E18AB98EE880BD64E67EE06E
:101CE00080E69EE00E94C40F089597FB072E16F42D
:101CF000009407D077FD09D00E94890E07FC05D01B
:101D00003EF4909581959F4F0895709561957F4F12
:101D10000895AA1BBB1B51E107C0AA1FBB1FA61732
:101D2000B70710F0A61BB70B881F991F5A95A9F784
:101D300080959095BC01CD010895CF93DF938230BB
:101D4000910510F482E090E0E091EC03F091ED0356
:101D500020E030E0A0E0B0E0309739F140815181DF
:101D600048175907B8F04817590771F482819381D1
:101D7000109729F013969C938E9312972CC09093F2
:101D8000ED038093EC0327C02115310531F0421794
:101D9000530718F0A901DB0101C0EF019A01BD0151
:101DA000DF010280F381E02DD7CF21153105F9F055
:101DB000281B390B2430310580F48A819B81611501
:101DC000710521F0FB019383828304C09093ED039E
:101DD0008093EC03FE01329644C0FE01E20FF31F34
:101DE0008193919322503109398328833AC02091FD
:101DF000EA033091EB03232B41F42091020130914F
:101E000003013093EB032093EA032091000130910A
:101E100001012115310541F42DB73EB74091040170
:101E200050910501241B350BE091EA03F091EB037F
:101E3000E217F307A0F42E1B3F0B2817390778F0A1
:101E4000AC014E5F5F4F2417350748F04E0F5F1F00
:101E50005093EB034093EA038193919302C0E0E037
:101E6000F0E0CF01DF91CF910895CF93DF930097FA
:101E700009F487C0FC01329713821282C091EC03EF
:101E8000D091ED03209781F420813181280F391FF3
:101E90008091EA039091EB038217930779F5F09311
:101EA000EB03E093EA036DC0DE0120E030E0AE1703
:101EB000BF0750F412964D915C9113979D01411507
:101EC000510509F1DA01F3CFB383A2834081518137
:101ED000840F951F8A179B0771F48D919C91119720
:101EE000840F951F02969183808312968D919C9109
:101EF0001397938382832115310529F4F093ED0321
:101F0000E093EC033EC0D9011396FC93EE93129735
:101F10004D915D91A40FB51FEA17FB0779F48081FD
:101F20009181840F951F0296D90111969C938E93EF
:101F30008281938113969C938E931297E0E0F0E058
:101F40008A819B81009719F0FE01EC01F9CFCE0147
:101F5000029628813981820F931F2091EA033091E4
:101F6000EB032817390769F4309729F41092ED0331
:101F70001092EC0302C013821282D093EB03C09341
:101F8000EA03DF91CF9108950F931F93CF93DF93CF
:101F9000EC018B01009731F46115710519F480E0B3
:101FA00090E038C06EE070E081E090E00E947B122B
:101FB000FC010097A1F380E883830115110571F0FE
:101FC0001387028781E883838091EE039091EF036A
:101FD000892B21F4F093EF03E093EE032097C9F0EF
:101FE000D187C0878381826083838091F003909141
:101FF000F103892B71F4F093F103E093F0038091E6
:10200000F2039091F303892B21F4F093F303E0930F
:10201000F203CF01DF91CF911F910F910895A0E0BE
:10202000B0E0E5E1F0E10C942213AE01475F5F4FB1
:102030006F8178858D819E810E94A910E2E00C94C9
:102040003E130F931F93CF93DF93182F092FEB01AC
:102050008B8181FD03C08FEF9FEF20C082FF10C0F6
:102060004E815F812C813D81421753077CF4E881CA
:10207000F9819F012F5F3F4F39832883108306C06A
:10208000E885F985812F0995892B29F72E813F81D4
:102090002F5F3F4F3F832E83812F902FDF91CF9172
:1020A0001F910F910895EF92FF920F931F93CF937B
:1020B000DF938B01DB0113962C9121FF16C0EC01FD
:1020C000E12CF12C8991882371F0D8011896ED91BB
:1020D000FC911997B8010995892BA1F3EE24EA9494
:1020E000FF24FA94EFCFC70102C08FEF9FEFCDB767
:1020F000DEB7E6E00C943A130F931F93CF93DF9370
:10210000E091F003F091F103238121FF1BC0EC016A
:1021100000E010E089916091F0037091F103DB0120
:102120001896ED91FC911997882331F00995892B28
:1021300089F30FEF1FEFEECF8AE00995892B11F499
:10214000C80102C08FEF9FEFDF91CF911F910F91D8
:102150000895ACE0B0E0EFEAF0E10C9412137C01DA
:102160006B018A01FC0117821682838181FFBDC148
:10217000CE0101964C01F7019381F60193FD859103
:1021800093FF81916F01882309F4ABC1853239F443
:1021900093FD859193FF81916F01853229F4B701F9
:1021A00090E00E942110E7CF512C312C20E020320A
:1021B000A0F48B3269F030F4803259F0833269F444
:1021C00020612CC08D3239F0803339F4216026C073
:1021D0002260246023C0286021C027FD27C030ED85
:1021E000380F3A3078F426FF06C0FAE05F9E300DD3
:1021F0001124532E13C08AE0389E300D1124332E43
:1022000020620CC08E3221F426FD6BC1206406C012
:102210008C3611F4206802C0883641F4F60193FD33
:10222000859193FF81916F018111C1CF982F9F7D7F
:102230009554933028F40C5F1F4FFFE3F9830DC0D2
:10224000833631F0833771F0833509F05BC022C0EB
:10225000F801808189830E5F1F4F44244394512CE1
:10226000540115C03801F2E06F0E711CF801A08016
:10227000B18026FF03C0652D70E002C06FEF7FEFD5
:10228000C5012C870E94A9122C0183012C852F7770
:10229000222E17C03801F2E06F0E711CF801A080E9
:1022A000B18026FF03C0652D70E002C06FEF7FEFA5
:1022B000C5012C870E9497122C012C852068222EA4
:1022C000830123FC1BC0832D90E048165906B0F40F
:1022D000B70180E290E00E9421103A94F4CFF5011A
:1022E00027FC859127FE81915F01B70190E00E9454
:1022F000211031103A94F1E04F1A51084114510461
:1023000071F7E5C0843611F0893639F5F80127FFF9
:1023100007C060817181828193810C5F1F4F08C06B
:1023200060817181882777FD8095982F0E5F1F4F00
:102330002F76B22E97FF09C0909580957095619584
:102340007F4F8F4F9F4F2068B22E2AE030E0A401CC
:102350000E94B412A82EA81844C0853729F42F7EF5
:10236000B22E2AE030E025C0F22FF97FBF2E8F3643
:10237000C1F018F4883579F0B4C0803719F0883787
:1023800021F0AFC02F2F2061B22EB4FE0DC08B2DD7
:102390008460B82E09C024FF0AC09F2F9660B92E12
:1023A00006C028E030E005C020E130E002C020E1B6
:1023B00032E0F801B7FE07C06081718182819381AC
:1023C0000C5F1F4F06C06081718180E090E00E5F5E
:1023D0001F4FA4010E94B412A82EA818FB2DFF774E
:1023E000BF2EB6FE0BC02B2D2E7FA51450F4B4FECD
:1023F0000AC0B2FC08C02B2D2E7E05C07A2C2B2DD6
:1024000003C07A2C01C0752C24FF0DC0FE01EA0D1B
:10241000F11D8081803311F4297E09C022FF06C09E
:102420007394739404C0822F867809F0739423FD0B
:1024300013C020FF06C05A2C731418F4530C5718FD
:10244000732C731468F4B70180E290E02C870E942B
:10245000211073942C85F5CF731410F4371801C034
:10246000312C24FF12C0B70180E390E02C870E943A
:1024700021102C8522FF17C021FF03C088E590E0C2
:1024800002C088E790E0B7010CC0822F867859F02F
:1024900021FD02C080E201C08BE227FD8DE2B70181
:1024A00090E00E942110A51438F4B70180E390E079
:1024B0000E9421105A94F7CFAA94F401EA0DF11D5D
:1024C0008081B70190E00E942110A110F5CF332048
:1024D00009F451CEB70180E290E00E9421103A94B5
:1024E000F6CFF7018681978102C08FEF9FEF2C9680
:1024F000E2E10C942E130F931F93CF93DF93869FEB
:102500008001879F100D969F100D1124C8010E9415
:102510009D0EEC01009729F0A80160E070E00E9498
:10252000A212CE01DF91CF911F910F910895FC016E
:102530000590615070400110D8F7809590958E0FEE
:102540009F1F0895DC0101C06D9341505040E0F79A
:102550000895FC016150704001900110D8F78095FA
:1025600090958E0F9F1F0895FA01AA27283051F1E8
:10257000203181F1E8946F936E7F6E5F7F4F8F4FB4
:102580009F4FAF4FB1E03ED0B4E03CD0670F781F13
:10259000891F9A1FA11D680F791F8A1F911DA11DF8
:1025A0006A0F711D811D911DA11D20D009F4689431
:1025B0003F912AE0269F11243019305D3193DEF6D9
:1025C000CF010895462F4770405D4193B3E00FD08F
:1025D000C9F7F6CF462F4F70405D4A3318F0495D7A
:1025E00031FD4052419302D0A9F7EACFB4E0A6955D
:1025F0009795879577956795BA95C9F7009761057F
:10260000710508959B01AC010A2E069457954795D4
:1026100037952795BA95C9F7620F731F841F951FC9
:10262000A01D08952F923F924F925F926F927F92DA
:102630008F929F92AF92BF92CF92DF92EF92FF92D2
:102640000F931F93CF93DF93CDB7DEB7CA1BDB0B7E
:102650000FB6F894DEBF0FBECDBF09942A88398823
:1026600048885F846E847D848C849B84AA84B9842A
:10267000C884DF80EE80FD800C811B81AA81B98136
:10268000CE0FD11D0FB6F894DEBF0FBECDBFED014A
:062690000895F894FFCF4D
:102696000000F40320000000000200000000800C8F
:1026A600000000000000000200000000800C000096
:1026B60000000000000200000000800C0000000086
:1026C600A0000000000200000000800C00000000D6
:1026D6000000000200000000800C00000000001056
:1026E6000012AEA1DA12C8A83FD5808150D921A721
:1026F6002002DB30AD00A4A6AF6C5F736C69646525
:10270600723A0025732000736574732062726967DC
:1027160068746E657373006C5F627574746F6E3A7D
:10272600206261636B0074696D653A2025642E250D
:10273600642020202000302E300074696D653A2018
:102746002573006C427574746F6E3A2071756974E6
:10275600000A2573200A006A427574746F6E3A2067
:1027660073686F6F74002020204849474853434FD1
:1027760052453A0A202025642E2564207365636F2E
:102786006E64730A006C427574746F6E3A206261EF
:10279600636B000A0A0A0A2025730043616C6962AA
:1027A60072617465204A4F5900785F6D61783A20EE
:1027B6002536640A00785F6D696E3A202536640A0C
:1027C60000795F6D61783A202536640A00795F6D7D
:1027D600696E3A202536640A00436C69636B20777C
:1027E60068656E20646F6E65000A25730A00582DB1
:1027F600706F736974696F6E3A20253464090959DC
:102806002D706F736974696F6E3A202534640909F7
:10281600004C65667420736C696465723A202534D1
:1028260064090920526967687420736C696465726B
:102836003A202534640909004C6566742062757473
:10284600746F6E3A20253464095269676874206291
:102856007574746F6E3A20253464096A6F797374DF
:1028660069636B20627574746F6E3A202534640A4E
:10287600004D435032353135206973204E4F542078
:10288600696E20636F6E66696775726174696F6ED3
:10289600206D6F646520616674657220726573656C
:1028A6007421004D61696E206D656E7500506C6116
:1028B600792067616D65004869676873636F726543
:1028C6000053657474696E67730042726967687451
:1028D6006E657373004B6579626F61726400496E51
:1028E600697469616C697A6174696F6E206F6620BC
:1028F6004E6F6465203120636F6D706C6574652161
:102906000A004F7574206F662072616E67652069D4
:102916006E204F4C45445F706F7328290020457820
:0E2926007472612066656174757265730000DD
:00000001FF
