S01700006D6963726F636F6E74726F6C6C65722E73726563AF
S11300000C94B4010C94D1010C94D1010C94D10141
S11300100C94D1010C94D1010C94D1010C94D10114
S11300200C94D1010C94D1010C94D1010C94D10104
S11300300C94D1010C94D1010C94D1010C94D101F4
S11300400C94D1010C94D1010C94D1010C94D101E4
S11300500C94D1010C94D1010C94D1010C94D101D4
S11300600C94D1010C94D1010C94D1010C94D101C4
S1130070000000000000000000065F5F06000000B2
S11300800007070007070000147F7F147F7F140018
S1130090242E6B6B3A120000466630180C66620020
S11300A0307A4F5D377A48000407030000000000EF
S11300B0001C3E63410000000041633E1C00000040
S11300C0082A3E1C1C3E2A0808083E3E0808000078
S11300D000A0E0600000000008080808080800000C
S11300E000006060000000006030180C060301008E
S11300F03E7F594D7F3E000042427F7F40400000DA
S1130100627359496F660000226349497F360000D3
S1130110181C16137F7F1000276745457D390000A2
S11301203C7E4B4979300000036371190F070000CE
S1130130367F49497F360000064F49693F1E00005B
S113014000006C6C0000000000A0EC6C00000000DB
S1130150081C366341000000141414141414000025
S1130160004163361C080000020351590F060000C9
S11301703E7F415D5D1F1E007C7E13137E7C00006C
S1130180417F7F49497F36001C3E63414163220021
S1130190417F7F41637F1C00417F7F495D41630054
S11301A0417F7F491D0103001C3E6341517372006E
S11301B07F7F08087F7F000000417F7F41000000AF
S11301C0307040417F3F0100417F7F081C7763000E
S11301D0417F7F41406070007F7F060C067F7F0077
S11301E07F7F060C187F7F001C3E6341633E1C002A
S11301F0417F7F49090F06001E3F21717F5E000089
S1130200417F7F19396F460026674D597B320000C4
S113021003417F7F410300007F7F40407F7F0000D8
S11302201F3F60603F1F00007F7F3018307F7F00DA
S113023063771C081C776300074F78784F0700002A
S11302406773594D47637100007F7F41410000008F
S11302500103060C183060000041417F7F0000005C
S1130260080C0603060C0800808080808080808053
S11302700000030704000000207454543C7840003C
S1130280413F7F44447C3800387C44446C2800005F
S1130290307848493F7F4000387C54545C18000053
S11302A0487E7F490302000098BCA4A4F87C0400A3
S11302B0417F7F08047C780000447D7D400000007D
S11302C040C484FD7D000000417F7F10386C4400F1
S11302D000417F7F400000007C7C0C180C7C78007F
S11302E07C7C04047C780000387C44447C38000026
S11302F084FCF8A4243C1800183C24A4F8FC8400D2
S1130300447C78441C180000485C54547424000055
S113031000043E7F442400003C7C40403C7C400080
S11303201C3C60603C1C00003C7C6030607C3C00F9
S1130330446C3810386C44009CBCA0A0FC7C0000C9
S11303404C64745C4C64000008083E774141000032
S113035000000077770000004141773E0808000064
S1130360020301030203010011241FBECFEFD4E0F6
S1130370DEBFCDBF12E0A0E0B1E0EEEAF3E102C0DF
S113038005900D92A439B107D9F722E0A4E9B2E0AF
S113039001C01D92AA3AB207E1F70E9411030C941E
S11303A0D5090C94000030980895843040F48C5F93
S11303B0809300142899FECF80910014089580E062
S11303C00895BF92CF92DF92EF92FF920F931F9303
S11303D0CF93DF9310929402109295028FEF809343
S11303E09802809399028FE291E00E94D60608E970
S11303F012E00F2EF4E9CF2EF2E0DF2EF02DC9E942
S1130400D2E00F2EF5E9EF2EF2E0FF2EF02D1CC006
S113041080E00E94D501B82E81E00E94D501F80148
S11304209081B91610F4B08205C0F60190819B1535
S113043008F4B0829881891710F4888305C0F70105
S11304409081981708F48083B299E2CFE0919402E6
S1130450F0E06091980270E09F01261B370BC90100
S113046099230CF401969595879580939602409173
S1130470950250E02091990230E0DA01A21BB30BFF
S1130480CD010AF4019695958795809397026E0F96
S11304907F1F7595679560939A02240F351F3595D4
S11304A0279520939B02DF91CF911F910F91FF908D
S11304B0EF90DF90CF90BF900895C29ABA9880B71A
S11304C08B7F80BF0E94E1010895813039F018F0DC
S11304D0823041F00EC086B38170089586B386954C
S11304E08170089586B382FB882780F991E089277B
S11304F0089580E008951F93CF93DF9380E00E94D6
S1130500D501282F30E080919A02281B310914E686
S1130510129FC001139F900D11246091960270E008
S11305200E941605EB0181E00E94D501282F30E0DE
S113053080919B02281B3109129FC001139F900DCB
S113054011246091970270E00E9416059B01BE0180
S1130550C901DF91CF911F9108950E947B02FB0195
S1130560AC019B012C5F3F4F2930310530F49C01D5
S11305702C5F3F4F29303105E0F0DB01FF2324F4E9
S1130580AA27BB27A61BB70B9C01552324F42227BB
S11305903327281B390B2A173B0734F481E01E1636
S11305A01F0654F080E008951416150624F482E022
S11305B0089584E0089583E008958FE190E00E9417
S11305C009050E94F4040E94D3010E945D020E9466
S11305D088030E944F0408950E94AD02833019F4E9
S11305E00E94A50406C00E94AD02823011F40E944C
S11305F0B60482E00E946502882319F00E94C704B1
S113060006C080E00E94650281110E94DC042FEF85
S11306108FE794E0215080409040E1F700C0000053
S113062008950E94DD020E94EC02FDCF8823F9F0B8
S1130630E82FF0E0B097809106018823C1F0EE0F17
S1130640FF1FEE0FFF1FEE0FFF1FE059FF4F80E06B
S113065090E02491A0910901B0910A012C93019694
S113066031962091060130E08217930794F30895A0
S1130670883030F48055E0910701F09108018083BF
S1130680089588237CF0982F9F70E0910701F091E2
S11306900801908382958F70805FE0910701F0914B
S11306A0080180830895CF93C62F883010F4662301
S11306B04CF48DEF91E09F938F930E94C2060F90AC
S11306C00F9005C00E9438038C2F0E944103CF91E4
S11306D0089560E080E00E945303089560E00E9462
S11306E0530380E890E0E0910901F0910A0110823F
S11306F001970097C1F70895CF93C0E08C2F0E9413
S11307006E03CF5FC830D1F70E946903CF9108957B
S1130710CF93DF93CDB7DEB766970FB6F894DEBFFD
S11307200FBECDBF86E1E9E1F1E0DE011196019053
S11307300D928A95E1F7FE013196CE0147962191FB
S1130740A0910701B09108012C93E817F907B9F7B4
S11307500E947C0366960FB6F894DEBF0FBECDBF31
S1130760DF91CF910895E0910901F0910A0188E1A8
S11307708083E0910901F0910A018083E0910901ED
S1130780F0910A019EE79083E0910901F0910A013A
S11307909CE39083E0910901F0910A01808308951C
S11307A00F931F93CF93DF93EC018B018AE090E0CA
S11307B00E943E05DC0111961C930E931396DC9364
S11307C0CE93129715961C921E92149717961C920C
S11307D01E92169719961C921E9218972097A1F0B4
S11307E0EC81FD81309719F49D838C830DC02681A3
S11307F037812115310511F0F901F9CFB783A683AB
S11308001996FC93EE931897CD01DF91CF911F9128
S11308100F910895DF92EF92FF920F931F93CF935E
S1130820DF930E947C03E0919C02F0919D02C481BD
S1130830D581209761F1D12C0F2EF8E2EF2EF2E052
S1130840FF2EF02D0BE011E060E08D2D0E9453038C
S113085020919E0230919F02C217D30711F40E9487
S1130860B30389818F9388818F93FF92EF921F93B3
S11308700F930E94B0060E80DF81C02DD3940F9099
S11308800F900F900F900F900F902097E9F6DF9143
S1130890CF911F910F91FF90EF90DF900895CF9229
S11308A0DF92EF92FF920F931F93CF93DF936CE24B
S11308B072E080E090E00E94D003EC0166E372E015
S11308C00E94D0036C0160E472E0CE010E94D00368
S11308D06AE472E0CE010E94D0037C0169E172E017
S11308E0CE010E94D0038C0163E572E0C7010E942F
S11308F0D0036EE572E0C7010E94D00367E672E0A0
S1130900C8010E94D00360E772E0C8010E94D003CE
S11309106BE772E0C8010E94D00365E872E0C80189
S11309200E94D003D0939D02C0939C02D0929F0258
S1130930C0929E020E940A04DF91CF911F910F91F1
S1130940FF90EF90DF90CF900895E0919E02F09198
S11309509F0286819781892B41F0868197819093AC
S11309609F0280939E020E940A040895E0919E02D1
S1130970F0919F0280859185892B41F08085918536
S113098090939F0280939E020E940A040895E0912E
S11309909E02F0919F0284819581892B61F0F093EE
S11309A09D02E0939C028481958190939F028093A1
S11309B09E020E940A040895E0919C02F0919D0217
S11309C082819381892B79F00280F381E02DF09369
S11309D09D02E0939C028481958190939F02809371
S11309E09E020E940A04089585B7806885BF80B777
S11309F0806280BF80B78F7E80BF80B7877F80BFD3
S1130A0008955D9BFECF8CB908955F9BFECF8CB19A
S1130A10089590BD89B988E18AB98EE880BD65E002
S1130A2075E081E095E00E946506089597FB072E26
S1130A3016F4009407D077FD09D00E942A0507FC1C
S1130A4005D03EF4909581959F4F089570956195DA
S1130A507F4F0895AA1BBB1B51E107C0AA1FBB1FF0
S1130A60A617B70710F0A61BB70B881F991F5A9536
S1130A70A9F780959095BC01CD010895CF93DF939C
S1130A808230910510F482E090E0E091A202F091AE
S1130A90A30220E030E0A0E0B0E0309739F14081DB
S1130AA0518148175907B8F04817590771F48281E2
S1130AB09381109729F013969C938E9312972CC0D0
S1130AC09093A3028093A20227C02115310531F02F
S1130AD04217530718F0A901DB0101C0EF019A0185
S1130AE0BD01DF010280F381E02DD7CF211531054F
S1130AF0F9F0281B390B2430310580F48A819B815D
S1130B006115710521F0FB019383828304C09093E6
S1130B10A3028093A202FE01329644C0FE01E20FBA
S1130B20F31F8193919322503109398328833AC06A
S1130B302091A0023091A102232B41F420910201C3
S1130B40309103013093A1022093A002209100016F
S1130B50309101012115310541F42DB73EB7409183
S1130B60040150910501241B350BE091A002F09182
S1130B70A102E217F307A0F42E1B3F0B2817390735
S1130B8078F0AC014E5F5F4F2417350748F04E0FE5
S1130B905F1F5093A1024093A0028193919302C0DE
S1130BA0E0E0F0E0CF01DF91CF910895CF93DF93A0
S1130BB0009709F487C0FC01329713821282C09116
S1130BC0A202D091A302209781F420813181280FC1
S1130BD0391F8091A0029091A1028217930779F5A1
S1130BE0F093A102E093A0026DC0DE0120E030E0AA
S1130BF0AE17BF0750F412964D915C9113979D0167
S1130C004115510509F1DA01F3CFB383A283408181
S1130C105181840F951F8A179B0771F48D919C91C4
S1130C201197840F951F02969183808312968D915C
S1130C309C911397938382832115310529F4F093B2
S1130C40A302E093A2023EC0D9011396FC93EE9353
S1130C5012974D915D91A40FB51FEA17FB0779F424
S1130C6080819181840F951F0296D90111969C93DE
S1130C708E938281938113969C938E931297E0E0D6
S1130C80F0E08A819B81009719F0FE01EC01F9CF15
S1130C90CE01029628813981820F931F2091A002F0
S1130CA03091A1022817390769F4309729F410927A
S1130CB0A3021092A20202C013821282D093A10254
S1130CC0C093A002DF91CF9108950F931F93CF9308
S1130CD0DF93EC018B01009731F46115710519F470
S1130CE080E090E038C06EE070E081E090E00E9427
S1130CF0D508FC010097A1F380E883830115110551
S1130D0071F01387028781E883838091A402909114
S1130D10A502892B21F4F093A502E093A402209765
S1130D20C9F0D187C0878381826083838091A602C2
S1130D309091A702892B71F4F093A702E093A60285
S1130D408091A8029091A902892B21F4F093A90221
S1130D50E093A802CF01DF91CF911F910F910895E5
S1130D60A0E0B0E0E6EBF6E00C94AE09AE01475F1C
S1130D705F4F6F8178858D819E810E940307E2E039
S1130D800C94CA09A0E0B0E0E8ECF6E00C94AE09DB
S1130D90FE01359661917191AF018091A602909107
S1130DA0A7020E940307E2E00C94CA090F931F9361
S1130DB0CF93DF93E091A602F091A702238121FF54
S1130DC01BC0EC0100E010E089916091A6027091D3
S1130DD0A702DB011896ED91FC911997882331F055
S1130DE00995892B89F30FEF1FEFEECF8AE0099560
S1130DF0892B11F4C80102C08FEF9FEFDF91CF91CF
S1130E001F910F910895ACE0B0E0E9E0F7E00C9495
S1130E109E097C016B018A01FC0117821682838181
S1130E2081FFBDC1CE0101964C01F7019381F6010A
S1130E3093FD859193FF81916F01882309F4ABC1E0
S1130E40853239F493FD859193FF81916F01853249
S1130E5029F4B70190E00E940E09E7CF512C312C00
S1130E6020E02032A0F48B3269F030F4803259F063
S1130E70833269F420612CC08D3239F0803339F427
S1130E80216026C02260246023C0286021C027FD81
S1130E9027C030ED380F3A3078F426FF06C0FAE068
S1130EA05F9E300D1124532E13C08AE0389E300DFE
S1130EB01124332E20620CC08E3221F426FD6BC126
S1130EC0206406C08C3611F4206802C0883641F4D0
S1130ED0F60193FD859193FF81916F018111C1CF3B
S1130EE0982F9F7D9554933028F40C5F1F4FFFE398
S1130EF0F9830DC0833631F0833771F0833509F0FF
S1130F005BC022C0F801808189830E5F1F4F442497
S1130F104394512C540115C03801F2E06F0E711C3A
S1130F20F801A080B18026FF03C0652D70E002C0E7
S1130F306FEF7FEFC5012C870E9403092C01830109
S1130F402C852F77222E17C03801F2E06F0E711C0A
S1130F50F801A080B18026FF03C0652D70E002C0B7
S1130F606FEF7FEFC5012C870E94F1082C012C85BF
S1130F702068222E830123FC1BC0832D90E0481699
S1130F805906B0F4B70180E290E00E940E093A9449
S1130F90F4CFF50127FC859127FE81915F01B7010C
S1130FA090E00E940E0931103A94F1E04F1A510872
S1130FB04114510471F7E5C0843611F0893639F5CE
S1130FC0F80127FF07C060817181828193810C5FE2
S1130FD01F4F08C060817181882777FD8095982F05
S1130FE00E5F1F4F2F76B22E97FF09C09095809504
S1130FF0709561957F4F8F4F9F4F2068B22E2AE0E6
S113100030E0A4010E944009A82EA81844C08537E6
S113101029F42F7EB22E2AE030E025C0F22FF97F8A
S1131020BF2E8F36C1F018F4883579F0B4C08037FC
S113103019F0883721F0AFC02F2F2061B22EB4FEF3
S11310400DC08B2D8460B82E09C024FF0AC09F2FC9
S11310509660B92E06C028E030E005C020E130E0FB
S113106002C020E132E0F801B7FE07C0608171815F
S1131070828193810C5F1F4F06C06081718180E083
S113108090E00E5F1F4FA4010E944009A82EA818EB
S1131090FB2DFF77BF2EB6FE0BC02B2D2E7FA51484
S11310A050F4B4FE0AC0B2FC08C02B2D2E7E05C03D
S11310B07A2C2B2D03C07A2C01C0752C24FF0DC073
S11310C0FE01EA0DF11D8081803311F4297E09C0EF
S11310D022FF06C07394739404C0822F867809F0AB
S11310E0739423FD13C020FF06C05A2C731418F404
S11310F0530C5718732C731468F4B70180E290E012
S11311002C870E940E0973942C85F5CF731410F468
S1131110371801C0312C24FF12C0B70180E390E0DE
S11311202C870E940E092C8522FF17C021FF03C0C3
S113113088E590E002C088E790E0B7010CC0822FF8
S1131140867859F021FD02C080E201C08BE227FDC0
S11311508DE2B70190E00E940E09A51438F4B7019E
S113116080E390E00E940E095A94F7CFAA94F40108
S1131170EA0DF11D8081B70190E00E940E09A110D3
S1131180F5CF332009F451CEB70180E290E00E94FC
S11311900E093A94F6CFF7018681978102C08FEF4A
S11311A09FEF2C96E2E10C94BA090F931F93CF930F
S11311B0DF93869F8001879F100D969F100D112449
S11311C0C8010E943E05EC01009729F0A80160E0E7
S11311D070E00E94FC08CE01DF91CF911F910F9126
S11311E00895FC010590615070400110D8F7809576
S11311F090958E0F9F1F0895DC0101C06D9341509F
S11312005040E0F70895FC016150704001900110D6
S1131210D8F7809590958E0F9F1F08950F931F9375
S1131220CF93DF93182F092FEB018B8181FD03C02E
S11312308FEF9FEF20C082FF10C04E815F812C8111
S11312403D81421753077CF4E881F9819F012F5FA8
S11312503F4F39832883108306C0E885F985812FA1
S11312600995892B29F72E813F812F5F3F4F3F83BB
S11312702E83812F902FDF91CF911F910F9108958D
S1131280FA01AA27283051F1203181F1E8946F93B3
S11312906E7F6E5F7F4F8F4F9F4FAF4FB1E03ED059
S11312A0B4E03CD0670F781F891F9A1FA11D680FF7
S11312B0791F8A1F911DA11D6A0F711D811D911D2A
S11312C0A11D20D009F468943F912AE0269F11249F
S11312D03019305D3193DEF6CF010895462F477003
S11312E0405D4193B3E00FD0C9F7F6CF462F4F705E
S11312F0405D4A3318F0495D31FD4052419302D0BC
S1131300A9F7EACFB4E0A695979587957795679561
S1131310BA95C9F700976105710508959B01AC0161
S11313200A2E06945795479537952795BA95C9F788
S1131330620F731F841F951FA01D08952F923F9263
S11313404F925F926F927F928F929F92AF92BF92D1
S1131350CF92DF92EF92FF920F931F93CF93DF937D
S1131360CDB7DEB7CA1BDB0B0FB6F894DEBF0FBEDA
S1131370CDBF09942A88398848885F846E847D8427
S11313808C849B84AA84B984C884DF80EE80FD8029
S11313900C811B81AA81B981CE0FD11D0FB6F8949F
S11113A0DEBF0FBECDBFED010895F894FFCF60
S11313AE0000AA0220000800100012000000020033
S11313BE000000160300000000AEA1DA12C8A83F18
S11313CED5808150D9212002DB30AD00A4A6AF4DCB
S11313DE6F766520746865206A6F79737469636BC0
S11313EE20746F20616C6C2065787472656D652055
S11313FE706F696E74730A507265737320746865C6
S113140E206A6F79737469636B207768656E2079CF
S113141E6F7527726520646F6E652E00582D706F80
S113142E736974696F6E3A202534640909592D70F5
S113143E6F736974696F6E3A2025346409094C65BB
S113144E667420736C696465723A202534640909E4
S113145E20526967687420736C696465723A20253A
S113146E346409094C65667420627574746F6E3A3F
S113147E2025346409526967687420627574746F28
S113148E6E3A20253464096A6F79737469636B202C
S113149E627574746F6E3A202534640A004F757445
S11314AE206F662072616E676520696E204F4C4511
S11314BE445F706F7328290020457874726120662A
S11314CE6561747572657300202573004D61696ED4
S11314DE206D656E7500506C61792067616D6500D5
S11314EE4869676873636F72650053657474696ED7
S11314FE6773004272696768746E6573730053652F
S113150E7420666F6E74004B6579626F617264004D
S113151E4D616E64656C62726F7400506C617920FB
S113152E706F6E6700726F746174696E6720637595
S107153E62650000DE
S9030000FC
