:100000000C9438000C9455000C9455000C94550039
:100010000C9455000C9455000C9455000C9455000C
:100020000C9455000C9455000C9455000C945500FC
:100030000C9455000C9455000C9455000C945500EC
:100040000C9455000C9455000C9455000C945500DC
:100050000C9455000C9455000C9455000C945500CC
:100060000C9455000C9455000C9455000C945500BC
:1000700011241FBECFEFD4E0DEBFCDBF11E0A0E062
:10008000B1E0E8E7F5E002C005900D92A234B107B7
:10009000D9F721E0A2E4B1E001C01D92A235B20778
:1000A000E1F70E94CD000C94BA020C940000309845
:1000B0000895843060F48C5F809300142899FECFFB
:1000C000109243011092420180910014089580E043
:1000D0000895BF92CF92DF92EF92FF920F931F93FA
:1000E000CF93DF9310924401109245018FEF8093DC
:1000F00046018093470186E091E00E94430106E4B7
:1001000011E00F2EF4E4CF2EF1E0DF2EF02DC7E446
:10011000D1E00F2EF5E4EF2EF1E0FF2EF02D1EC002
:1001200080E090E00E945900B82E81E090E00E94AB
:100130005900F8019081B91610F4B08205C0F6019B
:1001400090819B1508F4B0829881891710F48883F8
:1001500005C0F7019081981708F48083B09BE0CF29
:10016000DF91CF911F910F91FF90EF90DF90CF9093
:10017000BF900895C29ABA9880B78B7F80BF0E94C3
:10018000690008958FE190E00E94EB000E94D60084
:100190000E9457000E94BA0008950E94C200B299BE
:1001A000FECF8EE291E00E944301F9CF85B78068CF
:1001B00085BF80B7806280BF80B78F7E80BF80B7E9
:1001C000877F80BF08955D9BFECF8CB908955F9BAC
:1001D000FECF8CB1089590BD89B988E18AB98EE8C7
:1001E00080BD67EE70E083EE90E00E94F800089515
:1001F0000F931F93CF93DF93EC018B01009731F4A2
:100200006115710519F480E090E038C06EE070E08F
:1002100081E090E00E947001FC010097A1F380E86A
:1002200083830115110571F01387028781E88383A9
:100230008091480190914901892B21F4F093490163
:10024000E09348012097C9F0D187C08783818260FD
:10025000838380914A0190914B01892B71F4F09333
:100260004B01E0934A0180914C0190914D01892B03
:1002700021F4F0934D01E0934C01CF01DF91CF9138
:100280001F910F9108950F931F93CF93DF93E091E8
:100290004A01F0914B01238121FF1BC0EC0100E0DA
:1002A00010E0899160914A0170914B01DB01189631
:1002B000ED91FC911997882331F00995892B89F3E9
:1002C0000FEF1FEFEECF8AE00995892B11F4C801DB
:1002D00002C08FEF9FEFDF91CF911F910F91089593
:1002E0000F931F93CF93DF93869F8001879F100DFD
:1002F000969F100D1124C8010E948C01EC010097FB
:1003000029F0A80160E070E00E94B302CE01DF9105
:10031000CF911F910F910895CF93DF938230910574
:1003200010F482E090E0E0915001F091510120E062
:1003300030E0A0E0B0E0309739F1408151814817BA
:100340005907B8F04817590771F4828193811097C3
:1003500029F013969C938E9312972CC09093510181
:100360008093500127C02115310531F04217530702
:1003700018F0A901DB0101C0EF019A01BD01DF0105
:100380000280F381E02DD7CF21153105F9F0281B2C
:10039000390B2430310580F48A819B816115710508
:1003A00021F0FB019383828304C0909351018093D9
:1003B0005001FE01329644C0FE01E20FF31F81930B
:1003C000919322503109398328833AC020914E01FC
:1003D00030914F01232B41F4209102013091030110
:1003E00030934F0120934E01209100013091010183
:1003F0002115310541F42DB73EB7409104015091CC
:100400000501241B350BE0914E01F0914F01E217DD
:10041000F307A0F42E1B3F0B2817390778F0AC0127
:100420004E5F5F4F2417350748F04E0F5F1F509304
:100430004F0140934E018193919302C0E0E0F0E0C0
:10044000CF01DF91CF910895CF93DF93009709F407
:1004500087C0FC01329713821282C0915001D09163
:100460005101209781F420813181280F391F80911B
:100470004E0190914F018217930779F5F0934F0148
:10048000E0934E016DC0DE0120E030E0AE17BF0703
:1004900050F412964D915C9113979D0141155105B1
:1004A00009F1DA01F3CFB383A28340815181840F34
:1004B000951F8A179B0771F48D919C911197840F5A
:1004C000951F02969183808312968D919C9113972C
:1004D000938382832115310529F4F0935101E09330
:1004E00050013EC0D9011396FC93EE9312974D91A3
:1004F0005D91A40FB51FEA17FB0779F48081918104
:10050000840F951F0296D90111969C938E93828138
:10051000938113969C938E931297E0E0F0E08A818A
:100520009B81009719F0FE01EC01F9CFCE010296F4
:1005300028813981820F931F20914E0130914F0104
:100540002817390769F4309729F410925101109255
:10055000500102C013821282D0934F01C0934E010A
:10056000DF91CF910895DC0101C06D93415050405F
:08057000E0F70895F894FFCFB5
:100578000000520120004D6F766520746865206A7E
:100588006F79737469636B20746F20616C6C20657C
:10059800787472656D6520706F696E7473006B6E28
:1005A800617070206572207472796B7420696E6E48
:0205B800000041
:00000001FF
